{
  "_format": "hh-sol-artifact-1",
  "contractName": "ClubRegistry",
  "sourceName": "src/registry/ClubRegistry.sol",
  "abi": [
    {
      "inputs": [],
      "stateMutability": "nonpayable",
      "type": "constructor"
    },
    {
      "anonymous": false,
      "inputs": [
        {
          "indexed": true,
          "internalType": "uint256",
          "name": "activityId",
          "type": "uint256"
        },
        {
          "indexed": true,
          "internalType": "uint256",
          "name": "clubId",
          "type": "uint256"
        },
        {
          "indexed": false,
          "internalType": "enum Structs.ActivityType",
          "name": "activityType",
          "type": "uint8"
        },
        {
          "indexed": false,
          "internalType": "string",
          "name": "species",
          "type": "string"
        },
        {
          "indexed": false,
          "internalType": "uint32",
          "name": "count",
          "type": "uint32"
        },
        {
          "indexed": false,
          "internalType": "string",
          "name": "locationCode",
          "type": "string"
        },
        {
          "indexed": false,
          "internalType": "uint256",
          "name": "pointsAwarded",
          "type": "uint256"
        },
        {
          "indexed": false,
          "internalType": "string",
          "name": "metadataURI",
          "type": "string"
        }
      ],
      "name": "ActivityRecorded",
      "type": "event"
    },
    {
      "anonymous": false,
      "inputs": [
        {
          "indexed": true,
          "internalType": "uint256",
          "name": "activityId",
          "type": "uint256"
        },
        {
          "indexed": true,
          "internalType": "address",
          "name": "verifier",
          "type": "address"
        },
        {
          "indexed": false,
          "internalType": "bool",
          "name": "approved",
          "type": "bool"
        },
        {
          "indexed": false,
          "internalType": "string",
          "name": "comments",
          "type": "string"
        }
      ],
      "name": "ActivityVerified",
      "type": "event"
    },
    {
      "anonymous": false,
      "inputs": [
        {
          "indexed": true,
          "internalType": "uint256",
          "name": "clubId",
          "type": "uint256"
        },
        {
          "indexed": false,
          "internalType": "uint256",
          "name": "points",
          "type": "uint256"
        },
        {
          "indexed": false,
          "internalType": "string",
          "name": "reason",
          "type": "string"
        }
      ],
      "name": "BonusPointsAwarded",
      "type": "event"
    },
    {
      "anonymous": false,
      "inputs": [
        {
          "indexed": true,
          "internalType": "uint256",
          "name": "clubId",
          "type": "uint256"
        },
        {
          "indexed": true,
          "internalType": "address",
          "name": "wallet",
          "type": "address"
        },
        {
          "indexed": false,
          "internalType": "string",
          "name": "name",
          "type": "string"
        },
        {
          "indexed": false,
          "internalType": "string",
          "name": "schoolName",
          "type": "string"
        },
        {
          "indexed": false,
          "internalType": "string",
          "name": "county",
          "type": "string"
        },
        {
          "indexed": false,
          "internalType": "string",
          "name": "region",
          "type": "string"
        }
      ],
      "name": "ClubRegistered",
      "type": "event"
    },
    {
      "anonymous": false,
      "inputs": [
        {
          "indexed": true,
          "internalType": "uint256",
          "name": "clubId",
          "type": "uint256"
        },
        {
          "indexed": false,
          "internalType": "bool",
          "name": "active",
          "type": "bool"
        }
      ],
      "name": "ClubStatusChanged",
      "type": "event"
    },
    {
      "anonymous": false,
      "inputs": [
        {
          "indexed": true,
          "internalType": "uint256",
          "name": "clubId",
          "type": "uint256"
        },
        {
          "indexed": false,
          "internalType": "string",
          "name": "newName",
          "type": "string"
        },
        {
          "indexed": false,
          "internalType": "bool",
          "name": "active",
          "type": "bool"
        }
      ],
      "name": "ClubUpdated",
      "type": "event"
    },
    {
      "anonymous": false,
      "inputs": [
        {
          "indexed": true,
          "internalType": "string",
          "name": "locationCode",
          "type": "string"
        },
        {
          "indexed": false,
          "internalType": "uint256",
          "name": "totalTrees",
          "type": "uint256"
        },
        {
          "indexed": false,
          "internalType": "uint256",
          "name": "totalActivities",
          "type": "uint256"
        }
      ],
      "name": "LocationUpdated",
      "type": "event"
    },
    {
      "anonymous": false,
      "inputs": [
        {
          "indexed": true,
          "internalType": "uint256",
          "name": "clubId",
          "type": "uint256"
        },
        {
          "indexed": false,
          "internalType": "uint256",
          "name": "points",
          "type": "uint256"
        },
        {
          "indexed": false,
          "internalType": "string",
          "name": "reason",
          "type": "string"
        }
      ],
      "name": "PointsAwarded",
      "type": "event"
    },
    {
      "inputs": [
        {
          "internalType": "address",
          "name": "_verifier",
          "type": "address"
        }
      ],
      "name": "addVerifier",
      "outputs": [],
      "stateMutability": "nonpayable",
      "type": "function"
    },
    {
      "inputs": [
        {
          "internalType": "address",
          "name": "",
          "type": "address"
        }
      ],
      "name": "clubIdByWallet",
      "outputs": [
        {
          "internalType": "uint256",
          "name": "",
          "type": "uint256"
        }
      ],
      "stateMutability": "view",
      "type": "function"
    },
    {
      "inputs": [
        {
          "internalType": "uint256",
          "name": "",
          "type": "uint256"
        }
      ],
      "name": "clubs",
      "outputs": [
        {
          "internalType": "uint256",
          "name": "id",
          "type": "uint256"
        },
        {
          "internalType": "address",
          "name": "wallet",
          "type": "address"
        },
        {
          "internalType": "string",
          "name": "name",
          "type": "string"
        },
        {
          "internalType": "string",
          "name": "schoolName",
          "type": "string"
        },
        {
          "internalType": "string",
          "name": "county",
          "type": "string"
        },
        {
          "internalType": "string",
          "name": "region",
          "type": "string"
        },
        {
          "internalType": "uint256",
          "name": "totalPoints",
          "type": "uint256"
        },
        {
          "internalType": "uint256",
          "name": "totalTrees",
          "type": "uint256"
        },
        {
          "internalType": "bool",
          "name": "active",
          "type": "bool"
        },
        {
          "internalType": "uint64",
          "name": "registrationDate",
          "type": "uint64"
        }
      ],
      "stateMutability": "view",
      "type": "function"
    },
    {
      "inputs": [
        {
          "internalType": "string",
          "name": "",
          "type": "string"
        }
      ],
      "name": "countyClubCount",
      "outputs": [
        {
          "internalType": "uint256",
          "name": "",
          "type": "uint256"
        }
      ],
      "stateMutability": "view",
      "type": "function"
    },
    {
      "inputs": [
        {
          "internalType": "uint256",
          "name": "_start",
          "type": "uint256"
        },
        {
          "internalType": "uint256",
          "name": "_limit",
          "type": "uint256"
        }
      ],
      "name": "getClubs",
      "outputs": [
        {
          "components": [
            {
              "internalType": "uint256",
              "name": "id",
              "type": "uint256"
            },
            {
              "internalType": "address",
              "name": "wallet",
              "type": "address"
            },
            {
              "internalType": "string",
              "name": "name",
              "type": "string"
            },
            {
              "internalType": "string",
              "name": "schoolName",
              "type": "string"
            },
            {
              "internalType": "string",
              "name": "county",
              "type": "string"
            },
            {
              "internalType": "string",
              "name": "region",
              "type": "string"
            },
            {
              "internalType": "uint256",
              "name": "totalPoints",
              "type": "uint256"
            },
            {
              "internalType": "uint256",
              "name": "totalTrees",
              "type": "uint256"
            },
            {
              "internalType": "bool",
              "name": "active",
              "type": "bool"
            },
            {
              "internalType": "uint64",
              "name": "registrationDate",
              "type": "uint64"
            }
          ],
          "internalType": "struct Structs.Club[]",
          "name": "",
          "type": "tuple[]"
        }
      ],
      "stateMutability": "view",
      "type": "function"
    },
    {
      "inputs": [
        {
          "internalType": "string",
          "name": "_county",
          "type": "string"
        }
      ],
      "name": "getCountyStats",
      "outputs": [
        {
          "internalType": "uint256",
          "name": "",
          "type": "uint256"
        }
      ],
      "stateMutability": "view",
      "type": "function"
    },
    {
      "inputs": [],
      "name": "nextClubId",
      "outputs": [
        {
          "internalType": "uint256",
          "name": "",
          "type": "uint256"
        }
      ],
      "stateMutability": "view",
      "type": "function"
    },
    {
      "inputs": [],
      "name": "owner",
      "outputs": [
        {
          "internalType": "address",
          "name": "",
          "type": "address"
        }
      ],
      "stateMutability": "view",
      "type": "function"
    },
    {
      "inputs": [
        {
          "internalType": "address",
          "name": "_wallet",
          "type": "address"
        },
        {
          "internalType": "string",
          "name": "_name",
          "type": "string"
        },
        {
          "internalType": "string",
          "name": "_schoolName",
          "type": "string"
        },
        {
          "internalType": "string",
          "name": "_county",
          "type": "string"
        },
        {
          "internalType": "string",
          "name": "_region",
          "type": "string"
        }
      ],
      "name": "registerClub",
      "outputs": [
        {
          "internalType": "uint256",
          "name": "",
          "type": "uint256"
        }
      ],
      "stateMutability": "nonpayable",
      "type": "function"
    },
    {
      "inputs": [
        {
          "internalType": "string",
          "name": "",
          "type": "string"
        }
      ],
      "name": "registeredSchools",
      "outputs": [
        {
          "internalType": "bool",
          "name": "",
          "type": "bool"
        }
      ],
      "stateMutability": "view",
      "type": "function"
    },
    {
      "inputs": [
        {
          "internalType": "address",
          "name": "_verifier",
          "type": "address"
        }
      ],
      "name": "removeVerifier",
      "outputs": [],
      "stateMutability": "nonpayable",
      "type": "function"
    },
    {
      "inputs": [
        {
          "internalType": "address",
          "name": "_newOwner",
          "type": "address"
        }
      ],
      "name": "transferOwnership",
      "outputs": [],
      "stateMutability": "nonpayable",
      "type": "function"
    },
    {
      "inputs": [
        {
          "internalType": "uint256",
          "name": "_clubId",
          "type": "uint256"
        },
        {
          "internalType": "string",
          "name": "_newName",
          "type": "string"
        },
        {
          "internalType": "bool",
          "name": "_active",
          "type": "bool"
        }
      ],
      "name": "updateClub",
      "outputs": [],
      "stateMutability": "nonpayable",
      "type": "function"
    },
    {
      "inputs": [
        {
          "internalType": "address",
          "name": "",
          "type": "address"
        }
      ],
      "name": "verifiers",
      "outputs": [
        {
          "internalType": "bool",
          "name": "",
          "type": "bool"
        }
      ],
      "stateMutability": "view",
      "type": "function"
    }
  ],
  "bytecode": "0x6080806040523461002c5760018055600080546001600160a01b0319163317905561148490816100328239f35b600080fdfe60c0604052600436101561001257600080fd5b60003560e01c806314524b421461090d578063226fd922146108e657806347ba097f146108ac57806354ca56da1461085b57806357d531d51461058b5780636c8244871461054c5780638da5cb5b146105235780639000b3d6146104d457806390a87806146102dc5780639cc009c1146101e4578063bba0cfff146101a5578063ca2dfd0a14610159578063da5a78981461013b5763f2fde38b146100b657600080fd5b34610136576020366003190112610136576100cf611118565b600054906001600160a01b03906100e93383851614611344565b16908115610101576001600160a01b03191617600055005b60405162461bcd60e51b815260206004820152600d60248201526c24b73b30b634b21037bbb732b960991b6044820152606490fd5b600080fd5b34610136576000366003190112610136576020600154604051908152f35b3461013657602036600319011261013657610172611118565b6000546001600160a01b03919061018c9083163314611344565b166000908152600660205260409020805460ff19169055005b3461013657602060ff6101ce826101bb366111de565b816040519382858094519384920161121c565b8101600481520301902054166040519015158152f35b34610136576020366003190112610136576004356000526002602052602060406000208054906001600160401b0360018060a01b0360018301541661022b6002840161129e565b926102b761023b6003830161129e565b6102a961024a6004850161129e565b61029b6102596005870161129e565b9361028d60068801549a600860078a0154990154996040519e8f9e8f908152015260408d61014091829101528d019061123f565b908b820360608d015261123f565b9089820360808b015261123f565b9087820360a089015261123f565b9360c086015260e085015260ff8116151561010085015260081c166101208301520390f35b34610136576060366003190112610136576001600160401b036004356024358281116101365761031090369060040161112e565b6044358015158082036101365761033260018060a01b03600054163314611344565b8460005260209160028352604060002080541561049e576002810197851161048857610368856103628a54611264565b8a61138b565b600097601f86116001146103fb576103d09291600891877f62551f098dc964c743ead0abcbceb212117cb9f8215eff3a2bf343aff8f4cf629a9b6000916103f0575b508860011b906000198a60031b1c19161790555b019060ff801983541691151516179055565b6103e76040519485946040865260408601916113df565b918301520390a2005b90508901358c6103aa565b601f19861681600052856000209060005b8181106104715750916103d09493917f62551f098dc964c743ead0abcbceb212117cb9f8215eff3a2bf343aff8f4cf629a9b8960089510610457575b5050600188811b0190556103be565b8a013560001960038b901b60f8161c191690558b80610448565b898c013583559a87019a600190920191870161040c565b634e487b7160e01b600052604160045260246000fd5b60405162461bcd60e51b815260048101859052600e60248201526d10db1d58881b9bdd08199bdd5b9960921b6044820152606490fd5b34610136576020366003190112610136576104ed611118565b6000546001600160a01b0391906105079083163314611344565b166000908152600660205260409020805460ff19166001179055005b34610136576000366003190112610136576000546040516001600160a01b039091168152602090f35b34610136576020366003190112610136576001600160a01b0361056d611118565b166000526006602052602060ff604060002054166040519015158152f35b34610136576040366003190112610136576004356024358101908181116108455781600192835480911161083d575b506105c58282611400565b916105cf8361140d565b926105dd6040519485611177565b8084526105ec601f199161140d565b0160005b8181106107e2575050805b828110610709578385604051918291602090818401828552835180915260408501928060408360051b8801019501936000905b83821061063b5787870388f35b918496819592949698508190603f198b82030185528951908151815260018060a01b038383015116838201526106c26106af61069c610689604086015161014080604088015286019061123f565b606080870151908683039087015261123f565b608080860151908583039086015261123f565b60a080850151908483039085015261123f565b9160c0808201519083015260e081015160e0830152610100808201511515908301526001600160401b0361012080920151169101529801920192018796959391949261062e565b806107dd916000526107d7600260208181526001600160401b03604060002061075f6107358988611400565b94604051946107438661115b565b835486528d8401546001600160a01b031690860152820161129e565b60408401526107706003820161129e565b60608401526107816004820161129e565b60808401526107926005820161129e565b60a0840152600681015460c0840152600781015460e08401526008809101549060ff821615156101008501521c166101208201526107d08289611424565b5286611424565b5061137c565b6105fb565b6020906040516107f18161115b565b60008152826000818301526060806040840152808084015280608084015260a0830152600060c0830152600060e0830152600061010083015260006101208301528288010152016105f0565b9050836105ba565b634e487b7160e01b600052601160045260246000fd5b34610136576020366003190112610136576004356001600160401b03811161013657602061088e8192369060040161112e565b91908260405193849283378101600581520301902054604051908152f35b34610136576020366003190112610136576001600160a01b036108cd611118565b1660005260036020526020604060002054604051908152f35b346101365760206108fa816101bb366111de565b8101600581520301902054604051908152f35b346101365760a036600319011261013657610926611118565b6024356001600160401b0381116101365761094590369060040161112e565b6044929192356001600160401b0381116101365761096790369060040161112e565b9390916064356001600160401b0381116101365761098990369060040161112e565b94906084356001600160401b038111610136576109aa90369060040161112e565b9690956109c260018060a01b03600054163314611344565b6001600160a01b038416156110e2576001600160a01b03841660009081526003602052604090205461109d5760ff6040518a8382376020818c810160048152030190205416611058578415611023578115610fec57610a266001548060805261137c565b60015560405198610a368a61115b565b6080518a526001600160a01b03851660208b0152610a55368789611198565b60408b0152610a65368284611198565b60608b0152610a75368486611198565b60808b0152610a85368a8a611198565b60a08b0152600060c08b0152600060e08b015260016101008b01526001600160401b0342166101208b0152608051600052600260205260406000209980518b5560018b0160018060a01b036020830151166bffffffffffffffffffffffff60a01b82541617905560408101518051906001600160401b038211610488578c8291610b1f83610b166002850154611264565b6002850161138b565b602091601f8411600114610f7a5750600092610f6f575b50508160011b916000199060031b1c19161760028c01555b60608101518051906001600160401b038211610488578c8291610b8183610b786003850154611264565b6003850161138b565b602091601f8411600114610efd5750600092610ef2575b50508160011b916000199060031b1c19161760038c01555b608081015180518060a0526001600160401b03811161048857610be3908d6004610bdc81830154611264565b910161138b565b60a0519060208d6001601f851114610e7f575060a051925060009183610e74575b50508160011b916000199060031b1c19161760048c01555b60a08101518051906001600160401b03821161048857610c45828e6005610bdc81830154611264565b602090601f8311600114610dcb579261012060087fdb6287da9322f01813d2d3155a4ffef04aa34919204450efc1c06efecb39c30b9d9e9f85610db19c9b9996610d969b9996610d8899600092610dc0575b50508160011b916000199060031b1c19161760058201555b60c0840151600682015560e084015160078201550191610ce26101008201511515849060ff801983541691151516179055565b0151815468ffffffffffffffff00191660089190911b68ffffffffffffffff00161790556001600160a01b038716600090815260036020526080516040918290205551818382376020818381016004815203019020600160ff19825416179055604051848682376020818681016005815203019020610d61815461137c565b9055610d7a6040519a8b9a60808c5260808c01916113df565b9189830360208b01526113df565b9186830360408801526113df565b90838203606085015260018060a01b031696608051966113df565b0390a360206040516080518152f35b015190503880610c97565b9060058e0160005260206000209160005b601f1985168110610e5c575060087fdb6287da9322f01813d2d3155a4ffef04aa34919204450efc1c06efecb39c30b9d9e9f600186610d969b9996610d889996610db19f9e9c999661012097601f19811610610e43575b505050811b016005820155610caf565b015160001960f88460031b161c19169055388080610e33565b91926020600181928685015181550194019201610ddc565b015190508d80610c04565b600490939293016000526020600020906000935b601f1984168510610ed7576001945083601f19811610610ebe575b505050811b0160048c0155610c1c565b015160001960f88460031b161c191690558d8080610eae565b81810151835560209485019460019093019290910190610e93565b015190508d80610b98565b6003919450016000526020600020906000935b601f1984168510610f54576001945083601f19811610610f3b575b505050811b0160038c0155610bb0565b015160001960f88460031b161c191690558d8080610f2b565b81810151835560209485019460019093019290910190610f10565b015190508d80610b36565b6002919450016000526020600020906000935b601f1984168510610fd1576001945083601f19811610610fb8575b505050811b0160028c0155610b4e565b015160001960f88460031b161c191690558d8080610fa8565b81810151835560209485019460019093019290910190610f8d565b60405162461bcd60e51b815260206004820152600f60248201526e10dbdd5b9d1e481c995c5d5a5c9959608a1b6044820152606490fd5b60405162461bcd60e51b815260206004820152600d60248201526c13985b59481c995c5d5a5c9959609a1b6044820152606490fd5b60405162461bcd60e51b815260206004820152601960248201527f5363686f6f6c20616c72656164792072656769737465726564000000000000006044820152606490fd5b60405162461bcd60e51b815260206004820152601960248201527f57616c6c657420616c72656164792072656769737465726564000000000000006044820152606490fd5b60405162461bcd60e51b815260206004820152600e60248201526d125b9d985b1a59081dd85b1b195d60921b6044820152606490fd5b600435906001600160a01b038216820361013657565b9181601f84011215610136578235916001600160401b038311610136576020838186019501011161013657565b61014081019081106001600160401b0382111761048857604052565b90601f801991011681019081106001600160401b0382111761048857604052565b9291926001600160401b03821161048857604051916111c1601f8201601f191660200184611177565b829481845281830111610136578281602093846000960137010152565b602060031982011261013657600435906001600160401b03821161013657806023830112156101365781602461121993600401359101611198565b90565b60005b83811061122f5750506000910152565b818101518382015260200161121f565b906020916112588151809281855285808601910161121c565b601f01601f1916010190565b90600182811c92168015611294575b602083101461127e57565b634e487b7160e01b600052602260045260246000fd5b91607f1691611273565b90604051918260008254926112b284611264565b90818452600194858116908160001461132157506001146112de575b50506112dc92500383611177565b565b9093915060005260209081600020936000915b8183106113095750506112dc935082010138806112ce565b855488840185015294850194879450918301916112f1565b9150506112dc94506020925060ff191682840152151560051b82010138806112ce565b1561134b57565b60405162461bcd60e51b81526020600482015260096024820152682737ba1037bbb732b960b91b6044820152606490fd5b60001981146108455760010190565b90601f811161139957505050565b600091825260208220906020601f850160051c830194106113d5575b601f0160051c01915b8281106113ca57505050565b8181556001016113be565b90925082906113b5565b908060209392818452848401376000828201840152601f01601f1916010190565b9190820391821161084557565b6001600160401b0381116104885760051b60200190565b80518210156114385760209160051b010190565b634e487b7160e01b600052603260045260246000fdfea2646970667358221220191af7142bd867d4a544a06cc2f8f297631258327c2e9a2cdedf2d95121dd9e264736f6c63430008140033",
  "linkReferences": {},
  "deployedLinkReferences": {}
}