{"src/registry/VerifierRegistry.sol":{"VerifierRegistry":{"abi":[{"inputs":[],"stateMutability":"nonpayable","type":"constructor"},{"anonymous":false,"inputs":[{"indexed":true,"internalType":"address","name":"verifier","type":"address"},{"indexed":false,"internalType":"string","name":"organization","type":"string"},{"indexed":false,"internalType":"string","name":"role","type":"string"}],"name":"VerifierAdded","type":"event"},{"anonymous":false,"inputs":[{"indexed":true,"internalType":"address","name":"verifier","type":"address"}],"name":"VerifierRemoved","type":"event"},{"anonymous":false,"inputs":[{"indexed":true,"internalType":"address","name":"verifier","type":"address"},{"indexed":false,"internalType":"bool","name":"active","type":"bool"}],"name":"VerifierUpdated","type":"event"},{"inputs":[{"internalType":"address","name":"_verifier","type":"address"},{"internalType":"string","name":"_organization","type":"string"},{"internalType":"string","name":"_role","type":"string"}],"name":"addVerifier","outputs":[],"stateMutability":"nonpayable","type":"function"},{"inputs":[],"name":"getActiveVerifiers","outputs":[{"internalType":"address[]","name":"","type":"address[]"}],"stateMutability":"view","type":"function"},{"inputs":[{"internalType":"address","name":"_verifier","type":"address"}],"name":"isActiveVerifier","outputs":[{"internalType":"bool","name":"","type":"bool"}],"stateMutability":"view","type":"function"},{"inputs":[],"name":"owner","outputs":[{"internalType":"address","name":"","type":"address"}],"stateMutability":"view","type":"function"},{"inputs":[{"internalType":"address","name":"_verifier","type":"address"}],"name":"recordVerification","outputs":[],"stateMutability":"nonpayable","type":"function"},{"inputs":[{"internalType":"address","name":"_verifier","type":"address"}],"name":"removeVerifier","outputs":[],"stateMutability":"nonpayable","type":"function"},{"inputs":[{"internalType":"address","name":"_verifier","type":"address"},{"internalType":"bool","name":"_active","type":"bool"}],"name":"updateVerifierStatus","outputs":[],"stateMutability":"nonpayable","type":"function"},{"inputs":[{"internalType":"uint256","name":"","type":"uint256"}],"name":"verifierList","outputs":[{"internalType":"address","name":"","type":"address"}],"stateMutability":"view","type":"function"},{"inputs":[{"internalType":"address","name":"","type":"address"}],"name":"verifiers","outputs":[{"internalType":"address","name":"wallet","type":"address"},{"internalType":"string","name":"organization","type":"string"},{"internalType":"string","name":"role","type":"string"},{"internalType":"bool","name":"active","type":"bool"},{"internalType":"uint256","name":"verificationCount","type":"uint256"},{"internalType":"uint256","name":"addedDate","type":"uint256"}],"stateMutability":"view","type":"function"}],"evm":{"bytecode":{"linkReferences":{},"object":"6080806040523461002857600080546001600160a01b03191633179055610cd8908161002e8239f35b600080fdfe6080604052600436101561001257600080fd5b60003560e01c8063043157ae1461093057806357762ddd146108ee5780636b9e21fa1461040d5780636baec215146102815780636c824487146101dd578063708d45e714610180578063770d6bc11461013e5780638da5cb5b146101155763ca2dfd0a1461007f57600080fd5b34610110576020366003190112610110576100986109c3565b6000546001600160a01b0391906100b29083163314610b80565b168060005260016020526100d060ff60036040600020015416610c20565b806000526001602052600360406000200160ff1981541690557f44a3cd4eb5cc5748f6169df057b1cb2ae4c383e87cd94663c430e095d4cba424600080a2005b600080fd5b34610110576000366003190112610110576000546040516001600160a01b039091168152602090f35b34610110576020366003190112610110576001600160a01b0361015f6109c3565b166000526001602052602060ff600360406000200154166040519015158152f35b34610110576020366003190112610110576001600160a01b036101a16109c3565b168060005260016020526101bf60ff60036040600020015416610c20565b600052600160205260046040600020016101d98154610c65565b9055005b34610110576020366003190112610110576001600160a01b03806101ff6109c3565b16600052600160205260406000209081541661021d60018301610a9a565b9161022a60028201610a9a565b60ff6003830154169161026b600560048301549201549261025d604051978897885260c0602089015260c0880190610b40565b908682036040880152610b40565b9215156060850152608084015260a08301520390f35b34610110576000366003190112610110576002546000805b8281106103b857506102c36102ad82610c8a565b916102bb6040519384610a78565b808352610c8a565b6020928383019291601f19013684376000805b82821061032a5750505090604051928392818401908285525180915260408401929160005b82811061030a57505050500390f35b83516001600160a01b0316855286955093810193928101926001016102fb565b610333826109d9565b60018060a01b03809254600392831b1c166000526001885260ff81604060002001541661036d575b50509061036790610c65565b906102d6565b610376846109d9565b9054911b1c1684518210156103a2578161039b91886103679460051b88010152610c65565b908761035b565b634e487b7160e01b600052603260045260246000fd5b60ff6103c3826109d9565b9054600391821b1c6001600160a01b031660009081526001602052604090200154166103f8575b6103f390610c65565b610299565b906104056103f391610c65565b9190506103ea565b34610110576060366003190112610110576104266109c3565b60243567ffffffffffffffff811161011057610446903690600401610a10565b9060443567ffffffffffffffff811161011057610467903690600401610a10565b92909361047f60018060a01b03600054163314610b80565b6001600160a01b038116156108b7576001600160a01b03811660009081526001602052604090206003015460ff1661087d5760405160c0810181811067ffffffffffffffff8211176106d0576040526001600160a01b03821681526104e5368486610bb8565b90602081019182526104f8368789610bb8565b604082015260016060820152600060808201524260a082015260018060a01b038316600052600160205260406000209160018060a01b038251166bffffffffffffffffffffffff60a01b8454161783555180519067ffffffffffffffff82116106d057819061056a6001860154610a3e565b601f811161082a575b50602090601f83116001146107b8576000926107ad575b50508160011b916000199060031b1c19161760018301555b604081015180519067ffffffffffffffff82116106d0576105c66002850154610a3e565b601f8111610766575b50602090601f83116001146106f15791806005949260a0946000926106e6575b50508160011b916000199060031b1c19161760028501555b61062660608201511515600386019060ff801983541691151516179055565b60808101516004850155015191015560025490680100000000000000008210156106d0577f036221ad1fea0abf926934dfcc44e9de63d3e629faeb0a4fe6930afb0c320fbd9461067f8360016106cb95016002556109d9565b81546001600160a01b0385811660039390931b92831b921b1916179055604080518181529586956106b292870191610bff565b84810360208601526001600160a01b0390921696610bff565b0390a2005b634e487b7160e01b600052604160045260246000fd5b015190508b806105ef565b906002850160005260206000209160005b601f198516811061074e5750926005949260019260a09583601f19811610610735575b505050811b016002850155610607565b015160001960f88460031b161c191690558b8080610725565b91926020600181928685015181550194019201610702565b600285016000526020600020601f840160051c8101602085106107a6575b601f830160051c8201811061079a5750506105cf565b60008155600101610784565b5080610784565b01519050898061058a565b9250600185016000526020600020906000935b601f198416851061080f576001945083601f198116106107f6575b505050811b0160018301556105a2565b015160001960f88460031b161c191690558980806107e6565b818101518355602094850194600190930192909101906107cb565b909150600185016000526020600020601f840160051c810160208510610876575b90849392915b601f830160051c82018110610867575050610573565b60008155859450600101610851565b508061084b565b60405162461bcd60e51b815260206004820152601260248201527120b63932b0b23c9030903b32b934b334b2b960711b6044820152606490fd5b60405162461bcd60e51b815260206004820152600f60248201526e496e76616c6964206164647265737360881b6044820152606490fd5b3461011057602036600319011261011057600435600254811015610110576109176020916109d9565b905460405160039290921b1c6001600160a01b03168152f35b34610110576040366003190112610110576109496109c3565b6024359081151590818303610110577fba5f7031ad83095931ee4b5138591db2dc3cfc56178367622fa4b05c2efad231916109ba60209260018060a01b039061099782600054163314610b80565b1694856000526001845260036040600020019060ff801983541691151516179055565b604051908152a2005b600435906001600160a01b038216820361011057565b6002548110156103a25760026000527f405787fa12a823e0f2b7631cc41b3ba8828b3321ca811111fa75cd3aa3bb5ace0190600090565b9181601f840112156101105782359167ffffffffffffffff8311610110576020838186019501011161011057565b90600182811c92168015610a6e575b6020831014610a5857565b634e487b7160e01b600052602260045260246000fd5b91607f1691610a4d565b90601f8019910116810190811067ffffffffffffffff8211176106d057604052565b9060405191826000825492610aae84610a3e565b908184526001948581169081600014610b1d5750600114610ada575b5050610ad892500383610a78565b565b9093915060005260209081600020936000915b818310610b05575050610ad893508201013880610aca565b85548884018501529485019487945091830191610aed565b915050610ad894506020925060ff191682840152151560051b8201013880610aca565b919082519283825260005b848110610b6c575050826000602080949584010152601f8019910116010190565b602081830181015184830182015201610b4b565b15610b8757565b60405162461bcd60e51b81526020600482015260096024820152682737ba1037bbb732b960b91b6044820152606490fd5b92919267ffffffffffffffff82116106d05760405191610be2601f8201601f191660200184610a78565b829481845281830111610110578281602093846000960137010152565b908060209392818452848401376000828201840152601f01601f1916010190565b15610c2757565b60405162461bcd60e51b81526020600482015260166024820152752737ba1030b71030b1ba34bb32903b32b934b334b2b960511b6044820152606490fd5b6000198114610c745760010190565b634e487b7160e01b600052601160045260246000fd5b67ffffffffffffffff81116106d05760051b6020019056fea264697066735822122080dd4c1e27f4ca5d52166f1b91536602e4cf0765c1350346815b0b76d3adc00664736f6c63430008140033","opcodes":"PUSH1 0x80 DUP1 PUSH1 0x40 MSTORE CALLVALUE PUSH2 0x28 JUMPI PUSH1 0x0 DUP1 SLOAD PUSH1 0x1 PUSH1 0x1 PUSH1 0xA0 SHL SUB NOT AND CALLER OR SWAP1 SSTORE PUSH2 0xCD8 SWAP1 DUP2 PUSH2 0x2E DUP3 CODECOPY RETURN JUMPDEST PUSH1 0x0 DUP1 REVERT INVALID PUSH1 0x80 PUSH1 0x40 MSTORE PUSH1 0x4 CALLDATASIZE LT ISZERO PUSH2 0x12 JUMPI PUSH1 0x0 DUP1 REVERT JUMPDEST PUSH1 0x0 CALLDATALOAD PUSH1 0xE0 SHR DUP1 PUSH4 0x43157AE EQ PUSH2 0x930 JUMPI DUP1 PUSH4 0x57762DDD EQ PUSH2 0x8EE JUMPI DUP1 PUSH4 0x6B9E21FA EQ PUSH2 0x40D JUMPI DUP1 PUSH4 0x6BAEC215 EQ PUSH2 0x281 JUMPI DUP1 PUSH4 0x6C824487 EQ PUSH2 0x1DD JUMPI DUP1 PUSH4 0x708D45E7 EQ PUSH2 0x180 JUMPI DUP1 PUSH4 0x770D6BC1 EQ PUSH2 0x13E JUMPI DUP1 PUSH4 0x8DA5CB5B EQ PUSH2 0x115 JUMPI PUSH4 0xCA2DFD0A EQ PUSH2 0x7F JUMPI PUSH1 0x0 DUP1 REVERT JUMPDEST CALLVALUE PUSH2 0x110 JUMPI PUSH1 0x20 CALLDATASIZE PUSH1 0x3 NOT ADD SLT PUSH2 0x110 JUMPI PUSH2 0x98 PUSH2 0x9C3 JUMP JUMPDEST PUSH1 0x0 SLOAD PUSH1 0x1 PUSH1 0x1 PUSH1 0xA0 SHL SUB SWAP2 SWAP1 PUSH2 0xB2 SWAP1 DUP4 AND CALLER EQ PUSH2 0xB80 JUMP JUMPDEST AND DUP1 PUSH1 0x0 MSTORE PUSH1 0x1 PUSH1 0x20 MSTORE PUSH2 0xD0 PUSH1 0xFF PUSH1 0x3 PUSH1 0x40 PUSH1 0x0 KECCAK256 ADD SLOAD AND PUSH2 0xC20 JUMP JUMPDEST DUP1 PUSH1 0x0 MSTORE PUSH1 0x1 PUSH1 0x20 MSTORE PUSH1 0x3 PUSH1 0x40 PUSH1 0x0 KECCAK256 ADD PUSH1 0xFF NOT DUP2 SLOAD AND SWAP1 SSTORE PUSH32 0x44A3CD4EB5CC5748F6169DF057B1CB2AE4C383E87CD94663C430E095D4CBA424 PUSH1 0x0 DUP1 LOG2 STOP JUMPDEST PUSH1 0x0 DUP1 REVERT JUMPDEST CALLVALUE PUSH2 0x110 JUMPI PUSH1 0x0 CALLDATASIZE PUSH1 0x3 NOT ADD SLT PUSH2 0x110 JUMPI PUSH1 0x0 SLOAD PUSH1 0x40 MLOAD PUSH1 0x1 PUSH1 0x1 PUSH1 0xA0 SHL SUB SWAP1 SWAP2 AND DUP2 MSTORE PUSH1 0x20 SWAP1 RETURN JUMPDEST CALLVALUE PUSH2 0x110 JUMPI PUSH1 0x20 CALLDATASIZE PUSH1 0x3 NOT ADD SLT PUSH2 0x110 JUMPI PUSH1 0x1 PUSH1 0x1 PUSH1 0xA0 SHL SUB PUSH2 0x15F PUSH2 0x9C3 JUMP JUMPDEST AND PUSH1 0x0 MSTORE PUSH1 0x1 PUSH1 0x20 MSTORE PUSH1 0x20 PUSH1 0xFF PUSH1 0x3 PUSH1 0x40 PUSH1 0x0 KECCAK256 ADD SLOAD AND PUSH1 0x40 MLOAD SWAP1 ISZERO ISZERO DUP2 MSTORE RETURN JUMPDEST CALLVALUE PUSH2 0x110 JUMPI PUSH1 0x20 CALLDATASIZE PUSH1 0x3 NOT ADD SLT PUSH2 0x110 JUMPI PUSH1 0x1 PUSH1 0x1 PUSH1 0xA0 SHL SUB PUSH2 0x1A1 PUSH2 0x9C3 JUMP JUMPDEST AND DUP1 PUSH1 0x0 MSTORE PUSH1 0x1 PUSH1 0x20 MSTORE PUSH2 0x1BF PUSH1 0xFF PUSH1 0x3 PUSH1 0x40 PUSH1 0x0 KECCAK256 ADD SLOAD AND PUSH2 0xC20 JUMP JUMPDEST PUSH1 0x0 MSTORE PUSH1 0x1 PUSH1 0x20 MSTORE PUSH1 0x4 PUSH1 0x40 PUSH1 0x0 KECCAK256 ADD PUSH2 0x1D9 DUP2 SLOAD PUSH2 0xC65 JUMP JUMPDEST SWAP1 SSTORE STOP JUMPDEST CALLVALUE PUSH2 0x110 JUMPI PUSH1 0x20 CALLDATASIZE PUSH1 0x3 NOT ADD SLT PUSH2 0x110 JUMPI PUSH1 0x1 PUSH1 0x1 PUSH1 0xA0 SHL SUB DUP1 PUSH2 0x1FF PUSH2 0x9C3 JUMP JUMPDEST AND PUSH1 0x0 MSTORE PUSH1 0x1 PUSH1 0x20 MSTORE PUSH1 0x40 PUSH1 0x0 KECCAK256 SWAP1 DUP2 SLOAD AND PUSH2 0x21D PUSH1 0x1 DUP4 ADD PUSH2 0xA9A JUMP JUMPDEST SWAP2 PUSH2 0x22A PUSH1 0x2 DUP3 ADD PUSH2 0xA9A JUMP JUMPDEST PUSH1 0xFF PUSH1 0x3 DUP4 ADD SLOAD AND SWAP2 PUSH2 0x26B PUSH1 0x5 PUSH1 0x4 DUP4 ADD SLOAD SWAP3 ADD SLOAD SWAP3 PUSH2 0x25D PUSH1 0x40 MLOAD SWAP8 DUP9 SWAP8 DUP9 MSTORE PUSH1 0xC0 PUSH1 0x20 DUP10 ADD MSTORE PUSH1 0xC0 DUP9 ADD SWAP1 PUSH2 0xB40 JUMP JUMPDEST SWAP1 DUP7 DUP3 SUB PUSH1 0x40 DUP9 ADD MSTORE PUSH2 0xB40 JUMP JUMPDEST SWAP3 ISZERO ISZERO PUSH1 0x60 DUP6 ADD MSTORE PUSH1 0x80 DUP5 ADD MSTORE PUSH1 0xA0 DUP4 ADD MSTORE SUB SWAP1 RETURN JUMPDEST CALLVALUE PUSH2 0x110 JUMPI PUSH1 0x0 CALLDATASIZE PUSH1 0x3 NOT ADD SLT PUSH2 0x110 JUMPI PUSH1 0x2 SLOAD PUSH1 0x0 DUP1 JUMPDEST DUP3 DUP2 LT PUSH2 0x3B8 JUMPI POP PUSH2 0x2C3 PUSH2 0x2AD DUP3 PUSH2 0xC8A JUMP JUMPDEST SWAP2 PUSH2 0x2BB PUSH1 0x40 MLOAD SWAP4 DUP5 PUSH2 0xA78 JUMP JUMPDEST DUP1 DUP4 MSTORE PUSH2 0xC8A JUMP JUMPDEST PUSH1 0x20 SWAP3 DUP4 DUP4 ADD SWAP3 SWAP2 PUSH1 0x1F NOT ADD CALLDATASIZE DUP5 CALLDATACOPY PUSH1 0x0 DUP1 JUMPDEST DUP3 DUP3 LT PUSH2 0x32A JUMPI POP POP POP SWAP1 PUSH1 0x40 MLOAD SWAP3 DUP4 SWAP3 DUP2 DUP5 ADD SWAP1 DUP3 DUP6 MSTORE MLOAD DUP1 SWAP2 MSTORE PUSH1 0x40 DUP5 ADD SWAP3 SWAP2 PUSH1 0x0 JUMPDEST DUP3 DUP2 LT PUSH2 0x30A JUMPI POP POP POP POP SUB SWAP1 RETURN JUMPDEST DUP4 MLOAD PUSH1 0x1 PUSH1 0x1 PUSH1 0xA0 SHL SUB AND DUP6 MSTORE DUP7 SWAP6 POP SWAP4 DUP2 ADD SWAP4 SWAP3 DUP2 ADD SWAP3 PUSH1 0x1 ADD PUSH2 0x2FB JUMP JUMPDEST PUSH2 0x333 DUP3 PUSH2 0x9D9 JUMP JUMPDEST PUSH1 0x1 DUP1 PUSH1 0xA0 SHL SUB DUP1 SWAP3 SLOAD PUSH1 0x3 SWAP3 DUP4 SHL SHR AND PUSH1 0x0 MSTORE PUSH1 0x1 DUP9 MSTORE PUSH1 0xFF DUP2 PUSH1 0x40 PUSH1 0x0 KECCAK256 ADD SLOAD AND PUSH2 0x36D JUMPI JUMPDEST POP POP SWAP1 PUSH2 0x367 SWAP1 PUSH2 0xC65 JUMP JUMPDEST SWAP1 PUSH2 0x2D6 JUMP JUMPDEST PUSH2 0x376 DUP5 PUSH2 0x9D9 JUMP JUMPDEST SWAP1 SLOAD SWAP2 SHL SHR AND DUP5 MLOAD DUP3 LT ISZERO PUSH2 0x3A2 JUMPI DUP2 PUSH2 0x39B SWAP2 DUP9 PUSH2 0x367 SWAP5 PUSH1 0x5 SHL DUP9 ADD ADD MSTORE PUSH2 0xC65 JUMP JUMPDEST SWAP1 DUP8 PUSH2 0x35B JUMP JUMPDEST PUSH4 0x4E487B71 PUSH1 0xE0 SHL PUSH1 0x0 MSTORE PUSH1 0x32 PUSH1 0x4 MSTORE PUSH1 0x24 PUSH1 0x0 REVERT JUMPDEST PUSH1 0xFF PUSH2 0x3C3 DUP3 PUSH2 0x9D9 JUMP JUMPDEST SWAP1 SLOAD PUSH1 0x3 SWAP2 DUP3 SHL SHR PUSH1 0x1 PUSH1 0x1 PUSH1 0xA0 SHL SUB AND PUSH1 0x0 SWAP1 DUP2 MSTORE PUSH1 0x1 PUSH1 0x20 MSTORE PUSH1 0x40 SWAP1 KECCAK256 ADD SLOAD AND PUSH2 0x3F8 JUMPI JUMPDEST PUSH2 0x3F3 SWAP1 PUSH2 0xC65 JUMP JUMPDEST PUSH2 0x299 JUMP JUMPDEST SWAP1 PUSH2 0x405 PUSH2 0x3F3 SWAP2 PUSH2 0xC65 JUMP JUMPDEST SWAP2 SWAP1 POP PUSH2 0x3EA JUMP JUMPDEST CALLVALUE PUSH2 0x110 JUMPI PUSH1 0x60 CALLDATASIZE PUSH1 0x3 NOT ADD SLT PUSH2 0x110 JUMPI PUSH2 0x426 PUSH2 0x9C3 JUMP JUMPDEST PUSH1 0x24 CALLDATALOAD PUSH8 0xFFFFFFFFFFFFFFFF DUP2 GT PUSH2 0x110 JUMPI PUSH2 0x446 SWAP1 CALLDATASIZE SWAP1 PUSH1 0x4 ADD PUSH2 0xA10 JUMP JUMPDEST SWAP1 PUSH1 0x44 CALLDATALOAD PUSH8 0xFFFFFFFFFFFFFFFF DUP2 GT PUSH2 0x110 JUMPI PUSH2 0x467 SWAP1 CALLDATASIZE SWAP1 PUSH1 0x4 ADD PUSH2 0xA10 JUMP JUMPDEST SWAP3 SWAP1 SWAP4 PUSH2 0x47F PUSH1 0x1 DUP1 PUSH1 0xA0 SHL SUB PUSH1 0x0 SLOAD AND CALLER EQ PUSH2 0xB80 JUMP JUMPDEST PUSH1 0x1 PUSH1 0x1 PUSH1 0xA0 SHL SUB DUP2 AND ISZERO PUSH2 0x8B7 JUMPI PUSH1 0x1 PUSH1 0x1 PUSH1 0xA0 SHL SUB DUP2 AND PUSH1 0x0 SWAP1 DUP2 MSTORE PUSH1 0x1 PUSH1 0x20 MSTORE PUSH1 0x40 SWAP1 KECCAK256 PUSH1 0x3 ADD SLOAD PUSH1 0xFF AND PUSH2 0x87D JUMPI PUSH1 0x40 MLOAD PUSH1 0xC0 DUP2 ADD DUP2 DUP2 LT PUSH8 0xFFFFFFFFFFFFFFFF DUP3 GT OR PUSH2 0x6D0 JUMPI PUSH1 0x40 MSTORE PUSH1 0x1 PUSH1 0x1 PUSH1 0xA0 SHL SUB DUP3 AND DUP2 MSTORE PUSH2 0x4E5 CALLDATASIZE DUP5 DUP7 PUSH2 0xBB8 JUMP JUMPDEST SWAP1 PUSH1 0x20 DUP2 ADD SWAP2 DUP3 MSTORE PUSH2 0x4F8 CALLDATASIZE DUP8 DUP10 PUSH2 0xBB8 JUMP JUMPDEST PUSH1 0x40 DUP3 ADD MSTORE PUSH1 0x1 PUSH1 0x60 DUP3 ADD MSTORE PUSH1 0x0 PUSH1 0x80 DUP3 ADD MSTORE TIMESTAMP PUSH1 0xA0 DUP3 ADD MSTORE PUSH1 0x1 DUP1 PUSH1 0xA0 SHL SUB DUP4 AND PUSH1 0x0 MSTORE PUSH1 0x1 PUSH1 0x20 MSTORE PUSH1 0x40 PUSH1 0x0 KECCAK256 SWAP2 PUSH1 0x1 DUP1 PUSH1 0xA0 SHL SUB DUP3 MLOAD AND PUSH12 0xFFFFFFFFFFFFFFFFFFFFFFFF PUSH1 0xA0 SHL DUP5 SLOAD AND OR DUP4 SSTORE MLOAD DUP1 MLOAD SWAP1 PUSH8 0xFFFFFFFFFFFFFFFF DUP3 GT PUSH2 0x6D0 JUMPI DUP2 SWAP1 PUSH2 0x56A PUSH1 0x1 DUP7 ADD SLOAD PUSH2 0xA3E JUMP JUMPDEST PUSH1 0x1F DUP2 GT PUSH2 0x82A JUMPI JUMPDEST POP PUSH1 0x20 SWAP1 PUSH1 0x1F DUP4 GT PUSH1 0x1 EQ PUSH2 0x7B8 JUMPI PUSH1 0x0 SWAP3 PUSH2 0x7AD JUMPI JUMPDEST POP POP DUP2 PUSH1 0x1 SHL SWAP2 PUSH1 0x0 NOT SWAP1 PUSH1 0x3 SHL SHR NOT AND OR PUSH1 0x1 DUP4 ADD SSTORE JUMPDEST PUSH1 0x40 DUP2 ADD MLOAD DUP1 MLOAD SWAP1 PUSH8 0xFFFFFFFFFFFFFFFF DUP3 GT PUSH2 0x6D0 JUMPI PUSH2 0x5C6 PUSH1 0x2 DUP6 ADD SLOAD PUSH2 0xA3E JUMP JUMPDEST PUSH1 0x1F DUP2 GT PUSH2 0x766 JUMPI JUMPDEST POP PUSH1 0x20 SWAP1 PUSH1 0x1F DUP4 GT PUSH1 0x1 EQ PUSH2 0x6F1 JUMPI SWAP2 DUP1 PUSH1 0x5 SWAP5 SWAP3 PUSH1 0xA0 SWAP5 PUSH1 0x0 SWAP3 PUSH2 0x6E6 JUMPI JUMPDEST POP POP DUP2 PUSH1 0x1 SHL SWAP2 PUSH1 0x0 NOT SWAP1 PUSH1 0x3 SHL SHR NOT AND OR PUSH1 0x2 DUP6 ADD SSTORE JUMPDEST PUSH2 0x626 PUSH1 0x60 DUP3 ADD MLOAD ISZERO ISZERO PUSH1 0x3 DUP7 ADD SWAP1 PUSH1 0xFF DUP1 NOT DUP4 SLOAD AND SWAP2 ISZERO ISZERO AND OR SWAP1 SSTORE JUMP JUMPDEST PUSH1 0x80 DUP2 ADD MLOAD PUSH1 0x4 DUP6 ADD SSTORE ADD MLOAD SWAP2 ADD SSTORE PUSH1 0x2 SLOAD SWAP1 PUSH9 0x10000000000000000 DUP3 LT ISZERO PUSH2 0x6D0 JUMPI PUSH32 0x36221AD1FEA0ABF926934DFCC44E9DE63D3E629FAEB0A4FE6930AFB0C320FBD SWAP5 PUSH2 0x67F DUP4 PUSH1 0x1 PUSH2 0x6CB SWAP6 ADD PUSH1 0x2 SSTORE PUSH2 0x9D9 JUMP JUMPDEST DUP2 SLOAD PUSH1 0x1 PUSH1 0x1 PUSH1 0xA0 SHL SUB DUP6 DUP2 AND PUSH1 0x3 SWAP4 SWAP1 SWAP4 SHL SWAP3 DUP4 SHL SWAP3 SHL NOT AND OR SWAP1 SSTORE PUSH1 0x40 DUP1 MLOAD DUP2 DUP2 MSTORE SWAP6 DUP7 SWAP6 PUSH2 0x6B2 SWAP3 DUP8 ADD SWAP2 PUSH2 0xBFF JUMP JUMPDEST DUP5 DUP2 SUB PUSH1 0x20 DUP7 ADD MSTORE PUSH1 0x1 PUSH1 0x1 PUSH1 0xA0 SHL SUB SWAP1 SWAP3 AND SWAP7 PUSH2 0xBFF JUMP JUMPDEST SUB SWAP1 LOG2 STOP JUMPDEST PUSH4 0x4E487B71 PUSH1 0xE0 SHL PUSH1 0x0 MSTORE PUSH1 0x41 PUSH1 0x4 MSTORE PUSH1 0x24 PUSH1 0x0 REVERT JUMPDEST ADD MLOAD SWAP1 POP DUP12 DUP1 PUSH2 0x5EF JUMP JUMPDEST SWAP1 PUSH1 0x2 DUP6 ADD PUSH1 0x0 MSTORE PUSH1 0x20 PUSH1 0x0 KECCAK256 SWAP2 PUSH1 0x0 JUMPDEST PUSH1 0x1F NOT DUP6 AND DUP2 LT PUSH2 0x74E JUMPI POP SWAP3 PUSH1 0x5 SWAP5 SWAP3 PUSH1 0x1 SWAP3 PUSH1 0xA0 SWAP6 DUP4 PUSH1 0x1F NOT DUP2 AND LT PUSH2 0x735 JUMPI JUMPDEST POP POP POP DUP2 SHL ADD PUSH1 0x2 DUP6 ADD SSTORE PUSH2 0x607 JUMP JUMPDEST ADD MLOAD PUSH1 0x0 NOT PUSH1 0xF8 DUP5 PUSH1 0x3 SHL AND SHR NOT AND SWAP1 SSTORE DUP12 DUP1 DUP1 PUSH2 0x725 JUMP JUMPDEST SWAP2 SWAP3 PUSH1 0x20 PUSH1 0x1 DUP2 SWAP3 DUP7 DUP6 ADD MLOAD DUP2 SSTORE ADD SWAP5 ADD SWAP3 ADD PUSH2 0x702 JUMP JUMPDEST PUSH1 0x2 DUP6 ADD PUSH1 0x0 MSTORE PUSH1 0x20 PUSH1 0x0 KECCAK256 PUSH1 0x1F DUP5 ADD PUSH1 0x5 SHR DUP2 ADD PUSH1 0x20 DUP6 LT PUSH2 0x7A6 JUMPI JUMPDEST PUSH1 0x1F DUP4 ADD PUSH1 0x5 SHR DUP3 ADD DUP2 LT PUSH2 0x79A JUMPI POP POP PUSH2 0x5CF JUMP JUMPDEST PUSH1 0x0 DUP2 SSTORE PUSH1 0x1 ADD PUSH2 0x784 JUMP JUMPDEST POP DUP1 PUSH2 0x784 JUMP JUMPDEST ADD MLOAD SWAP1 POP DUP10 DUP1 PUSH2 0x58A JUMP JUMPDEST SWAP3 POP PUSH1 0x1 DUP6 ADD PUSH1 0x0 MSTORE PUSH1 0x20 PUSH1 0x0 KECCAK256 SWAP1 PUSH1 0x0 SWAP4 JUMPDEST PUSH1 0x1F NOT DUP5 AND DUP6 LT PUSH2 0x80F JUMPI PUSH1 0x1 SWAP5 POP DUP4 PUSH1 0x1F NOT DUP2 AND LT PUSH2 0x7F6 JUMPI JUMPDEST POP POP POP DUP2 SHL ADD PUSH1 0x1 DUP4 ADD SSTORE PUSH2 0x5A2 JUMP JUMPDEST ADD MLOAD PUSH1 0x0 NOT PUSH1 0xF8 DUP5 PUSH1 0x3 SHL AND SHR NOT AND SWAP1 SSTORE DUP10 DUP1 DUP1 PUSH2 0x7E6 JUMP JUMPDEST DUP2 DUP2 ADD MLOAD DUP4 SSTORE PUSH1 0x20 SWAP5 DUP6 ADD SWAP5 PUSH1 0x1 SWAP1 SWAP4 ADD SWAP3 SWAP1 SWAP2 ADD SWAP1 PUSH2 0x7CB JUMP JUMPDEST SWAP1 SWAP2 POP PUSH1 0x1 DUP6 ADD PUSH1 0x0 MSTORE PUSH1 0x20 PUSH1 0x0 KECCAK256 PUSH1 0x1F DUP5 ADD PUSH1 0x5 SHR DUP2 ADD PUSH1 0x20 DUP6 LT PUSH2 0x876 JUMPI JUMPDEST SWAP1 DUP5 SWAP4 SWAP3 SWAP2 JUMPDEST PUSH1 0x1F DUP4 ADD PUSH1 0x5 SHR DUP3 ADD DUP2 LT PUSH2 0x867 JUMPI POP POP PUSH2 0x573 JUMP JUMPDEST PUSH1 0x0 DUP2 SSTORE DUP6 SWAP5 POP PUSH1 0x1 ADD PUSH2 0x851 JUMP JUMPDEST POP DUP1 PUSH2 0x84B JUMP JUMPDEST PUSH1 0x40 MLOAD PUSH3 0x461BCD PUSH1 0xE5 SHL DUP2 MSTORE PUSH1 0x20 PUSH1 0x4 DUP3 ADD MSTORE PUSH1 0x12 PUSH1 0x24 DUP3 ADD MSTORE PUSH18 0x20B63932B0B23C9030903B32B934B334B2B9 PUSH1 0x71 SHL PUSH1 0x44 DUP3 ADD MSTORE PUSH1 0x64 SWAP1 REVERT JUMPDEST PUSH1 0x40 MLOAD PUSH3 0x461BCD PUSH1 0xE5 SHL DUP2 MSTORE PUSH1 0x20 PUSH1 0x4 DUP3 ADD MSTORE PUSH1 0xF PUSH1 0x24 DUP3 ADD MSTORE PUSH15 0x496E76616C69642061646472657373 PUSH1 0x88 SHL PUSH1 0x44 DUP3 ADD MSTORE PUSH1 0x64 SWAP1 REVERT JUMPDEST CALLVALUE PUSH2 0x110 JUMPI PUSH1 0x20 CALLDATASIZE PUSH1 0x3 NOT ADD SLT PUSH2 0x110 JUMPI PUSH1 0x4 CALLDATALOAD PUSH1 0x2 SLOAD DUP2 LT ISZERO PUSH2 0x110 JUMPI PUSH2 0x917 PUSH1 0x20 SWAP2 PUSH2 0x9D9 JUMP JUMPDEST SWAP1 SLOAD PUSH1 0x40 MLOAD PUSH1 0x3 SWAP3 SWAP1 SWAP3 SHL SHR PUSH1 0x1 PUSH1 0x1 PUSH1 0xA0 SHL SUB AND DUP2 MSTORE RETURN JUMPDEST CALLVALUE PUSH2 0x110 JUMPI PUSH1 0x40 CALLDATASIZE PUSH1 0x3 NOT ADD SLT PUSH2 0x110 JUMPI PUSH2 0x949 PUSH2 0x9C3 JUMP JUMPDEST PUSH1 0x24 CALLDATALOAD SWAP1 DUP2 ISZERO ISZERO SWAP1 DUP2 DUP4 SUB PUSH2 0x110 JUMPI PUSH32 0xBA5F7031AD83095931EE4B5138591DB2DC3CFC56178367622FA4B05C2EFAD231 SWAP2 PUSH2 0x9BA PUSH1 0x20 SWAP3 PUSH1 0x1 DUP1 PUSH1 0xA0 SHL SUB SWAP1 PUSH2 0x997 DUP3 PUSH1 0x0 SLOAD AND CALLER EQ PUSH2 0xB80 JUMP JUMPDEST AND SWAP5 DUP6 PUSH1 0x0 MSTORE PUSH1 0x1 DUP5 MSTORE PUSH1 0x3 PUSH1 0x40 PUSH1 0x0 KECCAK256 ADD SWAP1 PUSH1 0xFF DUP1 NOT DUP4 SLOAD AND SWAP2 ISZERO ISZERO AND OR SWAP1 SSTORE JUMP JUMPDEST PUSH1 0x40 MLOAD SWAP1 DUP2 MSTORE LOG2 STOP JUMPDEST PUSH1 0x4 CALLDATALOAD SWAP1 PUSH1 0x1 PUSH1 0x1 PUSH1 0xA0 SHL SUB DUP3 AND DUP3 SUB PUSH2 0x110 JUMPI JUMP JUMPDEST PUSH1 0x2 SLOAD DUP2 LT ISZERO PUSH2 0x3A2 JUMPI PUSH1 0x2 PUSH1 0x0 MSTORE PUSH32 0x405787FA12A823E0F2B7631CC41B3BA8828B3321CA811111FA75CD3AA3BB5ACE ADD SWAP1 PUSH1 0x0 SWAP1 JUMP JUMPDEST SWAP2 DUP2 PUSH1 0x1F DUP5 ADD SLT ISZERO PUSH2 0x110 JUMPI DUP3 CALLDATALOAD SWAP2 PUSH8 0xFFFFFFFFFFFFFFFF DUP4 GT PUSH2 0x110 JUMPI PUSH1 0x20 DUP4 DUP2 DUP7 ADD SWAP6 ADD ADD GT PUSH2 0x110 JUMPI JUMP JUMPDEST SWAP1 PUSH1 0x1 DUP3 DUP2 SHR SWAP3 AND DUP1 ISZERO PUSH2 0xA6E JUMPI JUMPDEST PUSH1 0x20 DUP4 LT EQ PUSH2 0xA58 JUMPI JUMP JUMPDEST PUSH4 0x4E487B71 PUSH1 0xE0 SHL PUSH1 0x0 MSTORE PUSH1 0x22 PUSH1 0x4 MSTORE PUSH1 0x24 PUSH1 0x0 REVERT JUMPDEST SWAP2 PUSH1 0x7F AND SWAP2 PUSH2 0xA4D JUMP JUMPDEST SWAP1 PUSH1 0x1F DUP1 NOT SWAP2 ADD AND DUP2 ADD SWAP1 DUP2 LT PUSH8 0xFFFFFFFFFFFFFFFF DUP3 GT OR PUSH2 0x6D0 JUMPI PUSH1 0x40 MSTORE JUMP JUMPDEST SWAP1 PUSH1 0x40 MLOAD SWAP2 DUP3 PUSH1 0x0 DUP3 SLOAD SWAP3 PUSH2 0xAAE DUP5 PUSH2 0xA3E JUMP JUMPDEST SWAP1 DUP2 DUP5 MSTORE PUSH1 0x1 SWAP5 DUP6 DUP2 AND SWAP1 DUP2 PUSH1 0x0 EQ PUSH2 0xB1D JUMPI POP PUSH1 0x1 EQ PUSH2 0xADA JUMPI JUMPDEST POP POP PUSH2 0xAD8 SWAP3 POP SUB DUP4 PUSH2 0xA78 JUMP JUMPDEST JUMP JUMPDEST SWAP1 SWAP4 SWAP2 POP PUSH1 0x0 MSTORE PUSH1 0x20 SWAP1 DUP2 PUSH1 0x0 KECCAK256 SWAP4 PUSH1 0x0 SWAP2 JUMPDEST DUP2 DUP4 LT PUSH2 0xB05 JUMPI POP POP PUSH2 0xAD8 SWAP4 POP DUP3 ADD ADD CODESIZE DUP1 PUSH2 0xACA JUMP JUMPDEST DUP6 SLOAD DUP9 DUP5 ADD DUP6 ADD MSTORE SWAP5 DUP6 ADD SWAP5 DUP8 SWAP5 POP SWAP2 DUP4 ADD SWAP2 PUSH2 0xAED JUMP JUMPDEST SWAP2 POP POP PUSH2 0xAD8 SWAP5 POP PUSH1 0x20 SWAP3 POP PUSH1 0xFF NOT AND DUP3 DUP5 ADD MSTORE ISZERO ISZERO PUSH1 0x5 SHL DUP3 ADD ADD CODESIZE DUP1 PUSH2 0xACA JUMP JUMPDEST SWAP2 SWAP1 DUP3 MLOAD SWAP3 DUP4 DUP3 MSTORE PUSH1 0x0 JUMPDEST DUP5 DUP2 LT PUSH2 0xB6C JUMPI POP POP DUP3 PUSH1 0x0 PUSH1 0x20 DUP1 SWAP5 SWAP6 DUP5 ADD ADD MSTORE PUSH1 0x1F DUP1 NOT SWAP2 ADD AND ADD ADD SWAP1 JUMP JUMPDEST PUSH1 0x20 DUP2 DUP4 ADD DUP2 ADD MLOAD DUP5 DUP4 ADD DUP3 ADD MSTORE ADD PUSH2 0xB4B JUMP JUMPDEST ISZERO PUSH2 0xB87 JUMPI JUMP JUMPDEST PUSH1 0x40 MLOAD PUSH3 0x461BCD PUSH1 0xE5 SHL DUP2 MSTORE PUSH1 0x20 PUSH1 0x4 DUP3 ADD MSTORE PUSH1 0x9 PUSH1 0x24 DUP3 ADD MSTORE PUSH9 0x2737BA1037BBB732B9 PUSH1 0xB9 SHL PUSH1 0x44 DUP3 ADD MSTORE PUSH1 0x64 SWAP1 REVERT JUMPDEST SWAP3 SWAP2 SWAP3 PUSH8 0xFFFFFFFFFFFFFFFF DUP3 GT PUSH2 0x6D0 JUMPI PUSH1 0x40 MLOAD SWAP2 PUSH2 0xBE2 PUSH1 0x1F DUP3 ADD PUSH1 0x1F NOT AND PUSH1 0x20 ADD DUP5 PUSH2 0xA78 JUMP JUMPDEST DUP3 SWAP5 DUP2 DUP5 MSTORE DUP2 DUP4 ADD GT PUSH2 0x110 JUMPI DUP3 DUP2 PUSH1 0x20 SWAP4 DUP5 PUSH1 0x0 SWAP7 ADD CALLDATACOPY ADD ADD MSTORE JUMP JUMPDEST SWAP1 DUP1 PUSH1 0x20 SWAP4 SWAP3 DUP2 DUP5 MSTORE DUP5 DUP5 ADD CALLDATACOPY PUSH1 0x0 DUP3 DUP3 ADD DUP5 ADD MSTORE PUSH1 0x1F ADD PUSH1 0x1F NOT AND ADD ADD SWAP1 JUMP JUMPDEST ISZERO PUSH2 0xC27 JUMPI JUMP JUMPDEST PUSH1 0x40 MLOAD PUSH3 0x461BCD PUSH1 0xE5 SHL DUP2 MSTORE PUSH1 0x20 PUSH1 0x4 DUP3 ADD MSTORE PUSH1 0x16 PUSH1 0x24 DUP3 ADD MSTORE PUSH22 0x2737BA1030B71030B1BA34BB32903B32B934B334B2B9 PUSH1 0x51 SHL PUSH1 0x44 DUP3 ADD MSTORE PUSH1 0x64 SWAP1 REVERT JUMPDEST PUSH1 0x0 NOT DUP2 EQ PUSH2 0xC74 JUMPI PUSH1 0x1 ADD SWAP1 JUMP JUMPDEST PUSH4 0x4E487B71 PUSH1 0xE0 SHL PUSH1 0x0 MSTORE PUSH1 0x11 PUSH1 0x4 MSTORE PUSH1 0x24 PUSH1 0x0 REVERT JUMPDEST PUSH8 0xFFFFFFFFFFFFFFFF DUP2 GT PUSH2 0x6D0 JUMPI PUSH1 0x5 SHL PUSH1 0x20 ADD SWAP1 JUMP INVALID LOG2 PUSH5 0x6970667358 0x22 SLT KECCAK256 DUP1 0xDD 0x4C 0x1E 0x27 DELEGATECALL 0xCA 0x5D MSTORE AND PUSH16 0x1B91536602E4CF0765C1350346815B0B PUSH23 0xD3ADC00664736F6C634300081400330000000000000000 "},"methodIdentifiers":{"addVerifier(address,string,string)":"6b9e21fa","getActiveVerifiers()":"6baec215","isActiveVerifier(address)":"770d6bc1","owner()":"8da5cb5b","recordVerification(address)":"708d45e7","removeVerifier(address)":"ca2dfd0a","updateVerifierStatus(address,bool)":"043157ae","verifierList(uint256)":"57762ddd","verifiers(address)":"6c824487"}}}}}