{"src/core/PointsEngine.sol":{"PointsEngine":{"abi":[{"inputs":[],"stateMutability":"nonpayable","type":"constructor"},{"anonymous":false,"inputs":[{"indexed":true,"internalType":"uint256","name":"activityId","type":"uint256"},{"indexed":false,"internalType":"uint256","name":"basePoints","type":"uint256"},{"indexed":false,"internalType":"uint256","name":"speciesBonus","type":"uint256"},{"indexed":false,"internalType":"uint256","name":"totalPoints","type":"uint256"}],"name":"PointsCalculated","type":"event"},{"anonymous":false,"inputs":[{"indexed":true,"internalType":"uint256","name":"seasonId","type":"uint256"},{"indexed":false,"internalType":"uint256","name":"startTime","type":"uint256"}],"name":"SeasonStarted","type":"event"},{"inputs":[{"internalType":"enum Structs.ActivityType","name":"","type":"uint8"}],"name":"basePoints","outputs":[{"internalType":"uint256","name":"","type":"uint256"}],"stateMutability":"view","type":"function"},{"inputs":[{"internalType":"enum Structs.ActivityType","name":"_activityType","type":"uint8"},{"internalType":"uint32","name":"_count","type":"uint32"},{"internalType":"string","name":"_species","type":"string"}],"name":"calculatePoints","outputs":[{"internalType":"uint256","name":"","type":"uint256"}],"stateMutability":"view","type":"function"},{"inputs":[{"internalType":"enum Structs.ActivityType","name":"_activityType","type":"uint8"},{"internalType":"uint32","name":"_count","type":"uint32"}],"name":"calculateVerificationBonus","outputs":[{"internalType":"uint256","name":"","type":"uint256"}],"stateMutability":"view","type":"function"},{"inputs":[],"name":"currentSeason","outputs":[{"internalType":"uint256","name":"","type":"uint256"}],"stateMutability":"view","type":"function"},{"inputs":[{"internalType":"uint256","name":"_seasonId","type":"uint256"},{"internalType":"uint256","name":"_limit","type":"uint256"}],"name":"getSeasonLeaderboard","outputs":[{"internalType":"uint256[]","name":"","type":"uint256[]"},{"internalType":"uint256[]","name":"","type":"uint256[]"}],"stateMutability":"view","type":"function"},{"inputs":[],"name":"owner","outputs":[{"internalType":"address","name":"","type":"address"}],"stateMutability":"view","type":"function"},{"inputs":[{"internalType":"uint256","name":"_clubId","type":"uint256"},{"internalType":"uint256","name":"_points","type":"uint256"}],"name":"recordSeasonPoints","outputs":[],"stateMutability":"nonpayable","type":"function"},{"inputs":[{"internalType":"uint256","name":"","type":"uint256"},{"internalType":"uint256","name":"","type":"uint256"}],"name":"seasonPoints","outputs":[{"internalType":"uint256","name":"","type":"uint256"}],"stateMutability":"view","type":"function"},{"inputs":[{"internalType":"string","name":"","type":"string"}],"name":"speciesMultiplier","outputs":[{"internalType":"uint256","name":"","type":"uint256"}],"stateMutability":"view","type":"function"},{"inputs":[],"name":"startNewSeason","outputs":[],"stateMutability":"nonpayable","type":"function"},{"inputs":[{"internalType":"enum Structs.ActivityType","name":"_activityType","type":"uint8"},{"internalType":"uint256","name":"_newPoints","type":"uint256"}],"name":"updateBasePoints","outputs":[],"stateMutability":"nonpayable","type":"function"},{"inputs":[{"internalType":"string","name":"_species","type":"string"},{"internalType":"uint256","name":"_multiplier","type":"uint256"}],"name":"updateSpeciesMultiplier","outputs":[],"stateMutability":"nonpayable","type":"function"},{"inputs":[{"internalType":"enum Structs.ActivityType","name":"","type":"uint8"}],"name":"verificationBonus","outputs":[{"internalType":"uint256","name":"","type":"uint256"}],"stateMutability":"view","type":"function"}],"evm":{"bytecode":{"linkReferences":{},"object":"6080604090808252346100be5781600391609660266000923360018060a01b031985541617845560016004558380526001602052600a8585205560018452600585852055600284528585852055858452600485852055654e617469766560d01b815260026006820152205560786025835164119c9d5a5d60da1b815260026005820152205560646025835164135a5e195960da1b815260026005820152205580805282602052600582822055600181522055516106c790816100c48239f35b600080fdfe6040608081526004908136101561001557600080fd5b600091823560e01c80631332a486146104985780631dd2bf091461046f57806329696675146103da5780633e9988cb14610391578063878c5714146102cf57806389ea40f4146102815780638da5cb5b146102595780638e667f491461020f5780639ab62eb2146101df578063b42074c7146101ab578063b6ceb61f14610134578063bcb39621146101175763da2872c1146100b057600080fd5b3461011357816003193601126101135780359067ffffffffffffffff821161010f576100de91369101610537565b8091926100f560018060a01b038654163314610659565b519283378101906002825260208160243593030190205580f35b8380fd5b8280fd5b503461011357826003193601126101135760209250549051908152f35b50903461011357826003193601126101135761015a60018060a01b038454163314610659565b81546000198114610198577f8d160eff266df162107c57259a1f1e71787bd4ab800800826bd189d6f2f3e83c9160016020920180945551428152a280f35b634e487b7160e01b845260118352602484fd5b5091346101dc5760203660031901126101dc578235928310156101dc57506101d46020926104d7565b549051908152f35b80fd5b50503461020b57806020926101f3366105a1565b90825260058552828220908252845220549051908152f35b5080fd5b50346101135761021e366105a1565b9290825485526005602052818520908552602052832090815492830180931161024657505580f35b634e487b7160e01b845260119052602483fd5b50503461020b578160031936011261020b57905490516001600160a01b039091168152602090f35b8284346101dc5750610292366105a1565b9190506102cb6102aa6102a48461062c565b9361062c565b6102bd83519484869586528501906105b7565b9083820360208501526105b7565b0390f35b503461011357602092836003193601126101dc5781359167ffffffffffffffff908184116101135736602385011215610113578381013591821161037e5750610320601f8201601f19168601610565565b92818452366024838301011161011357918582829593602483960183860137830101528351928183859351925b8381106103695750505081016002815203019020549051908152f35b8281018201518782015286945085910161034d565b634e487b7160e01b835260419052602482fd5b5091346101dc57816003193601126101dc578235928310156101dc57506103d360209263ffffffff6103ca6103c461051f565b92610506565b549116906105eb565b9051908152f35b5091346101dc5760603660031901126101dc578235928084101561020b5761040061051f565b916044359067ffffffffffffffff82116101dc5750936103ca602061043f60649563ffffffff61043761045f97859b369101610537565b9590966104d7565b9282875193849283378101600281520301902054908115610467576105eb565b049051908152f35b8391506105eb565b5091346101dc5760203660031901126101dc578235928310156101dc57506101d4602092610506565b5090346101135736600319011261020b5780359081101561020b576104c760018060a01b038354163314610659565b6104d3602435916104d7565b5580f35b60048110156104f0576000526001602052604060002090565b634e487b7160e01b600052602160045260246000fd5b60048110156104f0576000526003602052604060002090565b6024359063ffffffff8216820361053257565b600080fd5b9181601f840112156105325782359167ffffffffffffffff8311610532576020838186019501011161053257565b6040519190601f01601f1916820167ffffffffffffffff81118382101761058b57604052565b634e487b7160e01b600052604160045260246000fd5b6040906003190112610532576004359060243590565b90815180825260208080930193019160005b8281106105d7575050505090565b8351855293810193928101926001016105c9565b818102929181159184041417156105fe57565b634e487b7160e01b600052601160045260246000fd5b67ffffffffffffffff811161058b5760051b60200190565b9061063e61063983610614565b610565565b828152809261064f601f1991610614565b0190602036910137565b1561066057565b60405162461bcd60e51b81526020600482015260096024820152682737ba1037bbb732b960b91b6044820152606490fdfea26469706673582212205cde3ad522791d3ca025814f8f957553dc7dd231a090f714e2cbbe9d4034074964736f6c63430008140033","opcodes":"PUSH1 0x80 PUSH1 0x40 SWAP1 DUP1 DUP3 MSTORE CALLVALUE PUSH2 0xBE JUMPI DUP2 PUSH1 0x3 SWAP2 PUSH1 0x96 PUSH1 0x26 PUSH1 0x0 SWAP3 CALLER PUSH1 0x1 DUP1 PUSH1 0xA0 SHL SUB NOT DUP6 SLOAD AND OR DUP5 SSTORE PUSH1 0x1 PUSH1 0x4 SSTORE DUP4 DUP1 MSTORE PUSH1 0x1 PUSH1 0x20 MSTORE PUSH1 0xA DUP6 DUP6 KECCAK256 SSTORE PUSH1 0x1 DUP5 MSTORE PUSH1 0x5 DUP6 DUP6 KECCAK256 SSTORE PUSH1 0x2 DUP5 MSTORE DUP6 DUP6 DUP6 KECCAK256 SSTORE DUP6 DUP5 MSTORE PUSH1 0x4 DUP6 DUP6 KECCAK256 SSTORE PUSH6 0x4E6174697665 PUSH1 0xD0 SHL DUP2 MSTORE PUSH1 0x2 PUSH1 0x6 DUP3 ADD MSTORE KECCAK256 SSTORE PUSH1 0x78 PUSH1 0x25 DUP4 MLOAD PUSH5 0x119C9D5A5D PUSH1 0xDA SHL DUP2 MSTORE PUSH1 0x2 PUSH1 0x5 DUP3 ADD MSTORE KECCAK256 SSTORE PUSH1 0x64 PUSH1 0x25 DUP4 MLOAD PUSH5 0x135A5E1959 PUSH1 0xDA SHL DUP2 MSTORE PUSH1 0x2 PUSH1 0x5 DUP3 ADD MSTORE KECCAK256 SSTORE DUP1 DUP1 MSTORE DUP3 PUSH1 0x20 MSTORE PUSH1 0x5 DUP3 DUP3 KECCAK256 SSTORE PUSH1 0x1 DUP2 MSTORE KECCAK256 SSTORE MLOAD PUSH2 0x6C7 SWAP1 DUP2 PUSH2 0xC4 DUP3 CODECOPY RETURN JUMPDEST PUSH1 0x0 DUP1 REVERT INVALID PUSH1 0x40 PUSH1 0x80 DUP2 MSTORE PUSH1 0x4 SWAP1 DUP2 CALLDATASIZE LT ISZERO PUSH2 0x15 JUMPI PUSH1 0x0 DUP1 REVERT JUMPDEST PUSH1 0x0 SWAP2 DUP3 CALLDATALOAD PUSH1 0xE0 SHR DUP1 PUSH4 0x1332A486 EQ PUSH2 0x498 JUMPI DUP1 PUSH4 0x1DD2BF09 EQ PUSH2 0x46F JUMPI DUP1 PUSH4 0x29696675 EQ PUSH2 0x3DA JUMPI DUP1 PUSH4 0x3E9988CB EQ PUSH2 0x391 JUMPI DUP1 PUSH4 0x878C5714 EQ PUSH2 0x2CF JUMPI DUP1 PUSH4 0x89EA40F4 EQ PUSH2 0x281 JUMPI DUP1 PUSH4 0x8DA5CB5B EQ PUSH2 0x259 JUMPI DUP1 PUSH4 0x8E667F49 EQ PUSH2 0x20F JUMPI DUP1 PUSH4 0x9AB62EB2 EQ PUSH2 0x1DF JUMPI DUP1 PUSH4 0xB42074C7 EQ PUSH2 0x1AB JUMPI DUP1 PUSH4 0xB6CEB61F EQ PUSH2 0x134 JUMPI DUP1 PUSH4 0xBCB39621 EQ PUSH2 0x117 JUMPI PUSH4 0xDA2872C1 EQ PUSH2 0xB0 JUMPI PUSH1 0x0 DUP1 REVERT JUMPDEST CALLVALUE PUSH2 0x113 JUMPI DUP2 PUSH1 0x3 NOT CALLDATASIZE ADD SLT PUSH2 0x113 JUMPI DUP1 CALLDATALOAD SWAP1 PUSH8 0xFFFFFFFFFFFFFFFF DUP3 GT PUSH2 0x10F JUMPI PUSH2 0xDE SWAP2 CALLDATASIZE SWAP2 ADD PUSH2 0x537 JUMP JUMPDEST DUP1 SWAP2 SWAP3 PUSH2 0xF5 PUSH1 0x1 DUP1 PUSH1 0xA0 SHL SUB DUP7 SLOAD AND CALLER EQ PUSH2 0x659 JUMP JUMPDEST MLOAD SWAP3 DUP4 CALLDATACOPY DUP2 ADD SWAP1 PUSH1 0x2 DUP3 MSTORE PUSH1 0x20 DUP2 PUSH1 0x24 CALLDATALOAD SWAP4 SUB ADD SWAP1 KECCAK256 SSTORE DUP1 RETURN JUMPDEST DUP4 DUP1 REVERT JUMPDEST DUP3 DUP1 REVERT JUMPDEST POP CALLVALUE PUSH2 0x113 JUMPI DUP3 PUSH1 0x3 NOT CALLDATASIZE ADD SLT PUSH2 0x113 JUMPI PUSH1 0x20 SWAP3 POP SLOAD SWAP1 MLOAD SWAP1 DUP2 MSTORE RETURN JUMPDEST POP SWAP1 CALLVALUE PUSH2 0x113 JUMPI DUP3 PUSH1 0x3 NOT CALLDATASIZE ADD SLT PUSH2 0x113 JUMPI PUSH2 0x15A PUSH1 0x1 DUP1 PUSH1 0xA0 SHL SUB DUP5 SLOAD AND CALLER EQ PUSH2 0x659 JUMP JUMPDEST DUP2 SLOAD PUSH1 0x0 NOT DUP2 EQ PUSH2 0x198 JUMPI PUSH32 0x8D160EFF266DF162107C57259A1F1E71787BD4AB800800826BD189D6F2F3E83C SWAP2 PUSH1 0x1 PUSH1 0x20 SWAP3 ADD DUP1 SWAP5 SSTORE MLOAD TIMESTAMP DUP2 MSTORE LOG2 DUP1 RETURN JUMPDEST PUSH4 0x4E487B71 PUSH1 0xE0 SHL DUP5 MSTORE PUSH1 0x11 DUP4 MSTORE PUSH1 0x24 DUP5 REVERT JUMPDEST POP SWAP2 CALLVALUE PUSH2 0x1DC JUMPI PUSH1 0x20 CALLDATASIZE PUSH1 0x3 NOT ADD SLT PUSH2 0x1DC JUMPI DUP3 CALLDATALOAD SWAP3 DUP4 LT ISZERO PUSH2 0x1DC JUMPI POP PUSH2 0x1D4 PUSH1 0x20 SWAP3 PUSH2 0x4D7 JUMP JUMPDEST SLOAD SWAP1 MLOAD SWAP1 DUP2 MSTORE RETURN JUMPDEST DUP1 REVERT JUMPDEST POP POP CALLVALUE PUSH2 0x20B JUMPI DUP1 PUSH1 0x20 SWAP3 PUSH2 0x1F3 CALLDATASIZE PUSH2 0x5A1 JUMP JUMPDEST SWAP1 DUP3 MSTORE PUSH1 0x5 DUP6 MSTORE DUP3 DUP3 KECCAK256 SWAP1 DUP3 MSTORE DUP5 MSTORE KECCAK256 SLOAD SWAP1 MLOAD SWAP1 DUP2 MSTORE RETURN JUMPDEST POP DUP1 REVERT JUMPDEST POP CALLVALUE PUSH2 0x113 JUMPI PUSH2 0x21E CALLDATASIZE PUSH2 0x5A1 JUMP JUMPDEST SWAP3 SWAP1 DUP3 SLOAD DUP6 MSTORE PUSH1 0x5 PUSH1 0x20 MSTORE DUP2 DUP6 KECCAK256 SWAP1 DUP6 MSTORE PUSH1 0x20 MSTORE DUP4 KECCAK256 SWAP1 DUP2 SLOAD SWAP3 DUP4 ADD DUP1 SWAP4 GT PUSH2 0x246 JUMPI POP SSTORE DUP1 RETURN JUMPDEST PUSH4 0x4E487B71 PUSH1 0xE0 SHL DUP5 MSTORE PUSH1 0x11 SWAP1 MSTORE PUSH1 0x24 DUP4 REVERT JUMPDEST POP POP CALLVALUE PUSH2 0x20B JUMPI DUP2 PUSH1 0x3 NOT CALLDATASIZE ADD SLT PUSH2 0x20B JUMPI SWAP1 SLOAD SWAP1 MLOAD PUSH1 0x1 PUSH1 0x1 PUSH1 0xA0 SHL SUB SWAP1 SWAP2 AND DUP2 MSTORE PUSH1 0x20 SWAP1 RETURN JUMPDEST DUP3 DUP5 CALLVALUE PUSH2 0x1DC JUMPI POP PUSH2 0x292 CALLDATASIZE PUSH2 0x5A1 JUMP JUMPDEST SWAP2 SWAP1 POP PUSH2 0x2CB PUSH2 0x2AA PUSH2 0x2A4 DUP5 PUSH2 0x62C JUMP JUMPDEST SWAP4 PUSH2 0x62C JUMP JUMPDEST PUSH2 0x2BD DUP4 MLOAD SWAP5 DUP5 DUP7 SWAP6 DUP7 MSTORE DUP6 ADD SWAP1 PUSH2 0x5B7 JUMP JUMPDEST SWAP1 DUP4 DUP3 SUB PUSH1 0x20 DUP6 ADD MSTORE PUSH2 0x5B7 JUMP JUMPDEST SUB SWAP1 RETURN JUMPDEST POP CALLVALUE PUSH2 0x113 JUMPI PUSH1 0x20 SWAP3 DUP4 PUSH1 0x3 NOT CALLDATASIZE ADD SLT PUSH2 0x1DC JUMPI DUP2 CALLDATALOAD SWAP2 PUSH8 0xFFFFFFFFFFFFFFFF SWAP1 DUP2 DUP5 GT PUSH2 0x113 JUMPI CALLDATASIZE PUSH1 0x23 DUP6 ADD SLT ISZERO PUSH2 0x113 JUMPI DUP4 DUP2 ADD CALLDATALOAD SWAP2 DUP3 GT PUSH2 0x37E JUMPI POP PUSH2 0x320 PUSH1 0x1F DUP3 ADD PUSH1 0x1F NOT AND DUP7 ADD PUSH2 0x565 JUMP JUMPDEST SWAP3 DUP2 DUP5 MSTORE CALLDATASIZE PUSH1 0x24 DUP4 DUP4 ADD ADD GT PUSH2 0x113 JUMPI SWAP2 DUP6 DUP3 DUP3 SWAP6 SWAP4 PUSH1 0x24 DUP4 SWAP7 ADD DUP4 DUP7 ADD CALLDATACOPY DUP4 ADD ADD MSTORE DUP4 MLOAD SWAP3 DUP2 DUP4 DUP6 SWAP4 MLOAD SWAP3 JUMPDEST DUP4 DUP2 LT PUSH2 0x369 JUMPI POP POP POP DUP2 ADD PUSH1 0x2 DUP2 MSTORE SUB ADD SWAP1 KECCAK256 SLOAD SWAP1 MLOAD SWAP1 DUP2 MSTORE RETURN JUMPDEST DUP3 DUP2 ADD DUP3 ADD MLOAD DUP8 DUP3 ADD MSTORE DUP7 SWAP5 POP DUP6 SWAP2 ADD PUSH2 0x34D JUMP JUMPDEST PUSH4 0x4E487B71 PUSH1 0xE0 SHL DUP4 MSTORE PUSH1 0x41 SWAP1 MSTORE PUSH1 0x24 DUP3 REVERT JUMPDEST POP SWAP2 CALLVALUE PUSH2 0x1DC JUMPI DUP2 PUSH1 0x3 NOT CALLDATASIZE ADD SLT PUSH2 0x1DC JUMPI DUP3 CALLDATALOAD SWAP3 DUP4 LT ISZERO PUSH2 0x1DC JUMPI POP PUSH2 0x3D3 PUSH1 0x20 SWAP3 PUSH4 0xFFFFFFFF PUSH2 0x3CA PUSH2 0x3C4 PUSH2 0x51F JUMP JUMPDEST SWAP3 PUSH2 0x506 JUMP JUMPDEST SLOAD SWAP2 AND SWAP1 PUSH2 0x5EB JUMP JUMPDEST SWAP1 MLOAD SWAP1 DUP2 MSTORE RETURN JUMPDEST POP SWAP2 CALLVALUE PUSH2 0x1DC JUMPI PUSH1 0x60 CALLDATASIZE PUSH1 0x3 NOT ADD SLT PUSH2 0x1DC JUMPI DUP3 CALLDATALOAD SWAP3 DUP1 DUP5 LT ISZERO PUSH2 0x20B JUMPI PUSH2 0x400 PUSH2 0x51F JUMP JUMPDEST SWAP2 PUSH1 0x44 CALLDATALOAD SWAP1 PUSH8 0xFFFFFFFFFFFFFFFF DUP3 GT PUSH2 0x1DC JUMPI POP SWAP4 PUSH2 0x3CA PUSH1 0x20 PUSH2 0x43F PUSH1 0x64 SWAP6 PUSH4 0xFFFFFFFF PUSH2 0x437 PUSH2 0x45F SWAP8 DUP6 SWAP12 CALLDATASIZE SWAP2 ADD PUSH2 0x537 JUMP JUMPDEST SWAP6 SWAP1 SWAP7 PUSH2 0x4D7 JUMP JUMPDEST SWAP3 DUP3 DUP8 MLOAD SWAP4 DUP5 SWAP3 DUP4 CALLDATACOPY DUP2 ADD PUSH1 0x2 DUP2 MSTORE SUB ADD SWAP1 KECCAK256 SLOAD SWAP1 DUP2 ISZERO PUSH2 0x467 JUMPI PUSH2 0x5EB JUMP JUMPDEST DIV SWAP1 MLOAD SWAP1 DUP2 MSTORE RETURN JUMPDEST DUP4 SWAP2 POP PUSH2 0x5EB JUMP JUMPDEST POP SWAP2 CALLVALUE PUSH2 0x1DC JUMPI PUSH1 0x20 CALLDATASIZE PUSH1 0x3 NOT ADD SLT PUSH2 0x1DC JUMPI DUP3 CALLDATALOAD SWAP3 DUP4 LT ISZERO PUSH2 0x1DC JUMPI POP PUSH2 0x1D4 PUSH1 0x20 SWAP3 PUSH2 0x506 JUMP JUMPDEST POP SWAP1 CALLVALUE PUSH2 0x113 JUMPI CALLDATASIZE PUSH1 0x3 NOT ADD SLT PUSH2 0x20B JUMPI DUP1 CALLDATALOAD SWAP1 DUP2 LT ISZERO PUSH2 0x20B JUMPI PUSH2 0x4C7 PUSH1 0x1 DUP1 PUSH1 0xA0 SHL SUB DUP4 SLOAD AND CALLER EQ PUSH2 0x659 JUMP JUMPDEST PUSH2 0x4D3 PUSH1 0x24 CALLDATALOAD SWAP2 PUSH2 0x4D7 JUMP JUMPDEST SSTORE DUP1 RETURN JUMPDEST PUSH1 0x4 DUP2 LT ISZERO PUSH2 0x4F0 JUMPI PUSH1 0x0 MSTORE PUSH1 0x1 PUSH1 0x20 MSTORE PUSH1 0x40 PUSH1 0x0 KECCAK256 SWAP1 JUMP JUMPDEST PUSH4 0x4E487B71 PUSH1 0xE0 SHL PUSH1 0x0 MSTORE PUSH1 0x21 PUSH1 0x4 MSTORE PUSH1 0x24 PUSH1 0x0 REVERT JUMPDEST PUSH1 0x4 DUP2 LT ISZERO PUSH2 0x4F0 JUMPI PUSH1 0x0 MSTORE PUSH1 0x3 PUSH1 0x20 MSTORE PUSH1 0x40 PUSH1 0x0 KECCAK256 SWAP1 JUMP JUMPDEST PUSH1 0x24 CALLDATALOAD SWAP1 PUSH4 0xFFFFFFFF DUP3 AND DUP3 SUB PUSH2 0x532 JUMPI JUMP JUMPDEST PUSH1 0x0 DUP1 REVERT JUMPDEST SWAP2 DUP2 PUSH1 0x1F DUP5 ADD SLT ISZERO PUSH2 0x532 JUMPI DUP3 CALLDATALOAD SWAP2 PUSH8 0xFFFFFFFFFFFFFFFF DUP4 GT PUSH2 0x532 JUMPI PUSH1 0x20 DUP4 DUP2 DUP7 ADD SWAP6 ADD ADD GT PUSH2 0x532 JUMPI JUMP JUMPDEST PUSH1 0x40 MLOAD SWAP2 SWAP1 PUSH1 0x1F ADD PUSH1 0x1F NOT AND DUP3 ADD PUSH8 0xFFFFFFFFFFFFFFFF DUP2 GT DUP4 DUP3 LT OR PUSH2 0x58B JUMPI PUSH1 0x40 MSTORE JUMP JUMPDEST PUSH4 0x4E487B71 PUSH1 0xE0 SHL PUSH1 0x0 MSTORE PUSH1 0x41 PUSH1 0x4 MSTORE PUSH1 0x24 PUSH1 0x0 REVERT JUMPDEST PUSH1 0x40 SWAP1 PUSH1 0x3 NOT ADD SLT PUSH2 0x532 JUMPI PUSH1 0x4 CALLDATALOAD SWAP1 PUSH1 0x24 CALLDATALOAD SWAP1 JUMP JUMPDEST SWAP1 DUP2 MLOAD DUP1 DUP3 MSTORE PUSH1 0x20 DUP1 DUP1 SWAP4 ADD SWAP4 ADD SWAP2 PUSH1 0x0 JUMPDEST DUP3 DUP2 LT PUSH2 0x5D7 JUMPI POP POP POP POP SWAP1 JUMP JUMPDEST DUP4 MLOAD DUP6 MSTORE SWAP4 DUP2 ADD SWAP4 SWAP3 DUP2 ADD SWAP3 PUSH1 0x1 ADD PUSH2 0x5C9 JUMP JUMPDEST DUP2 DUP2 MUL SWAP3 SWAP2 DUP2 ISZERO SWAP2 DUP5 DIV EQ OR ISZERO PUSH2 0x5FE JUMPI JUMP JUMPDEST PUSH4 0x4E487B71 PUSH1 0xE0 SHL PUSH1 0x0 MSTORE PUSH1 0x11 PUSH1 0x4 MSTORE PUSH1 0x24 PUSH1 0x0 REVERT JUMPDEST PUSH8 0xFFFFFFFFFFFFFFFF DUP2 GT PUSH2 0x58B JUMPI PUSH1 0x5 SHL PUSH1 0x20 ADD SWAP1 JUMP JUMPDEST SWAP1 PUSH2 0x63E PUSH2 0x639 DUP4 PUSH2 0x614 JUMP JUMPDEST PUSH2 0x565 JUMP JUMPDEST DUP3 DUP2 MSTORE DUP1 SWAP3 PUSH2 0x64F PUSH1 0x1F NOT SWAP2 PUSH2 0x614 JUMP JUMPDEST ADD SWAP1 PUSH1 0x20 CALLDATASIZE SWAP2 ADD CALLDATACOPY JUMP JUMPDEST ISZERO PUSH2 0x660 JUMPI JUMP JUMPDEST PUSH1 0x40 MLOAD PUSH3 0x461BCD PUSH1 0xE5 SHL DUP2 MSTORE PUSH1 0x20 PUSH1 0x4 DUP3 ADD MSTORE PUSH1 0x9 PUSH1 0x24 DUP3 ADD MSTORE PUSH9 0x2737BA1037BBB732B9 PUSH1 0xB9 SHL PUSH1 0x44 DUP3 ADD MSTORE PUSH1 0x64 SWAP1 REVERT INVALID LOG2 PUSH5 0x6970667358 0x22 SLT KECCAK256 0x5C 0xDE GASPRICE 0xD5 0x22 PUSH26 0x1D3CA025814F8F957553DC7DD231A090F714E2CBBE9D40340749 PUSH5 0x736F6C6343 STOP ADDMOD EQ STOP CALLER "},"methodIdentifiers":{"basePoints(uint8)":"b42074c7","calculatePoints(uint8,uint32,string)":"29696675","calculateVerificationBonus(uint8,uint32)":"3e9988cb","currentSeason()":"bcb39621","getSeasonLeaderboard(uint256,uint256)":"89ea40f4","owner()":"8da5cb5b","recordSeasonPoints(uint256,uint256)":"8e667f49","seasonPoints(uint256,uint256)":"9ab62eb2","speciesMultiplier(string)":"878c5714","startNewSeason()":"b6ceb61f","updateBasePoints(uint8,uint256)":"1332a486","updateSpeciesMultiplier(string,uint256)":"da2872c1","verificationBonus(uint8)":"1dd2bf09"}}}}}