{"src/core/Activities.sol":{"Activities":{"abi":[{"inputs":[],"stateMutability":"nonpayable","type":"constructor"},{"anonymous":false,"inputs":[{"indexed":true,"internalType":"uint256","name":"activityId","type":"uint256"},{"indexed":false,"internalType":"string","name":"newMetadataURI","type":"string"}],"name":"ActivityUpdated","type":"event"},{"anonymous":false,"inputs":[{"indexed":true,"internalType":"uint256","name":"activityId","type":"uint256"},{"indexed":true,"internalType":"address","name":"verifier","type":"address"},{"indexed":false,"internalType":"bool","name":"approved","type":"bool"},{"indexed":false,"internalType":"string","name":"comments","type":"string"}],"name":"ActivityVerified","type":"event"},{"inputs":[{"internalType":"uint256","name":"","type":"uint256"}],"name":"activities","outputs":[{"internalType":"uint256","name":"id","type":"uint256"},{"internalType":"uint256","name":"clubId","type":"uint256"},{"internalType":"enum Structs.ActivityType","name":"activityType","type":"uint8"},{"internalType":"string","name":"species","type":"string"},{"internalType":"uint32","name":"count","type":"uint32"},{"internalType":"string","name":"locationCode","type":"string"},{"internalType":"uint64","name":"timestamp","type":"uint64"},{"internalType":"string","name":"metadataURI","type":"string"},{"internalType":"uint256","name":"pointsAwarded","type":"uint256"},{"internalType":"bool","name":"verified","type":"bool"}],"stateMutability":"view","type":"function"},{"inputs":[{"internalType":"uint256","name":"","type":"uint256"},{"internalType":"uint256","name":"","type":"uint256"}],"name":"activityVerifications","outputs":[{"internalType":"address","name":"verifier","type":"address"},{"internalType":"uint64","name":"timestamp","type":"uint64"},{"internalType":"bool","name":"approved","type":"bool"},{"internalType":"string","name":"comments","type":"string"}],"stateMutability":"view","type":"function"},{"inputs":[{"internalType":"address","name":"_verifier","type":"address"}],"name":"addVerifier","outputs":[],"stateMutability":"nonpayable","type":"function"},{"inputs":[{"internalType":"uint256","name":"_clubId","type":"uint256"},{"internalType":"enum Structs.ActivityType","name":"_activityType","type":"uint8"},{"internalType":"string","name":"_species","type":"string"},{"internalType":"uint32","name":"_count","type":"uint32"},{"internalType":"string","name":"_locationCode","type":"string"},{"internalType":"string","name":"_metadataURI","type":"string"}],"name":"createActivity","outputs":[{"internalType":"uint256","name":"","type":"uint256"}],"stateMutability":"nonpayable","type":"function"},{"inputs":[{"internalType":"uint256","name":"_activityId","type":"uint256"}],"name":"getActivityVerifications","outputs":[{"components":[{"internalType":"address","name":"verifier","type":"address"},{"internalType":"uint64","name":"timestamp","type":"uint64"},{"internalType":"bool","name":"approved","type":"bool"},{"internalType":"string","name":"comments","type":"string"}],"internalType":"struct Structs.ActivityVerification[]","name":"","type":"tuple[]"}],"stateMutability":"view","type":"function"},{"inputs":[],"name":"nextActivityId","outputs":[{"internalType":"uint256","name":"","type":"uint256"}],"stateMutability":"view","type":"function"},{"inputs":[],"name":"owner","outputs":[{"internalType":"address","name":"","type":"address"}],"stateMutability":"view","type":"function"},{"inputs":[{"internalType":"address","name":"_verifier","type":"address"}],"name":"removeVerifier","outputs":[],"stateMutability":"nonpayable","type":"function"},{"inputs":[{"internalType":"uint256","name":"_activityId","type":"uint256"},{"internalType":"string","name":"_newMetadataURI","type":"string"}],"name":"updateActivityMetadata","outputs":[],"stateMutability":"nonpayable","type":"function"},{"inputs":[{"internalType":"address","name":"","type":"address"}],"name":"verifiers","outputs":[{"internalType":"bool","name":"","type":"bool"}],"stateMutability":"view","type":"function"},{"inputs":[{"internalType":"uint256","name":"_activityId","type":"uint256"},{"internalType":"bool","name":"_approved","type":"bool"},{"internalType":"string","name":"_comments","type":"string"}],"name":"verifyActivity","outputs":[],"stateMutability":"nonpayable","type":"function"}],"evm":{"bytecode":{"linkReferences":{},"object":"6080806040523461002d576001600255600380546001600160a01b0319163317905561107990816100338239f35b600080fdfe608080604052600436101561001357600080fd5b60003560e01c9081630107a87614610bf0575080630ba4d9d31461077b5780630d1657e8146106725780633ea870b71461065457806358e5548f146104f75780636c824487146104b45780638da5cb5b1461048b5780639000b3d61461043a578063a7ee8d7514610179578063ca2dfd0a1461012b5763ebae01b71461009857600080fd5b34610126576040366003190112610126576024356004356000526001602052604060002080548210156101265760ff916100d191610f1e565b506101226100e3600183549301610e38565b60405193849360018060a01b03811685526001600160401b038160a01c16602086015260e01c1615156040840152608060608401526080830190610ede565b0390f35b600080fd5b34610126576020366003190112610126576004356001600160a01b0381811691829003610126576101619060035416331461100b565b6000908152600460205260409020805460ff19169055005b34610126576060366003190112610126576004356024359081151591828103610126576001600160401b0392604435848111610126576101bd903690600401610d95565b94336000526020936004855260ff6040600020541615610406576101fc90866000526000865260096040600020019060ff801983541691151516179055565b60019081855260406000209160405161021481610dfc565b33815286810183421681526040820190878252610232368c89610f50565b95606084019687528054680100000000000000008110156103da5761025b918682018155610f1e565b9290926103f05792518254915193516001600160e81b03199092166001600160a01b03919091161760a09390931b67ffffffffffffffff60a01b169290921791151560e01b60ff60e01b1691909117815592518051938201939283116103da576102cf836102c98654610dc2565b86610f96565b8690601f841160011461034c57928061033c959381937f07e598241679f2d9b07fd5da72bf845a98063ce13d9cc30969cac968178d208a9a999896600094610341575b50501b916000199060031b1c19161790555b60408051948594855284015233966040840191610fea565b0390a3005b015192508c80610312565b90601f9392931983169185600052886000209260005b8181106103c55750917f07e598241679f2d9b07fd5da72bf845a98063ce13d9cc30969cac968178d208a9998979593918561033c989694106103ac575b505050811b019055610324565b015160001960f88460031b161c191690558a808061039f565b82840151855593860193928a01928a01610362565b634e487b7160e01b600052604160045260246000fd5b634e487b7160e01b600052600060045260246000fd5b60405162461bcd60e51b815260048101869052600c60248201526b2737ba103b32b934b334b2b960a11b6044820152606490fd5b34610126576020366003190112610126576004356001600160a01b0381811691829003610126576104709060035416331461100b565b6000908152600460205260409020805460ff19166001179055005b34610126576000366003190112610126576003546040516001600160a01b039091168152602090f35b34610126576020366003190112610126576004356001600160a01b03811690819003610126576000526004602052602060ff604060002054166040519015158152f35b346101265760208060031936011261012657600435600052600190818152604060002080546001600160401b03928382116103da579192849160405190610543858260051b0183610e17565b8082528482018096600052856000206000915b8383106105f25750505050604051938085019181865251809252604085019260408360051b87010196936000915b8483106105915787890388f35b90919293949584806105e0839b603f198c82030187528a5160018060a01b0381511682528684820151168483015260408101511515604083015260608091015191608080928201520190610ede565b9a980196959491909101920190610584565b95600288829a9860409a97989a5161060981610dfc565b85546001600160a01b038116825260a081901c8d168483015260e01c60ff161515604082015261063a858701610e38565b606082015281520192019201919097959796949396610556565b34610126576000366003190112610126576020600254604051908152f35b34610126576020366003190112610126576004356000526000602052604060002080549060018101549060ff600282015416916106b160038301610e38565b9263ffffffff600484015416936106ca60058501610e38565b946001600160401b03600686015416916106e660078701610e38565b9160ff600960088901549801541695604051998a5260208a0152600485101561076557889761072c61073f936107529760408c01526101408060608d01528b0190610ede565b9160808a015288820360a08a0152610ede565b9160c087015285820360e0870152610ede565b9161010084015215156101208301520390f35b634e487b7160e01b600052602160045260246000fd5b346101265760c03660031901126101265760046024351015610126576044356001600160401b038111610126576107b6903690600401610d95565b9060643563ffffffff81168103610126576084356001600160401b038111610126576107e6903690600401610d95565b9360a4356001600160401b03811161012657610806903690600401610d95565b919092600254966000198814610bda576001880160025560405196876101408101106001600160401b036101408a0111176103da5761089b9661086e63ffffffff92610880966101408c016040528c8c5260043560208d015260243560408d01523691610f50565b60608a01521660808801523691610f50565b60a08501526001600160401b03421660c08501523691610f50565b60e08201526000610100820152600061012082015281600052600060205260406000209181518355602082015160018401556040820151600481101561076557600284019060ff8019835416911617905560608201519283516001600160401b0381116103da5761091c816109136003850154610dc2565b60038501610f96565b6020601f8211600114610b6b578192939495600092610b60575b50508160011b916000199060031b1c19161760038201555b6004810163ffffffff60808501511663ffffffff1982541617905560a083015180516001600160401b0381116103da57806005840192610992826102c98654610dc2565b602090601f8311600114610afa57600092610aef575b50508160011b916000199060031b1c19161790555b600681016001600160401b0360c0850151166001600160401b0319825416179055600781019260e08101519384516001600160401b0381116103da57602095610a1082610a0a8554610dc2565b85610f96565b8690601f8311600114610a7e57928261012093610a6b979693600996600092610a73575b50508160011b916000199060031b1c19161790555b61010081015160088501550151151591019060ff801983541691151516179055565b604051908152f35b015190508a80610a34565b90601f1983169184600052886000209260005b818110610ad8575093610a6b97969360099693600193836101209810610abf575b505050811b019055610a49565b015160001960f88460031b161c191690558a8080610ab2565b92938a600181928786015181550195019301610a91565b0151905086806109a8565b6000858152602081209350601f198516905b818110610b485750908460019594939210610b2f575b505050811b0190556109bd565b015160001960f88460031b161c19169055868080610b22565b92936020600181928786015181550195019301610b0c565b015190508580610936565b6003830160005260206000209060005b601f1984168110610bc2575060019394959683601f19811610610ba9575b505050811b01600382015561094e565b015160001960f88460031b161c19169055858080610b99565b9091602060018192858b015181550193019101610b7b565b634e487b7160e01b600052601160045260246000fd5b3461012657604036600319011261012657600435906001600160401b039060243582811161012657610c26903690600401610d95565b92846000526020926000845260406000206001918282015415610d5e57506007019185116103da57610c6285610c5c8454610dc2565b84610f96565b6000601f8611600114610cd5579185807fd6e27609c4c6a55db21641f87e84e8b59414ec45049946e94a67d601f4623e0197969593610cc595600093610cca575b501b906000198760031b1c19161790555b604051938385948552840191610fea565b0390a2005b85013592508a610ca3565b601f1986169083600052856000209160005b818110610d4957509187969593917fd6e27609c4c6a55db21641f87e84e8b59414ec45049946e94a67d601f4623e0198610cc5969410610d2f575b505085811b019055610cb4565b840135600019600389901b60f8161c191690558880610d22565b86830135845592840192918701918701610ce7565b62461bcd60e51b81526004810186905260126024820152711058dd1a5d9a5d1e481b9bdd08199bdd5b9960721b6044820152606490fd5b9181601f84011215610126578235916001600160401b038311610126576020838186019501011161012657565b90600182811c92168015610df2575b6020831014610ddc57565b634e487b7160e01b600052602260045260246000fd5b91607f1691610dd1565b608081019081106001600160401b038211176103da57604052565b90601f801991011681019081106001600160401b038211176103da57604052565b9060405191826000825492610e4c84610dc2565b908184526001948581169081600014610ebb5750600114610e78575b5050610e7692500383610e17565b565b9093915060005260209081600020936000915b818310610ea3575050610e7693508201013880610e68565b85548884018501529485019487945091830191610e8b565b915050610e7694506020925060ff191682840152151560051b8201013880610e68565b919082519283825260005b848110610f0a575050826000602080949584010152601f8019910116010190565b602081830181015184830182015201610ee9565b8054821015610f3a5760005260206000209060011b0190600090565b634e487b7160e01b600052603260045260246000fd5b9291926001600160401b0382116103da5760405191610f79601f8201601f191660200184610e17565b829481845281830111610126578281602093846000960137010152565b90601f8111610fa457505050565b600091825260208220906020601f850160051c83019410610fe0575b601f0160051c01915b828110610fd557505050565b818155600101610fc9565b9092508290610fc0565b908060209392818452848401376000828201840152601f01601f1916010190565b1561101257565b60405162461bcd60e51b81526020600482015260096024820152682737ba1037bbb732b960b91b6044820152606490fdfea26469706673582212200d7e43447c75c0d617a7314ed10e68a8b224f6b072cbfc1a0324eff88faa357964736f6c63430008140033","opcodes":"PUSH1 0x80 DUP1 PUSH1 0x40 MSTORE CALLVALUE PUSH2 0x2D JUMPI PUSH1 0x1 PUSH1 0x2 SSTORE PUSH1 0x3 DUP1 SLOAD PUSH1 0x1 PUSH1 0x1 PUSH1 0xA0 SHL SUB NOT AND CALLER OR SWAP1 SSTORE PUSH2 0x1079 SWAP1 DUP2 PUSH2 0x33 DUP3 CODECOPY RETURN JUMPDEST PUSH1 0x0 DUP1 REVERT INVALID PUSH1 0x80 DUP1 PUSH1 0x40 MSTORE PUSH1 0x4 CALLDATASIZE LT ISZERO PUSH2 0x13 JUMPI PUSH1 0x0 DUP1 REVERT JUMPDEST PUSH1 0x0 CALLDATALOAD PUSH1 0xE0 SHR SWAP1 DUP2 PUSH4 0x107A876 EQ PUSH2 0xBF0 JUMPI POP DUP1 PUSH4 0xBA4D9D3 EQ PUSH2 0x77B JUMPI DUP1 PUSH4 0xD1657E8 EQ PUSH2 0x672 JUMPI DUP1 PUSH4 0x3EA870B7 EQ PUSH2 0x654 JUMPI DUP1 PUSH4 0x58E5548F EQ PUSH2 0x4F7 JUMPI DUP1 PUSH4 0x6C824487 EQ PUSH2 0x4B4 JUMPI DUP1 PUSH4 0x8DA5CB5B EQ PUSH2 0x48B JUMPI DUP1 PUSH4 0x9000B3D6 EQ PUSH2 0x43A JUMPI DUP1 PUSH4 0xA7EE8D75 EQ PUSH2 0x179 JUMPI DUP1 PUSH4 0xCA2DFD0A EQ PUSH2 0x12B JUMPI PUSH4 0xEBAE01B7 EQ PUSH2 0x98 JUMPI PUSH1 0x0 DUP1 REVERT JUMPDEST CALLVALUE PUSH2 0x126 JUMPI PUSH1 0x40 CALLDATASIZE PUSH1 0x3 NOT ADD SLT PUSH2 0x126 JUMPI PUSH1 0x24 CALLDATALOAD PUSH1 0x4 CALLDATALOAD PUSH1 0x0 MSTORE PUSH1 0x1 PUSH1 0x20 MSTORE PUSH1 0x40 PUSH1 0x0 KECCAK256 DUP1 SLOAD DUP3 LT ISZERO PUSH2 0x126 JUMPI PUSH1 0xFF SWAP2 PUSH2 0xD1 SWAP2 PUSH2 0xF1E JUMP JUMPDEST POP PUSH2 0x122 PUSH2 0xE3 PUSH1 0x1 DUP4 SLOAD SWAP4 ADD PUSH2 0xE38 JUMP JUMPDEST PUSH1 0x40 MLOAD SWAP4 DUP5 SWAP4 PUSH1 0x1 DUP1 PUSH1 0xA0 SHL SUB DUP2 AND DUP6 MSTORE PUSH1 0x1 PUSH1 0x1 PUSH1 0x40 SHL SUB DUP2 PUSH1 0xA0 SHR AND PUSH1 0x20 DUP7 ADD MSTORE PUSH1 0xE0 SHR AND ISZERO ISZERO PUSH1 0x40 DUP5 ADD MSTORE PUSH1 0x80 PUSH1 0x60 DUP5 ADD MSTORE PUSH1 0x80 DUP4 ADD SWAP1 PUSH2 0xEDE JUMP JUMPDEST SUB SWAP1 RETURN JUMPDEST PUSH1 0x0 DUP1 REVERT JUMPDEST CALLVALUE PUSH2 0x126 JUMPI PUSH1 0x20 CALLDATASIZE PUSH1 0x3 NOT ADD SLT PUSH2 0x126 JUMPI PUSH1 0x4 CALLDATALOAD PUSH1 0x1 PUSH1 0x1 PUSH1 0xA0 SHL SUB DUP2 DUP2 AND SWAP2 DUP3 SWAP1 SUB PUSH2 0x126 JUMPI PUSH2 0x161 SWAP1 PUSH1 0x3 SLOAD AND CALLER EQ PUSH2 0x100B JUMP JUMPDEST PUSH1 0x0 SWAP1 DUP2 MSTORE PUSH1 0x4 PUSH1 0x20 MSTORE PUSH1 0x40 SWAP1 KECCAK256 DUP1 SLOAD PUSH1 0xFF NOT AND SWAP1 SSTORE STOP JUMPDEST CALLVALUE PUSH2 0x126 JUMPI PUSH1 0x60 CALLDATASIZE PUSH1 0x3 NOT ADD SLT PUSH2 0x126 JUMPI PUSH1 0x4 CALLDATALOAD PUSH1 0x24 CALLDATALOAD SWAP1 DUP2 ISZERO ISZERO SWAP2 DUP3 DUP2 SUB PUSH2 0x126 JUMPI PUSH1 0x1 PUSH1 0x1 PUSH1 0x40 SHL SUB SWAP3 PUSH1 0x44 CALLDATALOAD DUP5 DUP2 GT PUSH2 0x126 JUMPI PUSH2 0x1BD SWAP1 CALLDATASIZE SWAP1 PUSH1 0x4 ADD PUSH2 0xD95 JUMP JUMPDEST SWAP5 CALLER PUSH1 0x0 MSTORE PUSH1 0x20 SWAP4 PUSH1 0x4 DUP6 MSTORE PUSH1 0xFF PUSH1 0x40 PUSH1 0x0 KECCAK256 SLOAD AND ISZERO PUSH2 0x406 JUMPI PUSH2 0x1FC SWAP1 DUP7 PUSH1 0x0 MSTORE PUSH1 0x0 DUP7 MSTORE PUSH1 0x9 PUSH1 0x40 PUSH1 0x0 KECCAK256 ADD SWAP1 PUSH1 0xFF DUP1 NOT DUP4 SLOAD AND SWAP2 ISZERO ISZERO AND OR SWAP1 SSTORE JUMP JUMPDEST PUSH1 0x1 SWAP1 DUP2 DUP6 MSTORE PUSH1 0x40 PUSH1 0x0 KECCAK256 SWAP2 PUSH1 0x40 MLOAD PUSH2 0x214 DUP2 PUSH2 0xDFC JUMP JUMPDEST CALLER DUP2 MSTORE DUP7 DUP2 ADD DUP4 TIMESTAMP AND DUP2 MSTORE PUSH1 0x40 DUP3 ADD SWAP1 DUP8 DUP3 MSTORE PUSH2 0x232 CALLDATASIZE DUP13 DUP10 PUSH2 0xF50 JUMP JUMPDEST SWAP6 PUSH1 0x60 DUP5 ADD SWAP7 DUP8 MSTORE DUP1 SLOAD PUSH9 0x10000000000000000 DUP2 LT ISZERO PUSH2 0x3DA JUMPI PUSH2 0x25B SWAP2 DUP7 DUP3 ADD DUP2 SSTORE PUSH2 0xF1E JUMP JUMPDEST SWAP3 SWAP1 SWAP3 PUSH2 0x3F0 JUMPI SWAP3 MLOAD DUP3 SLOAD SWAP2 MLOAD SWAP4 MLOAD PUSH1 0x1 PUSH1 0x1 PUSH1 0xE8 SHL SUB NOT SWAP1 SWAP3 AND PUSH1 0x1 PUSH1 0x1 PUSH1 0xA0 SHL SUB SWAP2 SWAP1 SWAP2 AND OR PUSH1 0xA0 SWAP4 SWAP1 SWAP4 SHL PUSH8 0xFFFFFFFFFFFFFFFF PUSH1 0xA0 SHL AND SWAP3 SWAP1 SWAP3 OR SWAP2 ISZERO ISZERO PUSH1 0xE0 SHL PUSH1 0xFF PUSH1 0xE0 SHL AND SWAP2 SWAP1 SWAP2 OR DUP2 SSTORE SWAP3 MLOAD DUP1 MLOAD SWAP4 DUP3 ADD SWAP4 SWAP3 DUP4 GT PUSH2 0x3DA JUMPI PUSH2 0x2CF DUP4 PUSH2 0x2C9 DUP7 SLOAD PUSH2 0xDC2 JUMP JUMPDEST DUP7 PUSH2 0xF96 JUMP JUMPDEST DUP7 SWAP1 PUSH1 0x1F DUP5 GT PUSH1 0x1 EQ PUSH2 0x34C JUMPI SWAP3 DUP1 PUSH2 0x33C SWAP6 SWAP4 DUP2 SWAP4 PUSH32 0x7E598241679F2D9B07FD5DA72BF845A98063CE13D9CC30969CAC968178D208A SWAP11 SWAP10 SWAP9 SWAP7 PUSH1 0x0 SWAP5 PUSH2 0x341 JUMPI JUMPDEST POP POP SHL SWAP2 PUSH1 0x0 NOT SWAP1 PUSH1 0x3 SHL SHR NOT AND OR SWAP1 SSTORE JUMPDEST PUSH1 0x40 DUP1 MLOAD SWAP5 DUP6 SWAP5 DUP6 MSTORE DUP5 ADD MSTORE CALLER SWAP7 PUSH1 0x40 DUP5 ADD SWAP2 PUSH2 0xFEA JUMP JUMPDEST SUB SWAP1 LOG3 STOP JUMPDEST ADD MLOAD SWAP3 POP DUP13 DUP1 PUSH2 0x312 JUMP JUMPDEST SWAP1 PUSH1 0x1F SWAP4 SWAP3 SWAP4 NOT DUP4 AND SWAP2 DUP6 PUSH1 0x0 MSTORE DUP9 PUSH1 0x0 KECCAK256 SWAP3 PUSH1 0x0 JUMPDEST DUP2 DUP2 LT PUSH2 0x3C5 JUMPI POP SWAP2 PUSH32 0x7E598241679F2D9B07FD5DA72BF845A98063CE13D9CC30969CAC968178D208A SWAP10 SWAP9 SWAP8 SWAP6 SWAP4 SWAP2 DUP6 PUSH2 0x33C SWAP9 SWAP7 SWAP5 LT PUSH2 0x3AC JUMPI JUMPDEST POP POP POP DUP2 SHL ADD SWAP1 SSTORE PUSH2 0x324 JUMP JUMPDEST ADD MLOAD PUSH1 0x0 NOT PUSH1 0xF8 DUP5 PUSH1 0x3 SHL AND SHR NOT AND SWAP1 SSTORE DUP11 DUP1 DUP1 PUSH2 0x39F JUMP JUMPDEST DUP3 DUP5 ADD MLOAD DUP6 SSTORE SWAP4 DUP7 ADD SWAP4 SWAP3 DUP11 ADD SWAP3 DUP11 ADD PUSH2 0x362 JUMP JUMPDEST PUSH4 0x4E487B71 PUSH1 0xE0 SHL PUSH1 0x0 MSTORE PUSH1 0x41 PUSH1 0x4 MSTORE PUSH1 0x24 PUSH1 0x0 REVERT JUMPDEST PUSH4 0x4E487B71 PUSH1 0xE0 SHL PUSH1 0x0 MSTORE PUSH1 0x0 PUSH1 0x4 MSTORE PUSH1 0x24 PUSH1 0x0 REVERT JUMPDEST PUSH1 0x40 MLOAD PUSH3 0x461BCD PUSH1 0xE5 SHL DUP2 MSTORE PUSH1 0x4 DUP2 ADD DUP7 SWAP1 MSTORE PUSH1 0xC PUSH1 0x24 DUP3 ADD MSTORE PUSH12 0x2737BA103B32B934B334B2B9 PUSH1 0xA1 SHL PUSH1 0x44 DUP3 ADD MSTORE PUSH1 0x64 SWAP1 REVERT JUMPDEST CALLVALUE PUSH2 0x126 JUMPI PUSH1 0x20 CALLDATASIZE PUSH1 0x3 NOT ADD SLT PUSH2 0x126 JUMPI PUSH1 0x4 CALLDATALOAD PUSH1 0x1 PUSH1 0x1 PUSH1 0xA0 SHL SUB DUP2 DUP2 AND SWAP2 DUP3 SWAP1 SUB PUSH2 0x126 JUMPI PUSH2 0x470 SWAP1 PUSH1 0x3 SLOAD AND CALLER EQ PUSH2 0x100B JUMP JUMPDEST PUSH1 0x0 SWAP1 DUP2 MSTORE PUSH1 0x4 PUSH1 0x20 MSTORE PUSH1 0x40 SWAP1 KECCAK256 DUP1 SLOAD PUSH1 0xFF NOT AND PUSH1 0x1 OR SWAP1 SSTORE STOP JUMPDEST CALLVALUE PUSH2 0x126 JUMPI PUSH1 0x0 CALLDATASIZE PUSH1 0x3 NOT ADD SLT PUSH2 0x126 JUMPI PUSH1 0x3 SLOAD PUSH1 0x40 MLOAD PUSH1 0x1 PUSH1 0x1 PUSH1 0xA0 SHL SUB SWAP1 SWAP2 AND DUP2 MSTORE PUSH1 0x20 SWAP1 RETURN JUMPDEST CALLVALUE PUSH2 0x126 JUMPI PUSH1 0x20 CALLDATASIZE PUSH1 0x3 NOT ADD SLT PUSH2 0x126 JUMPI PUSH1 0x4 CALLDATALOAD PUSH1 0x1 PUSH1 0x1 PUSH1 0xA0 SHL SUB DUP2 AND SWAP1 DUP2 SWAP1 SUB PUSH2 0x126 JUMPI PUSH1 0x0 MSTORE PUSH1 0x4 PUSH1 0x20 MSTORE PUSH1 0x20 PUSH1 0xFF PUSH1 0x40 PUSH1 0x0 KECCAK256 SLOAD AND PUSH1 0x40 MLOAD SWAP1 ISZERO ISZERO DUP2 MSTORE RETURN JUMPDEST CALLVALUE PUSH2 0x126 JUMPI PUSH1 0x20 DUP1 PUSH1 0x3 NOT CALLDATASIZE ADD SLT PUSH2 0x126 JUMPI PUSH1 0x4 CALLDATALOAD PUSH1 0x0 MSTORE PUSH1 0x1 SWAP1 DUP2 DUP2 MSTORE PUSH1 0x40 PUSH1 0x0 KECCAK256 DUP1 SLOAD PUSH1 0x1 PUSH1 0x1 PUSH1 0x40 SHL SUB SWAP3 DUP4 DUP3 GT PUSH2 0x3DA JUMPI SWAP2 SWAP3 DUP5 SWAP2 PUSH1 0x40 MLOAD SWAP1 PUSH2 0x543 DUP6 DUP3 PUSH1 0x5 SHL ADD DUP4 PUSH2 0xE17 JUMP JUMPDEST DUP1 DUP3 MSTORE DUP5 DUP3 ADD DUP1 SWAP7 PUSH1 0x0 MSTORE DUP6 PUSH1 0x0 KECCAK256 PUSH1 0x0 SWAP2 JUMPDEST DUP4 DUP4 LT PUSH2 0x5F2 JUMPI POP POP POP POP PUSH1 0x40 MLOAD SWAP4 DUP1 DUP6 ADD SWAP2 DUP2 DUP7 MSTORE MLOAD DUP1 SWAP3 MSTORE PUSH1 0x40 DUP6 ADD SWAP3 PUSH1 0x40 DUP4 PUSH1 0x5 SHL DUP8 ADD ADD SWAP7 SWAP4 PUSH1 0x0 SWAP2 JUMPDEST DUP5 DUP4 LT PUSH2 0x591 JUMPI DUP8 DUP10 SUB DUP9 RETURN JUMPDEST SWAP1 SWAP2 SWAP3 SWAP4 SWAP5 SWAP6 DUP5 DUP1 PUSH2 0x5E0 DUP4 SWAP12 PUSH1 0x3F NOT DUP13 DUP3 SUB ADD DUP8 MSTORE DUP11 MLOAD PUSH1 0x1 DUP1 PUSH1 0xA0 SHL SUB DUP2 MLOAD AND DUP3 MSTORE DUP7 DUP5 DUP3 ADD MLOAD AND DUP5 DUP4 ADD MSTORE PUSH1 0x40 DUP2 ADD MLOAD ISZERO ISZERO PUSH1 0x40 DUP4 ADD MSTORE PUSH1 0x60 DUP1 SWAP2 ADD MLOAD SWAP2 PUSH1 0x80 DUP1 SWAP3 DUP3 ADD MSTORE ADD SWAP1 PUSH2 0xEDE JUMP JUMPDEST SWAP11 SWAP9 ADD SWAP7 SWAP6 SWAP5 SWAP2 SWAP1 SWAP2 ADD SWAP3 ADD SWAP1 PUSH2 0x584 JUMP JUMPDEST SWAP6 PUSH1 0x2 DUP9 DUP3 SWAP11 SWAP9 PUSH1 0x40 SWAP11 SWAP8 SWAP9 SWAP11 MLOAD PUSH2 0x609 DUP2 PUSH2 0xDFC JUMP JUMPDEST DUP6 SLOAD PUSH1 0x1 PUSH1 0x1 PUSH1 0xA0 SHL SUB DUP2 AND DUP3 MSTORE PUSH1 0xA0 DUP2 SWAP1 SHR DUP14 AND DUP5 DUP4 ADD MSTORE PUSH1 0xE0 SHR PUSH1 0xFF AND ISZERO ISZERO PUSH1 0x40 DUP3 ADD MSTORE PUSH2 0x63A DUP6 DUP8 ADD PUSH2 0xE38 JUMP JUMPDEST PUSH1 0x60 DUP3 ADD MSTORE DUP2 MSTORE ADD SWAP3 ADD SWAP3 ADD SWAP2 SWAP1 SWAP8 SWAP6 SWAP8 SWAP7 SWAP5 SWAP4 SWAP7 PUSH2 0x556 JUMP JUMPDEST CALLVALUE PUSH2 0x126 JUMPI PUSH1 0x0 CALLDATASIZE PUSH1 0x3 NOT ADD SLT PUSH2 0x126 JUMPI PUSH1 0x20 PUSH1 0x2 SLOAD PUSH1 0x40 MLOAD SWAP1 DUP2 MSTORE RETURN JUMPDEST CALLVALUE PUSH2 0x126 JUMPI PUSH1 0x20 CALLDATASIZE PUSH1 0x3 NOT ADD SLT PUSH2 0x126 JUMPI PUSH1 0x4 CALLDATALOAD PUSH1 0x0 MSTORE PUSH1 0x0 PUSH1 0x20 MSTORE PUSH1 0x40 PUSH1 0x0 KECCAK256 DUP1 SLOAD SWAP1 PUSH1 0x1 DUP2 ADD SLOAD SWAP1 PUSH1 0xFF PUSH1 0x2 DUP3 ADD SLOAD AND SWAP2 PUSH2 0x6B1 PUSH1 0x3 DUP4 ADD PUSH2 0xE38 JUMP JUMPDEST SWAP3 PUSH4 0xFFFFFFFF PUSH1 0x4 DUP5 ADD SLOAD AND SWAP4 PUSH2 0x6CA PUSH1 0x5 DUP6 ADD PUSH2 0xE38 JUMP JUMPDEST SWAP5 PUSH1 0x1 PUSH1 0x1 PUSH1 0x40 SHL SUB PUSH1 0x6 DUP7 ADD SLOAD AND SWAP2 PUSH2 0x6E6 PUSH1 0x7 DUP8 ADD PUSH2 0xE38 JUMP JUMPDEST SWAP2 PUSH1 0xFF PUSH1 0x9 PUSH1 0x8 DUP10 ADD SLOAD SWAP9 ADD SLOAD AND SWAP6 PUSH1 0x40 MLOAD SWAP10 DUP11 MSTORE PUSH1 0x20 DUP11 ADD MSTORE PUSH1 0x4 DUP6 LT ISZERO PUSH2 0x765 JUMPI DUP9 SWAP8 PUSH2 0x72C PUSH2 0x73F SWAP4 PUSH2 0x752 SWAP8 PUSH1 0x40 DUP13 ADD MSTORE PUSH2 0x140 DUP1 PUSH1 0x60 DUP14 ADD MSTORE DUP12 ADD SWAP1 PUSH2 0xEDE JUMP JUMPDEST SWAP2 PUSH1 0x80 DUP11 ADD MSTORE DUP9 DUP3 SUB PUSH1 0xA0 DUP11 ADD MSTORE PUSH2 0xEDE JUMP JUMPDEST SWAP2 PUSH1 0xC0 DUP8 ADD MSTORE DUP6 DUP3 SUB PUSH1 0xE0 DUP8 ADD MSTORE PUSH2 0xEDE JUMP JUMPDEST SWAP2 PUSH2 0x100 DUP5 ADD MSTORE ISZERO ISZERO PUSH2 0x120 DUP4 ADD MSTORE SUB SWAP1 RETURN JUMPDEST PUSH4 0x4E487B71 PUSH1 0xE0 SHL PUSH1 0x0 MSTORE PUSH1 0x21 PUSH1 0x4 MSTORE PUSH1 0x24 PUSH1 0x0 REVERT JUMPDEST CALLVALUE PUSH2 0x126 JUMPI PUSH1 0xC0 CALLDATASIZE PUSH1 0x3 NOT ADD SLT PUSH2 0x126 JUMPI PUSH1 0x4 PUSH1 0x24 CALLDATALOAD LT ISZERO PUSH2 0x126 JUMPI PUSH1 0x44 CALLDATALOAD PUSH1 0x1 PUSH1 0x1 PUSH1 0x40 SHL SUB DUP2 GT PUSH2 0x126 JUMPI PUSH2 0x7B6 SWAP1 CALLDATASIZE SWAP1 PUSH1 0x4 ADD PUSH2 0xD95 JUMP JUMPDEST SWAP1 PUSH1 0x64 CALLDATALOAD PUSH4 0xFFFFFFFF DUP2 AND DUP2 SUB PUSH2 0x126 JUMPI PUSH1 0x84 CALLDATALOAD PUSH1 0x1 PUSH1 0x1 PUSH1 0x40 SHL SUB DUP2 GT PUSH2 0x126 JUMPI PUSH2 0x7E6 SWAP1 CALLDATASIZE SWAP1 PUSH1 0x4 ADD PUSH2 0xD95 JUMP JUMPDEST SWAP4 PUSH1 0xA4 CALLDATALOAD PUSH1 0x1 PUSH1 0x1 PUSH1 0x40 SHL SUB DUP2 GT PUSH2 0x126 JUMPI PUSH2 0x806 SWAP1 CALLDATASIZE SWAP1 PUSH1 0x4 ADD PUSH2 0xD95 JUMP JUMPDEST SWAP2 SWAP1 SWAP3 PUSH1 0x2 SLOAD SWAP7 PUSH1 0x0 NOT DUP9 EQ PUSH2 0xBDA JUMPI PUSH1 0x1 DUP9 ADD PUSH1 0x2 SSTORE PUSH1 0x40 MLOAD SWAP7 DUP8 PUSH2 0x140 DUP2 ADD LT PUSH1 0x1 PUSH1 0x1 PUSH1 0x40 SHL SUB PUSH2 0x140 DUP11 ADD GT OR PUSH2 0x3DA JUMPI PUSH2 0x89B SWAP7 PUSH2 0x86E PUSH4 0xFFFFFFFF SWAP3 PUSH2 0x880 SWAP7 PUSH2 0x140 DUP13 ADD PUSH1 0x40 MSTORE DUP13 DUP13 MSTORE PUSH1 0x4 CALLDATALOAD PUSH1 0x20 DUP14 ADD MSTORE PUSH1 0x24 CALLDATALOAD PUSH1 0x40 DUP14 ADD MSTORE CALLDATASIZE SWAP2 PUSH2 0xF50 JUMP JUMPDEST PUSH1 0x60 DUP11 ADD MSTORE AND PUSH1 0x80 DUP9 ADD MSTORE CALLDATASIZE SWAP2 PUSH2 0xF50 JUMP JUMPDEST PUSH1 0xA0 DUP6 ADD MSTORE PUSH1 0x1 PUSH1 0x1 PUSH1 0x40 SHL SUB TIMESTAMP AND PUSH1 0xC0 DUP6 ADD MSTORE CALLDATASIZE SWAP2 PUSH2 0xF50 JUMP JUMPDEST PUSH1 0xE0 DUP3 ADD MSTORE PUSH1 0x0 PUSH2 0x100 DUP3 ADD MSTORE PUSH1 0x0 PUSH2 0x120 DUP3 ADD MSTORE DUP2 PUSH1 0x0 MSTORE PUSH1 0x0 PUSH1 0x20 MSTORE PUSH1 0x40 PUSH1 0x0 KECCAK256 SWAP2 DUP2 MLOAD DUP4 SSTORE PUSH1 0x20 DUP3 ADD MLOAD PUSH1 0x1 DUP5 ADD SSTORE PUSH1 0x40 DUP3 ADD MLOAD PUSH1 0x4 DUP2 LT ISZERO PUSH2 0x765 JUMPI PUSH1 0x2 DUP5 ADD SWAP1 PUSH1 0xFF DUP1 NOT DUP4 SLOAD AND SWAP2 AND OR SWAP1 SSTORE PUSH1 0x60 DUP3 ADD MLOAD SWAP3 DUP4 MLOAD PUSH1 0x1 PUSH1 0x1 PUSH1 0x40 SHL SUB DUP2 GT PUSH2 0x3DA JUMPI PUSH2 0x91C DUP2 PUSH2 0x913 PUSH1 0x3 DUP6 ADD SLOAD PUSH2 0xDC2 JUMP JUMPDEST PUSH1 0x3 DUP6 ADD PUSH2 0xF96 JUMP JUMPDEST PUSH1 0x20 PUSH1 0x1F DUP3 GT PUSH1 0x1 EQ PUSH2 0xB6B JUMPI DUP2 SWAP3 SWAP4 SWAP5 SWAP6 PUSH1 0x0 SWAP3 PUSH2 0xB60 JUMPI JUMPDEST POP POP DUP2 PUSH1 0x1 SHL SWAP2 PUSH1 0x0 NOT SWAP1 PUSH1 0x3 SHL SHR NOT AND OR PUSH1 0x3 DUP3 ADD SSTORE JUMPDEST PUSH1 0x4 DUP2 ADD PUSH4 0xFFFFFFFF PUSH1 0x80 DUP6 ADD MLOAD AND PUSH4 0xFFFFFFFF NOT DUP3 SLOAD AND OR SWAP1 SSTORE PUSH1 0xA0 DUP4 ADD MLOAD DUP1 MLOAD PUSH1 0x1 PUSH1 0x1 PUSH1 0x40 SHL SUB DUP2 GT PUSH2 0x3DA JUMPI DUP1 PUSH1 0x5 DUP5 ADD SWAP3 PUSH2 0x992 DUP3 PUSH2 0x2C9 DUP7 SLOAD PUSH2 0xDC2 JUMP JUMPDEST PUSH1 0x20 SWAP1 PUSH1 0x1F DUP4 GT PUSH1 0x1 EQ PUSH2 0xAFA JUMPI PUSH1 0x0 SWAP3 PUSH2 0xAEF JUMPI JUMPDEST POP POP DUP2 PUSH1 0x1 SHL SWAP2 PUSH1 0x0 NOT SWAP1 PUSH1 0x3 SHL SHR NOT AND OR SWAP1 SSTORE JUMPDEST PUSH1 0x6 DUP2 ADD PUSH1 0x1 PUSH1 0x1 PUSH1 0x40 SHL SUB PUSH1 0xC0 DUP6 ADD MLOAD AND PUSH1 0x1 PUSH1 0x1 PUSH1 0x40 SHL SUB NOT DUP3 SLOAD AND OR SWAP1 SSTORE PUSH1 0x7 DUP2 ADD SWAP3 PUSH1 0xE0 DUP2 ADD MLOAD SWAP4 DUP5 MLOAD PUSH1 0x1 PUSH1 0x1 PUSH1 0x40 SHL SUB DUP2 GT PUSH2 0x3DA JUMPI PUSH1 0x20 SWAP6 PUSH2 0xA10 DUP3 PUSH2 0xA0A DUP6 SLOAD PUSH2 0xDC2 JUMP JUMPDEST DUP6 PUSH2 0xF96 JUMP JUMPDEST DUP7 SWAP1 PUSH1 0x1F DUP4 GT PUSH1 0x1 EQ PUSH2 0xA7E JUMPI SWAP3 DUP3 PUSH2 0x120 SWAP4 PUSH2 0xA6B SWAP8 SWAP7 SWAP4 PUSH1 0x9 SWAP7 PUSH1 0x0 SWAP3 PUSH2 0xA73 JUMPI JUMPDEST POP POP DUP2 PUSH1 0x1 SHL SWAP2 PUSH1 0x0 NOT SWAP1 PUSH1 0x3 SHL SHR NOT AND OR SWAP1 SSTORE JUMPDEST PUSH2 0x100 DUP2 ADD MLOAD PUSH1 0x8 DUP6 ADD SSTORE ADD MLOAD ISZERO ISZERO SWAP2 ADD SWAP1 PUSH1 0xFF DUP1 NOT DUP4 SLOAD AND SWAP2 ISZERO ISZERO AND OR SWAP1 SSTORE JUMP JUMPDEST PUSH1 0x40 MLOAD SWAP1 DUP2 MSTORE RETURN JUMPDEST ADD MLOAD SWAP1 POP DUP11 DUP1 PUSH2 0xA34 JUMP JUMPDEST SWAP1 PUSH1 0x1F NOT DUP4 AND SWAP2 DUP5 PUSH1 0x0 MSTORE DUP9 PUSH1 0x0 KECCAK256 SWAP3 PUSH1 0x0 JUMPDEST DUP2 DUP2 LT PUSH2 0xAD8 JUMPI POP SWAP4 PUSH2 0xA6B SWAP8 SWAP7 SWAP4 PUSH1 0x9 SWAP7 SWAP4 PUSH1 0x1 SWAP4 DUP4 PUSH2 0x120 SWAP9 LT PUSH2 0xABF JUMPI JUMPDEST POP POP POP DUP2 SHL ADD SWAP1 SSTORE PUSH2 0xA49 JUMP JUMPDEST ADD MLOAD PUSH1 0x0 NOT PUSH1 0xF8 DUP5 PUSH1 0x3 SHL AND SHR NOT AND SWAP1 SSTORE DUP11 DUP1 DUP1 PUSH2 0xAB2 JUMP JUMPDEST SWAP3 SWAP4 DUP11 PUSH1 0x1 DUP2 SWAP3 DUP8 DUP7 ADD MLOAD DUP2 SSTORE ADD SWAP6 ADD SWAP4 ADD PUSH2 0xA91 JUMP JUMPDEST ADD MLOAD SWAP1 POP DUP7 DUP1 PUSH2 0x9A8 JUMP JUMPDEST PUSH1 0x0 DUP6 DUP2 MSTORE PUSH1 0x20 DUP2 KECCAK256 SWAP4 POP PUSH1 0x1F NOT DUP6 AND SWAP1 JUMPDEST DUP2 DUP2 LT PUSH2 0xB48 JUMPI POP SWAP1 DUP5 PUSH1 0x1 SWAP6 SWAP5 SWAP4 SWAP3 LT PUSH2 0xB2F JUMPI JUMPDEST POP POP POP DUP2 SHL ADD SWAP1 SSTORE PUSH2 0x9BD JUMP JUMPDEST ADD MLOAD PUSH1 0x0 NOT PUSH1 0xF8 DUP5 PUSH1 0x3 SHL AND SHR NOT AND SWAP1 SSTORE DUP7 DUP1 DUP1 PUSH2 0xB22 JUMP JUMPDEST SWAP3 SWAP4 PUSH1 0x20 PUSH1 0x1 DUP2 SWAP3 DUP8 DUP7 ADD MLOAD DUP2 SSTORE ADD SWAP6 ADD SWAP4 ADD PUSH2 0xB0C JUMP JUMPDEST ADD MLOAD SWAP1 POP DUP6 DUP1 PUSH2 0x936 JUMP JUMPDEST PUSH1 0x3 DUP4 ADD PUSH1 0x0 MSTORE PUSH1 0x20 PUSH1 0x0 KECCAK256 SWAP1 PUSH1 0x0 JUMPDEST PUSH1 0x1F NOT DUP5 AND DUP2 LT PUSH2 0xBC2 JUMPI POP PUSH1 0x1 SWAP4 SWAP5 SWAP6 SWAP7 DUP4 PUSH1 0x1F NOT DUP2 AND LT PUSH2 0xBA9 JUMPI JUMPDEST POP POP POP DUP2 SHL ADD PUSH1 0x3 DUP3 ADD SSTORE PUSH2 0x94E JUMP JUMPDEST ADD MLOAD PUSH1 0x0 NOT PUSH1 0xF8 DUP5 PUSH1 0x3 SHL AND SHR NOT AND SWAP1 SSTORE DUP6 DUP1 DUP1 PUSH2 0xB99 JUMP JUMPDEST SWAP1 SWAP2 PUSH1 0x20 PUSH1 0x1 DUP2 SWAP3 DUP6 DUP12 ADD MLOAD DUP2 SSTORE ADD SWAP4 ADD SWAP2 ADD PUSH2 0xB7B JUMP JUMPDEST PUSH4 0x4E487B71 PUSH1 0xE0 SHL PUSH1 0x0 MSTORE PUSH1 0x11 PUSH1 0x4 MSTORE PUSH1 0x24 PUSH1 0x0 REVERT JUMPDEST CALLVALUE PUSH2 0x126 JUMPI PUSH1 0x40 CALLDATASIZE PUSH1 0x3 NOT ADD SLT PUSH2 0x126 JUMPI PUSH1 0x4 CALLDATALOAD SWAP1 PUSH1 0x1 PUSH1 0x1 PUSH1 0x40 SHL SUB SWAP1 PUSH1 0x24 CALLDATALOAD DUP3 DUP2 GT PUSH2 0x126 JUMPI PUSH2 0xC26 SWAP1 CALLDATASIZE SWAP1 PUSH1 0x4 ADD PUSH2 0xD95 JUMP JUMPDEST SWAP3 DUP5 PUSH1 0x0 MSTORE PUSH1 0x20 SWAP3 PUSH1 0x0 DUP5 MSTORE PUSH1 0x40 PUSH1 0x0 KECCAK256 PUSH1 0x1 SWAP2 DUP3 DUP3 ADD SLOAD ISZERO PUSH2 0xD5E JUMPI POP PUSH1 0x7 ADD SWAP2 DUP6 GT PUSH2 0x3DA JUMPI PUSH2 0xC62 DUP6 PUSH2 0xC5C DUP5 SLOAD PUSH2 0xDC2 JUMP JUMPDEST DUP5 PUSH2 0xF96 JUMP JUMPDEST PUSH1 0x0 PUSH1 0x1F DUP7 GT PUSH1 0x1 EQ PUSH2 0xCD5 JUMPI SWAP2 DUP6 DUP1 PUSH32 0xD6E27609C4C6A55DB21641F87E84E8B59414EC45049946E94A67D601F4623E01 SWAP8 SWAP7 SWAP6 SWAP4 PUSH2 0xCC5 SWAP6 PUSH1 0x0 SWAP4 PUSH2 0xCCA JUMPI JUMPDEST POP SHL SWAP1 PUSH1 0x0 NOT DUP8 PUSH1 0x3 SHL SHR NOT AND OR SWAP1 SSTORE JUMPDEST PUSH1 0x40 MLOAD SWAP4 DUP4 DUP6 SWAP5 DUP6 MSTORE DUP5 ADD SWAP2 PUSH2 0xFEA JUMP JUMPDEST SUB SWAP1 LOG2 STOP JUMPDEST DUP6 ADD CALLDATALOAD SWAP3 POP DUP11 PUSH2 0xCA3 JUMP JUMPDEST PUSH1 0x1F NOT DUP7 AND SWAP1 DUP4 PUSH1 0x0 MSTORE DUP6 PUSH1 0x0 KECCAK256 SWAP2 PUSH1 0x0 JUMPDEST DUP2 DUP2 LT PUSH2 0xD49 JUMPI POP SWAP2 DUP8 SWAP7 SWAP6 SWAP4 SWAP2 PUSH32 0xD6E27609C4C6A55DB21641F87E84E8B59414EC45049946E94A67D601F4623E01 SWAP9 PUSH2 0xCC5 SWAP7 SWAP5 LT PUSH2 0xD2F JUMPI JUMPDEST POP POP DUP6 DUP2 SHL ADD SWAP1 SSTORE PUSH2 0xCB4 JUMP JUMPDEST DUP5 ADD CALLDATALOAD PUSH1 0x0 NOT PUSH1 0x3 DUP10 SWAP1 SHL PUSH1 0xF8 AND SHR NOT AND SWAP1 SSTORE DUP9 DUP1 PUSH2 0xD22 JUMP JUMPDEST DUP7 DUP4 ADD CALLDATALOAD DUP5 SSTORE SWAP3 DUP5 ADD SWAP3 SWAP2 DUP8 ADD SWAP2 DUP8 ADD PUSH2 0xCE7 JUMP JUMPDEST PUSH3 0x461BCD PUSH1 0xE5 SHL DUP2 MSTORE PUSH1 0x4 DUP2 ADD DUP7 SWAP1 MSTORE PUSH1 0x12 PUSH1 0x24 DUP3 ADD MSTORE PUSH18 0x1058DD1A5D9A5D1E481B9BDD08199BDD5B99 PUSH1 0x72 SHL PUSH1 0x44 DUP3 ADD MSTORE PUSH1 0x64 SWAP1 REVERT JUMPDEST SWAP2 DUP2 PUSH1 0x1F DUP5 ADD SLT ISZERO PUSH2 0x126 JUMPI DUP3 CALLDATALOAD SWAP2 PUSH1 0x1 PUSH1 0x1 PUSH1 0x40 SHL SUB DUP4 GT PUSH2 0x126 JUMPI PUSH1 0x20 DUP4 DUP2 DUP7 ADD SWAP6 ADD ADD GT PUSH2 0x126 JUMPI JUMP JUMPDEST SWAP1 PUSH1 0x1 DUP3 DUP2 SHR SWAP3 AND DUP1 ISZERO PUSH2 0xDF2 JUMPI JUMPDEST PUSH1 0x20 DUP4 LT EQ PUSH2 0xDDC JUMPI JUMP JUMPDEST PUSH4 0x4E487B71 PUSH1 0xE0 SHL PUSH1 0x0 MSTORE PUSH1 0x22 PUSH1 0x4 MSTORE PUSH1 0x24 PUSH1 0x0 REVERT JUMPDEST SWAP2 PUSH1 0x7F AND SWAP2 PUSH2 0xDD1 JUMP JUMPDEST PUSH1 0x80 DUP2 ADD SWAP1 DUP2 LT PUSH1 0x1 PUSH1 0x1 PUSH1 0x40 SHL SUB DUP3 GT OR PUSH2 0x3DA JUMPI PUSH1 0x40 MSTORE JUMP JUMPDEST SWAP1 PUSH1 0x1F DUP1 NOT SWAP2 ADD AND DUP2 ADD SWAP1 DUP2 LT PUSH1 0x1 PUSH1 0x1 PUSH1 0x40 SHL SUB DUP3 GT OR PUSH2 0x3DA JUMPI PUSH1 0x40 MSTORE JUMP JUMPDEST SWAP1 PUSH1 0x40 MLOAD SWAP2 DUP3 PUSH1 0x0 DUP3 SLOAD SWAP3 PUSH2 0xE4C DUP5 PUSH2 0xDC2 JUMP JUMPDEST SWAP1 DUP2 DUP5 MSTORE PUSH1 0x1 SWAP5 DUP6 DUP2 AND SWAP1 DUP2 PUSH1 0x0 EQ PUSH2 0xEBB JUMPI POP PUSH1 0x1 EQ PUSH2 0xE78 JUMPI JUMPDEST POP POP PUSH2 0xE76 SWAP3 POP SUB DUP4 PUSH2 0xE17 JUMP JUMPDEST JUMP JUMPDEST SWAP1 SWAP4 SWAP2 POP PUSH1 0x0 MSTORE PUSH1 0x20 SWAP1 DUP2 PUSH1 0x0 KECCAK256 SWAP4 PUSH1 0x0 SWAP2 JUMPDEST DUP2 DUP4 LT PUSH2 0xEA3 JUMPI POP POP PUSH2 0xE76 SWAP4 POP DUP3 ADD ADD CODESIZE DUP1 PUSH2 0xE68 JUMP JUMPDEST DUP6 SLOAD DUP9 DUP5 ADD DUP6 ADD MSTORE SWAP5 DUP6 ADD SWAP5 DUP8 SWAP5 POP SWAP2 DUP4 ADD SWAP2 PUSH2 0xE8B JUMP JUMPDEST SWAP2 POP POP PUSH2 0xE76 SWAP5 POP PUSH1 0x20 SWAP3 POP PUSH1 0xFF NOT AND DUP3 DUP5 ADD MSTORE ISZERO ISZERO PUSH1 0x5 SHL DUP3 ADD ADD CODESIZE DUP1 PUSH2 0xE68 JUMP JUMPDEST SWAP2 SWAP1 DUP3 MLOAD SWAP3 DUP4 DUP3 MSTORE PUSH1 0x0 JUMPDEST DUP5 DUP2 LT PUSH2 0xF0A JUMPI POP POP DUP3 PUSH1 0x0 PUSH1 0x20 DUP1 SWAP5 SWAP6 DUP5 ADD ADD MSTORE PUSH1 0x1F DUP1 NOT SWAP2 ADD AND ADD ADD SWAP1 JUMP JUMPDEST PUSH1 0x20 DUP2 DUP4 ADD DUP2 ADD MLOAD DUP5 DUP4 ADD DUP3 ADD MSTORE ADD PUSH2 0xEE9 JUMP JUMPDEST DUP1 SLOAD DUP3 LT ISZERO PUSH2 0xF3A JUMPI PUSH1 0x0 MSTORE PUSH1 0x20 PUSH1 0x0 KECCAK256 SWAP1 PUSH1 0x1 SHL ADD SWAP1 PUSH1 0x0 SWAP1 JUMP JUMPDEST PUSH4 0x4E487B71 PUSH1 0xE0 SHL PUSH1 0x0 MSTORE PUSH1 0x32 PUSH1 0x4 MSTORE PUSH1 0x24 PUSH1 0x0 REVERT JUMPDEST SWAP3 SWAP2 SWAP3 PUSH1 0x1 PUSH1 0x1 PUSH1 0x40 SHL SUB DUP3 GT PUSH2 0x3DA JUMPI PUSH1 0x40 MLOAD SWAP2 PUSH2 0xF79 PUSH1 0x1F DUP3 ADD PUSH1 0x1F NOT AND PUSH1 0x20 ADD DUP5 PUSH2 0xE17 JUMP JUMPDEST DUP3 SWAP5 DUP2 DUP5 MSTORE DUP2 DUP4 ADD GT PUSH2 0x126 JUMPI DUP3 DUP2 PUSH1 0x20 SWAP4 DUP5 PUSH1 0x0 SWAP7 ADD CALLDATACOPY ADD ADD MSTORE JUMP JUMPDEST SWAP1 PUSH1 0x1F DUP2 GT PUSH2 0xFA4 JUMPI POP POP POP JUMP JUMPDEST PUSH1 0x0 SWAP2 DUP3 MSTORE PUSH1 0x20 DUP3 KECCAK256 SWAP1 PUSH1 0x20 PUSH1 0x1F DUP6 ADD PUSH1 0x5 SHR DUP4 ADD SWAP5 LT PUSH2 0xFE0 JUMPI JUMPDEST PUSH1 0x1F ADD PUSH1 0x5 SHR ADD SWAP2 JUMPDEST DUP3 DUP2 LT PUSH2 0xFD5 JUMPI POP POP POP JUMP JUMPDEST DUP2 DUP2 SSTORE PUSH1 0x1 ADD PUSH2 0xFC9 JUMP JUMPDEST SWAP1 SWAP3 POP DUP3 SWAP1 PUSH2 0xFC0 JUMP JUMPDEST SWAP1 DUP1 PUSH1 0x20 SWAP4 SWAP3 DUP2 DUP5 MSTORE DUP5 DUP5 ADD CALLDATACOPY PUSH1 0x0 DUP3 DUP3 ADD DUP5 ADD MSTORE PUSH1 0x1F ADD PUSH1 0x1F NOT AND ADD ADD SWAP1 JUMP JUMPDEST ISZERO PUSH2 0x1012 JUMPI JUMP JUMPDEST PUSH1 0x40 MLOAD PUSH3 0x461BCD PUSH1 0xE5 SHL DUP2 MSTORE PUSH1 0x20 PUSH1 0x4 DUP3 ADD MSTORE PUSH1 0x9 PUSH1 0x24 DUP3 ADD MSTORE PUSH9 0x2737BA1037BBB732B9 PUSH1 0xB9 SHL PUSH1 0x44 DUP3 ADD MSTORE PUSH1 0x64 SWAP1 REVERT INVALID LOG2 PUSH5 0x6970667358 0x22 SLT KECCAK256 0xD PUSH31 0x43447C75C0D617A7314ED10E68A8B224F6B072CBFC1A0324EFF88FAA357964 PUSH20 0x6F6C634300081400330000000000000000000000 "},"methodIdentifiers":{"activities(uint256)":"0d1657e8","activityVerifications(uint256,uint256)":"ebae01b7","addVerifier(address)":"9000b3d6","createActivity(uint256,uint8,string,uint32,string,string)":"0ba4d9d3","getActivityVerifications(uint256)":"58e5548f","nextActivityId()":"3ea870b7","owner()":"8da5cb5b","removeVerifier(address)":"ca2dfd0a","updateActivityMetadata(uint256,string)":"0107a876","verifiers(address)":"6c824487","verifyActivity(uint256,bool,string)":"a7ee8d75"}}}}}