{"src/registry/ClubRegistry.sol":{"ClubRegistry":{"abi":[{"inputs":[],"stateMutability":"nonpayable","type":"constructor"},{"anonymous":false,"inputs":[{"indexed":true,"internalType":"uint256","name":"activityId","type":"uint256"},{"indexed":true,"internalType":"uint256","name":"clubId","type":"uint256"},{"indexed":false,"internalType":"enum Structs.ActivityType","name":"activityType","type":"uint8"},{"indexed":false,"internalType":"string","name":"species","type":"string"},{"indexed":false,"internalType":"uint32","name":"count","type":"uint32"},{"indexed":false,"internalType":"string","name":"locationCode","type":"string"},{"indexed":false,"internalType":"uint256","name":"pointsAwarded","type":"uint256"},{"indexed":false,"internalType":"string","name":"metadataURI","type":"string"}],"name":"ActivityRecorded","type":"event"},{"anonymous":false,"inputs":[{"indexed":true,"internalType":"uint256","name":"activityId","type":"uint256"},{"indexed":true,"internalType":"address","name":"verifier","type":"address"},{"indexed":false,"internalType":"bool","name":"approved","type":"bool"},{"indexed":false,"internalType":"string","name":"comments","type":"string"}],"name":"ActivityVerified","type":"event"},{"anonymous":false,"inputs":[{"indexed":true,"internalType":"uint256","name":"clubId","type":"uint256"},{"indexed":false,"internalType":"uint256","name":"points","type":"uint256"},{"indexed":false,"internalType":"string","name":"reason","type":"string"}],"name":"BonusPointsAwarded","type":"event"},{"anonymous":false,"inputs":[{"indexed":true,"internalType":"uint256","name":"clubId","type":"uint256"},{"indexed":true,"internalType":"address","name":"wallet","type":"address"},{"indexed":false,"internalType":"string","name":"name","type":"string"},{"indexed":false,"internalType":"string","name":"schoolName","type":"string"},{"indexed":false,"internalType":"string","name":"county","type":"string"},{"indexed":false,"internalType":"string","name":"region","type":"string"}],"name":"ClubRegistered","type":"event"},{"anonymous":false,"inputs":[{"indexed":true,"internalType":"uint256","name":"clubId","type":"uint256"},{"indexed":false,"internalType":"bool","name":"active","type":"bool"}],"name":"ClubStatusChanged","type":"event"},{"anonymous":false,"inputs":[{"indexed":true,"internalType":"uint256","name":"clubId","type":"uint256"},{"indexed":false,"internalType":"string","name":"newName","type":"string"},{"indexed":false,"internalType":"bool","name":"active","type":"bool"}],"name":"ClubUpdated","type":"event"},{"anonymous":false,"inputs":[{"indexed":true,"internalType":"string","name":"locationCode","type":"string"},{"indexed":false,"internalType":"uint256","name":"totalTrees","type":"uint256"},{"indexed":false,"internalType":"uint256","name":"totalActivities","type":"uint256"}],"name":"LocationUpdated","type":"event"},{"anonymous":false,"inputs":[{"indexed":true,"internalType":"uint256","name":"clubId","type":"uint256"},{"indexed":false,"internalType":"uint256","name":"points","type":"uint256"},{"indexed":false,"internalType":"string","name":"reason","type":"string"}],"name":"PointsAwarded","type":"event"},{"inputs":[{"internalType":"address","name":"_verifier","type":"address"}],"name":"addVerifier","outputs":[],"stateMutability":"nonpayable","type":"function"},{"inputs":[{"internalType":"address","name":"","type":"address"}],"name":"clubIdByWallet","outputs":[{"internalType":"uint256","name":"","type":"uint256"}],"stateMutability":"view","type":"function"},{"inputs":[{"internalType":"uint256","name":"","type":"uint256"}],"name":"clubs","outputs":[{"internalType":"uint256","name":"id","type":"uint256"},{"internalType":"address","name":"wallet","type":"address"},{"internalType":"string","name":"name","type":"string"},{"internalType":"string","name":"schoolName","type":"string"},{"internalType":"string","name":"county","type":"string"},{"internalType":"string","name":"region","type":"string"},{"internalType":"uint256","name":"totalPoints","type":"uint256"},{"internalType":"uint256","name":"totalTrees","type":"uint256"},{"internalType":"bool","name":"active","type":"bool"},{"internalType":"uint64","name":"registrationDate","type":"uint64"}],"stateMutability":"view","type":"function"},{"inputs":[{"internalType":"string","name":"","type":"string"}],"name":"countyClubCount","outputs":[{"internalType":"uint256","name":"","type":"uint256"}],"stateMutability":"view","type":"function"},{"inputs":[{"internalType":"uint256","name":"_start","type":"uint256"},{"internalType":"uint256","name":"_limit","type":"uint256"}],"name":"getClubs","outputs":[{"components":[{"internalType":"uint256","name":"id","type":"uint256"},{"internalType":"address","name":"wallet","type":"address"},{"internalType":"string","name":"name","type":"string"},{"internalType":"string","name":"schoolName","type":"string"},{"internalType":"string","name":"county","type":"string"},{"internalType":"string","name":"region","type":"string"},{"internalType":"uint256","name":"totalPoints","type":"uint256"},{"internalType":"uint256","name":"totalTrees","type":"uint256"},{"internalType":"bool","name":"active","type":"bool"},{"internalType":"uint64","name":"registrationDate","type":"uint64"}],"internalType":"struct Structs.Club[]","name":"","type":"tuple[]"}],"stateMutability":"view","type":"function"},{"inputs":[{"internalType":"string","name":"_county","type":"string"}],"name":"getCountyStats","outputs":[{"internalType":"uint256","name":"","type":"uint256"}],"stateMutability":"view","type":"function"},{"inputs":[],"name":"nextClubId","outputs":[{"internalType":"uint256","name":"","type":"uint256"}],"stateMutability":"view","type":"function"},{"inputs":[],"name":"owner","outputs":[{"internalType":"address","name":"","type":"address"}],"stateMutability":"view","type":"function"},{"inputs":[{"internalType":"address","name":"_wallet","type":"address"},{"internalType":"string","name":"_name","type":"string"},{"internalType":"string","name":"_schoolName","type":"string"},{"internalType":"string","name":"_county","type":"string"},{"internalType":"string","name":"_region","type":"string"}],"name":"registerClub","outputs":[{"internalType":"uint256","name":"","type":"uint256"}],"stateMutability":"nonpayable","type":"function"},{"inputs":[{"internalType":"string","name":"","type":"string"}],"name":"registeredSchools","outputs":[{"internalType":"bool","name":"","type":"bool"}],"stateMutability":"view","type":"function"},{"inputs":[{"internalType":"address","name":"_verifier","type":"address"}],"name":"removeVerifier","outputs":[],"stateMutability":"nonpayable","type":"function"},{"inputs":[{"internalType":"address","name":"_newOwner","type":"address"}],"name":"transferOwnership","outputs":[],"stateMutability":"nonpayable","type":"function"},{"inputs":[{"internalType":"uint256","name":"_clubId","type":"uint256"},{"internalType":"string","name":"_newName","type":"string"},{"internalType":"bool","name":"_active","type":"bool"}],"name":"updateClub","outputs":[],"stateMutability":"nonpayable","type":"function"},{"inputs":[{"internalType":"address","name":"","type":"address"}],"name":"verifiers","outputs":[{"internalType":"bool","name":"","type":"bool"}],"stateMutability":"view","type":"function"}],"evm":{"bytecode":{"linkReferences":{},"object":"6080806040523461002c5760018055600080546001600160a01b0319163317905561148490816100328239f35b600080fdfe60c0604052600436101561001257600080fd5b60003560e01c806314524b421461090d578063226fd922146108e657806347ba097f146108ac57806354ca56da1461085b57806357d531d51461058b5780636c8244871461054c5780638da5cb5b146105235780639000b3d6146104d457806390a87806146102dc5780639cc009c1146101e4578063bba0cfff146101a5578063ca2dfd0a14610159578063da5a78981461013b5763f2fde38b146100b657600080fd5b34610136576020366003190112610136576100cf611118565b600054906001600160a01b03906100e93383851614611344565b16908115610101576001600160a01b03191617600055005b60405162461bcd60e51b815260206004820152600d60248201526c24b73b30b634b21037bbb732b960991b6044820152606490fd5b600080fd5b34610136576000366003190112610136576020600154604051908152f35b3461013657602036600319011261013657610172611118565b6000546001600160a01b03919061018c9083163314611344565b166000908152600660205260409020805460ff19169055005b3461013657602060ff6101ce826101bb366111de565b816040519382858094519384920161121c565b8101600481520301902054166040519015158152f35b34610136576020366003190112610136576004356000526002602052602060406000208054906001600160401b0360018060a01b0360018301541661022b6002840161129e565b926102b761023b6003830161129e565b6102a961024a6004850161129e565b61029b6102596005870161129e565b9361028d60068801549a600860078a0154990154996040519e8f9e8f908152015260408d61014091829101528d019061123f565b908b820360608d015261123f565b9089820360808b015261123f565b9087820360a089015261123f565b9360c086015260e085015260ff8116151561010085015260081c166101208301520390f35b34610136576060366003190112610136576001600160401b036004356024358281116101365761031090369060040161112e565b6044358015158082036101365761033260018060a01b03600054163314611344565b8460005260209160028352604060002080541561049e576002810197851161048857610368856103628a54611264565b8a61138b565b600097601f86116001146103fb576103d09291600891877f62551f098dc964c743ead0abcbceb212117cb9f8215eff3a2bf343aff8f4cf629a9b6000916103f0575b508860011b906000198a60031b1c19161790555b019060ff801983541691151516179055565b6103e76040519485946040865260408601916113df565b918301520390a2005b90508901358c6103aa565b601f19861681600052856000209060005b8181106104715750916103d09493917f62551f098dc964c743ead0abcbceb212117cb9f8215eff3a2bf343aff8f4cf629a9b8960089510610457575b5050600188811b0190556103be565b8a013560001960038b901b60f8161c191690558b80610448565b898c013583559a87019a600190920191870161040c565b634e487b7160e01b600052604160045260246000fd5b60405162461bcd60e51b815260048101859052600e60248201526d10db1d58881b9bdd08199bdd5b9960921b6044820152606490fd5b34610136576020366003190112610136576104ed611118565b6000546001600160a01b0391906105079083163314611344565b166000908152600660205260409020805460ff19166001179055005b34610136576000366003190112610136576000546040516001600160a01b039091168152602090f35b34610136576020366003190112610136576001600160a01b0361056d611118565b166000526006602052602060ff604060002054166040519015158152f35b34610136576040366003190112610136576004356024358101908181116108455781600192835480911161083d575b506105c58282611400565b916105cf8361140d565b926105dd6040519485611177565b8084526105ec601f199161140d565b0160005b8181106107e2575050805b828110610709578385604051918291602090818401828552835180915260408501928060408360051b8801019501936000905b83821061063b5787870388f35b918496819592949698508190603f198b82030185528951908151815260018060a01b038383015116838201526106c26106af61069c610689604086015161014080604088015286019061123f565b606080870151908683039087015261123f565b608080860151908583039086015261123f565b60a080850151908483039085015261123f565b9160c0808201519083015260e081015160e0830152610100808201511515908301526001600160401b0361012080920151169101529801920192018796959391949261062e565b806107dd916000526107d7600260208181526001600160401b03604060002061075f6107358988611400565b94604051946107438661115b565b835486528d8401546001600160a01b031690860152820161129e565b60408401526107706003820161129e565b60608401526107816004820161129e565b60808401526107926005820161129e565b60a0840152600681015460c0840152600781015460e08401526008809101549060ff821615156101008501521c166101208201526107d08289611424565b5286611424565b5061137c565b6105fb565b6020906040516107f18161115b565b60008152826000818301526060806040840152808084015280608084015260a0830152600060c0830152600060e0830152600061010083015260006101208301528288010152016105f0565b9050836105ba565b634e487b7160e01b600052601160045260246000fd5b34610136576020366003190112610136576004356001600160401b03811161013657602061088e8192369060040161112e565b91908260405193849283378101600581520301902054604051908152f35b34610136576020366003190112610136576001600160a01b036108cd611118565b1660005260036020526020604060002054604051908152f35b346101365760206108fa816101bb366111de565b8101600581520301902054604051908152f35b346101365760a036600319011261013657610926611118565b6024356001600160401b0381116101365761094590369060040161112e565b6044929192356001600160401b0381116101365761096790369060040161112e565b9390916064356001600160401b0381116101365761098990369060040161112e565b94906084356001600160401b038111610136576109aa90369060040161112e565b9690956109c260018060a01b03600054163314611344565b6001600160a01b038416156110e2576001600160a01b03841660009081526003602052604090205461109d5760ff6040518a8382376020818c810160048152030190205416611058578415611023578115610fec57610a266001548060805261137c565b60015560405198610a368a61115b565b6080518a526001600160a01b03851660208b0152610a55368789611198565b60408b0152610a65368284611198565b60608b0152610a75368486611198565b60808b0152610a85368a8a611198565b60a08b0152600060c08b0152600060e08b015260016101008b01526001600160401b0342166101208b0152608051600052600260205260406000209980518b5560018b0160018060a01b036020830151166bffffffffffffffffffffffff60a01b82541617905560408101518051906001600160401b038211610488578c8291610b1f83610b166002850154611264565b6002850161138b565b602091601f8411600114610f7a5750600092610f6f575b50508160011b916000199060031b1c19161760028c01555b60608101518051906001600160401b038211610488578c8291610b8183610b786003850154611264565b6003850161138b565b602091601f8411600114610efd5750600092610ef2575b50508160011b916000199060031b1c19161760038c01555b608081015180518060a0526001600160401b03811161048857610be3908d6004610bdc81830154611264565b910161138b565b60a0519060208d6001601f851114610e7f575060a051925060009183610e74575b50508160011b916000199060031b1c19161760048c01555b60a08101518051906001600160401b03821161048857610c45828e6005610bdc81830154611264565b602090601f8311600114610dcb579261012060087fdb6287da9322f01813d2d3155a4ffef04aa34919204450efc1c06efecb39c30b9d9e9f85610db19c9b9996610d969b9996610d8899600092610dc0575b50508160011b916000199060031b1c19161760058201555b60c0840151600682015560e084015160078201550191610ce26101008201511515849060ff801983541691151516179055565b0151815468ffffffffffffffff00191660089190911b68ffffffffffffffff00161790556001600160a01b038716600090815260036020526080516040918290205551818382376020818381016004815203019020600160ff19825416179055604051848682376020818681016005815203019020610d61815461137c565b9055610d7a6040519a8b9a60808c5260808c01916113df565b9189830360208b01526113df565b9186830360408801526113df565b90838203606085015260018060a01b031696608051966113df565b0390a360206040516080518152f35b015190503880610c97565b9060058e0160005260206000209160005b601f1985168110610e5c575060087fdb6287da9322f01813d2d3155a4ffef04aa34919204450efc1c06efecb39c30b9d9e9f600186610d969b9996610d889996610db19f9e9c999661012097601f19811610610e43575b505050811b016005820155610caf565b015160001960f88460031b161c19169055388080610e33565b91926020600181928685015181550194019201610ddc565b015190508d80610c04565b600490939293016000526020600020906000935b601f1984168510610ed7576001945083601f19811610610ebe575b505050811b0160048c0155610c1c565b015160001960f88460031b161c191690558d8080610eae565b81810151835560209485019460019093019290910190610e93565b015190508d80610b98565b6003919450016000526020600020906000935b601f1984168510610f54576001945083601f19811610610f3b575b505050811b0160038c0155610bb0565b015160001960f88460031b161c191690558d8080610f2b565b81810151835560209485019460019093019290910190610f10565b015190508d80610b36565b6002919450016000526020600020906000935b601f1984168510610fd1576001945083601f19811610610fb8575b505050811b0160028c0155610b4e565b015160001960f88460031b161c191690558d8080610fa8565b81810151835560209485019460019093019290910190610f8d565b60405162461bcd60e51b815260206004820152600f60248201526e10dbdd5b9d1e481c995c5d5a5c9959608a1b6044820152606490fd5b60405162461bcd60e51b815260206004820152600d60248201526c13985b59481c995c5d5a5c9959609a1b6044820152606490fd5b60405162461bcd60e51b815260206004820152601960248201527f5363686f6f6c20616c72656164792072656769737465726564000000000000006044820152606490fd5b60405162461bcd60e51b815260206004820152601960248201527f57616c6c657420616c72656164792072656769737465726564000000000000006044820152606490fd5b60405162461bcd60e51b815260206004820152600e60248201526d125b9d985b1a59081dd85b1b195d60921b6044820152606490fd5b600435906001600160a01b038216820361013657565b9181601f84011215610136578235916001600160401b038311610136576020838186019501011161013657565b61014081019081106001600160401b0382111761048857604052565b90601f801991011681019081106001600160401b0382111761048857604052565b9291926001600160401b03821161048857604051916111c1601f8201601f191660200184611177565b829481845281830111610136578281602093846000960137010152565b602060031982011261013657600435906001600160401b03821161013657806023830112156101365781602461121993600401359101611198565b90565b60005b83811061122f5750506000910152565b818101518382015260200161121f565b906020916112588151809281855285808601910161121c565b601f01601f1916010190565b90600182811c92168015611294575b602083101461127e57565b634e487b7160e01b600052602260045260246000fd5b91607f1691611273565b90604051918260008254926112b284611264565b90818452600194858116908160001461132157506001146112de575b50506112dc92500383611177565b565b9093915060005260209081600020936000915b8183106113095750506112dc935082010138806112ce565b855488840185015294850194879450918301916112f1565b9150506112dc94506020925060ff191682840152151560051b82010138806112ce565b1561134b57565b60405162461bcd60e51b81526020600482015260096024820152682737ba1037bbb732b960b91b6044820152606490fd5b60001981146108455760010190565b90601f811161139957505050565b600091825260208220906020601f850160051c830194106113d5575b601f0160051c01915b8281106113ca57505050565b8181556001016113be565b90925082906113b5565b908060209392818452848401376000828201840152601f01601f1916010190565b9190820391821161084557565b6001600160401b0381116104885760051b60200190565b80518210156114385760209160051b010190565b634e487b7160e01b600052603260045260246000fdfea2646970667358221220191af7142bd867d4a544a06cc2f8f297631258327c2e9a2cdedf2d95121dd9e264736f6c63430008140033","opcodes":"PUSH1 0x80 DUP1 PUSH1 0x40 MSTORE CALLVALUE PUSH2 0x2C JUMPI PUSH1 0x1 DUP1 SSTORE PUSH1 0x0 DUP1 SLOAD PUSH1 0x1 PUSH1 0x1 PUSH1 0xA0 SHL SUB NOT AND CALLER OR SWAP1 SSTORE PUSH2 0x1484 SWAP1 DUP2 PUSH2 0x32 DUP3 CODECOPY RETURN JUMPDEST PUSH1 0x0 DUP1 REVERT INVALID PUSH1 0xC0 PUSH1 0x40 MSTORE PUSH1 0x4 CALLDATASIZE LT ISZERO PUSH2 0x12 JUMPI PUSH1 0x0 DUP1 REVERT JUMPDEST PUSH1 0x0 CALLDATALOAD PUSH1 0xE0 SHR DUP1 PUSH4 0x14524B42 EQ PUSH2 0x90D JUMPI DUP1 PUSH4 0x226FD922 EQ PUSH2 0x8E6 JUMPI DUP1 PUSH4 0x47BA097F EQ PUSH2 0x8AC JUMPI DUP1 PUSH4 0x54CA56DA EQ PUSH2 0x85B JUMPI DUP1 PUSH4 0x57D531D5 EQ PUSH2 0x58B JUMPI DUP1 PUSH4 0x6C824487 EQ PUSH2 0x54C JUMPI DUP1 PUSH4 0x8DA5CB5B EQ PUSH2 0x523 JUMPI DUP1 PUSH4 0x9000B3D6 EQ PUSH2 0x4D4 JUMPI DUP1 PUSH4 0x90A87806 EQ PUSH2 0x2DC JUMPI DUP1 PUSH4 0x9CC009C1 EQ PUSH2 0x1E4 JUMPI DUP1 PUSH4 0xBBA0CFFF EQ PUSH2 0x1A5 JUMPI DUP1 PUSH4 0xCA2DFD0A EQ PUSH2 0x159 JUMPI DUP1 PUSH4 0xDA5A7898 EQ PUSH2 0x13B JUMPI PUSH4 0xF2FDE38B EQ PUSH2 0xB6 JUMPI PUSH1 0x0 DUP1 REVERT JUMPDEST CALLVALUE PUSH2 0x136 JUMPI PUSH1 0x20 CALLDATASIZE PUSH1 0x3 NOT ADD SLT PUSH2 0x136 JUMPI PUSH2 0xCF PUSH2 0x1118 JUMP JUMPDEST PUSH1 0x0 SLOAD SWAP1 PUSH1 0x1 PUSH1 0x1 PUSH1 0xA0 SHL SUB SWAP1 PUSH2 0xE9 CALLER DUP4 DUP6 AND EQ PUSH2 0x1344 JUMP JUMPDEST AND SWAP1 DUP2 ISZERO PUSH2 0x101 JUMPI PUSH1 0x1 PUSH1 0x1 PUSH1 0xA0 SHL SUB NOT AND OR PUSH1 0x0 SSTORE STOP JUMPDEST PUSH1 0x40 MLOAD PUSH3 0x461BCD PUSH1 0xE5 SHL DUP2 MSTORE PUSH1 0x20 PUSH1 0x4 DUP3 ADD MSTORE PUSH1 0xD PUSH1 0x24 DUP3 ADD MSTORE PUSH13 0x24B73B30B634B21037BBB732B9 PUSH1 0x99 SHL PUSH1 0x44 DUP3 ADD MSTORE PUSH1 0x64 SWAP1 REVERT JUMPDEST PUSH1 0x0 DUP1 REVERT JUMPDEST CALLVALUE PUSH2 0x136 JUMPI PUSH1 0x0 CALLDATASIZE PUSH1 0x3 NOT ADD SLT PUSH2 0x136 JUMPI PUSH1 0x20 PUSH1 0x1 SLOAD PUSH1 0x40 MLOAD SWAP1 DUP2 MSTORE RETURN JUMPDEST CALLVALUE PUSH2 0x136 JUMPI PUSH1 0x20 CALLDATASIZE PUSH1 0x3 NOT ADD SLT PUSH2 0x136 JUMPI PUSH2 0x172 PUSH2 0x1118 JUMP JUMPDEST PUSH1 0x0 SLOAD PUSH1 0x1 PUSH1 0x1 PUSH1 0xA0 SHL SUB SWAP2 SWAP1 PUSH2 0x18C SWAP1 DUP4 AND CALLER EQ PUSH2 0x1344 JUMP JUMPDEST AND PUSH1 0x0 SWAP1 DUP2 MSTORE PUSH1 0x6 PUSH1 0x20 MSTORE PUSH1 0x40 SWAP1 KECCAK256 DUP1 SLOAD PUSH1 0xFF NOT AND SWAP1 SSTORE STOP JUMPDEST CALLVALUE PUSH2 0x136 JUMPI PUSH1 0x20 PUSH1 0xFF PUSH2 0x1CE DUP3 PUSH2 0x1BB CALLDATASIZE PUSH2 0x11DE JUMP JUMPDEST DUP2 PUSH1 0x40 MLOAD SWAP4 DUP3 DUP6 DUP1 SWAP5 MLOAD SWAP4 DUP5 SWAP3 ADD PUSH2 0x121C JUMP JUMPDEST DUP2 ADD PUSH1 0x4 DUP2 MSTORE SUB ADD SWAP1 KECCAK256 SLOAD AND PUSH1 0x40 MLOAD SWAP1 ISZERO ISZERO DUP2 MSTORE RETURN JUMPDEST CALLVALUE PUSH2 0x136 JUMPI PUSH1 0x20 CALLDATASIZE PUSH1 0x3 NOT ADD SLT PUSH2 0x136 JUMPI PUSH1 0x4 CALLDATALOAD PUSH1 0x0 MSTORE PUSH1 0x2 PUSH1 0x20 MSTORE PUSH1 0x20 PUSH1 0x40 PUSH1 0x0 KECCAK256 DUP1 SLOAD SWAP1 PUSH1 0x1 PUSH1 0x1 PUSH1 0x40 SHL SUB PUSH1 0x1 DUP1 PUSH1 0xA0 SHL SUB PUSH1 0x1 DUP4 ADD SLOAD AND PUSH2 0x22B PUSH1 0x2 DUP5 ADD PUSH2 0x129E JUMP JUMPDEST SWAP3 PUSH2 0x2B7 PUSH2 0x23B PUSH1 0x3 DUP4 ADD PUSH2 0x129E JUMP JUMPDEST PUSH2 0x2A9 PUSH2 0x24A PUSH1 0x4 DUP6 ADD PUSH2 0x129E JUMP JUMPDEST PUSH2 0x29B PUSH2 0x259 PUSH1 0x5 DUP8 ADD PUSH2 0x129E JUMP JUMPDEST SWAP4 PUSH2 0x28D PUSH1 0x6 DUP9 ADD SLOAD SWAP11 PUSH1 0x8 PUSH1 0x7 DUP11 ADD SLOAD SWAP10 ADD SLOAD SWAP10 PUSH1 0x40 MLOAD SWAP15 DUP16 SWAP15 DUP16 SWAP1 DUP2 MSTORE ADD MSTORE PUSH1 0x40 DUP14 PUSH2 0x140 SWAP2 DUP3 SWAP2 ADD MSTORE DUP14 ADD SWAP1 PUSH2 0x123F JUMP JUMPDEST SWAP1 DUP12 DUP3 SUB PUSH1 0x60 DUP14 ADD MSTORE PUSH2 0x123F JUMP JUMPDEST SWAP1 DUP10 DUP3 SUB PUSH1 0x80 DUP12 ADD MSTORE PUSH2 0x123F JUMP JUMPDEST SWAP1 DUP8 DUP3 SUB PUSH1 0xA0 DUP10 ADD MSTORE PUSH2 0x123F JUMP JUMPDEST SWAP4 PUSH1 0xC0 DUP7 ADD MSTORE PUSH1 0xE0 DUP6 ADD MSTORE PUSH1 0xFF DUP2 AND ISZERO ISZERO PUSH2 0x100 DUP6 ADD MSTORE PUSH1 0x8 SHR AND PUSH2 0x120 DUP4 ADD MSTORE SUB SWAP1 RETURN JUMPDEST CALLVALUE PUSH2 0x136 JUMPI PUSH1 0x60 CALLDATASIZE PUSH1 0x3 NOT ADD SLT PUSH2 0x136 JUMPI PUSH1 0x1 PUSH1 0x1 PUSH1 0x40 SHL SUB PUSH1 0x4 CALLDATALOAD PUSH1 0x24 CALLDATALOAD DUP3 DUP2 GT PUSH2 0x136 JUMPI PUSH2 0x310 SWAP1 CALLDATASIZE SWAP1 PUSH1 0x4 ADD PUSH2 0x112E JUMP JUMPDEST PUSH1 0x44 CALLDATALOAD DUP1 ISZERO ISZERO DUP1 DUP3 SUB PUSH2 0x136 JUMPI PUSH2 0x332 PUSH1 0x1 DUP1 PUSH1 0xA0 SHL SUB PUSH1 0x0 SLOAD AND CALLER EQ PUSH2 0x1344 JUMP JUMPDEST DUP5 PUSH1 0x0 MSTORE PUSH1 0x20 SWAP2 PUSH1 0x2 DUP4 MSTORE PUSH1 0x40 PUSH1 0x0 KECCAK256 DUP1 SLOAD ISZERO PUSH2 0x49E JUMPI PUSH1 0x2 DUP2 ADD SWAP8 DUP6 GT PUSH2 0x488 JUMPI PUSH2 0x368 DUP6 PUSH2 0x362 DUP11 SLOAD PUSH2 0x1264 JUMP JUMPDEST DUP11 PUSH2 0x138B JUMP JUMPDEST PUSH1 0x0 SWAP8 PUSH1 0x1F DUP7 GT PUSH1 0x1 EQ PUSH2 0x3FB JUMPI PUSH2 0x3D0 SWAP3 SWAP2 PUSH1 0x8 SWAP2 DUP8 PUSH32 0x62551F098DC964C743EAD0ABCBCEB212117CB9F8215EFF3A2BF343AFF8F4CF62 SWAP11 SWAP12 PUSH1 0x0 SWAP2 PUSH2 0x3F0 JUMPI JUMPDEST POP DUP9 PUSH1 0x1 SHL SWAP1 PUSH1 0x0 NOT DUP11 PUSH1 0x3 SHL SHR NOT AND OR SWAP1 SSTORE JUMPDEST ADD SWAP1 PUSH1 0xFF DUP1 NOT DUP4 SLOAD AND SWAP2 ISZERO ISZERO AND OR SWAP1 SSTORE JUMP JUMPDEST PUSH2 0x3E7 PUSH1 0x40 MLOAD SWAP5 DUP6 SWAP5 PUSH1 0x40 DUP7 MSTORE PUSH1 0x40 DUP7 ADD SWAP2 PUSH2 0x13DF JUMP JUMPDEST SWAP2 DUP4 ADD MSTORE SUB SWAP1 LOG2 STOP JUMPDEST SWAP1 POP DUP10 ADD CALLDATALOAD DUP13 PUSH2 0x3AA JUMP JUMPDEST PUSH1 0x1F NOT DUP7 AND DUP2 PUSH1 0x0 MSTORE DUP6 PUSH1 0x0 KECCAK256 SWAP1 PUSH1 0x0 JUMPDEST DUP2 DUP2 LT PUSH2 0x471 JUMPI POP SWAP2 PUSH2 0x3D0 SWAP5 SWAP4 SWAP2 PUSH32 0x62551F098DC964C743EAD0ABCBCEB212117CB9F8215EFF3A2BF343AFF8F4CF62 SWAP11 SWAP12 DUP10 PUSH1 0x8 SWAP6 LT PUSH2 0x457 JUMPI JUMPDEST POP POP PUSH1 0x1 DUP9 DUP2 SHL ADD SWAP1 SSTORE PUSH2 0x3BE JUMP JUMPDEST DUP11 ADD CALLDATALOAD PUSH1 0x0 NOT PUSH1 0x3 DUP12 SWAP1 SHL PUSH1 0xF8 AND SHR NOT AND SWAP1 SSTORE DUP12 DUP1 PUSH2 0x448 JUMP JUMPDEST DUP10 DUP13 ADD CALLDATALOAD DUP4 SSTORE SWAP11 DUP8 ADD SWAP11 PUSH1 0x1 SWAP1 SWAP3 ADD SWAP2 DUP8 ADD PUSH2 0x40C JUMP JUMPDEST PUSH4 0x4E487B71 PUSH1 0xE0 SHL PUSH1 0x0 MSTORE PUSH1 0x41 PUSH1 0x4 MSTORE PUSH1 0x24 PUSH1 0x0 REVERT JUMPDEST PUSH1 0x40 MLOAD PUSH3 0x461BCD PUSH1 0xE5 SHL DUP2 MSTORE PUSH1 0x4 DUP2 ADD DUP6 SWAP1 MSTORE PUSH1 0xE PUSH1 0x24 DUP3 ADD MSTORE PUSH14 0x10DB1D58881B9BDD08199BDD5B99 PUSH1 0x92 SHL PUSH1 0x44 DUP3 ADD MSTORE PUSH1 0x64 SWAP1 REVERT JUMPDEST CALLVALUE PUSH2 0x136 JUMPI PUSH1 0x20 CALLDATASIZE PUSH1 0x3 NOT ADD SLT PUSH2 0x136 JUMPI PUSH2 0x4ED PUSH2 0x1118 JUMP JUMPDEST PUSH1 0x0 SLOAD PUSH1 0x1 PUSH1 0x1 PUSH1 0xA0 SHL SUB SWAP2 SWAP1 PUSH2 0x507 SWAP1 DUP4 AND CALLER EQ PUSH2 0x1344 JUMP JUMPDEST AND PUSH1 0x0 SWAP1 DUP2 MSTORE PUSH1 0x6 PUSH1 0x20 MSTORE PUSH1 0x40 SWAP1 KECCAK256 DUP1 SLOAD PUSH1 0xFF NOT AND PUSH1 0x1 OR SWAP1 SSTORE STOP JUMPDEST CALLVALUE PUSH2 0x136 JUMPI PUSH1 0x0 CALLDATASIZE PUSH1 0x3 NOT ADD SLT PUSH2 0x136 JUMPI PUSH1 0x0 SLOAD PUSH1 0x40 MLOAD PUSH1 0x1 PUSH1 0x1 PUSH1 0xA0 SHL SUB SWAP1 SWAP2 AND DUP2 MSTORE PUSH1 0x20 SWAP1 RETURN JUMPDEST CALLVALUE PUSH2 0x136 JUMPI PUSH1 0x20 CALLDATASIZE PUSH1 0x3 NOT ADD SLT PUSH2 0x136 JUMPI PUSH1 0x1 PUSH1 0x1 PUSH1 0xA0 SHL SUB PUSH2 0x56D PUSH2 0x1118 JUMP JUMPDEST AND PUSH1 0x0 MSTORE PUSH1 0x6 PUSH1 0x20 MSTORE PUSH1 0x20 PUSH1 0xFF PUSH1 0x40 PUSH1 0x0 KECCAK256 SLOAD AND PUSH1 0x40 MLOAD SWAP1 ISZERO ISZERO DUP2 MSTORE RETURN JUMPDEST CALLVALUE PUSH2 0x136 JUMPI PUSH1 0x40 CALLDATASIZE PUSH1 0x3 NOT ADD SLT PUSH2 0x136 JUMPI PUSH1 0x4 CALLDATALOAD PUSH1 0x24 CALLDATALOAD DUP2 ADD SWAP1 DUP2 DUP2 GT PUSH2 0x845 JUMPI DUP2 PUSH1 0x1 SWAP3 DUP4 SLOAD DUP1 SWAP2 GT PUSH2 0x83D JUMPI JUMPDEST POP PUSH2 0x5C5 DUP3 DUP3 PUSH2 0x1400 JUMP JUMPDEST SWAP2 PUSH2 0x5CF DUP4 PUSH2 0x140D JUMP JUMPDEST SWAP3 PUSH2 0x5DD PUSH1 0x40 MLOAD SWAP5 DUP6 PUSH2 0x1177 JUMP JUMPDEST DUP1 DUP5 MSTORE PUSH2 0x5EC PUSH1 0x1F NOT SWAP2 PUSH2 0x140D JUMP JUMPDEST ADD PUSH1 0x0 JUMPDEST DUP2 DUP2 LT PUSH2 0x7E2 JUMPI POP POP DUP1 JUMPDEST DUP3 DUP2 LT PUSH2 0x709 JUMPI DUP4 DUP6 PUSH1 0x40 MLOAD SWAP2 DUP3 SWAP2 PUSH1 0x20 SWAP1 DUP2 DUP5 ADD DUP3 DUP6 MSTORE DUP4 MLOAD DUP1 SWAP2 MSTORE PUSH1 0x40 DUP6 ADD SWAP3 DUP1 PUSH1 0x40 DUP4 PUSH1 0x5 SHL DUP9 ADD ADD SWAP6 ADD SWAP4 PUSH1 0x0 SWAP1 JUMPDEST DUP4 DUP3 LT PUSH2 0x63B JUMPI DUP8 DUP8 SUB DUP9 RETURN JUMPDEST SWAP2 DUP5 SWAP7 DUP2 SWAP6 SWAP3 SWAP5 SWAP7 SWAP9 POP DUP2 SWAP1 PUSH1 0x3F NOT DUP12 DUP3 SUB ADD DUP6 MSTORE DUP10 MLOAD SWAP1 DUP2 MLOAD DUP2 MSTORE PUSH1 0x1 DUP1 PUSH1 0xA0 SHL SUB DUP4 DUP4 ADD MLOAD AND DUP4 DUP3 ADD MSTORE PUSH2 0x6C2 PUSH2 0x6AF PUSH2 0x69C PUSH2 0x689 PUSH1 0x40 DUP7 ADD MLOAD PUSH2 0x140 DUP1 PUSH1 0x40 DUP9 ADD MSTORE DUP7 ADD SWAP1 PUSH2 0x123F JUMP JUMPDEST PUSH1 0x60 DUP1 DUP8 ADD MLOAD SWAP1 DUP7 DUP4 SUB SWAP1 DUP8 ADD MSTORE PUSH2 0x123F JUMP JUMPDEST PUSH1 0x80 DUP1 DUP7 ADD MLOAD SWAP1 DUP6 DUP4 SUB SWAP1 DUP7 ADD MSTORE PUSH2 0x123F JUMP JUMPDEST PUSH1 0xA0 DUP1 DUP6 ADD MLOAD SWAP1 DUP5 DUP4 SUB SWAP1 DUP6 ADD MSTORE PUSH2 0x123F JUMP JUMPDEST SWAP2 PUSH1 0xC0 DUP1 DUP3 ADD MLOAD SWAP1 DUP4 ADD MSTORE PUSH1 0xE0 DUP2 ADD MLOAD PUSH1 0xE0 DUP4 ADD MSTORE PUSH2 0x100 DUP1 DUP3 ADD MLOAD ISZERO ISZERO SWAP1 DUP4 ADD MSTORE PUSH1 0x1 PUSH1 0x1 PUSH1 0x40 SHL SUB PUSH2 0x120 DUP1 SWAP3 ADD MLOAD AND SWAP2 ADD MSTORE SWAP9 ADD SWAP3 ADD SWAP3 ADD DUP8 SWAP7 SWAP6 SWAP4 SWAP2 SWAP5 SWAP3 PUSH2 0x62E JUMP JUMPDEST DUP1 PUSH2 0x7DD SWAP2 PUSH1 0x0 MSTORE PUSH2 0x7D7 PUSH1 0x2 PUSH1 0x20 DUP2 DUP2 MSTORE PUSH1 0x1 PUSH1 0x1 PUSH1 0x40 SHL SUB PUSH1 0x40 PUSH1 0x0 KECCAK256 PUSH2 0x75F PUSH2 0x735 DUP10 DUP9 PUSH2 0x1400 JUMP JUMPDEST SWAP5 PUSH1 0x40 MLOAD SWAP5 PUSH2 0x743 DUP7 PUSH2 0x115B JUMP JUMPDEST DUP4 SLOAD DUP7 MSTORE DUP14 DUP5 ADD SLOAD PUSH1 0x1 PUSH1 0x1 PUSH1 0xA0 SHL SUB AND SWAP1 DUP7 ADD MSTORE DUP3 ADD PUSH2 0x129E JUMP JUMPDEST PUSH1 0x40 DUP5 ADD MSTORE PUSH2 0x770 PUSH1 0x3 DUP3 ADD PUSH2 0x129E JUMP JUMPDEST PUSH1 0x60 DUP5 ADD MSTORE PUSH2 0x781 PUSH1 0x4 DUP3 ADD PUSH2 0x129E JUMP JUMPDEST PUSH1 0x80 DUP5 ADD MSTORE PUSH2 0x792 PUSH1 0x5 DUP3 ADD PUSH2 0x129E JUMP JUMPDEST PUSH1 0xA0 DUP5 ADD MSTORE PUSH1 0x6 DUP2 ADD SLOAD PUSH1 0xC0 DUP5 ADD MSTORE PUSH1 0x7 DUP2 ADD SLOAD PUSH1 0xE0 DUP5 ADD MSTORE PUSH1 0x8 DUP1 SWAP2 ADD SLOAD SWAP1 PUSH1 0xFF DUP3 AND ISZERO ISZERO PUSH2 0x100 DUP6 ADD MSTORE SHR AND PUSH2 0x120 DUP3 ADD MSTORE PUSH2 0x7D0 DUP3 DUP10 PUSH2 0x1424 JUMP JUMPDEST MSTORE DUP7 PUSH2 0x1424 JUMP JUMPDEST POP PUSH2 0x137C JUMP JUMPDEST PUSH2 0x5FB JUMP JUMPDEST PUSH1 0x20 SWAP1 PUSH1 0x40 MLOAD PUSH2 0x7F1 DUP2 PUSH2 0x115B JUMP JUMPDEST PUSH1 0x0 DUP2 MSTORE DUP3 PUSH1 0x0 DUP2 DUP4 ADD MSTORE PUSH1 0x60 DUP1 PUSH1 0x40 DUP5 ADD MSTORE DUP1 DUP1 DUP5 ADD MSTORE DUP1 PUSH1 0x80 DUP5 ADD MSTORE PUSH1 0xA0 DUP4 ADD MSTORE PUSH1 0x0 PUSH1 0xC0 DUP4 ADD MSTORE PUSH1 0x0 PUSH1 0xE0 DUP4 ADD MSTORE PUSH1 0x0 PUSH2 0x100 DUP4 ADD MSTORE PUSH1 0x0 PUSH2 0x120 DUP4 ADD MSTORE DUP3 DUP9 ADD ADD MSTORE ADD PUSH2 0x5F0 JUMP JUMPDEST SWAP1 POP DUP4 PUSH2 0x5BA JUMP JUMPDEST PUSH4 0x4E487B71 PUSH1 0xE0 SHL PUSH1 0x0 MSTORE PUSH1 0x11 PUSH1 0x4 MSTORE PUSH1 0x24 PUSH1 0x0 REVERT JUMPDEST CALLVALUE PUSH2 0x136 JUMPI PUSH1 0x20 CALLDATASIZE PUSH1 0x3 NOT ADD SLT PUSH2 0x136 JUMPI PUSH1 0x4 CALLDATALOAD PUSH1 0x1 PUSH1 0x1 PUSH1 0x40 SHL SUB DUP2 GT PUSH2 0x136 JUMPI PUSH1 0x20 PUSH2 0x88E DUP2 SWAP3 CALLDATASIZE SWAP1 PUSH1 0x4 ADD PUSH2 0x112E JUMP JUMPDEST SWAP2 SWAP1 DUP3 PUSH1 0x40 MLOAD SWAP4 DUP5 SWAP3 DUP4 CALLDATACOPY DUP2 ADD PUSH1 0x5 DUP2 MSTORE SUB ADD SWAP1 KECCAK256 SLOAD PUSH1 0x40 MLOAD SWAP1 DUP2 MSTORE RETURN JUMPDEST CALLVALUE PUSH2 0x136 JUMPI PUSH1 0x20 CALLDATASIZE PUSH1 0x3 NOT ADD SLT PUSH2 0x136 JUMPI PUSH1 0x1 PUSH1 0x1 PUSH1 0xA0 SHL SUB PUSH2 0x8CD PUSH2 0x1118 JUMP JUMPDEST AND PUSH1 0x0 MSTORE PUSH1 0x3 PUSH1 0x20 MSTORE PUSH1 0x20 PUSH1 0x40 PUSH1 0x0 KECCAK256 SLOAD PUSH1 0x40 MLOAD SWAP1 DUP2 MSTORE RETURN JUMPDEST CALLVALUE PUSH2 0x136 JUMPI PUSH1 0x20 PUSH2 0x8FA DUP2 PUSH2 0x1BB CALLDATASIZE PUSH2 0x11DE JUMP JUMPDEST DUP2 ADD PUSH1 0x5 DUP2 MSTORE SUB ADD SWAP1 KECCAK256 SLOAD PUSH1 0x40 MLOAD SWAP1 DUP2 MSTORE RETURN JUMPDEST CALLVALUE PUSH2 0x136 JUMPI PUSH1 0xA0 CALLDATASIZE PUSH1 0x3 NOT ADD SLT PUSH2 0x136 JUMPI PUSH2 0x926 PUSH2 0x1118 JUMP JUMPDEST PUSH1 0x24 CALLDATALOAD PUSH1 0x1 PUSH1 0x1 PUSH1 0x40 SHL SUB DUP2 GT PUSH2 0x136 JUMPI PUSH2 0x945 SWAP1 CALLDATASIZE SWAP1 PUSH1 0x4 ADD PUSH2 0x112E JUMP JUMPDEST PUSH1 0x44 SWAP3 SWAP2 SWAP3 CALLDATALOAD PUSH1 0x1 PUSH1 0x1 PUSH1 0x40 SHL SUB DUP2 GT PUSH2 0x136 JUMPI PUSH2 0x967 SWAP1 CALLDATASIZE SWAP1 PUSH1 0x4 ADD PUSH2 0x112E JUMP JUMPDEST SWAP4 SWAP1 SWAP2 PUSH1 0x64 CALLDATALOAD PUSH1 0x1 PUSH1 0x1 PUSH1 0x40 SHL SUB DUP2 GT PUSH2 0x136 JUMPI PUSH2 0x989 SWAP1 CALLDATASIZE SWAP1 PUSH1 0x4 ADD PUSH2 0x112E JUMP JUMPDEST SWAP5 SWAP1 PUSH1 0x84 CALLDATALOAD PUSH1 0x1 PUSH1 0x1 PUSH1 0x40 SHL SUB DUP2 GT PUSH2 0x136 JUMPI PUSH2 0x9AA SWAP1 CALLDATASIZE SWAP1 PUSH1 0x4 ADD PUSH2 0x112E JUMP JUMPDEST SWAP7 SWAP1 SWAP6 PUSH2 0x9C2 PUSH1 0x1 DUP1 PUSH1 0xA0 SHL SUB PUSH1 0x0 SLOAD AND CALLER EQ PUSH2 0x1344 JUMP JUMPDEST PUSH1 0x1 PUSH1 0x1 PUSH1 0xA0 SHL SUB DUP5 AND ISZERO PUSH2 0x10E2 JUMPI PUSH1 0x1 PUSH1 0x1 PUSH1 0xA0 SHL SUB DUP5 AND PUSH1 0x0 SWAP1 DUP2 MSTORE PUSH1 0x3 PUSH1 0x20 MSTORE PUSH1 0x40 SWAP1 KECCAK256 SLOAD PUSH2 0x109D JUMPI PUSH1 0xFF PUSH1 0x40 MLOAD DUP11 DUP4 DUP3 CALLDATACOPY PUSH1 0x20 DUP2 DUP13 DUP2 ADD PUSH1 0x4 DUP2 MSTORE SUB ADD SWAP1 KECCAK256 SLOAD AND PUSH2 0x1058 JUMPI DUP5 ISZERO PUSH2 0x1023 JUMPI DUP2 ISZERO PUSH2 0xFEC JUMPI PUSH2 0xA26 PUSH1 0x1 SLOAD DUP1 PUSH1 0x80 MSTORE PUSH2 0x137C JUMP JUMPDEST PUSH1 0x1 SSTORE PUSH1 0x40 MLOAD SWAP9 PUSH2 0xA36 DUP11 PUSH2 0x115B JUMP JUMPDEST PUSH1 0x80 MLOAD DUP11 MSTORE PUSH1 0x1 PUSH1 0x1 PUSH1 0xA0 SHL SUB DUP6 AND PUSH1 0x20 DUP12 ADD MSTORE PUSH2 0xA55 CALLDATASIZE DUP8 DUP10 PUSH2 0x1198 JUMP JUMPDEST PUSH1 0x40 DUP12 ADD MSTORE PUSH2 0xA65 CALLDATASIZE DUP3 DUP5 PUSH2 0x1198 JUMP JUMPDEST PUSH1 0x60 DUP12 ADD MSTORE PUSH2 0xA75 CALLDATASIZE DUP5 DUP7 PUSH2 0x1198 JUMP JUMPDEST PUSH1 0x80 DUP12 ADD MSTORE PUSH2 0xA85 CALLDATASIZE DUP11 DUP11 PUSH2 0x1198 JUMP JUMPDEST PUSH1 0xA0 DUP12 ADD MSTORE PUSH1 0x0 PUSH1 0xC0 DUP12 ADD MSTORE PUSH1 0x0 PUSH1 0xE0 DUP12 ADD MSTORE PUSH1 0x1 PUSH2 0x100 DUP12 ADD MSTORE PUSH1 0x1 PUSH1 0x1 PUSH1 0x40 SHL SUB TIMESTAMP AND PUSH2 0x120 DUP12 ADD MSTORE PUSH1 0x80 MLOAD PUSH1 0x0 MSTORE PUSH1 0x2 PUSH1 0x20 MSTORE PUSH1 0x40 PUSH1 0x0 KECCAK256 SWAP10 DUP1 MLOAD DUP12 SSTORE PUSH1 0x1 DUP12 ADD PUSH1 0x1 DUP1 PUSH1 0xA0 SHL SUB PUSH1 0x20 DUP4 ADD MLOAD AND PUSH12 0xFFFFFFFFFFFFFFFFFFFFFFFF PUSH1 0xA0 SHL DUP3 SLOAD AND OR SWAP1 SSTORE PUSH1 0x40 DUP2 ADD MLOAD DUP1 MLOAD SWAP1 PUSH1 0x1 PUSH1 0x1 PUSH1 0x40 SHL SUB DUP3 GT PUSH2 0x488 JUMPI DUP13 DUP3 SWAP2 PUSH2 0xB1F DUP4 PUSH2 0xB16 PUSH1 0x2 DUP6 ADD SLOAD PUSH2 0x1264 JUMP JUMPDEST PUSH1 0x2 DUP6 ADD PUSH2 0x138B JUMP JUMPDEST PUSH1 0x20 SWAP2 PUSH1 0x1F DUP5 GT PUSH1 0x1 EQ PUSH2 0xF7A JUMPI POP PUSH1 0x0 SWAP3 PUSH2 0xF6F JUMPI JUMPDEST POP POP DUP2 PUSH1 0x1 SHL SWAP2 PUSH1 0x0 NOT SWAP1 PUSH1 0x3 SHL SHR NOT AND OR PUSH1 0x2 DUP13 ADD SSTORE JUMPDEST PUSH1 0x60 DUP2 ADD MLOAD DUP1 MLOAD SWAP1 PUSH1 0x1 PUSH1 0x1 PUSH1 0x40 SHL SUB DUP3 GT PUSH2 0x488 JUMPI DUP13 DUP3 SWAP2 PUSH2 0xB81 DUP4 PUSH2 0xB78 PUSH1 0x3 DUP6 ADD SLOAD PUSH2 0x1264 JUMP JUMPDEST PUSH1 0x3 DUP6 ADD PUSH2 0x138B JUMP JUMPDEST PUSH1 0x20 SWAP2 PUSH1 0x1F DUP5 GT PUSH1 0x1 EQ PUSH2 0xEFD JUMPI POP PUSH1 0x0 SWAP3 PUSH2 0xEF2 JUMPI JUMPDEST POP POP DUP2 PUSH1 0x1 SHL SWAP2 PUSH1 0x0 NOT SWAP1 PUSH1 0x3 SHL SHR NOT AND OR PUSH1 0x3 DUP13 ADD SSTORE JUMPDEST PUSH1 0x80 DUP2 ADD MLOAD DUP1 MLOAD DUP1 PUSH1 0xA0 MSTORE PUSH1 0x1 PUSH1 0x1 PUSH1 0x40 SHL SUB DUP2 GT PUSH2 0x488 JUMPI PUSH2 0xBE3 SWAP1 DUP14 PUSH1 0x4 PUSH2 0xBDC DUP2 DUP4 ADD SLOAD PUSH2 0x1264 JUMP JUMPDEST SWAP2 ADD PUSH2 0x138B JUMP JUMPDEST PUSH1 0xA0 MLOAD SWAP1 PUSH1 0x20 DUP14 PUSH1 0x1 PUSH1 0x1F DUP6 GT EQ PUSH2 0xE7F JUMPI POP PUSH1 0xA0 MLOAD SWAP3 POP PUSH1 0x0 SWAP2 DUP4 PUSH2 0xE74 JUMPI JUMPDEST POP POP DUP2 PUSH1 0x1 SHL SWAP2 PUSH1 0x0 NOT SWAP1 PUSH1 0x3 SHL SHR NOT AND OR PUSH1 0x4 DUP13 ADD SSTORE JUMPDEST PUSH1 0xA0 DUP2 ADD MLOAD DUP1 MLOAD SWAP1 PUSH1 0x1 PUSH1 0x1 PUSH1 0x40 SHL SUB DUP3 GT PUSH2 0x488 JUMPI PUSH2 0xC45 DUP3 DUP15 PUSH1 0x5 PUSH2 0xBDC DUP2 DUP4 ADD SLOAD PUSH2 0x1264 JUMP JUMPDEST PUSH1 0x20 SWAP1 PUSH1 0x1F DUP4 GT PUSH1 0x1 EQ PUSH2 0xDCB JUMPI SWAP3 PUSH2 0x120 PUSH1 0x8 PUSH32 0xDB6287DA9322F01813D2D3155A4FFEF04AA34919204450EFC1C06EFECB39C30B SWAP14 SWAP15 SWAP16 DUP6 PUSH2 0xDB1 SWAP13 SWAP12 SWAP10 SWAP7 PUSH2 0xD96 SWAP12 SWAP10 SWAP7 PUSH2 0xD88 SWAP10 PUSH1 0x0 SWAP3 PUSH2 0xDC0 JUMPI JUMPDEST POP POP DUP2 PUSH1 0x1 SHL SWAP2 PUSH1 0x0 NOT SWAP1 PUSH1 0x3 SHL SHR NOT AND OR PUSH1 0x5 DUP3 ADD SSTORE JUMPDEST PUSH1 0xC0 DUP5 ADD MLOAD PUSH1 0x6 DUP3 ADD SSTORE PUSH1 0xE0 DUP5 ADD MLOAD PUSH1 0x7 DUP3 ADD SSTORE ADD SWAP2 PUSH2 0xCE2 PUSH2 0x100 DUP3 ADD MLOAD ISZERO ISZERO DUP5 SWAP1 PUSH1 0xFF DUP1 NOT DUP4 SLOAD AND SWAP2 ISZERO ISZERO AND OR SWAP1 SSTORE JUMP JUMPDEST ADD MLOAD DUP2 SLOAD PUSH9 0xFFFFFFFFFFFFFFFF00 NOT AND PUSH1 0x8 SWAP2 SWAP1 SWAP2 SHL PUSH9 0xFFFFFFFFFFFFFFFF00 AND OR SWAP1 SSTORE PUSH1 0x1 PUSH1 0x1 PUSH1 0xA0 SHL SUB DUP8 AND PUSH1 0x0 SWAP1 DUP2 MSTORE PUSH1 0x3 PUSH1 0x20 MSTORE PUSH1 0x80 MLOAD PUSH1 0x40 SWAP2 DUP3 SWAP1 KECCAK256 SSTORE MLOAD DUP2 DUP4 DUP3 CALLDATACOPY PUSH1 0x20 DUP2 DUP4 DUP2 ADD PUSH1 0x4 DUP2 MSTORE SUB ADD SWAP1 KECCAK256 PUSH1 0x1 PUSH1 0xFF NOT DUP3 SLOAD AND OR SWAP1 SSTORE PUSH1 0x40 MLOAD DUP5 DUP7 DUP3 CALLDATACOPY PUSH1 0x20 DUP2 DUP7 DUP2 ADD PUSH1 0x5 DUP2 MSTORE SUB ADD SWAP1 KECCAK256 PUSH2 0xD61 DUP2 SLOAD PUSH2 0x137C JUMP JUMPDEST SWAP1 SSTORE PUSH2 0xD7A PUSH1 0x40 MLOAD SWAP11 DUP12 SWAP11 PUSH1 0x80 DUP13 MSTORE PUSH1 0x80 DUP13 ADD SWAP2 PUSH2 0x13DF JUMP JUMPDEST SWAP2 DUP10 DUP4 SUB PUSH1 0x20 DUP12 ADD MSTORE PUSH2 0x13DF JUMP JUMPDEST SWAP2 DUP7 DUP4 SUB PUSH1 0x40 DUP9 ADD MSTORE PUSH2 0x13DF JUMP JUMPDEST SWAP1 DUP4 DUP3 SUB PUSH1 0x60 DUP6 ADD MSTORE PUSH1 0x1 DUP1 PUSH1 0xA0 SHL SUB AND SWAP7 PUSH1 0x80 MLOAD SWAP7 PUSH2 0x13DF JUMP JUMPDEST SUB SWAP1 LOG3 PUSH1 0x20 PUSH1 0x40 MLOAD PUSH1 0x80 MLOAD DUP2 MSTORE RETURN JUMPDEST ADD MLOAD SWAP1 POP CODESIZE DUP1 PUSH2 0xC97 JUMP JUMPDEST SWAP1 PUSH1 0x5 DUP15 ADD PUSH1 0x0 MSTORE PUSH1 0x20 PUSH1 0x0 KECCAK256 SWAP2 PUSH1 0x0 JUMPDEST PUSH1 0x1F NOT DUP6 AND DUP2 LT PUSH2 0xE5C JUMPI POP PUSH1 0x8 PUSH32 0xDB6287DA9322F01813D2D3155A4FFEF04AA34919204450EFC1C06EFECB39C30B SWAP14 SWAP15 SWAP16 PUSH1 0x1 DUP7 PUSH2 0xD96 SWAP12 SWAP10 SWAP7 PUSH2 0xD88 SWAP10 SWAP7 PUSH2 0xDB1 SWAP16 SWAP15 SWAP13 SWAP10 SWAP7 PUSH2 0x120 SWAP8 PUSH1 0x1F NOT DUP2 AND LT PUSH2 0xE43 JUMPI JUMPDEST POP POP POP DUP2 SHL ADD PUSH1 0x5 DUP3 ADD SSTORE PUSH2 0xCAF JUMP JUMPDEST ADD MLOAD PUSH1 0x0 NOT PUSH1 0xF8 DUP5 PUSH1 0x3 SHL AND SHR NOT AND SWAP1 SSTORE CODESIZE DUP1 DUP1 PUSH2 0xE33 JUMP JUMPDEST SWAP2 SWAP3 PUSH1 0x20 PUSH1 0x1 DUP2 SWAP3 DUP7 DUP6 ADD MLOAD DUP2 SSTORE ADD SWAP5 ADD SWAP3 ADD PUSH2 0xDDC JUMP JUMPDEST ADD MLOAD SWAP1 POP DUP14 DUP1 PUSH2 0xC04 JUMP JUMPDEST PUSH1 0x4 SWAP1 SWAP4 SWAP3 SWAP4 ADD PUSH1 0x0 MSTORE PUSH1 0x20 PUSH1 0x0 KECCAK256 SWAP1 PUSH1 0x0 SWAP4 JUMPDEST PUSH1 0x1F NOT DUP5 AND DUP6 LT PUSH2 0xED7 JUMPI PUSH1 0x1 SWAP5 POP DUP4 PUSH1 0x1F NOT DUP2 AND LT PUSH2 0xEBE JUMPI JUMPDEST POP POP POP DUP2 SHL ADD PUSH1 0x4 DUP13 ADD SSTORE PUSH2 0xC1C JUMP JUMPDEST ADD MLOAD PUSH1 0x0 NOT PUSH1 0xF8 DUP5 PUSH1 0x3 SHL AND SHR NOT AND SWAP1 SSTORE DUP14 DUP1 DUP1 PUSH2 0xEAE JUMP JUMPDEST DUP2 DUP2 ADD MLOAD DUP4 SSTORE PUSH1 0x20 SWAP5 DUP6 ADD SWAP5 PUSH1 0x1 SWAP1 SWAP4 ADD SWAP3 SWAP1 SWAP2 ADD SWAP1 PUSH2 0xE93 JUMP JUMPDEST ADD MLOAD SWAP1 POP DUP14 DUP1 PUSH2 0xB98 JUMP JUMPDEST PUSH1 0x3 SWAP2 SWAP5 POP ADD PUSH1 0x0 MSTORE PUSH1 0x20 PUSH1 0x0 KECCAK256 SWAP1 PUSH1 0x0 SWAP4 JUMPDEST PUSH1 0x1F NOT DUP5 AND DUP6 LT PUSH2 0xF54 JUMPI PUSH1 0x1 SWAP5 POP DUP4 PUSH1 0x1F NOT DUP2 AND LT PUSH2 0xF3B JUMPI JUMPDEST POP POP POP DUP2 SHL ADD PUSH1 0x3 DUP13 ADD SSTORE PUSH2 0xBB0 JUMP JUMPDEST ADD MLOAD PUSH1 0x0 NOT PUSH1 0xF8 DUP5 PUSH1 0x3 SHL AND SHR NOT AND SWAP1 SSTORE DUP14 DUP1 DUP1 PUSH2 0xF2B JUMP JUMPDEST DUP2 DUP2 ADD MLOAD DUP4 SSTORE PUSH1 0x20 SWAP5 DUP6 ADD SWAP5 PUSH1 0x1 SWAP1 SWAP4 ADD SWAP3 SWAP1 SWAP2 ADD SWAP1 PUSH2 0xF10 JUMP JUMPDEST ADD MLOAD SWAP1 POP DUP14 DUP1 PUSH2 0xB36 JUMP JUMPDEST PUSH1 0x2 SWAP2 SWAP5 POP ADD PUSH1 0x0 MSTORE PUSH1 0x20 PUSH1 0x0 KECCAK256 SWAP1 PUSH1 0x0 SWAP4 JUMPDEST PUSH1 0x1F NOT DUP5 AND DUP6 LT PUSH2 0xFD1 JUMPI PUSH1 0x1 SWAP5 POP DUP4 PUSH1 0x1F NOT DUP2 AND LT PUSH2 0xFB8 JUMPI JUMPDEST POP POP POP DUP2 SHL ADD PUSH1 0x2 DUP13 ADD SSTORE PUSH2 0xB4E JUMP JUMPDEST ADD MLOAD PUSH1 0x0 NOT PUSH1 0xF8 DUP5 PUSH1 0x3 SHL AND SHR NOT AND SWAP1 SSTORE DUP14 DUP1 DUP1 PUSH2 0xFA8 JUMP JUMPDEST DUP2 DUP2 ADD MLOAD DUP4 SSTORE PUSH1 0x20 SWAP5 DUP6 ADD SWAP5 PUSH1 0x1 SWAP1 SWAP4 ADD SWAP3 SWAP1 SWAP2 ADD SWAP1 PUSH2 0xF8D JUMP JUMPDEST PUSH1 0x40 MLOAD PUSH3 0x461BCD PUSH1 0xE5 SHL DUP2 MSTORE PUSH1 0x20 PUSH1 0x4 DUP3 ADD MSTORE PUSH1 0xF PUSH1 0x24 DUP3 ADD MSTORE PUSH15 0x10DBDD5B9D1E481C995C5D5A5C9959 PUSH1 0x8A SHL PUSH1 0x44 DUP3 ADD MSTORE PUSH1 0x64 SWAP1 REVERT JUMPDEST PUSH1 0x40 MLOAD PUSH3 0x461BCD PUSH1 0xE5 SHL DUP2 MSTORE PUSH1 0x20 PUSH1 0x4 DUP3 ADD MSTORE PUSH1 0xD PUSH1 0x24 DUP3 ADD MSTORE PUSH13 0x13985B59481C995C5D5A5C9959 PUSH1 0x9A SHL PUSH1 0x44 DUP3 ADD MSTORE PUSH1 0x64 SWAP1 REVERT JUMPDEST PUSH1 0x40 MLOAD PUSH3 0x461BCD PUSH1 0xE5 SHL DUP2 MSTORE PUSH1 0x20 PUSH1 0x4 DUP3 ADD MSTORE PUSH1 0x19 PUSH1 0x24 DUP3 ADD MSTORE PUSH32 0x5363686F6F6C20616C7265616479207265676973746572656400000000000000 PUSH1 0x44 DUP3 ADD MSTORE PUSH1 0x64 SWAP1 REVERT JUMPDEST PUSH1 0x40 MLOAD PUSH3 0x461BCD PUSH1 0xE5 SHL DUP2 MSTORE PUSH1 0x20 PUSH1 0x4 DUP3 ADD MSTORE PUSH1 0x19 PUSH1 0x24 DUP3 ADD MSTORE PUSH32 0x57616C6C657420616C7265616479207265676973746572656400000000000000 PUSH1 0x44 DUP3 ADD MSTORE PUSH1 0x64 SWAP1 REVERT JUMPDEST PUSH1 0x40 MLOAD PUSH3 0x461BCD PUSH1 0xE5 SHL DUP2 MSTORE PUSH1 0x20 PUSH1 0x4 DUP3 ADD MSTORE PUSH1 0xE PUSH1 0x24 DUP3 ADD MSTORE PUSH14 0x125B9D985B1A59081DD85B1B195D PUSH1 0x92 SHL PUSH1 0x44 DUP3 ADD MSTORE PUSH1 0x64 SWAP1 REVERT JUMPDEST PUSH1 0x4 CALLDATALOAD SWAP1 PUSH1 0x1 PUSH1 0x1 PUSH1 0xA0 SHL SUB DUP3 AND DUP3 SUB PUSH2 0x136 JUMPI JUMP JUMPDEST SWAP2 DUP2 PUSH1 0x1F DUP5 ADD SLT ISZERO PUSH2 0x136 JUMPI DUP3 CALLDATALOAD SWAP2 PUSH1 0x1 PUSH1 0x1 PUSH1 0x40 SHL SUB DUP4 GT PUSH2 0x136 JUMPI PUSH1 0x20 DUP4 DUP2 DUP7 ADD SWAP6 ADD ADD GT PUSH2 0x136 JUMPI JUMP JUMPDEST PUSH2 0x140 DUP2 ADD SWAP1 DUP2 LT PUSH1 0x1 PUSH1 0x1 PUSH1 0x40 SHL SUB DUP3 GT OR PUSH2 0x488 JUMPI PUSH1 0x40 MSTORE JUMP JUMPDEST SWAP1 PUSH1 0x1F DUP1 NOT SWAP2 ADD AND DUP2 ADD SWAP1 DUP2 LT PUSH1 0x1 PUSH1 0x1 PUSH1 0x40 SHL SUB DUP3 GT OR PUSH2 0x488 JUMPI PUSH1 0x40 MSTORE JUMP JUMPDEST SWAP3 SWAP2 SWAP3 PUSH1 0x1 PUSH1 0x1 PUSH1 0x40 SHL SUB DUP3 GT PUSH2 0x488 JUMPI PUSH1 0x40 MLOAD SWAP2 PUSH2 0x11C1 PUSH1 0x1F DUP3 ADD PUSH1 0x1F NOT AND PUSH1 0x20 ADD DUP5 PUSH2 0x1177 JUMP JUMPDEST DUP3 SWAP5 DUP2 DUP5 MSTORE DUP2 DUP4 ADD GT PUSH2 0x136 JUMPI DUP3 DUP2 PUSH1 0x20 SWAP4 DUP5 PUSH1 0x0 SWAP7 ADD CALLDATACOPY ADD ADD MSTORE JUMP JUMPDEST PUSH1 0x20 PUSH1 0x3 NOT DUP3 ADD SLT PUSH2 0x136 JUMPI PUSH1 0x4 CALLDATALOAD SWAP1 PUSH1 0x1 PUSH1 0x1 PUSH1 0x40 SHL SUB DUP3 GT PUSH2 0x136 JUMPI DUP1 PUSH1 0x23 DUP4 ADD SLT ISZERO PUSH2 0x136 JUMPI DUP2 PUSH1 0x24 PUSH2 0x1219 SWAP4 PUSH1 0x4 ADD CALLDATALOAD SWAP2 ADD PUSH2 0x1198 JUMP JUMPDEST SWAP1 JUMP JUMPDEST PUSH1 0x0 JUMPDEST DUP4 DUP2 LT PUSH2 0x122F JUMPI POP POP PUSH1 0x0 SWAP2 ADD MSTORE JUMP JUMPDEST DUP2 DUP2 ADD MLOAD DUP4 DUP3 ADD MSTORE PUSH1 0x20 ADD PUSH2 0x121F JUMP JUMPDEST SWAP1 PUSH1 0x20 SWAP2 PUSH2 0x1258 DUP2 MLOAD DUP1 SWAP3 DUP2 DUP6 MSTORE DUP6 DUP1 DUP7 ADD SWAP2 ADD PUSH2 0x121C JUMP JUMPDEST PUSH1 0x1F ADD PUSH1 0x1F NOT AND ADD ADD SWAP1 JUMP JUMPDEST SWAP1 PUSH1 0x1 DUP3 DUP2 SHR SWAP3 AND DUP1 ISZERO PUSH2 0x1294 JUMPI JUMPDEST PUSH1 0x20 DUP4 LT EQ PUSH2 0x127E JUMPI JUMP JUMPDEST PUSH4 0x4E487B71 PUSH1 0xE0 SHL PUSH1 0x0 MSTORE PUSH1 0x22 PUSH1 0x4 MSTORE PUSH1 0x24 PUSH1 0x0 REVERT JUMPDEST SWAP2 PUSH1 0x7F AND SWAP2 PUSH2 0x1273 JUMP JUMPDEST SWAP1 PUSH1 0x40 MLOAD SWAP2 DUP3 PUSH1 0x0 DUP3 SLOAD SWAP3 PUSH2 0x12B2 DUP5 PUSH2 0x1264 JUMP JUMPDEST SWAP1 DUP2 DUP5 MSTORE PUSH1 0x1 SWAP5 DUP6 DUP2 AND SWAP1 DUP2 PUSH1 0x0 EQ PUSH2 0x1321 JUMPI POP PUSH1 0x1 EQ PUSH2 0x12DE JUMPI JUMPDEST POP POP PUSH2 0x12DC SWAP3 POP SUB DUP4 PUSH2 0x1177 JUMP JUMPDEST JUMP JUMPDEST SWAP1 SWAP4 SWAP2 POP PUSH1 0x0 MSTORE PUSH1 0x20 SWAP1 DUP2 PUSH1 0x0 KECCAK256 SWAP4 PUSH1 0x0 SWAP2 JUMPDEST DUP2 DUP4 LT PUSH2 0x1309 JUMPI POP POP PUSH2 0x12DC SWAP4 POP DUP3 ADD ADD CODESIZE DUP1 PUSH2 0x12CE JUMP JUMPDEST DUP6 SLOAD DUP9 DUP5 ADD DUP6 ADD MSTORE SWAP5 DUP6 ADD SWAP5 DUP8 SWAP5 POP SWAP2 DUP4 ADD SWAP2 PUSH2 0x12F1 JUMP JUMPDEST SWAP2 POP POP PUSH2 0x12DC SWAP5 POP PUSH1 0x20 SWAP3 POP PUSH1 0xFF NOT AND DUP3 DUP5 ADD MSTORE ISZERO ISZERO PUSH1 0x5 SHL DUP3 ADD ADD CODESIZE DUP1 PUSH2 0x12CE JUMP JUMPDEST ISZERO PUSH2 0x134B JUMPI JUMP JUMPDEST PUSH1 0x40 MLOAD PUSH3 0x461BCD PUSH1 0xE5 SHL DUP2 MSTORE PUSH1 0x20 PUSH1 0x4 DUP3 ADD MSTORE PUSH1 0x9 PUSH1 0x24 DUP3 ADD MSTORE PUSH9 0x2737BA1037BBB732B9 PUSH1 0xB9 SHL PUSH1 0x44 DUP3 ADD MSTORE PUSH1 0x64 SWAP1 REVERT JUMPDEST PUSH1 0x0 NOT DUP2 EQ PUSH2 0x845 JUMPI PUSH1 0x1 ADD SWAP1 JUMP JUMPDEST SWAP1 PUSH1 0x1F DUP2 GT PUSH2 0x1399 JUMPI POP POP POP JUMP JUMPDEST PUSH1 0x0 SWAP2 DUP3 MSTORE PUSH1 0x20 DUP3 KECCAK256 SWAP1 PUSH1 0x20 PUSH1 0x1F DUP6 ADD PUSH1 0x5 SHR DUP4 ADD SWAP5 LT PUSH2 0x13D5 JUMPI JUMPDEST PUSH1 0x1F ADD PUSH1 0x5 SHR ADD SWAP2 JUMPDEST DUP3 DUP2 LT PUSH2 0x13CA JUMPI POP POP POP JUMP JUMPDEST DUP2 DUP2 SSTORE PUSH1 0x1 ADD PUSH2 0x13BE JUMP JUMPDEST SWAP1 SWAP3 POP DUP3 SWAP1 PUSH2 0x13B5 JUMP JUMPDEST SWAP1 DUP1 PUSH1 0x20 SWAP4 SWAP3 DUP2 DUP5 MSTORE DUP5 DUP5 ADD CALLDATACOPY PUSH1 0x0 DUP3 DUP3 ADD DUP5 ADD MSTORE PUSH1 0x1F ADD PUSH1 0x1F NOT AND ADD ADD SWAP1 JUMP JUMPDEST SWAP2 SWAP1 DUP3 SUB SWAP2 DUP3 GT PUSH2 0x845 JUMPI JUMP JUMPDEST PUSH1 0x1 PUSH1 0x1 PUSH1 0x40 SHL SUB DUP2 GT PUSH2 0x488 JUMPI PUSH1 0x5 SHL PUSH1 0x20 ADD SWAP1 JUMP JUMPDEST DUP1 MLOAD DUP3 LT ISZERO PUSH2 0x1438 JUMPI PUSH1 0x20 SWAP2 PUSH1 0x5 SHL ADD ADD SWAP1 JUMP JUMPDEST PUSH4 0x4E487B71 PUSH1 0xE0 SHL PUSH1 0x0 MSTORE PUSH1 0x32 PUSH1 0x4 MSTORE PUSH1 0x24 PUSH1 0x0 REVERT INVALID LOG2 PUSH5 0x6970667358 0x22 SLT KECCAK256 NOT BYTE 0xF7 EQ 0x2B 0xD8 PUSH8 0xD4A544A06CC2F8F2 SWAP8 PUSH4 0x1258327C 0x2E SWAP11 0x2C 0xDE 0xDF 0x2D SWAP6 SLT SAR 0xD9 0xE2 PUSH5 0x736F6C6343 STOP ADDMOD EQ STOP CALLER "},"methodIdentifiers":{"addVerifier(address)":"9000b3d6","clubIdByWallet(address)":"47ba097f","clubs(uint256)":"9cc009c1","countyClubCount(string)":"226fd922","getClubs(uint256,uint256)":"57d531d5","getCountyStats(string)":"54ca56da","nextClubId()":"da5a7898","owner()":"8da5cb5b","registerClub(address,string,string,string,string)":"14524b42","registeredSchools(string)":"bba0cfff","removeVerifier(address)":"ca2dfd0a","transferOwnership(address)":"f2fde38b","updateClub(uint256,string,bool)":"90a87806","verifiers(address)":"6c824487"}}}}}