{"src/core/SentinelClubs.sol":{"SentinelClubs":{"abi":[{"inputs":[{"internalType":"address","name":"_pointsEngine","type":"address"}],"stateMutability":"nonpayable","type":"constructor"},{"anonymous":false,"inputs":[{"indexed":true,"internalType":"uint256","name":"activityId","type":"uint256"},{"indexed":true,"internalType":"uint256","name":"clubId","type":"uint256"},{"indexed":false,"internalType":"enum Structs.ActivityType","name":"activityType","type":"uint8"},{"indexed":false,"internalType":"string","name":"species","type":"string"},{"indexed":false,"internalType":"uint32","name":"count","type":"uint32"},{"indexed":false,"internalType":"string","name":"locationCode","type":"string"},{"indexed":false,"internalType":"uint256","name":"pointsAwarded","type":"uint256"},{"indexed":false,"internalType":"string","name":"metadataURI","type":"string"}],"name":"ActivityRecorded","type":"event"},{"anonymous":false,"inputs":[{"indexed":true,"internalType":"uint256","name":"activityId","type":"uint256"},{"indexed":true,"internalType":"address","name":"verifier","type":"address"},{"indexed":false,"internalType":"bool","name":"approved","type":"bool"},{"indexed":false,"internalType":"string","name":"comments","type":"string"}],"name":"ActivityVerified","type":"event"},{"anonymous":false,"inputs":[{"indexed":true,"internalType":"uint256","name":"clubId","type":"uint256"},{"indexed":false,"internalType":"uint256","name":"points","type":"uint256"},{"indexed":false,"internalType":"string","name":"reason","type":"string"}],"name":"BonusPointsAwarded","type":"event"},{"anonymous":false,"inputs":[{"indexed":true,"internalType":"uint256","name":"clubId","type":"uint256"},{"indexed":true,"internalType":"address","name":"wallet","type":"address"},{"indexed":false,"internalType":"string","name":"name","type":"string"},{"indexed":false,"internalType":"string","name":"schoolName","type":"string"},{"indexed":false,"internalType":"string","name":"county","type":"string"},{"indexed":false,"internalType":"string","name":"region","type":"string"}],"name":"ClubRegistered","type":"event"},{"anonymous":false,"inputs":[{"indexed":true,"internalType":"uint256","name":"clubId","type":"uint256"},{"indexed":false,"internalType":"bool","name":"active","type":"bool"}],"name":"ClubStatusChanged","type":"event"},{"anonymous":false,"inputs":[{"indexed":true,"internalType":"uint256","name":"clubId","type":"uint256"},{"indexed":false,"internalType":"string","name":"newName","type":"string"},{"indexed":false,"internalType":"bool","name":"active","type":"bool"}],"name":"ClubUpdated","type":"event"},{"anonymous":false,"inputs":[{"indexed":true,"internalType":"string","name":"locationCode","type":"string"},{"indexed":false,"internalType":"uint256","name":"totalTrees","type":"uint256"},{"indexed":false,"internalType":"uint256","name":"totalActivities","type":"uint256"}],"name":"LocationUpdated","type":"event"},{"anonymous":false,"inputs":[{"indexed":true,"internalType":"uint256","name":"clubId","type":"uint256"},{"indexed":false,"internalType":"uint256","name":"points","type":"uint256"},{"indexed":false,"internalType":"string","name":"reason","type":"string"}],"name":"PointsAwarded","type":"event"},{"inputs":[{"internalType":"uint256","name":"","type":"uint256"}],"name":"activities","outputs":[{"internalType":"uint256","name":"id","type":"uint256"},{"internalType":"uint256","name":"clubId","type":"uint256"},{"internalType":"enum Structs.ActivityType","name":"activityType","type":"uint8"},{"internalType":"string","name":"species","type":"string"},{"internalType":"uint32","name":"count","type":"uint32"},{"internalType":"string","name":"locationCode","type":"string"},{"internalType":"uint64","name":"timestamp","type":"uint64"},{"internalType":"string","name":"metadataURI","type":"string"},{"internalType":"uint256","name":"pointsAwarded","type":"uint256"},{"internalType":"bool","name":"verified","type":"bool"}],"stateMutability":"view","type":"function"},{"inputs":[{"internalType":"address","name":"_verifier","type":"address"}],"name":"addVerifier","outputs":[],"stateMutability":"nonpayable","type":"function"},{"inputs":[{"internalType":"uint256","name":"_clubId","type":"uint256"},{"internalType":"uint256","name":"_points","type":"uint256"},{"internalType":"string","name":"_reason","type":"string"}],"name":"awardBonusPoints","outputs":[],"stateMutability":"nonpayable","type":"function"},{"inputs":[{"internalType":"uint256","name":"","type":"uint256"},{"internalType":"uint256","name":"","type":"uint256"}],"name":"clubActivities","outputs":[{"internalType":"uint256","name":"","type":"uint256"}],"stateMutability":"view","type":"function"},{"inputs":[{"internalType":"address","name":"","type":"address"}],"name":"clubIdByWallet","outputs":[{"internalType":"uint256","name":"","type":"uint256"}],"stateMutability":"view","type":"function"},{"inputs":[{"internalType":"uint256","name":"","type":"uint256"},{"internalType":"string","name":"","type":"string"}],"name":"clubSpeciesCount","outputs":[{"internalType":"uint256","name":"","type":"uint256"}],"stateMutability":"view","type":"function"},{"inputs":[{"internalType":"uint256","name":"","type":"uint256"}],"name":"clubs","outputs":[{"internalType":"uint256","name":"id","type":"uint256"},{"internalType":"address","name":"wallet","type":"address"},{"internalType":"string","name":"name","type":"string"},{"internalType":"string","name":"schoolName","type":"string"},{"internalType":"string","name":"county","type":"string"},{"internalType":"string","name":"region","type":"string"},{"internalType":"uint256","name":"totalPoints","type":"uint256"},{"internalType":"uint256","name":"totalTrees","type":"uint256"},{"internalType":"bool","name":"active","type":"bool"},{"internalType":"uint64","name":"registrationDate","type":"uint64"}],"stateMutability":"view","type":"function"},{"inputs":[{"internalType":"string","name":"","type":"string"}],"name":"countyClubCount","outputs":[{"internalType":"uint256","name":"","type":"uint256"}],"stateMutability":"view","type":"function"},{"inputs":[{"internalType":"uint256","name":"_clubId","type":"uint256"}],"name":"getClubActivities","outputs":[{"components":[{"internalType":"uint256","name":"id","type":"uint256"},{"internalType":"uint256","name":"clubId","type":"uint256"},{"internalType":"enum Structs.ActivityType","name":"activityType","type":"uint8"},{"internalType":"string","name":"species","type":"string"},{"internalType":"uint32","name":"count","type":"uint32"},{"internalType":"string","name":"locationCode","type":"string"},{"internalType":"uint64","name":"timestamp","type":"uint64"},{"internalType":"string","name":"metadataURI","type":"string"},{"internalType":"uint256","name":"pointsAwarded","type":"uint256"},{"internalType":"bool","name":"verified","type":"bool"}],"internalType":"struct Structs.Activity[]","name":"","type":"tuple[]"}],"stateMutability":"view","type":"function"},{"inputs":[{"internalType":"uint256","name":"_clubId","type":"uint256"}],"name":"getClubSpeciesDistribution","outputs":[{"internalType":"string[]","name":"","type":"string[]"},{"internalType":"uint256[]","name":"","type":"uint256[]"}],"stateMutability":"view","type":"function"},{"inputs":[{"internalType":"uint256","name":"_start","type":"uint256"},{"internalType":"uint256","name":"_limit","type":"uint256"}],"name":"getClubs","outputs":[{"components":[{"internalType":"uint256","name":"id","type":"uint256"},{"internalType":"address","name":"wallet","type":"address"},{"internalType":"string","name":"name","type":"string"},{"internalType":"string","name":"schoolName","type":"string"},{"internalType":"string","name":"county","type":"string"},{"internalType":"string","name":"region","type":"string"},{"internalType":"uint256","name":"totalPoints","type":"uint256"},{"internalType":"uint256","name":"totalTrees","type":"uint256"},{"internalType":"bool","name":"active","type":"bool"},{"internalType":"uint64","name":"registrationDate","type":"uint64"}],"internalType":"struct Structs.Club[]","name":"","type":"tuple[]"}],"stateMutability":"view","type":"function"},{"inputs":[{"internalType":"string","name":"_county","type":"string"}],"name":"getCountyStats","outputs":[{"internalType":"uint256","name":"","type":"uint256"}],"stateMutability":"view","type":"function"},{"inputs":[{"internalType":"string","name":"_locationCode","type":"string"}],"name":"getLocationStats","outputs":[{"components":[{"internalType":"uint256","name":"totalTrees","type":"uint256"},{"internalType":"uint256","name":"totalActivities","type":"uint256"},{"internalType":"uint256","name":"lastActivity","type":"uint256"}],"internalType":"struct Structs.LocationStats","name":"","type":"tuple"}],"stateMutability":"view","type":"function"},{"inputs":[{"internalType":"string","name":"","type":"string"}],"name":"locationStats","outputs":[{"internalType":"uint256","name":"totalTrees","type":"uint256"},{"internalType":"uint256","name":"totalActivities","type":"uint256"},{"internalType":"uint256","name":"lastActivity","type":"uint256"}],"stateMutability":"view","type":"function"},{"inputs":[],"name":"nextActivityId","outputs":[{"internalType":"uint256","name":"","type":"uint256"}],"stateMutability":"view","type":"function"},{"inputs":[],"name":"nextClubId","outputs":[{"internalType":"uint256","name":"","type":"uint256"}],"stateMutability":"view","type":"function"},{"inputs":[],"name":"owner","outputs":[{"internalType":"address","name":"","type":"address"}],"stateMutability":"view","type":"function"},{"inputs":[],"name":"pointsEngine","outputs":[{"internalType":"contract IPointsEngine","name":"","type":"address"}],"stateMutability":"view","type":"function"},{"inputs":[{"internalType":"enum Structs.ActivityType","name":"_activityType","type":"uint8"},{"internalType":"string","name":"_species","type":"string"},{"internalType":"uint32","name":"_count","type":"uint32"},{"internalType":"string","name":"_locationCode","type":"string"},{"internalType":"string","name":"_metadataURI","type":"string"}],"name":"recordActivity","outputs":[{"internalType":"uint256","name":"","type":"uint256"}],"stateMutability":"nonpayable","type":"function"},{"inputs":[{"internalType":"address","name":"_wallet","type":"address"},{"internalType":"string","name":"_name","type":"string"},{"internalType":"string","name":"_schoolName","type":"string"},{"internalType":"string","name":"_county","type":"string"},{"internalType":"string","name":"_region","type":"string"}],"name":"registerClub","outputs":[{"internalType":"uint256","name":"","type":"uint256"}],"stateMutability":"nonpayable","type":"function"},{"inputs":[{"internalType":"string","name":"","type":"string"}],"name":"registeredSchools","outputs":[{"internalType":"bool","name":"","type":"bool"}],"stateMutability":"view","type":"function"},{"inputs":[{"internalType":"address","name":"_verifier","type":"address"}],"name":"removeVerifier","outputs":[],"stateMutability":"nonpayable","type":"function"},{"inputs":[{"internalType":"address","name":"_newOwner","type":"address"}],"name":"transferOwnership","outputs":[],"stateMutability":"nonpayable","type":"function"},{"inputs":[{"internalType":"uint256","name":"_clubId","type":"uint256"},{"internalType":"string","name":"_newName","type":"string"},{"internalType":"bool","name":"_active","type":"bool"}],"name":"updateClub","outputs":[],"stateMutability":"nonpayable","type":"function"},{"inputs":[{"internalType":"address","name":"","type":"address"}],"name":"verifiers","outputs":[{"internalType":"bool","name":"","type":"bool"}],"stateMutability":"view","type":"function"},{"inputs":[{"internalType":"uint256","name":"_activityId","type":"uint256"},{"internalType":"bool","name":"_verified","type":"bool"}],"name":"verifyActivity","outputs":[],"stateMutability":"nonpayable","type":"function"}],"evm":{"bytecode":{"linkReferences":{},"object":"60803461008357601f6127dc38819003918201601f19168301916001600160401b038311848410176100885780849260209460405283398101031261008357516001600160a01b03811690819003610083576001805560018060a01b0319338160005416176000556001600855600754161760075560405161273d908161009f8239f35b600080fd5b634e487b7160e01b600052604160045260246000fdfe60c0604052600436101561001257600080fd5b60003560e01c80630d1657e8146121e95780630f3f3910146120f257806314524b42146118e75780631c4273b61461161c578063226fd922146115d3578063254129a3146115725780632ee7367f1461144a5780633ea870b71461142c57806347ba097f146113f257806354ca56da146113a157806357d531d5146110ef5780635e4c4942146108c35780635fb1536f1461077257806369d71fea146107335780636c824487146106f45780638da5cb5b146106cb5780639000b3d61461067c57806390a87806146104b55780639cc009c1146103bd578063a1794d4c14610394578063bba0cfff14610333578063ca2dfd0a146102e7578063d7c26dd81461027d578063da5a78981461025f578063dc2afdf3146101bf5763f2fde38b1461013a57600080fd5b346101ba5760203660031901126101ba5761015361247f565b600054906001600160a01b039061016d33838516146126c2565b16908115610185576001600160a01b03191617600055005b60405162461bcd60e51b815260206004820152600d60248201526c24b73b30b634b21037bbb732b960991b6044820152606490fd5b600080fd5b346101ba5760203660031901126101ba576004356001600160401b0381116101ba5760206101f36060923690600401612495565b91906000604080516102048161232d565b828152828582015201528260405193849283378101600c81520301902060405161022d8161232d565b815491828252604060026001830154926020850193845201549201918252604051928352516020830152516040820152f35b346101ba5760003660031901126101ba576020600154604051908152f35b346101ba5760403660031901126101ba576024356001600160401b0381116101ba576102d560206102b381933690600401612508565b600435600052600b825260406000208260405194838680955193849201612437565b82019081520301902054604051908152f35b346101ba5760203660031901126101ba5761030061247f565b6000546001600160a01b03919061031a90831633146126c2565b166000908152600660205260409020805460ff19169055005b346101ba5760203660031901126101ba576004356001600160401b0381116101ba5760ff61037e602061036b81943690600401612508565b8160405193828580945193849201612437565b8101600481520301902054166040519015158152f35b346101ba5760003660031901126101ba576007546040516001600160a01b039091168152602090f35b346101ba5760203660031901126101ba576004356000526002602052602060406000208054906001600160401b0360018060a01b0360018301541661040460028401612384565b9261049061041460038301612384565b61048261042360048501612384565b61047461043260058701612384565b9361046660068801549a600860078a0154990154996040519e8f9e8f908152015260408d61014091829101528d019061245a565b908b820360608d015261245a565b9089820360808b015261245a565b9087820360a089015261245a565b9360c086015260e085015260ff8116151561010085015260081c166101208301520390f35b346101ba5760603660031901126101ba576001600160401b036004356024358281116101ba576104e9903690600401612495565b6044358015158082036101ba5761050b60018060a01b036000541633146126c2565b8460005260209160028352604060002061052781541515612685565b6002810197851161066657610546856105408a546122d7565b8a61259b565b600097601f86116001146105d9576105ae9291600891877f62551f098dc964c743ead0abcbceb212117cb9f8215eff3a2bf343aff8f4cf629a9b6000916105ce575b508860011b906000198a60031b1c19161790555b019060ff801983541691151516179055565b6105c56040519485946040865260408601916125fc565b918301520390a2005b90508901358c610588565b601f19861681600052856000209060005b81811061064f5750916105ae9493917f62551f098dc964c743ead0abcbceb212117cb9f8215eff3a2bf343aff8f4cf629a9b8960089510610635575b5050600188811b01905561059c565b8a013560001960038b901b60f8161c191690558b80610626565b898c013583559a87019a60019092019187016105ea565b634e487b7160e01b600052604160045260246000fd5b346101ba5760203660031901126101ba5761069561247f565b6000546001600160a01b0391906106af90831633146126c2565b166000908152600660205260409020805460ff19166001179055005b346101ba5760003660031901126101ba576000546040516001600160a01b039091168152602090f35b346101ba5760203660031901126101ba576001600160a01b0361071561247f565b166000526006602052602060ff604060002054166040519015158152f35b346101ba5761074136612526565b90600052600a602052604060002080548210156101ba576020916107649161253c565b90546040519160031b1c8152f35b346101ba5760403660031901126101ba5760243580151581036101ba576000546001600160a01b0391908216331480156108aa575b6107b09061261d565b600435600052602091600983526040600020916107dc81600985019060ff801983541691151516179055565b6107e257005b60075416918061081d604460ff60028601541663ffffffff600487015416966040519788948593633e9988cb60e01b8552600485019061242a565b60248301525afa92831561089e5760009361086f575b508261083b57005b816002600892600161086b9501546000525260066040600020016108608582546125ef565b9055019182546125ef565b9055005b9080935081813d8311610897575b6108878183612363565b810103126101ba57519183610833565b503d61087d565b6040513d6000823e3d90fd5b503360009081526006602052604090205460ff166107a7565b346101ba5760a03660031901126101ba576004803510156101ba576024356001600160401b0381116101ba576108fd903690600401612495565b9060443563ffffffff811681036101ba576064356001600160401b0381116101ba5761092d903690600401612495565b9390916001600160401b03608435116101ba5761094f36608435600401612495565b9190953360005260036020526040600020549485156110b25785600052600260205260ff600860406000200154161561107d5763ffffffff83161561103f57811561100657600854966109a18861256a565b6008556040516109b081612311565b8881526020810190888252604081016109cb6004358261258f565b6109d6368a866124c2565b906060830191825263ffffffff881660808401526109f53688886124c2565b60a0840152426001600160401b031660c0840152610a14368a8f6124c2565b60e0840152600061010084015260006101208401528b6000526009602052604060002093835185555160018501556002840190516004811015610ff05760ff80198354169116179055518051906001600160401b038211610666578190610a8b82610a8260038801546122d7565b6003880161259b565b602090601f8311600114610f7e57600092610f73575b50508160011b916000199060031b1c19161760038301555b6004820163ffffffff60808301511663ffffffff1982541617905560a081015180516001600160401b03811161066657806005850192610b0382610afd86546122d7565b8661259b565b602090601f8311600114610f0d57600092610f02575b50508160011b916000199060031b1c19161790555b600682016001600160401b0360c0830151166001600160401b031982541617905560e08101518051906001600160401b03821161066657610b7f82610b7660078701546122d7565b6007870161259b565b602090601f8311600114610e8857928260099361012093610bdd9796600092610e7d575b50508160011b916000199060031b1c19161760078501555b61010081015160088501550151151591019060ff801983541691151516179055565b86600052600a602052604060002080546801000000000000000081101561066657610c0d9160018201815561253c565b81549060031b908a821b91600019901b191617905560043515610e1e575b60405183838237602081858101600c8152030190207f9ec8c844510c417bbce57fc5ade4d931c8ecb550916ea2139eb52df0dab6f26260406001830192610c72845461256a565b80945560043515610e06575b4260028201555481518787823780888101600081520390209382519182526020820152a2600754604051632969667560e01b8152969060209088906001600160a01b0316610cd16004808401903561242a565b63ffffffff88166024830152606060448301528180610cf46064820187896125fc565b03915afa96871561089e57600097610dc7575b5094602099610da960c0968c96610dbc9663ffffffff610d958f9d988f9d8f9e7fb7591eea93c42b99293e9a702935217fa3c0a5bf0373e745798b9036421dde709f60005260098e528b60086040600020015560005260028d526006604060002001610d748c82546125ef565b90556040519d8e9d8e610d898160043561242a565b015260c08d01916125fc565b931660408a015288830360608a01526125fc565b92608086015284830360a08601526125fc565b0390a3604051908152f35b919650919293946020823d602011610dfe575b81610de760209383612363565b810103126101ba5790519590949392916020610d07565b3d9150610dda565b610e1763ffffffff891682546125ef565b8155610c7e565b86600052600b6020526040600020602060405180928985833789820190815203019020610e5263ffffffff861682546125ef565b90558660005260026020526007604060002001610e7663ffffffff861682546125ef565b9055610c2b565b015190503880610ba3565b906007850160005260206000209160005b601f1985168110610eea57508361012093610bdd979693600193600997601f19811610610ed1575b505050811b016007850155610bbb565b015160001960f88460031b161c19169055388080610ec1565b91926020600181928685015181550194019201610e99565b015190508e80610b19565b6000858152602081209350601f198516905b818110610f5b5750908460019594939210610f42575b505050811b019055610b2e565b015160001960f88460031b161c191690558e8080610f35565b92936020600181928786015181550195019301610f1f565b015190508d80610aa1565b9250600385016000526020600020906000935b601f1984168510610fd5576001945083601f19811610610fbc575b505050811b016003830155610ab9565b015160001960f88460031b161c191690558d8080610fac565b81810151835560209485019460019093019290910190610f91565b634e487b7160e01b600052602160045260246000fd5b60405162461bcd60e51b8152602060048201526011602482015270131bd8d85d1a5bdb881c995c5d5a5c9959607a1b6044820152606490fd5b60405162461bcd60e51b8152602060048201526016602482015275436f756e74206d75737420626520706f73697469766560501b6044820152606490fd5b60405162461bcd60e51b815260206004820152600d60248201526c436c756220696e61637469766560981b6044820152606490fd5b60405162461bcd60e51b81526020600482015260156024820152742737ba1030903932b3b4b9ba32b932b21031b63ab160591b6044820152606490fd5b346101ba5761110861110036612526565b8192916125ef565b906001918254808211611399575b5061112182826126fa565b9161112b8361265a565b926111396040519485612363565b808452611148601f199161265a565b0160005b81811061133e575050805b828110611265578385604051918291602090818401828552835180915260408501928060408360051b8801019501936000905b8382106111975787870388f35b918496819592949698508190603f198b82030185528951908151815260018060a01b0383830151168382015261121e61120b6111f86111e5604086015161014080604088015286019061245a565b606080870151908683039087015261245a565b608080860151908583039086015261245a565b60a080850151908483039085015261245a565b9160c0808201519083015260e081015160e0830152610100808201511515908301526001600160401b0361012080920151169101529801920192018796959391949261118a565b8061133991600052611333600260208181526001600160401b0360406000206112bb61129189886126fa565b946040519461129f86612311565b835486528d8401546001600160a01b0316908601528201612384565b60408401526112cc60038201612384565b60608401526112dd60048201612384565b60808401526112ee60058201612384565b60a0840152600681015460c0840152600781015460e08401526008809101549060ff821615156101008501521c1661012082015261132c8289612671565b5286612671565b5061256a565b611157565b60209060405161134d81612311565b60008152826000818301526060806040840152808084015280608084015260a0830152600060c0830152600060e08301526000610100830152600061012083015282880101520161114c565b905083611116565b346101ba5760203660031901126101ba576004356001600160401b0381116101ba5760206113d481923690600401612495565b91908260405193849283378101600581520301902054604051908152f35b346101ba5760203660031901126101ba576001600160a01b0361141361247f565b1660005260036020526020604060002054604051908152f35b346101ba5760003660031901126101ba576020600854604051908152f35b346101ba5760603660031901126101ba576004356024356044356001600160401b0381116101ba57611480903690600401612495565b909160018060a01b036000541633148015611559575b61149f9061261d565b801561151f5761151a7f7a8d82c81a46f74e22b712ab1a42b6864c3a0c4033d974d9a0680ee749774a9e938560005260026020526114e36040600020541515612685565b85600052600260205260066040600020016114ff8482546125ef565b905560405193849384526040602085015260408401916125fc565b0390a2005b60405162461bcd60e51b81526020600482015260126024820152710506f696e7473206d757374206265203e20360741b6044820152606490fd5b503360009081526006602052604090205460ff16611496565b346101ba5760203660031901126101ba576004356001600160401b0381116101ba576115a9602061036b6060933690600401612508565b8101600c815203019020805490600260018201549101549060405192835260208301526040820152f35b346101ba5760203660031901126101ba576004356001600160401b0381116101ba57611609602061036b81933690600401612508565b8101600581520301902054604051908152f35b346101ba576020806003193601126101ba57600435600052600a81526040600020604051808284829454938481520190600052846000209260005b868282106118d1578461166c81860382612363565b80516116778161265a565b906116856040519283612363565b808252611694601f199161265a565b018360005b8281106118765750505060005b825181101561178157806116bd61177c9285612671565b5160005260098086526040600020604051916116d883612311565b8154835260018201548884015260ff916116fb836002830154166040860161258f565b61170760038201612384565b606085015263ffffffff600482015416608085015261172860058201612384565b60a08501526001600160401b0360068201541660c085015261174c60078201612384565b60e0850152600881015461010085015201541615156101208201526117718285612671565b526113338184612671565b6116a6565b604080518581528351818701819052600092600582901b830181019186890191899085015b8287106117b35785850386f35b909192938280600192603f198982030185528751908151815282820151838201526117e66040830151604083019061242a565b61184e61182961180660608086015190610140809187015285019061245a565b608063ffffffff81870151169085015260a080860151908583039086015261245a565b60c06001600160401b0381860151169084015260e084015183820360e085015261245a565b91610100808201519083015261012080910151151591015296019201960195929190926117a6565b60405161188281612311565b600081526000838201526000604082015260608080830152600060808301528060a0830152600060c083015260e082015260006101008201526000610120820152828286010152018490611699565b8554845260019586019587955093019201611657565b346101ba5760a03660031901126101ba5761190061247f565b6024356001600160401b0381116101ba5761191f903690600401612495565b6044929192356001600160401b0381116101ba57611941903690600401612495565b9390916064356001600160401b0381116101ba57611963903690600401612495565b94906084356001600160401b0381116101ba57611984903690600401612495565b96909561199c60018060a01b036000541633146126c2565b6001600160a01b038416156120bc576001600160a01b0384166000908152600360205260409020546120775760ff6040518a8382376020818c810160048152030190205416612032578415611ffd578115611fc657611a006001548060a05261256a565b60015560405198611a108a612311565b60a0518a526001600160a01b03851660208b0152611a2f3687896124c2565b60408b0152611a3f3682846124c2565b60608b0152611a4f3684866124c2565b60808b0152611a5f368a8a6124c2565b60a08b0152600060c08b0152600060e08b015260016101008b01526001600160401b0342166101208b015260a051600052600260205260406000209980518b5560018b0160018060a01b036020830151166bffffffffffffffffffffffff60a01b82541617905560408101518051906001600160401b038211610666578c8291611af983611af060028501546122d7565b6002850161259b565b602091601f8411600114611f545750600092611f49575b50508160011b916000199060031b1c19161760028c01555b60608101518051906001600160401b038211610666578c8291611b5b83611b5260038501546122d7565b6003850161259b565b602091601f8411600114611ed75750600092611ecc575b50508160011b916000199060031b1c19161760038c01555b60808101518051806080526001600160401b03811161066657611bbd908d6004611bb6818301546122d7565b910161259b565b6080519060208d6001601f851114611e595750608051925060009183611e4e575b50508160011b916000199060031b1c19161760048c01555b60a08101518051906001600160401b03821161066657611c1f828e6005611bb6818301546122d7565b602090601f8311600114611da5579261012060087fdb6287da9322f01813d2d3155a4ffef04aa34919204450efc1c06efecb39c30b9d9e9f85611d8b9c9b9996611d709b9996611d6299600092611d9a575b50508160011b916000199060031b1c19161760058201555b60c0840151600682015560e084015160078201550191611cbc6101008201511515849060ff801983541691151516179055565b0151815468ffffffffffffffff00191660089190911b68ffffffffffffffff00161790556001600160a01b0387166000908152600360205260a0516040918290205551818382376020818381016004815203019020600160ff19825416179055604051848682376020818681016005815203019020611d3b815461256a565b9055611d546040519a8b9a60808c5260808c01916125fc565b9189830360208b01526125fc565b9186830360408801526125fc565b90838203606085015260018060a01b03169660a051966125fc565b0390a3602060405160a0518152f35b015190503880611c71565b9060058e0160005260206000209160005b601f1985168110611e36575060087fdb6287da9322f01813d2d3155a4ffef04aa34919204450efc1c06efecb39c30b9d9e9f600186611d709b9996611d629996611d8b9f9e9c999661012097601f19811610611e1d575b505050811b016005820155611c89565b015160001960f88460031b161c19169055388080611e0d565b91926020600181928685015181550194019201611db6565b015190508d80611bde565b600490939293016000526020600020906000935b601f1984168510611eb1576001945083601f19811610611e98575b505050811b0160048c0155611bf6565b015160001960f88460031b161c191690558d8080611e88565b81810151835560209485019460019093019290910190611e6d565b015190508d80611b72565b6003919450016000526020600020906000935b601f1984168510611f2e576001945083601f19811610611f15575b505050811b0160038c0155611b8a565b015160001960f88460031b161c191690558d8080611f05565b81810151835560209485019460019093019290910190611eea565b015190508d80611b10565b6002919450016000526020600020906000935b601f1984168510611fab576001945083601f19811610611f92575b505050811b0160028c0155611b28565b015160001960f88460031b161c191690558d8080611f82565b81810151835560209485019460019093019290910190611f67565b60405162461bcd60e51b815260206004820152600f60248201526e10dbdd5b9d1e481c995c5d5a5c9959608a1b6044820152606490fd5b60405162461bcd60e51b815260206004820152600d60248201526c13985b59481c995c5d5a5c9959609a1b6044820152606490fd5b60405162461bcd60e51b815260206004820152601960248201527f5363686f6f6c20616c72656164792072656769737465726564000000000000006044820152606490fd5b60405162461bcd60e51b815260206004820152601960248201527f57616c6c657420616c72656164792072656769737465726564000000000000006044820152606490fd5b60405162461bcd60e51b815260206004820152600e60248201526d125b9d985b1a59081dd85b1b195d60921b6044820152606490fd5b346101ba576020806003193601126101ba5760405161211081612348565b6003815260005b60608082101561212e578282018401528201612117565b82846040519061213d82612348565b600382528082019060603683376040519384936040850160408652825180915260608601908460608260051b8901019401916000905b8282106121b757505050508482038584015251808252908201929160005b8281106121a057505050500390f35b835185528695509381019392810192600101612191565b91939460019193979850866121d78192605f198d82030186528a5161245a565b98019201920188979694939192612173565b346101ba5760203660031901126101ba5760043560005260096020526020604060002080549060018101546122c460ff600284015416836122b161222f60038301612384565b63ffffffff6004840154169061229e61224a60058601612384565b9161228d6001600160401b036006880154169760ff6009600861226f60078c01612384565b9a01549d0154169a6040519e8f9e8f908152015260408d019061242a565b6101408060608d01528b019061245a565b9160808a015288820360a08a015261245a565b9160c087015285820360e087015261245a565b9161010084015215156101208301520390f35b90600182811c92168015612307575b60208310146122f157565b634e487b7160e01b600052602260045260246000fd5b91607f16916122e6565b61014081019081106001600160401b0382111761066657604052565b606081019081106001600160401b0382111761066657604052565b608081019081106001600160401b0382111761066657604052565b90601f801991011681019081106001600160401b0382111761066657604052565b9060405191826000825492612398846122d7565b90818452600194858116908160001461240757506001146123c4575b50506123c292500383612363565b565b9093915060005260209081600020936000915b8183106123ef5750506123c2935082010138806123b4565b855488840185015294850194879450918301916123d7565b9150506123c294506020925060ff191682840152151560051b82010138806123b4565b906004821015610ff05752565b60005b83811061244a5750506000910152565b818101518382015260200161243a565b9060209161247381518092818552858086019101612437565b601f01601f1916010190565b600435906001600160a01b03821682036101ba57565b9181601f840112156101ba578235916001600160401b0383116101ba57602083818601950101116101ba57565b9291926001600160401b03821161066657604051916124eb601f8201601f191660200184612363565b8294818452818301116101ba578281602093846000960137010152565b9080601f830112156101ba57816020612523933591016124c2565b90565b60409060031901126101ba576004359060243590565b80548210156125545760005260206000200190600090565b634e487b7160e01b600052603260045260246000fd5b60001981146125795760010190565b634e487b7160e01b600052601160045260246000fd5b6004821015610ff05752565b90601f81116125a957505050565b600091825260208220906020601f850160051c830194106125e5575b601f0160051c01915b8281106125da57505050565b8181556001016125ce565b90925082906125c5565b9190820180921161257957565b908060209392818452848401376000828201840152601f01601f1916010190565b1561262457565b60405162461bcd60e51b815260206004820152600e60248201526d139bdd08185d5d1a1bdc9a5e995960921b6044820152606490fd5b6001600160401b0381116106665760051b60200190565b80518210156125545760209160051b010190565b1561268c57565b60405162461bcd60e51b815260206004820152600e60248201526d10db1d58881b9bdd08199bdd5b9960921b6044820152606490fd5b156126c957565b60405162461bcd60e51b81526020600482015260096024820152682737ba1037bbb732b960b91b6044820152606490fd5b919082039182116125795756fea26469706673582212201a8ba25d8dbca7c4bb02eae2741d53a6d8e8a25821597990ba9bd7c5902155b464736f6c63430008140033","opcodes":"PUSH1 0x80 CALLVALUE PUSH2 0x83 JUMPI PUSH1 0x1F PUSH2 0x27DC CODESIZE DUP2 SWAP1 SUB SWAP2 DUP3 ADD PUSH1 0x1F NOT AND DUP4 ADD SWAP2 PUSH1 0x1 PUSH1 0x1 PUSH1 0x40 SHL SUB DUP4 GT DUP5 DUP5 LT OR PUSH2 0x88 JUMPI DUP1 DUP5 SWAP3 PUSH1 0x20 SWAP5 PUSH1 0x40 MSTORE DUP4 CODECOPY DUP2 ADD SUB SLT PUSH2 0x83 JUMPI MLOAD PUSH1 0x1 PUSH1 0x1 PUSH1 0xA0 SHL SUB DUP2 AND SWAP1 DUP2 SWAP1 SUB PUSH2 0x83 JUMPI PUSH1 0x1 DUP1 SSTORE PUSH1 0x1 DUP1 PUSH1 0xA0 SHL SUB NOT CALLER DUP2 PUSH1 0x0 SLOAD AND OR PUSH1 0x0 SSTORE PUSH1 0x1 PUSH1 0x8 SSTORE PUSH1 0x7 SLOAD AND OR PUSH1 0x7 SSTORE PUSH1 0x40 MLOAD PUSH2 0x273D SWAP1 DUP2 PUSH2 0x9F DUP3 CODECOPY RETURN JUMPDEST PUSH1 0x0 DUP1 REVERT JUMPDEST PUSH4 0x4E487B71 PUSH1 0xE0 SHL PUSH1 0x0 MSTORE PUSH1 0x41 PUSH1 0x4 MSTORE PUSH1 0x24 PUSH1 0x0 REVERT INVALID PUSH1 0xC0 PUSH1 0x40 MSTORE PUSH1 0x4 CALLDATASIZE LT ISZERO PUSH2 0x12 JUMPI PUSH1 0x0 DUP1 REVERT JUMPDEST PUSH1 0x0 CALLDATALOAD PUSH1 0xE0 SHR DUP1 PUSH4 0xD1657E8 EQ PUSH2 0x21E9 JUMPI DUP1 PUSH4 0xF3F3910 EQ PUSH2 0x20F2 JUMPI DUP1 PUSH4 0x14524B42 EQ PUSH2 0x18E7 JUMPI DUP1 PUSH4 0x1C4273B6 EQ PUSH2 0x161C JUMPI DUP1 PUSH4 0x226FD922 EQ PUSH2 0x15D3 JUMPI DUP1 PUSH4 0x254129A3 EQ PUSH2 0x1572 JUMPI DUP1 PUSH4 0x2EE7367F EQ PUSH2 0x144A JUMPI DUP1 PUSH4 0x3EA870B7 EQ PUSH2 0x142C JUMPI DUP1 PUSH4 0x47BA097F EQ PUSH2 0x13F2 JUMPI DUP1 PUSH4 0x54CA56DA EQ PUSH2 0x13A1 JUMPI DUP1 PUSH4 0x57D531D5 EQ PUSH2 0x10EF JUMPI DUP1 PUSH4 0x5E4C4942 EQ PUSH2 0x8C3 JUMPI DUP1 PUSH4 0x5FB1536F EQ PUSH2 0x772 JUMPI DUP1 PUSH4 0x69D71FEA EQ PUSH2 0x733 JUMPI DUP1 PUSH4 0x6C824487 EQ PUSH2 0x6F4 JUMPI DUP1 PUSH4 0x8DA5CB5B EQ PUSH2 0x6CB JUMPI DUP1 PUSH4 0x9000B3D6 EQ PUSH2 0x67C JUMPI DUP1 PUSH4 0x90A87806 EQ PUSH2 0x4B5 JUMPI DUP1 PUSH4 0x9CC009C1 EQ PUSH2 0x3BD JUMPI DUP1 PUSH4 0xA1794D4C EQ PUSH2 0x394 JUMPI DUP1 PUSH4 0xBBA0CFFF EQ PUSH2 0x333 JUMPI DUP1 PUSH4 0xCA2DFD0A EQ PUSH2 0x2E7 JUMPI DUP1 PUSH4 0xD7C26DD8 EQ PUSH2 0x27D JUMPI DUP1 PUSH4 0xDA5A7898 EQ PUSH2 0x25F JUMPI DUP1 PUSH4 0xDC2AFDF3 EQ PUSH2 0x1BF JUMPI PUSH4 0xF2FDE38B EQ PUSH2 0x13A JUMPI PUSH1 0x0 DUP1 REVERT JUMPDEST CALLVALUE PUSH2 0x1BA JUMPI PUSH1 0x20 CALLDATASIZE PUSH1 0x3 NOT ADD SLT PUSH2 0x1BA JUMPI PUSH2 0x153 PUSH2 0x247F JUMP JUMPDEST PUSH1 0x0 SLOAD SWAP1 PUSH1 0x1 PUSH1 0x1 PUSH1 0xA0 SHL SUB SWAP1 PUSH2 0x16D CALLER DUP4 DUP6 AND EQ PUSH2 0x26C2 JUMP JUMPDEST AND SWAP1 DUP2 ISZERO PUSH2 0x185 JUMPI PUSH1 0x1 PUSH1 0x1 PUSH1 0xA0 SHL SUB NOT AND OR PUSH1 0x0 SSTORE STOP JUMPDEST PUSH1 0x40 MLOAD PUSH3 0x461BCD PUSH1 0xE5 SHL DUP2 MSTORE PUSH1 0x20 PUSH1 0x4 DUP3 ADD MSTORE PUSH1 0xD PUSH1 0x24 DUP3 ADD MSTORE PUSH13 0x24B73B30B634B21037BBB732B9 PUSH1 0x99 SHL PUSH1 0x44 DUP3 ADD MSTORE PUSH1 0x64 SWAP1 REVERT JUMPDEST PUSH1 0x0 DUP1 REVERT JUMPDEST CALLVALUE PUSH2 0x1BA JUMPI PUSH1 0x20 CALLDATASIZE PUSH1 0x3 NOT ADD SLT PUSH2 0x1BA JUMPI PUSH1 0x4 CALLDATALOAD PUSH1 0x1 PUSH1 0x1 PUSH1 0x40 SHL SUB DUP2 GT PUSH2 0x1BA JUMPI PUSH1 0x20 PUSH2 0x1F3 PUSH1 0x60 SWAP3 CALLDATASIZE SWAP1 PUSH1 0x4 ADD PUSH2 0x2495 JUMP JUMPDEST SWAP2 SWAP1 PUSH1 0x0 PUSH1 0x40 DUP1 MLOAD PUSH2 0x204 DUP2 PUSH2 0x232D JUMP JUMPDEST DUP3 DUP2 MSTORE DUP3 DUP6 DUP3 ADD MSTORE ADD MSTORE DUP3 PUSH1 0x40 MLOAD SWAP4 DUP5 SWAP3 DUP4 CALLDATACOPY DUP2 ADD PUSH1 0xC DUP2 MSTORE SUB ADD SWAP1 KECCAK256 PUSH1 0x40 MLOAD PUSH2 0x22D DUP2 PUSH2 0x232D JUMP JUMPDEST DUP2 SLOAD SWAP2 DUP3 DUP3 MSTORE PUSH1 0x40 PUSH1 0x2 PUSH1 0x1 DUP4 ADD SLOAD SWAP3 PUSH1 0x20 DUP6 ADD SWAP4 DUP5 MSTORE ADD SLOAD SWAP3 ADD SWAP2 DUP3 MSTORE PUSH1 0x40 MLOAD SWAP3 DUP4 MSTORE MLOAD PUSH1 0x20 DUP4 ADD MSTORE MLOAD PUSH1 0x40 DUP3 ADD MSTORE RETURN JUMPDEST CALLVALUE PUSH2 0x1BA JUMPI PUSH1 0x0 CALLDATASIZE PUSH1 0x3 NOT ADD SLT PUSH2 0x1BA JUMPI PUSH1 0x20 PUSH1 0x1 SLOAD PUSH1 0x40 MLOAD SWAP1 DUP2 MSTORE RETURN JUMPDEST CALLVALUE PUSH2 0x1BA JUMPI PUSH1 0x40 CALLDATASIZE PUSH1 0x3 NOT ADD SLT PUSH2 0x1BA JUMPI PUSH1 0x24 CALLDATALOAD PUSH1 0x1 PUSH1 0x1 PUSH1 0x40 SHL SUB DUP2 GT PUSH2 0x1BA JUMPI PUSH2 0x2D5 PUSH1 0x20 PUSH2 0x2B3 DUP2 SWAP4 CALLDATASIZE SWAP1 PUSH1 0x4 ADD PUSH2 0x2508 JUMP JUMPDEST PUSH1 0x4 CALLDATALOAD PUSH1 0x0 MSTORE PUSH1 0xB DUP3 MSTORE PUSH1 0x40 PUSH1 0x0 KECCAK256 DUP3 PUSH1 0x40 MLOAD SWAP5 DUP4 DUP7 DUP1 SWAP6 MLOAD SWAP4 DUP5 SWAP3 ADD PUSH2 0x2437 JUMP JUMPDEST DUP3 ADD SWAP1 DUP2 MSTORE SUB ADD SWAP1 KECCAK256 SLOAD PUSH1 0x40 MLOAD SWAP1 DUP2 MSTORE RETURN JUMPDEST CALLVALUE PUSH2 0x1BA JUMPI PUSH1 0x20 CALLDATASIZE PUSH1 0x3 NOT ADD SLT PUSH2 0x1BA JUMPI PUSH2 0x300 PUSH2 0x247F JUMP JUMPDEST PUSH1 0x0 SLOAD PUSH1 0x1 PUSH1 0x1 PUSH1 0xA0 SHL SUB SWAP2 SWAP1 PUSH2 0x31A SWAP1 DUP4 AND CALLER EQ PUSH2 0x26C2 JUMP JUMPDEST AND PUSH1 0x0 SWAP1 DUP2 MSTORE PUSH1 0x6 PUSH1 0x20 MSTORE PUSH1 0x40 SWAP1 KECCAK256 DUP1 SLOAD PUSH1 0xFF NOT AND SWAP1 SSTORE STOP JUMPDEST CALLVALUE PUSH2 0x1BA JUMPI PUSH1 0x20 CALLDATASIZE PUSH1 0x3 NOT ADD SLT PUSH2 0x1BA JUMPI PUSH1 0x4 CALLDATALOAD PUSH1 0x1 PUSH1 0x1 PUSH1 0x40 SHL SUB DUP2 GT PUSH2 0x1BA JUMPI PUSH1 0xFF PUSH2 0x37E PUSH1 0x20 PUSH2 0x36B DUP2 SWAP5 CALLDATASIZE SWAP1 PUSH1 0x4 ADD PUSH2 0x2508 JUMP JUMPDEST DUP2 PUSH1 0x40 MLOAD SWAP4 DUP3 DUP6 DUP1 SWAP5 MLOAD SWAP4 DUP5 SWAP3 ADD PUSH2 0x2437 JUMP JUMPDEST DUP2 ADD PUSH1 0x4 DUP2 MSTORE SUB ADD SWAP1 KECCAK256 SLOAD AND PUSH1 0x40 MLOAD SWAP1 ISZERO ISZERO DUP2 MSTORE RETURN JUMPDEST CALLVALUE PUSH2 0x1BA JUMPI PUSH1 0x0 CALLDATASIZE PUSH1 0x3 NOT ADD SLT PUSH2 0x1BA JUMPI PUSH1 0x7 SLOAD PUSH1 0x40 MLOAD PUSH1 0x1 PUSH1 0x1 PUSH1 0xA0 SHL SUB SWAP1 SWAP2 AND DUP2 MSTORE PUSH1 0x20 SWAP1 RETURN JUMPDEST CALLVALUE PUSH2 0x1BA JUMPI PUSH1 0x20 CALLDATASIZE PUSH1 0x3 NOT ADD SLT PUSH2 0x1BA JUMPI PUSH1 0x4 CALLDATALOAD PUSH1 0x0 MSTORE PUSH1 0x2 PUSH1 0x20 MSTORE PUSH1 0x20 PUSH1 0x40 PUSH1 0x0 KECCAK256 DUP1 SLOAD SWAP1 PUSH1 0x1 PUSH1 0x1 PUSH1 0x40 SHL SUB PUSH1 0x1 DUP1 PUSH1 0xA0 SHL SUB PUSH1 0x1 DUP4 ADD SLOAD AND PUSH2 0x404 PUSH1 0x2 DUP5 ADD PUSH2 0x2384 JUMP JUMPDEST SWAP3 PUSH2 0x490 PUSH2 0x414 PUSH1 0x3 DUP4 ADD PUSH2 0x2384 JUMP JUMPDEST PUSH2 0x482 PUSH2 0x423 PUSH1 0x4 DUP6 ADD PUSH2 0x2384 JUMP JUMPDEST PUSH2 0x474 PUSH2 0x432 PUSH1 0x5 DUP8 ADD PUSH2 0x2384 JUMP JUMPDEST SWAP4 PUSH2 0x466 PUSH1 0x6 DUP9 ADD SLOAD SWAP11 PUSH1 0x8 PUSH1 0x7 DUP11 ADD SLOAD SWAP10 ADD SLOAD SWAP10 PUSH1 0x40 MLOAD SWAP15 DUP16 SWAP15 DUP16 SWAP1 DUP2 MSTORE ADD MSTORE PUSH1 0x40 DUP14 PUSH2 0x140 SWAP2 DUP3 SWAP2 ADD MSTORE DUP14 ADD SWAP1 PUSH2 0x245A JUMP JUMPDEST SWAP1 DUP12 DUP3 SUB PUSH1 0x60 DUP14 ADD MSTORE PUSH2 0x245A JUMP JUMPDEST SWAP1 DUP10 DUP3 SUB PUSH1 0x80 DUP12 ADD MSTORE PUSH2 0x245A JUMP JUMPDEST SWAP1 DUP8 DUP3 SUB PUSH1 0xA0 DUP10 ADD MSTORE PUSH2 0x245A JUMP JUMPDEST SWAP4 PUSH1 0xC0 DUP7 ADD MSTORE PUSH1 0xE0 DUP6 ADD MSTORE PUSH1 0xFF DUP2 AND ISZERO ISZERO PUSH2 0x100 DUP6 ADD MSTORE PUSH1 0x8 SHR AND PUSH2 0x120 DUP4 ADD MSTORE SUB SWAP1 RETURN JUMPDEST CALLVALUE PUSH2 0x1BA JUMPI PUSH1 0x60 CALLDATASIZE PUSH1 0x3 NOT ADD SLT PUSH2 0x1BA JUMPI PUSH1 0x1 PUSH1 0x1 PUSH1 0x40 SHL SUB PUSH1 0x4 CALLDATALOAD PUSH1 0x24 CALLDATALOAD DUP3 DUP2 GT PUSH2 0x1BA JUMPI PUSH2 0x4E9 SWAP1 CALLDATASIZE SWAP1 PUSH1 0x4 ADD PUSH2 0x2495 JUMP JUMPDEST PUSH1 0x44 CALLDATALOAD DUP1 ISZERO ISZERO DUP1 DUP3 SUB PUSH2 0x1BA JUMPI PUSH2 0x50B PUSH1 0x1 DUP1 PUSH1 0xA0 SHL SUB PUSH1 0x0 SLOAD AND CALLER EQ PUSH2 0x26C2 JUMP JUMPDEST DUP5 PUSH1 0x0 MSTORE PUSH1 0x20 SWAP2 PUSH1 0x2 DUP4 MSTORE PUSH1 0x40 PUSH1 0x0 KECCAK256 PUSH2 0x527 DUP2 SLOAD ISZERO ISZERO PUSH2 0x2685 JUMP JUMPDEST PUSH1 0x2 DUP2 ADD SWAP8 DUP6 GT PUSH2 0x666 JUMPI PUSH2 0x546 DUP6 PUSH2 0x540 DUP11 SLOAD PUSH2 0x22D7 JUMP JUMPDEST DUP11 PUSH2 0x259B JUMP JUMPDEST PUSH1 0x0 SWAP8 PUSH1 0x1F DUP7 GT PUSH1 0x1 EQ PUSH2 0x5D9 JUMPI PUSH2 0x5AE SWAP3 SWAP2 PUSH1 0x8 SWAP2 DUP8 PUSH32 0x62551F098DC964C743EAD0ABCBCEB212117CB9F8215EFF3A2BF343AFF8F4CF62 SWAP11 SWAP12 PUSH1 0x0 SWAP2 PUSH2 0x5CE JUMPI JUMPDEST POP DUP9 PUSH1 0x1 SHL SWAP1 PUSH1 0x0 NOT DUP11 PUSH1 0x3 SHL SHR NOT AND OR SWAP1 SSTORE JUMPDEST ADD SWAP1 PUSH1 0xFF DUP1 NOT DUP4 SLOAD AND SWAP2 ISZERO ISZERO AND OR SWAP1 SSTORE JUMP JUMPDEST PUSH2 0x5C5 PUSH1 0x40 MLOAD SWAP5 DUP6 SWAP5 PUSH1 0x40 DUP7 MSTORE PUSH1 0x40 DUP7 ADD SWAP2 PUSH2 0x25FC JUMP JUMPDEST SWAP2 DUP4 ADD MSTORE SUB SWAP1 LOG2 STOP JUMPDEST SWAP1 POP DUP10 ADD CALLDATALOAD DUP13 PUSH2 0x588 JUMP JUMPDEST PUSH1 0x1F NOT DUP7 AND DUP2 PUSH1 0x0 MSTORE DUP6 PUSH1 0x0 KECCAK256 SWAP1 PUSH1 0x0 JUMPDEST DUP2 DUP2 LT PUSH2 0x64F JUMPI POP SWAP2 PUSH2 0x5AE SWAP5 SWAP4 SWAP2 PUSH32 0x62551F098DC964C743EAD0ABCBCEB212117CB9F8215EFF3A2BF343AFF8F4CF62 SWAP11 SWAP12 DUP10 PUSH1 0x8 SWAP6 LT PUSH2 0x635 JUMPI JUMPDEST POP POP PUSH1 0x1 DUP9 DUP2 SHL ADD SWAP1 SSTORE PUSH2 0x59C JUMP JUMPDEST DUP11 ADD CALLDATALOAD PUSH1 0x0 NOT PUSH1 0x3 DUP12 SWAP1 SHL PUSH1 0xF8 AND SHR NOT AND SWAP1 SSTORE DUP12 DUP1 PUSH2 0x626 JUMP JUMPDEST DUP10 DUP13 ADD CALLDATALOAD DUP4 SSTORE SWAP11 DUP8 ADD SWAP11 PUSH1 0x1 SWAP1 SWAP3 ADD SWAP2 DUP8 ADD PUSH2 0x5EA JUMP JUMPDEST PUSH4 0x4E487B71 PUSH1 0xE0 SHL PUSH1 0x0 MSTORE PUSH1 0x41 PUSH1 0x4 MSTORE PUSH1 0x24 PUSH1 0x0 REVERT JUMPDEST CALLVALUE PUSH2 0x1BA JUMPI PUSH1 0x20 CALLDATASIZE PUSH1 0x3 NOT ADD SLT PUSH2 0x1BA JUMPI PUSH2 0x695 PUSH2 0x247F JUMP JUMPDEST PUSH1 0x0 SLOAD PUSH1 0x1 PUSH1 0x1 PUSH1 0xA0 SHL SUB SWAP2 SWAP1 PUSH2 0x6AF SWAP1 DUP4 AND CALLER EQ PUSH2 0x26C2 JUMP JUMPDEST AND PUSH1 0x0 SWAP1 DUP2 MSTORE PUSH1 0x6 PUSH1 0x20 MSTORE PUSH1 0x40 SWAP1 KECCAK256 DUP1 SLOAD PUSH1 0xFF NOT AND PUSH1 0x1 OR SWAP1 SSTORE STOP JUMPDEST CALLVALUE PUSH2 0x1BA JUMPI PUSH1 0x0 CALLDATASIZE PUSH1 0x3 NOT ADD SLT PUSH2 0x1BA JUMPI PUSH1 0x0 SLOAD PUSH1 0x40 MLOAD PUSH1 0x1 PUSH1 0x1 PUSH1 0xA0 SHL SUB SWAP1 SWAP2 AND DUP2 MSTORE PUSH1 0x20 SWAP1 RETURN JUMPDEST CALLVALUE PUSH2 0x1BA JUMPI PUSH1 0x20 CALLDATASIZE PUSH1 0x3 NOT ADD SLT PUSH2 0x1BA JUMPI PUSH1 0x1 PUSH1 0x1 PUSH1 0xA0 SHL SUB PUSH2 0x715 PUSH2 0x247F JUMP JUMPDEST AND PUSH1 0x0 MSTORE PUSH1 0x6 PUSH1 0x20 MSTORE PUSH1 0x20 PUSH1 0xFF PUSH1 0x40 PUSH1 0x0 KECCAK256 SLOAD AND PUSH1 0x40 MLOAD SWAP1 ISZERO ISZERO DUP2 MSTORE RETURN JUMPDEST CALLVALUE PUSH2 0x1BA JUMPI PUSH2 0x741 CALLDATASIZE PUSH2 0x2526 JUMP JUMPDEST SWAP1 PUSH1 0x0 MSTORE PUSH1 0xA PUSH1 0x20 MSTORE PUSH1 0x40 PUSH1 0x0 KECCAK256 DUP1 SLOAD DUP3 LT ISZERO PUSH2 0x1BA JUMPI PUSH1 0x20 SWAP2 PUSH2 0x764 SWAP2 PUSH2 0x253C JUMP JUMPDEST SWAP1 SLOAD PUSH1 0x40 MLOAD SWAP2 PUSH1 0x3 SHL SHR DUP2 MSTORE RETURN JUMPDEST CALLVALUE PUSH2 0x1BA JUMPI PUSH1 0x40 CALLDATASIZE PUSH1 0x3 NOT ADD SLT PUSH2 0x1BA JUMPI PUSH1 0x24 CALLDATALOAD DUP1 ISZERO ISZERO DUP2 SUB PUSH2 0x1BA JUMPI PUSH1 0x0 SLOAD PUSH1 0x1 PUSH1 0x1 PUSH1 0xA0 SHL SUB SWAP2 SWAP1 DUP3 AND CALLER EQ DUP1 ISZERO PUSH2 0x8AA JUMPI JUMPDEST PUSH2 0x7B0 SWAP1 PUSH2 0x261D JUMP JUMPDEST PUSH1 0x4 CALLDATALOAD PUSH1 0x0 MSTORE PUSH1 0x20 SWAP2 PUSH1 0x9 DUP4 MSTORE PUSH1 0x40 PUSH1 0x0 KECCAK256 SWAP2 PUSH2 0x7DC DUP2 PUSH1 0x9 DUP6 ADD SWAP1 PUSH1 0xFF DUP1 NOT DUP4 SLOAD AND SWAP2 ISZERO ISZERO AND OR SWAP1 SSTORE JUMP JUMPDEST PUSH2 0x7E2 JUMPI STOP JUMPDEST PUSH1 0x7 SLOAD AND SWAP2 DUP1 PUSH2 0x81D PUSH1 0x44 PUSH1 0xFF PUSH1 0x2 DUP7 ADD SLOAD AND PUSH4 0xFFFFFFFF PUSH1 0x4 DUP8 ADD SLOAD AND SWAP7 PUSH1 0x40 MLOAD SWAP8 DUP9 SWAP5 DUP6 SWAP4 PUSH4 0x3E9988CB PUSH1 0xE0 SHL DUP6 MSTORE PUSH1 0x4 DUP6 ADD SWAP1 PUSH2 0x242A JUMP JUMPDEST PUSH1 0x24 DUP4 ADD MSTORE GAS STATICCALL SWAP3 DUP4 ISZERO PUSH2 0x89E JUMPI PUSH1 0x0 SWAP4 PUSH2 0x86F JUMPI JUMPDEST POP DUP3 PUSH2 0x83B JUMPI STOP JUMPDEST DUP2 PUSH1 0x2 PUSH1 0x8 SWAP3 PUSH1 0x1 PUSH2 0x86B SWAP6 ADD SLOAD PUSH1 0x0 MSTORE MSTORE PUSH1 0x6 PUSH1 0x40 PUSH1 0x0 KECCAK256 ADD PUSH2 0x860 DUP6 DUP3 SLOAD PUSH2 0x25EF JUMP JUMPDEST SWAP1 SSTORE ADD SWAP2 DUP3 SLOAD PUSH2 0x25EF JUMP JUMPDEST SWAP1 SSTORE STOP JUMPDEST SWAP1 DUP1 SWAP4 POP DUP2 DUP2 RETURNDATASIZE DUP4 GT PUSH2 0x897 JUMPI JUMPDEST PUSH2 0x887 DUP2 DUP4 PUSH2 0x2363 JUMP JUMPDEST DUP2 ADD SUB SLT PUSH2 0x1BA JUMPI MLOAD SWAP2 DUP4 PUSH2 0x833 JUMP JUMPDEST POP RETURNDATASIZE PUSH2 0x87D JUMP JUMPDEST PUSH1 0x40 MLOAD RETURNDATASIZE PUSH1 0x0 DUP3 RETURNDATACOPY RETURNDATASIZE SWAP1 REVERT JUMPDEST POP CALLER PUSH1 0x0 SWAP1 DUP2 MSTORE PUSH1 0x6 PUSH1 0x20 MSTORE PUSH1 0x40 SWAP1 KECCAK256 SLOAD PUSH1 0xFF AND PUSH2 0x7A7 JUMP JUMPDEST CALLVALUE PUSH2 0x1BA JUMPI PUSH1 0xA0 CALLDATASIZE PUSH1 0x3 NOT ADD SLT PUSH2 0x1BA JUMPI PUSH1 0x4 DUP1 CALLDATALOAD LT ISZERO PUSH2 0x1BA JUMPI PUSH1 0x24 CALLDATALOAD PUSH1 0x1 PUSH1 0x1 PUSH1 0x40 SHL SUB DUP2 GT PUSH2 0x1BA JUMPI PUSH2 0x8FD SWAP1 CALLDATASIZE SWAP1 PUSH1 0x4 ADD PUSH2 0x2495 JUMP JUMPDEST SWAP1 PUSH1 0x44 CALLDATALOAD PUSH4 0xFFFFFFFF DUP2 AND DUP2 SUB PUSH2 0x1BA JUMPI PUSH1 0x64 CALLDATALOAD PUSH1 0x1 PUSH1 0x1 PUSH1 0x40 SHL SUB DUP2 GT PUSH2 0x1BA JUMPI PUSH2 0x92D SWAP1 CALLDATASIZE SWAP1 PUSH1 0x4 ADD PUSH2 0x2495 JUMP JUMPDEST SWAP4 SWAP1 SWAP2 PUSH1 0x1 PUSH1 0x1 PUSH1 0x40 SHL SUB PUSH1 0x84 CALLDATALOAD GT PUSH2 0x1BA JUMPI PUSH2 0x94F CALLDATASIZE PUSH1 0x84 CALLDATALOAD PUSH1 0x4 ADD PUSH2 0x2495 JUMP JUMPDEST SWAP2 SWAP1 SWAP6 CALLER PUSH1 0x0 MSTORE PUSH1 0x3 PUSH1 0x20 MSTORE PUSH1 0x40 PUSH1 0x0 KECCAK256 SLOAD SWAP5 DUP6 ISZERO PUSH2 0x10B2 JUMPI DUP6 PUSH1 0x0 MSTORE PUSH1 0x2 PUSH1 0x20 MSTORE PUSH1 0xFF PUSH1 0x8 PUSH1 0x40 PUSH1 0x0 KECCAK256 ADD SLOAD AND ISZERO PUSH2 0x107D JUMPI PUSH4 0xFFFFFFFF DUP4 AND ISZERO PUSH2 0x103F JUMPI DUP2 ISZERO PUSH2 0x1006 JUMPI PUSH1 0x8 SLOAD SWAP7 PUSH2 0x9A1 DUP9 PUSH2 0x256A JUMP JUMPDEST PUSH1 0x8 SSTORE PUSH1 0x40 MLOAD PUSH2 0x9B0 DUP2 PUSH2 0x2311 JUMP JUMPDEST DUP9 DUP2 MSTORE PUSH1 0x20 DUP2 ADD SWAP1 DUP9 DUP3 MSTORE PUSH1 0x40 DUP2 ADD PUSH2 0x9CB PUSH1 0x4 CALLDATALOAD DUP3 PUSH2 0x258F JUMP JUMPDEST PUSH2 0x9D6 CALLDATASIZE DUP11 DUP7 PUSH2 0x24C2 JUMP JUMPDEST SWAP1 PUSH1 0x60 DUP4 ADD SWAP2 DUP3 MSTORE PUSH4 0xFFFFFFFF DUP9 AND PUSH1 0x80 DUP5 ADD MSTORE PUSH2 0x9F5 CALLDATASIZE DUP9 DUP9 PUSH2 0x24C2 JUMP JUMPDEST PUSH1 0xA0 DUP5 ADD MSTORE TIMESTAMP PUSH1 0x1 PUSH1 0x1 PUSH1 0x40 SHL SUB AND PUSH1 0xC0 DUP5 ADD MSTORE PUSH2 0xA14 CALLDATASIZE DUP11 DUP16 PUSH2 0x24C2 JUMP JUMPDEST PUSH1 0xE0 DUP5 ADD MSTORE PUSH1 0x0 PUSH2 0x100 DUP5 ADD MSTORE PUSH1 0x0 PUSH2 0x120 DUP5 ADD MSTORE DUP12 PUSH1 0x0 MSTORE PUSH1 0x9 PUSH1 0x20 MSTORE PUSH1 0x40 PUSH1 0x0 KECCAK256 SWAP4 DUP4 MLOAD DUP6 SSTORE MLOAD PUSH1 0x1 DUP6 ADD SSTORE PUSH1 0x2 DUP5 ADD SWAP1 MLOAD PUSH1 0x4 DUP2 LT ISZERO PUSH2 0xFF0 JUMPI PUSH1 0xFF DUP1 NOT DUP4 SLOAD AND SWAP2 AND OR SWAP1 SSTORE MLOAD DUP1 MLOAD SWAP1 PUSH1 0x1 PUSH1 0x1 PUSH1 0x40 SHL SUB DUP3 GT PUSH2 0x666 JUMPI DUP2 SWAP1 PUSH2 0xA8B DUP3 PUSH2 0xA82 PUSH1 0x3 DUP9 ADD SLOAD PUSH2 0x22D7 JUMP JUMPDEST PUSH1 0x3 DUP9 ADD PUSH2 0x259B JUMP JUMPDEST PUSH1 0x20 SWAP1 PUSH1 0x1F DUP4 GT PUSH1 0x1 EQ PUSH2 0xF7E JUMPI PUSH1 0x0 SWAP3 PUSH2 0xF73 JUMPI JUMPDEST POP POP DUP2 PUSH1 0x1 SHL SWAP2 PUSH1 0x0 NOT SWAP1 PUSH1 0x3 SHL SHR NOT AND OR PUSH1 0x3 DUP4 ADD SSTORE JUMPDEST PUSH1 0x4 DUP3 ADD PUSH4 0xFFFFFFFF PUSH1 0x80 DUP4 ADD MLOAD AND PUSH4 0xFFFFFFFF NOT DUP3 SLOAD AND OR SWAP1 SSTORE PUSH1 0xA0 DUP2 ADD MLOAD DUP1 MLOAD PUSH1 0x1 PUSH1 0x1 PUSH1 0x40 SHL SUB DUP2 GT PUSH2 0x666 JUMPI DUP1 PUSH1 0x5 DUP6 ADD SWAP3 PUSH2 0xB03 DUP3 PUSH2 0xAFD DUP7 SLOAD PUSH2 0x22D7 JUMP JUMPDEST DUP7 PUSH2 0x259B JUMP JUMPDEST PUSH1 0x20 SWAP1 PUSH1 0x1F DUP4 GT PUSH1 0x1 EQ PUSH2 0xF0D JUMPI PUSH1 0x0 SWAP3 PUSH2 0xF02 JUMPI JUMPDEST POP POP DUP2 PUSH1 0x1 SHL SWAP2 PUSH1 0x0 NOT SWAP1 PUSH1 0x3 SHL SHR NOT AND OR SWAP1 SSTORE JUMPDEST PUSH1 0x6 DUP3 ADD PUSH1 0x1 PUSH1 0x1 PUSH1 0x40 SHL SUB PUSH1 0xC0 DUP4 ADD MLOAD AND PUSH1 0x1 PUSH1 0x1 PUSH1 0x40 SHL SUB NOT DUP3 SLOAD AND OR SWAP1 SSTORE PUSH1 0xE0 DUP2 ADD MLOAD DUP1 MLOAD SWAP1 PUSH1 0x1 PUSH1 0x1 PUSH1 0x40 SHL SUB DUP3 GT PUSH2 0x666 JUMPI PUSH2 0xB7F DUP3 PUSH2 0xB76 PUSH1 0x7 DUP8 ADD SLOAD PUSH2 0x22D7 JUMP JUMPDEST PUSH1 0x7 DUP8 ADD PUSH2 0x259B JUMP JUMPDEST PUSH1 0x20 SWAP1 PUSH1 0x1F DUP4 GT PUSH1 0x1 EQ PUSH2 0xE88 JUMPI SWAP3 DUP3 PUSH1 0x9 SWAP4 PUSH2 0x120 SWAP4 PUSH2 0xBDD SWAP8 SWAP7 PUSH1 0x0 SWAP3 PUSH2 0xE7D JUMPI JUMPDEST POP POP DUP2 PUSH1 0x1 SHL SWAP2 PUSH1 0x0 NOT SWAP1 PUSH1 0x3 SHL SHR NOT AND OR PUSH1 0x7 DUP6 ADD SSTORE JUMPDEST PUSH2 0x100 DUP2 ADD MLOAD PUSH1 0x8 DUP6 ADD SSTORE ADD MLOAD ISZERO ISZERO SWAP2 ADD SWAP1 PUSH1 0xFF DUP1 NOT DUP4 SLOAD AND SWAP2 ISZERO ISZERO AND OR SWAP1 SSTORE JUMP JUMPDEST DUP7 PUSH1 0x0 MSTORE PUSH1 0xA PUSH1 0x20 MSTORE PUSH1 0x40 PUSH1 0x0 KECCAK256 DUP1 SLOAD PUSH9 0x10000000000000000 DUP2 LT ISZERO PUSH2 0x666 JUMPI PUSH2 0xC0D SWAP2 PUSH1 0x1 DUP3 ADD DUP2 SSTORE PUSH2 0x253C JUMP JUMPDEST DUP2 SLOAD SWAP1 PUSH1 0x3 SHL SWAP1 DUP11 DUP3 SHL SWAP2 PUSH1 0x0 NOT SWAP1 SHL NOT AND OR SWAP1 SSTORE PUSH1 0x4 CALLDATALOAD ISZERO PUSH2 0xE1E JUMPI JUMPDEST PUSH1 0x40 MLOAD DUP4 DUP4 DUP3 CALLDATACOPY PUSH1 0x20 DUP2 DUP6 DUP2 ADD PUSH1 0xC DUP2 MSTORE SUB ADD SWAP1 KECCAK256 PUSH32 0x9EC8C844510C417BBCE57FC5ADE4D931C8ECB550916EA2139EB52DF0DAB6F262 PUSH1 0x40 PUSH1 0x1 DUP4 ADD SWAP3 PUSH2 0xC72 DUP5 SLOAD PUSH2 0x256A JUMP JUMPDEST DUP1 SWAP5 SSTORE PUSH1 0x4 CALLDATALOAD ISZERO PUSH2 0xE06 JUMPI JUMPDEST TIMESTAMP PUSH1 0x2 DUP3 ADD SSTORE SLOAD DUP2 MLOAD DUP8 DUP8 DUP3 CALLDATACOPY DUP1 DUP9 DUP2 ADD PUSH1 0x0 DUP2 MSTORE SUB SWAP1 KECCAK256 SWAP4 DUP3 MLOAD SWAP2 DUP3 MSTORE PUSH1 0x20 DUP3 ADD MSTORE LOG2 PUSH1 0x7 SLOAD PUSH1 0x40 MLOAD PUSH4 0x29696675 PUSH1 0xE0 SHL DUP2 MSTORE SWAP7 SWAP1 PUSH1 0x20 SWAP1 DUP9 SWAP1 PUSH1 0x1 PUSH1 0x1 PUSH1 0xA0 SHL SUB AND PUSH2 0xCD1 PUSH1 0x4 DUP1 DUP5 ADD SWAP1 CALLDATALOAD PUSH2 0x242A JUMP JUMPDEST PUSH4 0xFFFFFFFF DUP9 AND PUSH1 0x24 DUP4 ADD MSTORE PUSH1 0x60 PUSH1 0x44 DUP4 ADD MSTORE DUP2 DUP1 PUSH2 0xCF4 PUSH1 0x64 DUP3 ADD DUP8 DUP10 PUSH2 0x25FC JUMP JUMPDEST SUB SWAP2 GAS STATICCALL SWAP7 DUP8 ISZERO PUSH2 0x89E JUMPI PUSH1 0x0 SWAP8 PUSH2 0xDC7 JUMPI JUMPDEST POP SWAP5 PUSH1 0x20 SWAP10 PUSH2 0xDA9 PUSH1 0xC0 SWAP7 DUP13 SWAP7 PUSH2 0xDBC SWAP7 PUSH4 0xFFFFFFFF PUSH2 0xD95 DUP16 SWAP14 SWAP9 DUP16 SWAP14 DUP16 SWAP15 PUSH32 0xB7591EEA93C42B99293E9A702935217FA3C0A5BF0373E745798B9036421DDE70 SWAP16 PUSH1 0x0 MSTORE PUSH1 0x9 DUP15 MSTORE DUP12 PUSH1 0x8 PUSH1 0x40 PUSH1 0x0 KECCAK256 ADD SSTORE PUSH1 0x0 MSTORE PUSH1 0x2 DUP14 MSTORE PUSH1 0x6 PUSH1 0x40 PUSH1 0x0 KECCAK256 ADD PUSH2 0xD74 DUP13 DUP3 SLOAD PUSH2 0x25EF JUMP JUMPDEST SWAP1 SSTORE PUSH1 0x40 MLOAD SWAP14 DUP15 SWAP14 DUP15 PUSH2 0xD89 DUP2 PUSH1 0x4 CALLDATALOAD PUSH2 0x242A JUMP JUMPDEST ADD MSTORE PUSH1 0xC0 DUP14 ADD SWAP2 PUSH2 0x25FC JUMP JUMPDEST SWAP4 AND PUSH1 0x40 DUP11 ADD MSTORE DUP9 DUP4 SUB PUSH1 0x60 DUP11 ADD MSTORE PUSH2 0x25FC JUMP JUMPDEST SWAP3 PUSH1 0x80 DUP7 ADD MSTORE DUP5 DUP4 SUB PUSH1 0xA0 DUP7 ADD MSTORE PUSH2 0x25FC JUMP JUMPDEST SUB SWAP1 LOG3 PUSH1 0x40 MLOAD SWAP1 DUP2 MSTORE RETURN JUMPDEST SWAP2 SWAP7 POP SWAP2 SWAP3 SWAP4 SWAP5 PUSH1 0x20 DUP3 RETURNDATASIZE PUSH1 0x20 GT PUSH2 0xDFE JUMPI JUMPDEST DUP2 PUSH2 0xDE7 PUSH1 0x20 SWAP4 DUP4 PUSH2 0x2363 JUMP JUMPDEST DUP2 ADD SUB SLT PUSH2 0x1BA JUMPI SWAP1 MLOAD SWAP6 SWAP1 SWAP5 SWAP4 SWAP3 SWAP2 PUSH1 0x20 PUSH2 0xD07 JUMP JUMPDEST RETURNDATASIZE SWAP2 POP PUSH2 0xDDA JUMP JUMPDEST PUSH2 0xE17 PUSH4 0xFFFFFFFF DUP10 AND DUP3 SLOAD PUSH2 0x25EF JUMP JUMPDEST DUP2 SSTORE PUSH2 0xC7E JUMP JUMPDEST DUP7 PUSH1 0x0 MSTORE PUSH1 0xB PUSH1 0x20 MSTORE PUSH1 0x40 PUSH1 0x0 KECCAK256 PUSH1 0x20 PUSH1 0x40 MLOAD DUP1 SWAP3 DUP10 DUP6 DUP4 CALLDATACOPY DUP10 DUP3 ADD SWAP1 DUP2 MSTORE SUB ADD SWAP1 KECCAK256 PUSH2 0xE52 PUSH4 0xFFFFFFFF DUP7 AND DUP3 SLOAD PUSH2 0x25EF JUMP JUMPDEST SWAP1 SSTORE DUP7 PUSH1 0x0 MSTORE PUSH1 0x2 PUSH1 0x20 MSTORE PUSH1 0x7 PUSH1 0x40 PUSH1 0x0 KECCAK256 ADD PUSH2 0xE76 PUSH4 0xFFFFFFFF DUP7 AND DUP3 SLOAD PUSH2 0x25EF JUMP JUMPDEST SWAP1 SSTORE PUSH2 0xC2B JUMP JUMPDEST ADD MLOAD SWAP1 POP CODESIZE DUP1 PUSH2 0xBA3 JUMP JUMPDEST SWAP1 PUSH1 0x7 DUP6 ADD PUSH1 0x0 MSTORE PUSH1 0x20 PUSH1 0x0 KECCAK256 SWAP2 PUSH1 0x0 JUMPDEST PUSH1 0x1F NOT DUP6 AND DUP2 LT PUSH2 0xEEA JUMPI POP DUP4 PUSH2 0x120 SWAP4 PUSH2 0xBDD SWAP8 SWAP7 SWAP4 PUSH1 0x1 SWAP4 PUSH1 0x9 SWAP8 PUSH1 0x1F NOT DUP2 AND LT PUSH2 0xED1 JUMPI JUMPDEST POP POP POP DUP2 SHL ADD PUSH1 0x7 DUP6 ADD SSTORE PUSH2 0xBBB JUMP JUMPDEST ADD MLOAD PUSH1 0x0 NOT PUSH1 0xF8 DUP5 PUSH1 0x3 SHL AND SHR NOT AND SWAP1 SSTORE CODESIZE DUP1 DUP1 PUSH2 0xEC1 JUMP JUMPDEST SWAP2 SWAP3 PUSH1 0x20 PUSH1 0x1 DUP2 SWAP3 DUP7 DUP6 ADD MLOAD DUP2 SSTORE ADD SWAP5 ADD SWAP3 ADD PUSH2 0xE99 JUMP JUMPDEST ADD MLOAD SWAP1 POP DUP15 DUP1 PUSH2 0xB19 JUMP JUMPDEST PUSH1 0x0 DUP6 DUP2 MSTORE PUSH1 0x20 DUP2 KECCAK256 SWAP4 POP PUSH1 0x1F NOT DUP6 AND SWAP1 JUMPDEST DUP2 DUP2 LT PUSH2 0xF5B JUMPI POP SWAP1 DUP5 PUSH1 0x1 SWAP6 SWAP5 SWAP4 SWAP3 LT PUSH2 0xF42 JUMPI JUMPDEST POP POP POP DUP2 SHL ADD SWAP1 SSTORE PUSH2 0xB2E JUMP JUMPDEST ADD MLOAD PUSH1 0x0 NOT PUSH1 0xF8 DUP5 PUSH1 0x3 SHL AND SHR NOT AND SWAP1 SSTORE DUP15 DUP1 DUP1 PUSH2 0xF35 JUMP JUMPDEST SWAP3 SWAP4 PUSH1 0x20 PUSH1 0x1 DUP2 SWAP3 DUP8 DUP7 ADD MLOAD DUP2 SSTORE ADD SWAP6 ADD SWAP4 ADD PUSH2 0xF1F JUMP JUMPDEST ADD MLOAD SWAP1 POP DUP14 DUP1 PUSH2 0xAA1 JUMP JUMPDEST SWAP3 POP PUSH1 0x3 DUP6 ADD PUSH1 0x0 MSTORE PUSH1 0x20 PUSH1 0x0 KECCAK256 SWAP1 PUSH1 0x0 SWAP4 JUMPDEST PUSH1 0x1F NOT DUP5 AND DUP6 LT PUSH2 0xFD5 JUMPI PUSH1 0x1 SWAP5 POP DUP4 PUSH1 0x1F NOT DUP2 AND LT PUSH2 0xFBC JUMPI JUMPDEST POP POP POP DUP2 SHL ADD PUSH1 0x3 DUP4 ADD SSTORE PUSH2 0xAB9 JUMP JUMPDEST ADD MLOAD PUSH1 0x0 NOT PUSH1 0xF8 DUP5 PUSH1 0x3 SHL AND SHR NOT AND SWAP1 SSTORE DUP14 DUP1 DUP1 PUSH2 0xFAC JUMP JUMPDEST DUP2 DUP2 ADD MLOAD DUP4 SSTORE PUSH1 0x20 SWAP5 DUP6 ADD SWAP5 PUSH1 0x1 SWAP1 SWAP4 ADD SWAP3 SWAP1 SWAP2 ADD SWAP1 PUSH2 0xF91 JUMP JUMPDEST PUSH4 0x4E487B71 PUSH1 0xE0 SHL PUSH1 0x0 MSTORE PUSH1 0x21 PUSH1 0x4 MSTORE PUSH1 0x24 PUSH1 0x0 REVERT JUMPDEST PUSH1 0x40 MLOAD PUSH3 0x461BCD PUSH1 0xE5 SHL DUP2 MSTORE PUSH1 0x20 PUSH1 0x4 DUP3 ADD MSTORE PUSH1 0x11 PUSH1 0x24 DUP3 ADD MSTORE PUSH17 0x131BD8D85D1A5BDB881C995C5D5A5C9959 PUSH1 0x7A SHL PUSH1 0x44 DUP3 ADD MSTORE PUSH1 0x64 SWAP1 REVERT JUMPDEST PUSH1 0x40 MLOAD PUSH3 0x461BCD PUSH1 0xE5 SHL DUP2 MSTORE PUSH1 0x20 PUSH1 0x4 DUP3 ADD MSTORE PUSH1 0x16 PUSH1 0x24 DUP3 ADD MSTORE PUSH22 0x436F756E74206D75737420626520706F736974697665 PUSH1 0x50 SHL PUSH1 0x44 DUP3 ADD MSTORE PUSH1 0x64 SWAP1 REVERT JUMPDEST PUSH1 0x40 MLOAD PUSH3 0x461BCD PUSH1 0xE5 SHL DUP2 MSTORE PUSH1 0x20 PUSH1 0x4 DUP3 ADD MSTORE PUSH1 0xD PUSH1 0x24 DUP3 ADD MSTORE PUSH13 0x436C756220696E616374697665 PUSH1 0x98 SHL PUSH1 0x44 DUP3 ADD MSTORE PUSH1 0x64 SWAP1 REVERT JUMPDEST PUSH1 0x40 MLOAD PUSH3 0x461BCD PUSH1 0xE5 SHL DUP2 MSTORE PUSH1 0x20 PUSH1 0x4 DUP3 ADD MSTORE PUSH1 0x15 PUSH1 0x24 DUP3 ADD MSTORE PUSH21 0x2737BA1030903932B3B4B9BA32B932B21031B63AB1 PUSH1 0x59 SHL PUSH1 0x44 DUP3 ADD MSTORE PUSH1 0x64 SWAP1 REVERT JUMPDEST CALLVALUE PUSH2 0x1BA JUMPI PUSH2 0x1108 PUSH2 0x1100 CALLDATASIZE PUSH2 0x2526 JUMP JUMPDEST DUP2 SWAP3 SWAP2 PUSH2 0x25EF JUMP JUMPDEST SWAP1 PUSH1 0x1 SWAP2 DUP3 SLOAD DUP1 DUP3 GT PUSH2 0x1399 JUMPI JUMPDEST POP PUSH2 0x1121 DUP3 DUP3 PUSH2 0x26FA JUMP JUMPDEST SWAP2 PUSH2 0x112B DUP4 PUSH2 0x265A JUMP JUMPDEST SWAP3 PUSH2 0x1139 PUSH1 0x40 MLOAD SWAP5 DUP6 PUSH2 0x2363 JUMP JUMPDEST DUP1 DUP5 MSTORE PUSH2 0x1148 PUSH1 0x1F NOT SWAP2 PUSH2 0x265A JUMP JUMPDEST ADD PUSH1 0x0 JUMPDEST DUP2 DUP2 LT PUSH2 0x133E JUMPI POP POP DUP1 JUMPDEST DUP3 DUP2 LT PUSH2 0x1265 JUMPI DUP4 DUP6 PUSH1 0x40 MLOAD SWAP2 DUP3 SWAP2 PUSH1 0x20 SWAP1 DUP2 DUP5 ADD DUP3 DUP6 MSTORE DUP4 MLOAD DUP1 SWAP2 MSTORE PUSH1 0x40 DUP6 ADD SWAP3 DUP1 PUSH1 0x40 DUP4 PUSH1 0x5 SHL DUP9 ADD ADD SWAP6 ADD SWAP4 PUSH1 0x0 SWAP1 JUMPDEST DUP4 DUP3 LT PUSH2 0x1197 JUMPI DUP8 DUP8 SUB DUP9 RETURN JUMPDEST SWAP2 DUP5 SWAP7 DUP2 SWAP6 SWAP3 SWAP5 SWAP7 SWAP9 POP DUP2 SWAP1 PUSH1 0x3F NOT DUP12 DUP3 SUB ADD DUP6 MSTORE DUP10 MLOAD SWAP1 DUP2 MLOAD DUP2 MSTORE PUSH1 0x1 DUP1 PUSH1 0xA0 SHL SUB DUP4 DUP4 ADD MLOAD AND DUP4 DUP3 ADD MSTORE PUSH2 0x121E PUSH2 0x120B PUSH2 0x11F8 PUSH2 0x11E5 PUSH1 0x40 DUP7 ADD MLOAD PUSH2 0x140 DUP1 PUSH1 0x40 DUP9 ADD MSTORE DUP7 ADD SWAP1 PUSH2 0x245A JUMP JUMPDEST PUSH1 0x60 DUP1 DUP8 ADD MLOAD SWAP1 DUP7 DUP4 SUB SWAP1 DUP8 ADD MSTORE PUSH2 0x245A JUMP JUMPDEST PUSH1 0x80 DUP1 DUP7 ADD MLOAD SWAP1 DUP6 DUP4 SUB SWAP1 DUP7 ADD MSTORE PUSH2 0x245A JUMP JUMPDEST PUSH1 0xA0 DUP1 DUP6 ADD MLOAD SWAP1 DUP5 DUP4 SUB SWAP1 DUP6 ADD MSTORE PUSH2 0x245A JUMP JUMPDEST SWAP2 PUSH1 0xC0 DUP1 DUP3 ADD MLOAD SWAP1 DUP4 ADD MSTORE PUSH1 0xE0 DUP2 ADD MLOAD PUSH1 0xE0 DUP4 ADD MSTORE PUSH2 0x100 DUP1 DUP3 ADD MLOAD ISZERO ISZERO SWAP1 DUP4 ADD MSTORE PUSH1 0x1 PUSH1 0x1 PUSH1 0x40 SHL SUB PUSH2 0x120 DUP1 SWAP3 ADD MLOAD AND SWAP2 ADD MSTORE SWAP9 ADD SWAP3 ADD SWAP3 ADD DUP8 SWAP7 SWAP6 SWAP4 SWAP2 SWAP5 SWAP3 PUSH2 0x118A JUMP JUMPDEST DUP1 PUSH2 0x1339 SWAP2 PUSH1 0x0 MSTORE PUSH2 0x1333 PUSH1 0x2 PUSH1 0x20 DUP2 DUP2 MSTORE PUSH1 0x1 PUSH1 0x1 PUSH1 0x40 SHL SUB PUSH1 0x40 PUSH1 0x0 KECCAK256 PUSH2 0x12BB PUSH2 0x1291 DUP10 DUP9 PUSH2 0x26FA JUMP JUMPDEST SWAP5 PUSH1 0x40 MLOAD SWAP5 PUSH2 0x129F DUP7 PUSH2 0x2311 JUMP JUMPDEST DUP4 SLOAD DUP7 MSTORE DUP14 DUP5 ADD SLOAD PUSH1 0x1 PUSH1 0x1 PUSH1 0xA0 SHL SUB AND SWAP1 DUP7 ADD MSTORE DUP3 ADD PUSH2 0x2384 JUMP JUMPDEST PUSH1 0x40 DUP5 ADD MSTORE PUSH2 0x12CC PUSH1 0x3 DUP3 ADD PUSH2 0x2384 JUMP JUMPDEST PUSH1 0x60 DUP5 ADD MSTORE PUSH2 0x12DD PUSH1 0x4 DUP3 ADD PUSH2 0x2384 JUMP JUMPDEST PUSH1 0x80 DUP5 ADD MSTORE PUSH2 0x12EE PUSH1 0x5 DUP3 ADD PUSH2 0x2384 JUMP JUMPDEST PUSH1 0xA0 DUP5 ADD MSTORE PUSH1 0x6 DUP2 ADD SLOAD PUSH1 0xC0 DUP5 ADD MSTORE PUSH1 0x7 DUP2 ADD SLOAD PUSH1 0xE0 DUP5 ADD MSTORE PUSH1 0x8 DUP1 SWAP2 ADD SLOAD SWAP1 PUSH1 0xFF DUP3 AND ISZERO ISZERO PUSH2 0x100 DUP6 ADD MSTORE SHR AND PUSH2 0x120 DUP3 ADD MSTORE PUSH2 0x132C DUP3 DUP10 PUSH2 0x2671 JUMP JUMPDEST MSTORE DUP7 PUSH2 0x2671 JUMP JUMPDEST POP PUSH2 0x256A JUMP JUMPDEST PUSH2 0x1157 JUMP JUMPDEST PUSH1 0x20 SWAP1 PUSH1 0x40 MLOAD PUSH2 0x134D DUP2 PUSH2 0x2311 JUMP JUMPDEST PUSH1 0x0 DUP2 MSTORE DUP3 PUSH1 0x0 DUP2 DUP4 ADD MSTORE PUSH1 0x60 DUP1 PUSH1 0x40 DUP5 ADD MSTORE DUP1 DUP1 DUP5 ADD MSTORE DUP1 PUSH1 0x80 DUP5 ADD MSTORE PUSH1 0xA0 DUP4 ADD MSTORE PUSH1 0x0 PUSH1 0xC0 DUP4 ADD MSTORE PUSH1 0x0 PUSH1 0xE0 DUP4 ADD MSTORE PUSH1 0x0 PUSH2 0x100 DUP4 ADD MSTORE PUSH1 0x0 PUSH2 0x120 DUP4 ADD MSTORE DUP3 DUP9 ADD ADD MSTORE ADD PUSH2 0x114C JUMP JUMPDEST SWAP1 POP DUP4 PUSH2 0x1116 JUMP JUMPDEST CALLVALUE PUSH2 0x1BA JUMPI PUSH1 0x20 CALLDATASIZE PUSH1 0x3 NOT ADD SLT PUSH2 0x1BA JUMPI PUSH1 0x4 CALLDATALOAD PUSH1 0x1 PUSH1 0x1 PUSH1 0x40 SHL SUB DUP2 GT PUSH2 0x1BA JUMPI PUSH1 0x20 PUSH2 0x13D4 DUP2 SWAP3 CALLDATASIZE SWAP1 PUSH1 0x4 ADD PUSH2 0x2495 JUMP JUMPDEST SWAP2 SWAP1 DUP3 PUSH1 0x40 MLOAD SWAP4 DUP5 SWAP3 DUP4 CALLDATACOPY DUP2 ADD PUSH1 0x5 DUP2 MSTORE SUB ADD SWAP1 KECCAK256 SLOAD PUSH1 0x40 MLOAD SWAP1 DUP2 MSTORE RETURN JUMPDEST CALLVALUE PUSH2 0x1BA JUMPI PUSH1 0x20 CALLDATASIZE PUSH1 0x3 NOT ADD SLT PUSH2 0x1BA JUMPI PUSH1 0x1 PUSH1 0x1 PUSH1 0xA0 SHL SUB PUSH2 0x1413 PUSH2 0x247F JUMP JUMPDEST AND PUSH1 0x0 MSTORE PUSH1 0x3 PUSH1 0x20 MSTORE PUSH1 0x20 PUSH1 0x40 PUSH1 0x0 KECCAK256 SLOAD PUSH1 0x40 MLOAD SWAP1 DUP2 MSTORE RETURN JUMPDEST CALLVALUE PUSH2 0x1BA JUMPI PUSH1 0x0 CALLDATASIZE PUSH1 0x3 NOT ADD SLT PUSH2 0x1BA JUMPI PUSH1 0x20 PUSH1 0x8 SLOAD PUSH1 0x40 MLOAD SWAP1 DUP2 MSTORE RETURN JUMPDEST CALLVALUE PUSH2 0x1BA JUMPI PUSH1 0x60 CALLDATASIZE PUSH1 0x3 NOT ADD SLT PUSH2 0x1BA JUMPI PUSH1 0x4 CALLDATALOAD PUSH1 0x24 CALLDATALOAD PUSH1 0x44 CALLDATALOAD PUSH1 0x1 PUSH1 0x1 PUSH1 0x40 SHL SUB DUP2 GT PUSH2 0x1BA JUMPI PUSH2 0x1480 SWAP1 CALLDATASIZE SWAP1 PUSH1 0x4 ADD PUSH2 0x2495 JUMP JUMPDEST SWAP1 SWAP2 PUSH1 0x1 DUP1 PUSH1 0xA0 SHL SUB PUSH1 0x0 SLOAD AND CALLER EQ DUP1 ISZERO PUSH2 0x1559 JUMPI JUMPDEST PUSH2 0x149F SWAP1 PUSH2 0x261D JUMP JUMPDEST DUP1 ISZERO PUSH2 0x151F JUMPI PUSH2 0x151A PUSH32 0x7A8D82C81A46F74E22B712AB1A42B6864C3A0C4033D974D9A0680EE749774A9E SWAP4 DUP6 PUSH1 0x0 MSTORE PUSH1 0x2 PUSH1 0x20 MSTORE PUSH2 0x14E3 PUSH1 0x40 PUSH1 0x0 KECCAK256 SLOAD ISZERO ISZERO PUSH2 0x2685 JUMP JUMPDEST DUP6 PUSH1 0x0 MSTORE PUSH1 0x2 PUSH1 0x20 MSTORE PUSH1 0x6 PUSH1 0x40 PUSH1 0x0 KECCAK256 ADD PUSH2 0x14FF DUP5 DUP3 SLOAD PUSH2 0x25EF JUMP JUMPDEST SWAP1 SSTORE PUSH1 0x40 MLOAD SWAP4 DUP5 SWAP4 DUP5 MSTORE PUSH1 0x40 PUSH1 0x20 DUP6 ADD MSTORE PUSH1 0x40 DUP5 ADD SWAP2 PUSH2 0x25FC JUMP JUMPDEST SUB SWAP1 LOG2 STOP JUMPDEST PUSH1 0x40 MLOAD PUSH3 0x461BCD PUSH1 0xE5 SHL DUP2 MSTORE PUSH1 0x20 PUSH1 0x4 DUP3 ADD MSTORE PUSH1 0x12 PUSH1 0x24 DUP3 ADD MSTORE PUSH18 0x506F696E7473206D757374206265203E203 PUSH1 0x74 SHL PUSH1 0x44 DUP3 ADD MSTORE PUSH1 0x64 SWAP1 REVERT JUMPDEST POP CALLER PUSH1 0x0 SWAP1 DUP2 MSTORE PUSH1 0x6 PUSH1 0x20 MSTORE PUSH1 0x40 SWAP1 KECCAK256 SLOAD PUSH1 0xFF AND PUSH2 0x1496 JUMP JUMPDEST CALLVALUE PUSH2 0x1BA JUMPI PUSH1 0x20 CALLDATASIZE PUSH1 0x3 NOT ADD SLT PUSH2 0x1BA JUMPI PUSH1 0x4 CALLDATALOAD PUSH1 0x1 PUSH1 0x1 PUSH1 0x40 SHL SUB DUP2 GT PUSH2 0x1BA JUMPI PUSH2 0x15A9 PUSH1 0x20 PUSH2 0x36B PUSH1 0x60 SWAP4 CALLDATASIZE SWAP1 PUSH1 0x4 ADD PUSH2 0x2508 JUMP JUMPDEST DUP2 ADD PUSH1 0xC DUP2 MSTORE SUB ADD SWAP1 KECCAK256 DUP1 SLOAD SWAP1 PUSH1 0x2 PUSH1 0x1 DUP3 ADD SLOAD SWAP2 ADD SLOAD SWAP1 PUSH1 0x40 MLOAD SWAP3 DUP4 MSTORE PUSH1 0x20 DUP4 ADD MSTORE PUSH1 0x40 DUP3 ADD MSTORE RETURN JUMPDEST CALLVALUE PUSH2 0x1BA JUMPI PUSH1 0x20 CALLDATASIZE PUSH1 0x3 NOT ADD SLT PUSH2 0x1BA JUMPI PUSH1 0x4 CALLDATALOAD PUSH1 0x1 PUSH1 0x1 PUSH1 0x40 SHL SUB DUP2 GT PUSH2 0x1BA JUMPI PUSH2 0x1609 PUSH1 0x20 PUSH2 0x36B DUP2 SWAP4 CALLDATASIZE SWAP1 PUSH1 0x4 ADD PUSH2 0x2508 JUMP JUMPDEST DUP2 ADD PUSH1 0x5 DUP2 MSTORE SUB ADD SWAP1 KECCAK256 SLOAD PUSH1 0x40 MLOAD SWAP1 DUP2 MSTORE RETURN JUMPDEST CALLVALUE PUSH2 0x1BA JUMPI PUSH1 0x20 DUP1 PUSH1 0x3 NOT CALLDATASIZE ADD SLT PUSH2 0x1BA JUMPI PUSH1 0x4 CALLDATALOAD PUSH1 0x0 MSTORE PUSH1 0xA DUP2 MSTORE PUSH1 0x40 PUSH1 0x0 KECCAK256 PUSH1 0x40 MLOAD DUP1 DUP3 DUP5 DUP3 SWAP5 SLOAD SWAP4 DUP5 DUP2 MSTORE ADD SWAP1 PUSH1 0x0 MSTORE DUP5 PUSH1 0x0 KECCAK256 SWAP3 PUSH1 0x0 JUMPDEST DUP7 DUP3 DUP3 LT PUSH2 0x18D1 JUMPI DUP5 PUSH2 0x166C DUP2 DUP7 SUB DUP3 PUSH2 0x2363 JUMP JUMPDEST DUP1 MLOAD PUSH2 0x1677 DUP2 PUSH2 0x265A JUMP JUMPDEST SWAP1 PUSH2 0x1685 PUSH1 0x40 MLOAD SWAP3 DUP4 PUSH2 0x2363 JUMP JUMPDEST DUP1 DUP3 MSTORE PUSH2 0x1694 PUSH1 0x1F NOT SWAP2 PUSH2 0x265A JUMP JUMPDEST ADD DUP4 PUSH1 0x0 JUMPDEST DUP3 DUP2 LT PUSH2 0x1876 JUMPI POP POP POP PUSH1 0x0 JUMPDEST DUP3 MLOAD DUP2 LT ISZERO PUSH2 0x1781 JUMPI DUP1 PUSH2 0x16BD PUSH2 0x177C SWAP3 DUP6 PUSH2 0x2671 JUMP JUMPDEST MLOAD PUSH1 0x0 MSTORE PUSH1 0x9 DUP1 DUP7 MSTORE PUSH1 0x40 PUSH1 0x0 KECCAK256 PUSH1 0x40 MLOAD SWAP2 PUSH2 0x16D8 DUP4 PUSH2 0x2311 JUMP JUMPDEST DUP2 SLOAD DUP4 MSTORE PUSH1 0x1 DUP3 ADD SLOAD DUP9 DUP5 ADD MSTORE PUSH1 0xFF SWAP2 PUSH2 0x16FB DUP4 PUSH1 0x2 DUP4 ADD SLOAD AND PUSH1 0x40 DUP7 ADD PUSH2 0x258F JUMP JUMPDEST PUSH2 0x1707 PUSH1 0x3 DUP3 ADD PUSH2 0x2384 JUMP JUMPDEST PUSH1 0x60 DUP6 ADD MSTORE PUSH4 0xFFFFFFFF PUSH1 0x4 DUP3 ADD SLOAD AND PUSH1 0x80 DUP6 ADD MSTORE PUSH2 0x1728 PUSH1 0x5 DUP3 ADD PUSH2 0x2384 JUMP JUMPDEST PUSH1 0xA0 DUP6 ADD MSTORE PUSH1 0x1 PUSH1 0x1 PUSH1 0x40 SHL SUB PUSH1 0x6 DUP3 ADD SLOAD AND PUSH1 0xC0 DUP6 ADD MSTORE PUSH2 0x174C PUSH1 0x7 DUP3 ADD PUSH2 0x2384 JUMP JUMPDEST PUSH1 0xE0 DUP6 ADD MSTORE PUSH1 0x8 DUP2 ADD SLOAD PUSH2 0x100 DUP6 ADD MSTORE ADD SLOAD AND ISZERO ISZERO PUSH2 0x120 DUP3 ADD MSTORE PUSH2 0x1771 DUP3 DUP6 PUSH2 0x2671 JUMP JUMPDEST MSTORE PUSH2 0x1333 DUP2 DUP5 PUSH2 0x2671 JUMP JUMPDEST PUSH2 0x16A6 JUMP JUMPDEST PUSH1 0x40 DUP1 MLOAD DUP6 DUP2 MSTORE DUP4 MLOAD DUP2 DUP8 ADD DUP2 SWAP1 MSTORE PUSH1 0x0 SWAP3 PUSH1 0x5 DUP3 SWAP1 SHL DUP4 ADD DUP2 ADD SWAP2 DUP7 DUP10 ADD SWAP2 DUP10 SWAP1 DUP6 ADD JUMPDEST DUP3 DUP8 LT PUSH2 0x17B3 JUMPI DUP6 DUP6 SUB DUP7 RETURN JUMPDEST SWAP1 SWAP2 SWAP3 SWAP4 DUP3 DUP1 PUSH1 0x1 SWAP3 PUSH1 0x3F NOT DUP10 DUP3 SUB ADD DUP6 MSTORE DUP8 MLOAD SWAP1 DUP2 MLOAD DUP2 MSTORE DUP3 DUP3 ADD MLOAD DUP4 DUP3 ADD MSTORE PUSH2 0x17E6 PUSH1 0x40 DUP4 ADD MLOAD PUSH1 0x40 DUP4 ADD SWAP1 PUSH2 0x242A JUMP JUMPDEST PUSH2 0x184E PUSH2 0x1829 PUSH2 0x1806 PUSH1 0x60 DUP1 DUP7 ADD MLOAD SWAP1 PUSH2 0x140 DUP1 SWAP2 DUP8 ADD MSTORE DUP6 ADD SWAP1 PUSH2 0x245A JUMP JUMPDEST PUSH1 0x80 PUSH4 0xFFFFFFFF DUP2 DUP8 ADD MLOAD AND SWAP1 DUP6 ADD MSTORE PUSH1 0xA0 DUP1 DUP7 ADD MLOAD SWAP1 DUP6 DUP4 SUB SWAP1 DUP7 ADD MSTORE PUSH2 0x245A JUMP JUMPDEST PUSH1 0xC0 PUSH1 0x1 PUSH1 0x1 PUSH1 0x40 SHL SUB DUP2 DUP7 ADD MLOAD AND SWAP1 DUP5 ADD MSTORE PUSH1 0xE0 DUP5 ADD MLOAD DUP4 DUP3 SUB PUSH1 0xE0 DUP6 ADD MSTORE PUSH2 0x245A JUMP JUMPDEST SWAP2 PUSH2 0x100 DUP1 DUP3 ADD MLOAD SWAP1 DUP4 ADD MSTORE PUSH2 0x120 DUP1 SWAP2 ADD MLOAD ISZERO ISZERO SWAP2 ADD MSTORE SWAP7 ADD SWAP3 ADD SWAP7 ADD SWAP6 SWAP3 SWAP2 SWAP1 SWAP3 PUSH2 0x17A6 JUMP JUMPDEST PUSH1 0x40 MLOAD PUSH2 0x1882 DUP2 PUSH2 0x2311 JUMP JUMPDEST PUSH1 0x0 DUP2 MSTORE PUSH1 0x0 DUP4 DUP3 ADD MSTORE PUSH1 0x0 PUSH1 0x40 DUP3 ADD MSTORE PUSH1 0x60 DUP1 DUP1 DUP4 ADD MSTORE PUSH1 0x0 PUSH1 0x80 DUP4 ADD MSTORE DUP1 PUSH1 0xA0 DUP4 ADD MSTORE PUSH1 0x0 PUSH1 0xC0 DUP4 ADD MSTORE PUSH1 0xE0 DUP3 ADD MSTORE PUSH1 0x0 PUSH2 0x100 DUP3 ADD MSTORE PUSH1 0x0 PUSH2 0x120 DUP3 ADD MSTORE DUP3 DUP3 DUP7 ADD ADD MSTORE ADD DUP5 SWAP1 PUSH2 0x1699 JUMP JUMPDEST DUP6 SLOAD DUP5 MSTORE PUSH1 0x1 SWAP6 DUP7 ADD SWAP6 DUP8 SWAP6 POP SWAP4 ADD SWAP3 ADD PUSH2 0x1657 JUMP JUMPDEST CALLVALUE PUSH2 0x1BA JUMPI PUSH1 0xA0 CALLDATASIZE PUSH1 0x3 NOT ADD SLT PUSH2 0x1BA JUMPI PUSH2 0x1900 PUSH2 0x247F JUMP JUMPDEST PUSH1 0x24 CALLDATALOAD PUSH1 0x1 PUSH1 0x1 PUSH1 0x40 SHL SUB DUP2 GT PUSH2 0x1BA JUMPI PUSH2 0x191F SWAP1 CALLDATASIZE SWAP1 PUSH1 0x4 ADD PUSH2 0x2495 JUMP JUMPDEST PUSH1 0x44 SWAP3 SWAP2 SWAP3 CALLDATALOAD PUSH1 0x1 PUSH1 0x1 PUSH1 0x40 SHL SUB DUP2 GT PUSH2 0x1BA JUMPI PUSH2 0x1941 SWAP1 CALLDATASIZE SWAP1 PUSH1 0x4 ADD PUSH2 0x2495 JUMP JUMPDEST SWAP4 SWAP1 SWAP2 PUSH1 0x64 CALLDATALOAD PUSH1 0x1 PUSH1 0x1 PUSH1 0x40 SHL SUB DUP2 GT PUSH2 0x1BA JUMPI PUSH2 0x1963 SWAP1 CALLDATASIZE SWAP1 PUSH1 0x4 ADD PUSH2 0x2495 JUMP JUMPDEST SWAP5 SWAP1 PUSH1 0x84 CALLDATALOAD PUSH1 0x1 PUSH1 0x1 PUSH1 0x40 SHL SUB DUP2 GT PUSH2 0x1BA JUMPI PUSH2 0x1984 SWAP1 CALLDATASIZE SWAP1 PUSH1 0x4 ADD PUSH2 0x2495 JUMP JUMPDEST SWAP7 SWAP1 SWAP6 PUSH2 0x199C PUSH1 0x1 DUP1 PUSH1 0xA0 SHL SUB PUSH1 0x0 SLOAD AND CALLER EQ PUSH2 0x26C2 JUMP JUMPDEST PUSH1 0x1 PUSH1 0x1 PUSH1 0xA0 SHL SUB DUP5 AND ISZERO PUSH2 0x20BC JUMPI PUSH1 0x1 PUSH1 0x1 PUSH1 0xA0 SHL SUB DUP5 AND PUSH1 0x0 SWAP1 DUP2 MSTORE PUSH1 0x3 PUSH1 0x20 MSTORE PUSH1 0x40 SWAP1 KECCAK256 SLOAD PUSH2 0x2077 JUMPI PUSH1 0xFF PUSH1 0x40 MLOAD DUP11 DUP4 DUP3 CALLDATACOPY PUSH1 0x20 DUP2 DUP13 DUP2 ADD PUSH1 0x4 DUP2 MSTORE SUB ADD SWAP1 KECCAK256 SLOAD AND PUSH2 0x2032 JUMPI DUP5 ISZERO PUSH2 0x1FFD JUMPI DUP2 ISZERO PUSH2 0x1FC6 JUMPI PUSH2 0x1A00 PUSH1 0x1 SLOAD DUP1 PUSH1 0xA0 MSTORE PUSH2 0x256A JUMP JUMPDEST PUSH1 0x1 SSTORE PUSH1 0x40 MLOAD SWAP9 PUSH2 0x1A10 DUP11 PUSH2 0x2311 JUMP JUMPDEST PUSH1 0xA0 MLOAD DUP11 MSTORE PUSH1 0x1 PUSH1 0x1 PUSH1 0xA0 SHL SUB DUP6 AND PUSH1 0x20 DUP12 ADD MSTORE PUSH2 0x1A2F CALLDATASIZE DUP8 DUP10 PUSH2 0x24C2 JUMP JUMPDEST PUSH1 0x40 DUP12 ADD MSTORE PUSH2 0x1A3F CALLDATASIZE DUP3 DUP5 PUSH2 0x24C2 JUMP JUMPDEST PUSH1 0x60 DUP12 ADD MSTORE PUSH2 0x1A4F CALLDATASIZE DUP5 DUP7 PUSH2 0x24C2 JUMP JUMPDEST PUSH1 0x80 DUP12 ADD MSTORE PUSH2 0x1A5F CALLDATASIZE DUP11 DUP11 PUSH2 0x24C2 JUMP JUMPDEST PUSH1 0xA0 DUP12 ADD MSTORE PUSH1 0x0 PUSH1 0xC0 DUP12 ADD MSTORE PUSH1 0x0 PUSH1 0xE0 DUP12 ADD MSTORE PUSH1 0x1 PUSH2 0x100 DUP12 ADD MSTORE PUSH1 0x1 PUSH1 0x1 PUSH1 0x40 SHL SUB TIMESTAMP AND PUSH2 0x120 DUP12 ADD MSTORE PUSH1 0xA0 MLOAD PUSH1 0x0 MSTORE PUSH1 0x2 PUSH1 0x20 MSTORE PUSH1 0x40 PUSH1 0x0 KECCAK256 SWAP10 DUP1 MLOAD DUP12 SSTORE PUSH1 0x1 DUP12 ADD PUSH1 0x1 DUP1 PUSH1 0xA0 SHL SUB PUSH1 0x20 DUP4 ADD MLOAD AND PUSH12 0xFFFFFFFFFFFFFFFFFFFFFFFF PUSH1 0xA0 SHL DUP3 SLOAD AND OR SWAP1 SSTORE PUSH1 0x40 DUP2 ADD MLOAD DUP1 MLOAD SWAP1 PUSH1 0x1 PUSH1 0x1 PUSH1 0x40 SHL SUB DUP3 GT PUSH2 0x666 JUMPI DUP13 DUP3 SWAP2 PUSH2 0x1AF9 DUP4 PUSH2 0x1AF0 PUSH1 0x2 DUP6 ADD SLOAD PUSH2 0x22D7 JUMP JUMPDEST PUSH1 0x2 DUP6 ADD PUSH2 0x259B JUMP JUMPDEST PUSH1 0x20 SWAP2 PUSH1 0x1F DUP5 GT PUSH1 0x1 EQ PUSH2 0x1F54 JUMPI POP PUSH1 0x0 SWAP3 PUSH2 0x1F49 JUMPI JUMPDEST POP POP DUP2 PUSH1 0x1 SHL SWAP2 PUSH1 0x0 NOT SWAP1 PUSH1 0x3 SHL SHR NOT AND OR PUSH1 0x2 DUP13 ADD SSTORE JUMPDEST PUSH1 0x60 DUP2 ADD MLOAD DUP1 MLOAD SWAP1 PUSH1 0x1 PUSH1 0x1 PUSH1 0x40 SHL SUB DUP3 GT PUSH2 0x666 JUMPI DUP13 DUP3 SWAP2 PUSH2 0x1B5B DUP4 PUSH2 0x1B52 PUSH1 0x3 DUP6 ADD SLOAD PUSH2 0x22D7 JUMP JUMPDEST PUSH1 0x3 DUP6 ADD PUSH2 0x259B JUMP JUMPDEST PUSH1 0x20 SWAP2 PUSH1 0x1F DUP5 GT PUSH1 0x1 EQ PUSH2 0x1ED7 JUMPI POP PUSH1 0x0 SWAP3 PUSH2 0x1ECC JUMPI JUMPDEST POP POP DUP2 PUSH1 0x1 SHL SWAP2 PUSH1 0x0 NOT SWAP1 PUSH1 0x3 SHL SHR NOT AND OR PUSH1 0x3 DUP13 ADD SSTORE JUMPDEST PUSH1 0x80 DUP2 ADD MLOAD DUP1 MLOAD DUP1 PUSH1 0x80 MSTORE PUSH1 0x1 PUSH1 0x1 PUSH1 0x40 SHL SUB DUP2 GT PUSH2 0x666 JUMPI PUSH2 0x1BBD SWAP1 DUP14 PUSH1 0x4 PUSH2 0x1BB6 DUP2 DUP4 ADD SLOAD PUSH2 0x22D7 JUMP JUMPDEST SWAP2 ADD PUSH2 0x259B JUMP JUMPDEST PUSH1 0x80 MLOAD SWAP1 PUSH1 0x20 DUP14 PUSH1 0x1 PUSH1 0x1F DUP6 GT EQ PUSH2 0x1E59 JUMPI POP PUSH1 0x80 MLOAD SWAP3 POP PUSH1 0x0 SWAP2 DUP4 PUSH2 0x1E4E JUMPI JUMPDEST POP POP DUP2 PUSH1 0x1 SHL SWAP2 PUSH1 0x0 NOT SWAP1 PUSH1 0x3 SHL SHR NOT AND OR PUSH1 0x4 DUP13 ADD SSTORE JUMPDEST PUSH1 0xA0 DUP2 ADD MLOAD DUP1 MLOAD SWAP1 PUSH1 0x1 PUSH1 0x1 PUSH1 0x40 SHL SUB DUP3 GT PUSH2 0x666 JUMPI PUSH2 0x1C1F DUP3 DUP15 PUSH1 0x5 PUSH2 0x1BB6 DUP2 DUP4 ADD SLOAD PUSH2 0x22D7 JUMP JUMPDEST PUSH1 0x20 SWAP1 PUSH1 0x1F DUP4 GT PUSH1 0x1 EQ PUSH2 0x1DA5 JUMPI SWAP3 PUSH2 0x120 PUSH1 0x8 PUSH32 0xDB6287DA9322F01813D2D3155A4FFEF04AA34919204450EFC1C06EFECB39C30B SWAP14 SWAP15 SWAP16 DUP6 PUSH2 0x1D8B SWAP13 SWAP12 SWAP10 SWAP7 PUSH2 0x1D70 SWAP12 SWAP10 SWAP7 PUSH2 0x1D62 SWAP10 PUSH1 0x0 SWAP3 PUSH2 0x1D9A JUMPI JUMPDEST POP POP DUP2 PUSH1 0x1 SHL SWAP2 PUSH1 0x0 NOT SWAP1 PUSH1 0x3 SHL SHR NOT AND OR PUSH1 0x5 DUP3 ADD SSTORE JUMPDEST PUSH1 0xC0 DUP5 ADD MLOAD PUSH1 0x6 DUP3 ADD SSTORE PUSH1 0xE0 DUP5 ADD MLOAD PUSH1 0x7 DUP3 ADD SSTORE ADD SWAP2 PUSH2 0x1CBC PUSH2 0x100 DUP3 ADD MLOAD ISZERO ISZERO DUP5 SWAP1 PUSH1 0xFF DUP1 NOT DUP4 SLOAD AND SWAP2 ISZERO ISZERO AND OR SWAP1 SSTORE JUMP JUMPDEST ADD MLOAD DUP2 SLOAD PUSH9 0xFFFFFFFFFFFFFFFF00 NOT AND PUSH1 0x8 SWAP2 SWAP1 SWAP2 SHL PUSH9 0xFFFFFFFFFFFFFFFF00 AND OR SWAP1 SSTORE PUSH1 0x1 PUSH1 0x1 PUSH1 0xA0 SHL SUB DUP8 AND PUSH1 0x0 SWAP1 DUP2 MSTORE PUSH1 0x3 PUSH1 0x20 MSTORE PUSH1 0xA0 MLOAD PUSH1 0x40 SWAP2 DUP3 SWAP1 KECCAK256 SSTORE MLOAD DUP2 DUP4 DUP3 CALLDATACOPY PUSH1 0x20 DUP2 DUP4 DUP2 ADD PUSH1 0x4 DUP2 MSTORE SUB ADD SWAP1 KECCAK256 PUSH1 0x1 PUSH1 0xFF NOT DUP3 SLOAD AND OR SWAP1 SSTORE PUSH1 0x40 MLOAD DUP5 DUP7 DUP3 CALLDATACOPY PUSH1 0x20 DUP2 DUP7 DUP2 ADD PUSH1 0x5 DUP2 MSTORE SUB ADD SWAP1 KECCAK256 PUSH2 0x1D3B DUP2 SLOAD PUSH2 0x256A JUMP JUMPDEST SWAP1 SSTORE PUSH2 0x1D54 PUSH1 0x40 MLOAD SWAP11 DUP12 SWAP11 PUSH1 0x80 DUP13 MSTORE PUSH1 0x80 DUP13 ADD SWAP2 PUSH2 0x25FC JUMP JUMPDEST SWAP2 DUP10 DUP4 SUB PUSH1 0x20 DUP12 ADD MSTORE PUSH2 0x25FC JUMP JUMPDEST SWAP2 DUP7 DUP4 SUB PUSH1 0x40 DUP9 ADD MSTORE PUSH2 0x25FC JUMP JUMPDEST SWAP1 DUP4 DUP3 SUB PUSH1 0x60 DUP6 ADD MSTORE PUSH1 0x1 DUP1 PUSH1 0xA0 SHL SUB AND SWAP7 PUSH1 0xA0 MLOAD SWAP7 PUSH2 0x25FC JUMP JUMPDEST SUB SWAP1 LOG3 PUSH1 0x20 PUSH1 0x40 MLOAD PUSH1 0xA0 MLOAD DUP2 MSTORE RETURN JUMPDEST ADD MLOAD SWAP1 POP CODESIZE DUP1 PUSH2 0x1C71 JUMP JUMPDEST SWAP1 PUSH1 0x5 DUP15 ADD PUSH1 0x0 MSTORE PUSH1 0x20 PUSH1 0x0 KECCAK256 SWAP2 PUSH1 0x0 JUMPDEST PUSH1 0x1F NOT DUP6 AND DUP2 LT PUSH2 0x1E36 JUMPI POP PUSH1 0x8 PUSH32 0xDB6287DA9322F01813D2D3155A4FFEF04AA34919204450EFC1C06EFECB39C30B SWAP14 SWAP15 SWAP16 PUSH1 0x1 DUP7 PUSH2 0x1D70 SWAP12 SWAP10 SWAP7 PUSH2 0x1D62 SWAP10 SWAP7 PUSH2 0x1D8B SWAP16 SWAP15 SWAP13 SWAP10 SWAP7 PUSH2 0x120 SWAP8 PUSH1 0x1F NOT DUP2 AND LT PUSH2 0x1E1D JUMPI JUMPDEST POP POP POP DUP2 SHL ADD PUSH1 0x5 DUP3 ADD SSTORE PUSH2 0x1C89 JUMP JUMPDEST ADD MLOAD PUSH1 0x0 NOT PUSH1 0xF8 DUP5 PUSH1 0x3 SHL AND SHR NOT AND SWAP1 SSTORE CODESIZE DUP1 DUP1 PUSH2 0x1E0D JUMP JUMPDEST SWAP2 SWAP3 PUSH1 0x20 PUSH1 0x1 DUP2 SWAP3 DUP7 DUP6 ADD MLOAD DUP2 SSTORE ADD SWAP5 ADD SWAP3 ADD PUSH2 0x1DB6 JUMP JUMPDEST ADD MLOAD SWAP1 POP DUP14 DUP1 PUSH2 0x1BDE JUMP JUMPDEST PUSH1 0x4 SWAP1 SWAP4 SWAP3 SWAP4 ADD PUSH1 0x0 MSTORE PUSH1 0x20 PUSH1 0x0 KECCAK256 SWAP1 PUSH1 0x0 SWAP4 JUMPDEST PUSH1 0x1F NOT DUP5 AND DUP6 LT PUSH2 0x1EB1 JUMPI PUSH1 0x1 SWAP5 POP DUP4 PUSH1 0x1F NOT DUP2 AND LT PUSH2 0x1E98 JUMPI JUMPDEST POP POP POP DUP2 SHL ADD PUSH1 0x4 DUP13 ADD SSTORE PUSH2 0x1BF6 JUMP JUMPDEST ADD MLOAD PUSH1 0x0 NOT PUSH1 0xF8 DUP5 PUSH1 0x3 SHL AND SHR NOT AND SWAP1 SSTORE DUP14 DUP1 DUP1 PUSH2 0x1E88 JUMP JUMPDEST DUP2 DUP2 ADD MLOAD DUP4 SSTORE PUSH1 0x20 SWAP5 DUP6 ADD SWAP5 PUSH1 0x1 SWAP1 SWAP4 ADD SWAP3 SWAP1 SWAP2 ADD SWAP1 PUSH2 0x1E6D JUMP JUMPDEST ADD MLOAD SWAP1 POP DUP14 DUP1 PUSH2 0x1B72 JUMP JUMPDEST PUSH1 0x3 SWAP2 SWAP5 POP ADD PUSH1 0x0 MSTORE PUSH1 0x20 PUSH1 0x0 KECCAK256 SWAP1 PUSH1 0x0 SWAP4 JUMPDEST PUSH1 0x1F NOT DUP5 AND DUP6 LT PUSH2 0x1F2E JUMPI PUSH1 0x1 SWAP5 POP DUP4 PUSH1 0x1F NOT DUP2 AND LT PUSH2 0x1F15 JUMPI JUMPDEST POP POP POP DUP2 SHL ADD PUSH1 0x3 DUP13 ADD SSTORE PUSH2 0x1B8A JUMP JUMPDEST ADD MLOAD PUSH1 0x0 NOT PUSH1 0xF8 DUP5 PUSH1 0x3 SHL AND SHR NOT AND SWAP1 SSTORE DUP14 DUP1 DUP1 PUSH2 0x1F05 JUMP JUMPDEST DUP2 DUP2 ADD MLOAD DUP4 SSTORE PUSH1 0x20 SWAP5 DUP6 ADD SWAP5 PUSH1 0x1 SWAP1 SWAP4 ADD SWAP3 SWAP1 SWAP2 ADD SWAP1 PUSH2 0x1EEA JUMP JUMPDEST ADD MLOAD SWAP1 POP DUP14 DUP1 PUSH2 0x1B10 JUMP JUMPDEST PUSH1 0x2 SWAP2 SWAP5 POP ADD PUSH1 0x0 MSTORE PUSH1 0x20 PUSH1 0x0 KECCAK256 SWAP1 PUSH1 0x0 SWAP4 JUMPDEST PUSH1 0x1F NOT DUP5 AND DUP6 LT PUSH2 0x1FAB JUMPI PUSH1 0x1 SWAP5 POP DUP4 PUSH1 0x1F NOT DUP2 AND LT PUSH2 0x1F92 JUMPI JUMPDEST POP POP POP DUP2 SHL ADD PUSH1 0x2 DUP13 ADD SSTORE PUSH2 0x1B28 JUMP JUMPDEST ADD MLOAD PUSH1 0x0 NOT PUSH1 0xF8 DUP5 PUSH1 0x3 SHL AND SHR NOT AND SWAP1 SSTORE DUP14 DUP1 DUP1 PUSH2 0x1F82 JUMP JUMPDEST DUP2 DUP2 ADD MLOAD DUP4 SSTORE PUSH1 0x20 SWAP5 DUP6 ADD SWAP5 PUSH1 0x1 SWAP1 SWAP4 ADD SWAP3 SWAP1 SWAP2 ADD SWAP1 PUSH2 0x1F67 JUMP JUMPDEST PUSH1 0x40 MLOAD PUSH3 0x461BCD PUSH1 0xE5 SHL DUP2 MSTORE PUSH1 0x20 PUSH1 0x4 DUP3 ADD MSTORE PUSH1 0xF PUSH1 0x24 DUP3 ADD MSTORE PUSH15 0x10DBDD5B9D1E481C995C5D5A5C9959 PUSH1 0x8A SHL PUSH1 0x44 DUP3 ADD MSTORE PUSH1 0x64 SWAP1 REVERT JUMPDEST PUSH1 0x40 MLOAD PUSH3 0x461BCD PUSH1 0xE5 SHL DUP2 MSTORE PUSH1 0x20 PUSH1 0x4 DUP3 ADD MSTORE PUSH1 0xD PUSH1 0x24 DUP3 ADD MSTORE PUSH13 0x13985B59481C995C5D5A5C9959 PUSH1 0x9A SHL PUSH1 0x44 DUP3 ADD MSTORE PUSH1 0x64 SWAP1 REVERT JUMPDEST PUSH1 0x40 MLOAD PUSH3 0x461BCD PUSH1 0xE5 SHL DUP2 MSTORE PUSH1 0x20 PUSH1 0x4 DUP3 ADD MSTORE PUSH1 0x19 PUSH1 0x24 DUP3 ADD MSTORE PUSH32 0x5363686F6F6C20616C7265616479207265676973746572656400000000000000 PUSH1 0x44 DUP3 ADD MSTORE PUSH1 0x64 SWAP1 REVERT JUMPDEST PUSH1 0x40 MLOAD PUSH3 0x461BCD PUSH1 0xE5 SHL DUP2 MSTORE PUSH1 0x20 PUSH1 0x4 DUP3 ADD MSTORE PUSH1 0x19 PUSH1 0x24 DUP3 ADD MSTORE PUSH32 0x57616C6C657420616C7265616479207265676973746572656400000000000000 PUSH1 0x44 DUP3 ADD MSTORE PUSH1 0x64 SWAP1 REVERT JUMPDEST PUSH1 0x40 MLOAD PUSH3 0x461BCD PUSH1 0xE5 SHL DUP2 MSTORE PUSH1 0x20 PUSH1 0x4 DUP3 ADD MSTORE PUSH1 0xE PUSH1 0x24 DUP3 ADD MSTORE PUSH14 0x125B9D985B1A59081DD85B1B195D PUSH1 0x92 SHL PUSH1 0x44 DUP3 ADD MSTORE PUSH1 0x64 SWAP1 REVERT JUMPDEST CALLVALUE PUSH2 0x1BA JUMPI PUSH1 0x20 DUP1 PUSH1 0x3 NOT CALLDATASIZE ADD SLT PUSH2 0x1BA JUMPI PUSH1 0x40 MLOAD PUSH2 0x2110 DUP2 PUSH2 0x2348 JUMP JUMPDEST PUSH1 0x3 DUP2 MSTORE PUSH1 0x0 JUMPDEST PUSH1 0x60 DUP1 DUP3 LT ISZERO PUSH2 0x212E JUMPI DUP3 DUP3 ADD DUP5 ADD MSTORE DUP3 ADD PUSH2 0x2117 JUMP JUMPDEST DUP3 DUP5 PUSH1 0x40 MLOAD SWAP1 PUSH2 0x213D DUP3 PUSH2 0x2348 JUMP JUMPDEST PUSH1 0x3 DUP3 MSTORE DUP1 DUP3 ADD SWAP1 PUSH1 0x60 CALLDATASIZE DUP4 CALLDATACOPY PUSH1 0x40 MLOAD SWAP4 DUP5 SWAP4 PUSH1 0x40 DUP6 ADD PUSH1 0x40 DUP7 MSTORE DUP3 MLOAD DUP1 SWAP2 MSTORE PUSH1 0x60 DUP7 ADD SWAP1 DUP5 PUSH1 0x60 DUP3 PUSH1 0x5 SHL DUP10 ADD ADD SWAP5 ADD SWAP2 PUSH1 0x0 SWAP1 JUMPDEST DUP3 DUP3 LT PUSH2 0x21B7 JUMPI POP POP POP POP DUP5 DUP3 SUB DUP6 DUP5 ADD MSTORE MLOAD DUP1 DUP3 MSTORE SWAP1 DUP3 ADD SWAP3 SWAP2 PUSH1 0x0 JUMPDEST DUP3 DUP2 LT PUSH2 0x21A0 JUMPI POP POP POP POP SUB SWAP1 RETURN JUMPDEST DUP4 MLOAD DUP6 MSTORE DUP7 SWAP6 POP SWAP4 DUP2 ADD SWAP4 SWAP3 DUP2 ADD SWAP3 PUSH1 0x1 ADD PUSH2 0x2191 JUMP JUMPDEST SWAP2 SWAP4 SWAP5 PUSH1 0x1 SWAP2 SWAP4 SWAP8 SWAP9 POP DUP7 PUSH2 0x21D7 DUP2 SWAP3 PUSH1 0x5F NOT DUP14 DUP3 SUB ADD DUP7 MSTORE DUP11 MLOAD PUSH2 0x245A JUMP JUMPDEST SWAP9 ADD SWAP3 ADD SWAP3 ADD DUP9 SWAP8 SWAP7 SWAP5 SWAP4 SWAP2 SWAP3 PUSH2 0x2173 JUMP JUMPDEST CALLVALUE PUSH2 0x1BA JUMPI PUSH1 0x20 CALLDATASIZE PUSH1 0x3 NOT ADD SLT PUSH2 0x1BA JUMPI PUSH1 0x4 CALLDATALOAD PUSH1 0x0 MSTORE PUSH1 0x9 PUSH1 0x20 MSTORE PUSH1 0x20 PUSH1 0x40 PUSH1 0x0 KECCAK256 DUP1 SLOAD SWAP1 PUSH1 0x1 DUP2 ADD SLOAD PUSH2 0x22C4 PUSH1 0xFF PUSH1 0x2 DUP5 ADD SLOAD AND DUP4 PUSH2 0x22B1 PUSH2 0x222F PUSH1 0x3 DUP4 ADD PUSH2 0x2384 JUMP JUMPDEST PUSH4 0xFFFFFFFF PUSH1 0x4 DUP5 ADD SLOAD AND SWAP1 PUSH2 0x229E PUSH2 0x224A PUSH1 0x5 DUP7 ADD PUSH2 0x2384 JUMP JUMPDEST SWAP2 PUSH2 0x228D PUSH1 0x1 PUSH1 0x1 PUSH1 0x40 SHL SUB PUSH1 0x6 DUP9 ADD SLOAD AND SWAP8 PUSH1 0xFF PUSH1 0x9 PUSH1 0x8 PUSH2 0x226F PUSH1 0x7 DUP13 ADD PUSH2 0x2384 JUMP JUMPDEST SWAP11 ADD SLOAD SWAP14 ADD SLOAD AND SWAP11 PUSH1 0x40 MLOAD SWAP15 DUP16 SWAP15 DUP16 SWAP1 DUP2 MSTORE ADD MSTORE PUSH1 0x40 DUP14 ADD SWAP1 PUSH2 0x242A JUMP JUMPDEST PUSH2 0x140 DUP1 PUSH1 0x60 DUP14 ADD MSTORE DUP12 ADD SWAP1 PUSH2 0x245A JUMP JUMPDEST SWAP2 PUSH1 0x80 DUP11 ADD MSTORE DUP9 DUP3 SUB PUSH1 0xA0 DUP11 ADD MSTORE PUSH2 0x245A JUMP JUMPDEST SWAP2 PUSH1 0xC0 DUP8 ADD MSTORE DUP6 DUP3 SUB PUSH1 0xE0 DUP8 ADD MSTORE PUSH2 0x245A JUMP JUMPDEST SWAP2 PUSH2 0x100 DUP5 ADD MSTORE ISZERO ISZERO PUSH2 0x120 DUP4 ADD MSTORE SUB SWAP1 RETURN JUMPDEST SWAP1 PUSH1 0x1 DUP3 DUP2 SHR SWAP3 AND DUP1 ISZERO PUSH2 0x2307 JUMPI JUMPDEST PUSH1 0x20 DUP4 LT EQ PUSH2 0x22F1 JUMPI JUMP JUMPDEST PUSH4 0x4E487B71 PUSH1 0xE0 SHL PUSH1 0x0 MSTORE PUSH1 0x22 PUSH1 0x4 MSTORE PUSH1 0x24 PUSH1 0x0 REVERT JUMPDEST SWAP2 PUSH1 0x7F AND SWAP2 PUSH2 0x22E6 JUMP JUMPDEST PUSH2 0x140 DUP2 ADD SWAP1 DUP2 LT PUSH1 0x1 PUSH1 0x1 PUSH1 0x40 SHL SUB DUP3 GT OR PUSH2 0x666 JUMPI PUSH1 0x40 MSTORE JUMP JUMPDEST PUSH1 0x60 DUP2 ADD SWAP1 DUP2 LT PUSH1 0x1 PUSH1 0x1 PUSH1 0x40 SHL SUB DUP3 GT OR PUSH2 0x666 JUMPI PUSH1 0x40 MSTORE JUMP JUMPDEST PUSH1 0x80 DUP2 ADD SWAP1 DUP2 LT PUSH1 0x1 PUSH1 0x1 PUSH1 0x40 SHL SUB DUP3 GT OR PUSH2 0x666 JUMPI PUSH1 0x40 MSTORE JUMP JUMPDEST SWAP1 PUSH1 0x1F DUP1 NOT SWAP2 ADD AND DUP2 ADD SWAP1 DUP2 LT PUSH1 0x1 PUSH1 0x1 PUSH1 0x40 SHL SUB DUP3 GT OR PUSH2 0x666 JUMPI PUSH1 0x40 MSTORE JUMP JUMPDEST SWAP1 PUSH1 0x40 MLOAD SWAP2 DUP3 PUSH1 0x0 DUP3 SLOAD SWAP3 PUSH2 0x2398 DUP5 PUSH2 0x22D7 JUMP JUMPDEST SWAP1 DUP2 DUP5 MSTORE PUSH1 0x1 SWAP5 DUP6 DUP2 AND SWAP1 DUP2 PUSH1 0x0 EQ PUSH2 0x2407 JUMPI POP PUSH1 0x1 EQ PUSH2 0x23C4 JUMPI JUMPDEST POP POP PUSH2 0x23C2 SWAP3 POP SUB DUP4 PUSH2 0x2363 JUMP JUMPDEST JUMP JUMPDEST SWAP1 SWAP4 SWAP2 POP PUSH1 0x0 MSTORE PUSH1 0x20 SWAP1 DUP2 PUSH1 0x0 KECCAK256 SWAP4 PUSH1 0x0 SWAP2 JUMPDEST DUP2 DUP4 LT PUSH2 0x23EF JUMPI POP POP PUSH2 0x23C2 SWAP4 POP DUP3 ADD ADD CODESIZE DUP1 PUSH2 0x23B4 JUMP JUMPDEST DUP6 SLOAD DUP9 DUP5 ADD DUP6 ADD MSTORE SWAP5 DUP6 ADD SWAP5 DUP8 SWAP5 POP SWAP2 DUP4 ADD SWAP2 PUSH2 0x23D7 JUMP JUMPDEST SWAP2 POP POP PUSH2 0x23C2 SWAP5 POP PUSH1 0x20 SWAP3 POP PUSH1 0xFF NOT AND DUP3 DUP5 ADD MSTORE ISZERO ISZERO PUSH1 0x5 SHL DUP3 ADD ADD CODESIZE DUP1 PUSH2 0x23B4 JUMP JUMPDEST SWAP1 PUSH1 0x4 DUP3 LT ISZERO PUSH2 0xFF0 JUMPI MSTORE JUMP JUMPDEST PUSH1 0x0 JUMPDEST DUP4 DUP2 LT PUSH2 0x244A JUMPI POP POP PUSH1 0x0 SWAP2 ADD MSTORE JUMP JUMPDEST DUP2 DUP2 ADD MLOAD DUP4 DUP3 ADD MSTORE PUSH1 0x20 ADD PUSH2 0x243A JUMP JUMPDEST SWAP1 PUSH1 0x20 SWAP2 PUSH2 0x2473 DUP2 MLOAD DUP1 SWAP3 DUP2 DUP6 MSTORE DUP6 DUP1 DUP7 ADD SWAP2 ADD PUSH2 0x2437 JUMP JUMPDEST PUSH1 0x1F ADD PUSH1 0x1F NOT AND ADD ADD SWAP1 JUMP JUMPDEST PUSH1 0x4 CALLDATALOAD SWAP1 PUSH1 0x1 PUSH1 0x1 PUSH1 0xA0 SHL SUB DUP3 AND DUP3 SUB PUSH2 0x1BA JUMPI JUMP JUMPDEST SWAP2 DUP2 PUSH1 0x1F DUP5 ADD SLT ISZERO PUSH2 0x1BA JUMPI DUP3 CALLDATALOAD SWAP2 PUSH1 0x1 PUSH1 0x1 PUSH1 0x40 SHL SUB DUP4 GT PUSH2 0x1BA JUMPI PUSH1 0x20 DUP4 DUP2 DUP7 ADD SWAP6 ADD ADD GT PUSH2 0x1BA JUMPI JUMP JUMPDEST SWAP3 SWAP2 SWAP3 PUSH1 0x1 PUSH1 0x1 PUSH1 0x40 SHL SUB DUP3 GT PUSH2 0x666 JUMPI PUSH1 0x40 MLOAD SWAP2 PUSH2 0x24EB PUSH1 0x1F DUP3 ADD PUSH1 0x1F NOT AND PUSH1 0x20 ADD DUP5 PUSH2 0x2363 JUMP JUMPDEST DUP3 SWAP5 DUP2 DUP5 MSTORE DUP2 DUP4 ADD GT PUSH2 0x1BA JUMPI DUP3 DUP2 PUSH1 0x20 SWAP4 DUP5 PUSH1 0x0 SWAP7 ADD CALLDATACOPY ADD ADD MSTORE JUMP JUMPDEST SWAP1 DUP1 PUSH1 0x1F DUP4 ADD SLT ISZERO PUSH2 0x1BA JUMPI DUP2 PUSH1 0x20 PUSH2 0x2523 SWAP4 CALLDATALOAD SWAP2 ADD PUSH2 0x24C2 JUMP JUMPDEST SWAP1 JUMP JUMPDEST PUSH1 0x40 SWAP1 PUSH1 0x3 NOT ADD SLT PUSH2 0x1BA JUMPI PUSH1 0x4 CALLDATALOAD SWAP1 PUSH1 0x24 CALLDATALOAD SWAP1 JUMP JUMPDEST DUP1 SLOAD DUP3 LT ISZERO PUSH2 0x2554 JUMPI PUSH1 0x0 MSTORE PUSH1 0x20 PUSH1 0x0 KECCAK256 ADD SWAP1 PUSH1 0x0 SWAP1 JUMP JUMPDEST PUSH4 0x4E487B71 PUSH1 0xE0 SHL PUSH1 0x0 MSTORE PUSH1 0x32 PUSH1 0x4 MSTORE PUSH1 0x24 PUSH1 0x0 REVERT JUMPDEST PUSH1 0x0 NOT DUP2 EQ PUSH2 0x2579 JUMPI PUSH1 0x1 ADD SWAP1 JUMP JUMPDEST PUSH4 0x4E487B71 PUSH1 0xE0 SHL PUSH1 0x0 MSTORE PUSH1 0x11 PUSH1 0x4 MSTORE PUSH1 0x24 PUSH1 0x0 REVERT JUMPDEST PUSH1 0x4 DUP3 LT ISZERO PUSH2 0xFF0 JUMPI MSTORE JUMP JUMPDEST SWAP1 PUSH1 0x1F DUP2 GT PUSH2 0x25A9 JUMPI POP POP POP JUMP JUMPDEST PUSH1 0x0 SWAP2 DUP3 MSTORE PUSH1 0x20 DUP3 KECCAK256 SWAP1 PUSH1 0x20 PUSH1 0x1F DUP6 ADD PUSH1 0x5 SHR DUP4 ADD SWAP5 LT PUSH2 0x25E5 JUMPI JUMPDEST PUSH1 0x1F ADD PUSH1 0x5 SHR ADD SWAP2 JUMPDEST DUP3 DUP2 LT PUSH2 0x25DA JUMPI POP POP POP JUMP JUMPDEST DUP2 DUP2 SSTORE PUSH1 0x1 ADD PUSH2 0x25CE JUMP JUMPDEST SWAP1 SWAP3 POP DUP3 SWAP1 PUSH2 0x25C5 JUMP JUMPDEST SWAP2 SWAP1 DUP3 ADD DUP1 SWAP3 GT PUSH2 0x2579 JUMPI JUMP JUMPDEST SWAP1 DUP1 PUSH1 0x20 SWAP4 SWAP3 DUP2 DUP5 MSTORE DUP5 DUP5 ADD CALLDATACOPY PUSH1 0x0 DUP3 DUP3 ADD DUP5 ADD MSTORE PUSH1 0x1F ADD PUSH1 0x1F NOT AND ADD ADD SWAP1 JUMP JUMPDEST ISZERO PUSH2 0x2624 JUMPI JUMP JUMPDEST PUSH1 0x40 MLOAD PUSH3 0x461BCD PUSH1 0xE5 SHL DUP2 MSTORE PUSH1 0x20 PUSH1 0x4 DUP3 ADD MSTORE PUSH1 0xE PUSH1 0x24 DUP3 ADD MSTORE PUSH14 0x139BDD08185D5D1A1BDC9A5E9959 PUSH1 0x92 SHL PUSH1 0x44 DUP3 ADD MSTORE PUSH1 0x64 SWAP1 REVERT JUMPDEST PUSH1 0x1 PUSH1 0x1 PUSH1 0x40 SHL SUB DUP2 GT PUSH2 0x666 JUMPI PUSH1 0x5 SHL PUSH1 0x20 ADD SWAP1 JUMP JUMPDEST DUP1 MLOAD DUP3 LT ISZERO PUSH2 0x2554 JUMPI PUSH1 0x20 SWAP2 PUSH1 0x5 SHL ADD ADD SWAP1 JUMP JUMPDEST ISZERO PUSH2 0x268C JUMPI JUMP JUMPDEST PUSH1 0x40 MLOAD PUSH3 0x461BCD PUSH1 0xE5 SHL DUP2 MSTORE PUSH1 0x20 PUSH1 0x4 DUP3 ADD MSTORE PUSH1 0xE PUSH1 0x24 DUP3 ADD MSTORE PUSH14 0x10DB1D58881B9BDD08199BDD5B99 PUSH1 0x92 SHL PUSH1 0x44 DUP3 ADD MSTORE PUSH1 0x64 SWAP1 REVERT JUMPDEST ISZERO PUSH2 0x26C9 JUMPI JUMP JUMPDEST PUSH1 0x40 MLOAD PUSH3 0x461BCD PUSH1 0xE5 SHL DUP2 MSTORE PUSH1 0x20 PUSH1 0x4 DUP3 ADD MSTORE PUSH1 0x9 PUSH1 0x24 DUP3 ADD MSTORE PUSH9 0x2737BA1037BBB732B9 PUSH1 0xB9 SHL PUSH1 0x44 DUP3 ADD MSTORE PUSH1 0x64 SWAP1 REVERT JUMPDEST SWAP2 SWAP1 DUP3 SUB SWAP2 DUP3 GT PUSH2 0x2579 JUMPI JUMP INVALID LOG2 PUSH5 0x6970667358 0x22 SLT KECCAK256 BYTE DUP12 LOG2 0x5D DUP14 0xBC 0xA7 0xC4 0xBB MUL 0xEA 0xE2 PUSH21 0x1D53A6D8E8A25821597990BA9BD7C5902155B46473 PUSH16 0x6C634300081400330000000000000000 "},"methodIdentifiers":{"activities(uint256)":"0d1657e8","addVerifier(address)":"9000b3d6","awardBonusPoints(uint256,uint256,string)":"2ee7367f","clubActivities(uint256,uint256)":"69d71fea","clubIdByWallet(address)":"47ba097f","clubSpeciesCount(uint256,string)":"d7c26dd8","clubs(uint256)":"9cc009c1","countyClubCount(string)":"226fd922","getClubActivities(uint256)":"1c4273b6","getClubSpeciesDistribution(uint256)":"0f3f3910","getClubs(uint256,uint256)":"57d531d5","getCountyStats(string)":"54ca56da","getLocationStats(string)":"dc2afdf3","locationStats(string)":"254129a3","nextActivityId()":"3ea870b7","nextClubId()":"da5a7898","owner()":"8da5cb5b","pointsEngine()":"a1794d4c","recordActivity(uint8,string,uint32,string,string)":"5e4c4942","registerClub(address,string,string,string,string)":"14524b42","registeredSchools(string)":"bba0cfff","removeVerifier(address)":"ca2dfd0a","transferOwnership(address)":"f2fde38b","updateClub(uint256,string,bool)":"90a87806","verifiers(address)":"6c824487","verifyActivity(uint256,bool)":"5fb1536f"}}}}}