{
  "_format": "hh-sol-artifact-1",
  "contractName": "Activities",
  "sourceName": "src/core/Activities.sol",
  "abi": [
    {
      "inputs": [],
      "stateMutability": "nonpayable",
      "type": "constructor"
    },
    {
      "anonymous": false,
      "inputs": [
        {
          "indexed": true,
          "internalType": "uint256",
          "name": "activityId",
          "type": "uint256"
        },
        {
          "indexed": false,
          "internalType": "string",
          "name": "newMetadataURI",
          "type": "string"
        }
      ],
      "name": "ActivityUpdated",
      "type": "event"
    },
    {
      "anonymous": false,
      "inputs": [
        {
          "indexed": true,
          "internalType": "uint256",
          "name": "activityId",
          "type": "uint256"
        },
        {
          "indexed": true,
          "internalType": "address",
          "name": "verifier",
          "type": "address"
        },
        {
          "indexed": false,
          "internalType": "bool",
          "name": "approved",
          "type": "bool"
        },
        {
          "indexed": false,
          "internalType": "string",
          "name": "comments",
          "type": "string"
        }
      ],
      "name": "ActivityVerified",
      "type": "event"
    },
    {
      "inputs": [
        {
          "internalType": "uint256",
          "name": "",
          "type": "uint256"
        }
      ],
      "name": "activities",
      "outputs": [
        {
          "internalType": "uint256",
          "name": "id",
          "type": "uint256"
        },
        {
          "internalType": "uint256",
          "name": "clubId",
          "type": "uint256"
        },
        {
          "internalType": "enum Structs.ActivityType",
          "name": "activityType",
          "type": "uint8"
        },
        {
          "internalType": "string",
          "name": "species",
          "type": "string"
        },
        {
          "internalType": "uint32",
          "name": "count",
          "type": "uint32"
        },
        {
          "internalType": "string",
          "name": "locationCode",
          "type": "string"
        },
        {
          "internalType": "uint64",
          "name": "timestamp",
          "type": "uint64"
        },
        {
          "internalType": "string",
          "name": "metadataURI",
          "type": "string"
        },
        {
          "internalType": "uint256",
          "name": "pointsAwarded",
          "type": "uint256"
        },
        {
          "internalType": "bool",
          "name": "verified",
          "type": "bool"
        }
      ],
      "stateMutability": "view",
      "type": "function"
    },
    {
      "inputs": [
        {
          "internalType": "uint256",
          "name": "",
          "type": "uint256"
        },
        {
          "internalType": "uint256",
          "name": "",
          "type": "uint256"
        }
      ],
      "name": "activityVerifications",
      "outputs": [
        {
          "internalType": "address",
          "name": "verifier",
          "type": "address"
        },
        {
          "internalType": "uint64",
          "name": "timestamp",
          "type": "uint64"
        },
        {
          "internalType": "bool",
          "name": "approved",
          "type": "bool"
        },
        {
          "internalType": "string",
          "name": "comments",
          "type": "string"
        }
      ],
      "stateMutability": "view",
      "type": "function"
    },
    {
      "inputs": [
        {
          "internalType": "address",
          "name": "_verifier",
          "type": "address"
        }
      ],
      "name": "addVerifier",
      "outputs": [],
      "stateMutability": "nonpayable",
      "type": "function"
    },
    {
      "inputs": [
        {
          "internalType": "uint256",
          "name": "_clubId",
          "type": "uint256"
        },
        {
          "internalType": "enum Structs.ActivityType",
          "name": "_activityType",
          "type": "uint8"
        },
        {
          "internalType": "string",
          "name": "_species",
          "type": "string"
        },
        {
          "internalType": "uint32",
          "name": "_count",
          "type": "uint32"
        },
        {
          "internalType": "string",
          "name": "_locationCode",
          "type": "string"
        },
        {
          "internalType": "string",
          "name": "_metadataURI",
          "type": "string"
        }
      ],
      "name": "createActivity",
      "outputs": [
        {
          "internalType": "uint256",
          "name": "",
          "type": "uint256"
        }
      ],
      "stateMutability": "nonpayable",
      "type": "function"
    },
    {
      "inputs": [
        {
          "internalType": "uint256",
          "name": "_activityId",
          "type": "uint256"
        }
      ],
      "name": "getActivityVerifications",
      "outputs": [
        {
          "components": [
            {
              "internalType": "address",
              "name": "verifier",
              "type": "address"
            },
            {
              "internalType": "uint64",
              "name": "timestamp",
              "type": "uint64"
            },
            {
              "internalType": "bool",
              "name": "approved",
              "type": "bool"
            },
            {
              "internalType": "string",
              "name": "comments",
              "type": "string"
            }
          ],
          "internalType": "struct Structs.ActivityVerification[]",
          "name": "",
          "type": "tuple[]"
        }
      ],
      "stateMutability": "view",
      "type": "function"
    },
    {
      "inputs": [],
      "name": "nextActivityId",
      "outputs": [
        {
          "internalType": "uint256",
          "name": "",
          "type": "uint256"
        }
      ],
      "stateMutability": "view",
      "type": "function"
    },
    {
      "inputs": [],
      "name": "owner",
      "outputs": [
        {
          "internalType": "address",
          "name": "",
          "type": "address"
        }
      ],
      "stateMutability": "view",
      "type": "function"
    },
    {
      "inputs": [
        {
          "internalType": "address",
          "name": "_verifier",
          "type": "address"
        }
      ],
      "name": "removeVerifier",
      "outputs": [],
      "stateMutability": "nonpayable",
      "type": "function"
    },
    {
      "inputs": [
        {
          "internalType": "uint256",
          "name": "_activityId",
          "type": "uint256"
        },
        {
          "internalType": "string",
          "name": "_newMetadataURI",
          "type": "string"
        }
      ],
      "name": "updateActivityMetadata",
      "outputs": [],
      "stateMutability": "nonpayable",
      "type": "function"
    },
    {
      "inputs": [
        {
          "internalType": "address",
          "name": "",
          "type": "address"
        }
      ],
      "name": "verifiers",
      "outputs": [
        {
          "internalType": "bool",
          "name": "",
          "type": "bool"
        }
      ],
      "stateMutability": "view",
      "type": "function"
    },
    {
      "inputs": [
        {
          "internalType": "uint256",
          "name": "_activityId",
          "type": "uint256"
        },
        {
          "internalType": "bool",
          "name": "_approved",
          "type": "bool"
        },
        {
          "internalType": "string",
          "name": "_comments",
          "type": "string"
        }
      ],
      "name": "verifyActivity",
      "outputs": [],
      "stateMutability": "nonpayable",
      "type": "function"
    }
  ],
  "bytecode": "0x6080806040523461002d576001600255600380546001600160a01b0319163317905561107990816100338239f35b600080fdfe608080604052600436101561001357600080fd5b60003560e01c9081630107a87614610bf0575080630ba4d9d31461077b5780630d1657e8146106725780633ea870b71461065457806358e5548f146104f75780636c824487146104b45780638da5cb5b1461048b5780639000b3d61461043a578063a7ee8d7514610179578063ca2dfd0a1461012b5763ebae01b71461009857600080fd5b34610126576040366003190112610126576024356004356000526001602052604060002080548210156101265760ff916100d191610f1e565b506101226100e3600183549301610e38565b60405193849360018060a01b03811685526001600160401b038160a01c16602086015260e01c1615156040840152608060608401526080830190610ede565b0390f35b600080fd5b34610126576020366003190112610126576004356001600160a01b0381811691829003610126576101619060035416331461100b565b6000908152600460205260409020805460ff19169055005b34610126576060366003190112610126576004356024359081151591828103610126576001600160401b0392604435848111610126576101bd903690600401610d95565b94336000526020936004855260ff6040600020541615610406576101fc90866000526000865260096040600020019060ff801983541691151516179055565b60019081855260406000209160405161021481610dfc565b33815286810183421681526040820190878252610232368c89610f50565b95606084019687528054680100000000000000008110156103da5761025b918682018155610f1e565b9290926103f05792518254915193516001600160e81b03199092166001600160a01b03919091161760a09390931b67ffffffffffffffff60a01b169290921791151560e01b60ff60e01b1691909117815592518051938201939283116103da576102cf836102c98654610dc2565b86610f96565b8690601f841160011461034c57928061033c959381937f07e598241679f2d9b07fd5da72bf845a98063ce13d9cc30969cac968178d208a9a999896600094610341575b50501b916000199060031b1c19161790555b60408051948594855284015233966040840191610fea565b0390a3005b015192508c80610312565b90601f9392931983169185600052886000209260005b8181106103c55750917f07e598241679f2d9b07fd5da72bf845a98063ce13d9cc30969cac968178d208a9998979593918561033c989694106103ac575b505050811b019055610324565b015160001960f88460031b161c191690558a808061039f565b82840151855593860193928a01928a01610362565b634e487b7160e01b600052604160045260246000fd5b634e487b7160e01b600052600060045260246000fd5b60405162461bcd60e51b815260048101869052600c60248201526b2737ba103b32b934b334b2b960a11b6044820152606490fd5b34610126576020366003190112610126576004356001600160a01b0381811691829003610126576104709060035416331461100b565b6000908152600460205260409020805460ff19166001179055005b34610126576000366003190112610126576003546040516001600160a01b039091168152602090f35b34610126576020366003190112610126576004356001600160a01b03811690819003610126576000526004602052602060ff604060002054166040519015158152f35b346101265760208060031936011261012657600435600052600190818152604060002080546001600160401b03928382116103da579192849160405190610543858260051b0183610e17565b8082528482018096600052856000206000915b8383106105f25750505050604051938085019181865251809252604085019260408360051b87010196936000915b8483106105915787890388f35b90919293949584806105e0839b603f198c82030187528a5160018060a01b0381511682528684820151168483015260408101511515604083015260608091015191608080928201520190610ede565b9a980196959491909101920190610584565b95600288829a9860409a97989a5161060981610dfc565b85546001600160a01b038116825260a081901c8d168483015260e01c60ff161515604082015261063a858701610e38565b606082015281520192019201919097959796949396610556565b34610126576000366003190112610126576020600254604051908152f35b34610126576020366003190112610126576004356000526000602052604060002080549060018101549060ff600282015416916106b160038301610e38565b9263ffffffff600484015416936106ca60058501610e38565b946001600160401b03600686015416916106e660078701610e38565b9160ff600960088901549801541695604051998a5260208a0152600485101561076557889761072c61073f936107529760408c01526101408060608d01528b0190610ede565b9160808a015288820360a08a0152610ede565b9160c087015285820360e0870152610ede565b9161010084015215156101208301520390f35b634e487b7160e01b600052602160045260246000fd5b346101265760c03660031901126101265760046024351015610126576044356001600160401b038111610126576107b6903690600401610d95565b9060643563ffffffff81168103610126576084356001600160401b038111610126576107e6903690600401610d95565b9360a4356001600160401b03811161012657610806903690600401610d95565b919092600254966000198814610bda576001880160025560405196876101408101106001600160401b036101408a0111176103da5761089b9661086e63ffffffff92610880966101408c016040528c8c5260043560208d015260243560408d01523691610f50565b60608a01521660808801523691610f50565b60a08501526001600160401b03421660c08501523691610f50565b60e08201526000610100820152600061012082015281600052600060205260406000209181518355602082015160018401556040820151600481101561076557600284019060ff8019835416911617905560608201519283516001600160401b0381116103da5761091c816109136003850154610dc2565b60038501610f96565b6020601f8211600114610b6b578192939495600092610b60575b50508160011b916000199060031b1c19161760038201555b6004810163ffffffff60808501511663ffffffff1982541617905560a083015180516001600160401b0381116103da57806005840192610992826102c98654610dc2565b602090601f8311600114610afa57600092610aef575b50508160011b916000199060031b1c19161790555b600681016001600160401b0360c0850151166001600160401b0319825416179055600781019260e08101519384516001600160401b0381116103da57602095610a1082610a0a8554610dc2565b85610f96565b8690601f8311600114610a7e57928261012093610a6b979693600996600092610a73575b50508160011b916000199060031b1c19161790555b61010081015160088501550151151591019060ff801983541691151516179055565b604051908152f35b015190508a80610a34565b90601f1983169184600052886000209260005b818110610ad8575093610a6b97969360099693600193836101209810610abf575b505050811b019055610a49565b015160001960f88460031b161c191690558a8080610ab2565b92938a600181928786015181550195019301610a91565b0151905086806109a8565b6000858152602081209350601f198516905b818110610b485750908460019594939210610b2f575b505050811b0190556109bd565b015160001960f88460031b161c19169055868080610b22565b92936020600181928786015181550195019301610b0c565b015190508580610936565b6003830160005260206000209060005b601f1984168110610bc2575060019394959683601f19811610610ba9575b505050811b01600382015561094e565b015160001960f88460031b161c19169055858080610b99565b9091602060018192858b015181550193019101610b7b565b634e487b7160e01b600052601160045260246000fd5b3461012657604036600319011261012657600435906001600160401b039060243582811161012657610c26903690600401610d95565b92846000526020926000845260406000206001918282015415610d5e57506007019185116103da57610c6285610c5c8454610dc2565b84610f96565b6000601f8611600114610cd5579185807fd6e27609c4c6a55db21641f87e84e8b59414ec45049946e94a67d601f4623e0197969593610cc595600093610cca575b501b906000198760031b1c19161790555b604051938385948552840191610fea565b0390a2005b85013592508a610ca3565b601f1986169083600052856000209160005b818110610d4957509187969593917fd6e27609c4c6a55db21641f87e84e8b59414ec45049946e94a67d601f4623e0198610cc5969410610d2f575b505085811b019055610cb4565b840135600019600389901b60f8161c191690558880610d22565b86830135845592840192918701918701610ce7565b62461bcd60e51b81526004810186905260126024820152711058dd1a5d9a5d1e481b9bdd08199bdd5b9960721b6044820152606490fd5b9181601f84011215610126578235916001600160401b038311610126576020838186019501011161012657565b90600182811c92168015610df2575b6020831014610ddc57565b634e487b7160e01b600052602260045260246000fd5b91607f1691610dd1565b608081019081106001600160401b038211176103da57604052565b90601f801991011681019081106001600160401b038211176103da57604052565b9060405191826000825492610e4c84610dc2565b908184526001948581169081600014610ebb5750600114610e78575b5050610e7692500383610e17565b565b9093915060005260209081600020936000915b818310610ea3575050610e7693508201013880610e68565b85548884018501529485019487945091830191610e8b565b915050610e7694506020925060ff191682840152151560051b8201013880610e68565b919082519283825260005b848110610f0a575050826000602080949584010152601f8019910116010190565b602081830181015184830182015201610ee9565b8054821015610f3a5760005260206000209060011b0190600090565b634e487b7160e01b600052603260045260246000fd5b9291926001600160401b0382116103da5760405191610f79601f8201601f191660200184610e17565b829481845281830111610126578281602093846000960137010152565b90601f8111610fa457505050565b600091825260208220906020601f850160051c83019410610fe0575b601f0160051c01915b828110610fd557505050565b818155600101610fc9565b9092508290610fc0565b908060209392818452848401376000828201840152601f01601f1916010190565b1561101257565b60405162461bcd60e51b81526020600482015260096024820152682737ba1037bbb732b960b91b6044820152606490fdfea26469706673582212200d7e43447c75c0d617a7314ed10e68a8b224f6b072cbfc1a0324eff88faa357964736f6c63430008140033",
  "linkReferences": {},
  "deployedLinkReferences": {}
}