{
  "_format": "hh-sol-artifact-1",
  "contractName": "SentinelClubs",
  "sourceName": "src/core/SentinelClubs.sol",
  "abi": [
    {
      "inputs": [
        {
          "internalType": "address",
          "name": "_pointsEngine",
          "type": "address"
        }
      ],
      "stateMutability": "nonpayable",
      "type": "constructor"
    },
    {
      "anonymous": false,
      "inputs": [
        {
          "indexed": true,
          "internalType": "uint256",
          "name": "activityId",
          "type": "uint256"
        },
        {
          "indexed": true,
          "internalType": "uint256",
          "name": "clubId",
          "type": "uint256"
        },
        {
          "indexed": false,
          "internalType": "enum Structs.ActivityType",
          "name": "activityType",
          "type": "uint8"
        },
        {
          "indexed": false,
          "internalType": "string",
          "name": "species",
          "type": "string"
        },
        {
          "indexed": false,
          "internalType": "uint32",
          "name": "count",
          "type": "uint32"
        },
        {
          "indexed": false,
          "internalType": "string",
          "name": "locationCode",
          "type": "string"
        },
        {
          "indexed": false,
          "internalType": "uint256",
          "name": "pointsAwarded",
          "type": "uint256"
        },
        {
          "indexed": false,
          "internalType": "string",
          "name": "metadataURI",
          "type": "string"
        }
      ],
      "name": "ActivityRecorded",
      "type": "event"
    },
    {
      "anonymous": false,
      "inputs": [
        {
          "indexed": true,
          "internalType": "uint256",
          "name": "activityId",
          "type": "uint256"
        },
        {
          "indexed": true,
          "internalType": "address",
          "name": "verifier",
          "type": "address"
        },
        {
          "indexed": false,
          "internalType": "bool",
          "name": "approved",
          "type": "bool"
        },
        {
          "indexed": false,
          "internalType": "string",
          "name": "comments",
          "type": "string"
        }
      ],
      "name": "ActivityVerified",
      "type": "event"
    },
    {
      "anonymous": false,
      "inputs": [
        {
          "indexed": true,
          "internalType": "uint256",
          "name": "clubId",
          "type": "uint256"
        },
        {
          "indexed": false,
          "internalType": "uint256",
          "name": "points",
          "type": "uint256"
        },
        {
          "indexed": false,
          "internalType": "string",
          "name": "reason",
          "type": "string"
        }
      ],
      "name": "BonusPointsAwarded",
      "type": "event"
    },
    {
      "anonymous": false,
      "inputs": [
        {
          "indexed": true,
          "internalType": "uint256",
          "name": "clubId",
          "type": "uint256"
        },
        {
          "indexed": true,
          "internalType": "address",
          "name": "wallet",
          "type": "address"
        },
        {
          "indexed": false,
          "internalType": "string",
          "name": "name",
          "type": "string"
        },
        {
          "indexed": false,
          "internalType": "string",
          "name": "schoolName",
          "type": "string"
        },
        {
          "indexed": false,
          "internalType": "string",
          "name": "county",
          "type": "string"
        },
        {
          "indexed": false,
          "internalType": "string",
          "name": "region",
          "type": "string"
        }
      ],
      "name": "ClubRegistered",
      "type": "event"
    },
    {
      "anonymous": false,
      "inputs": [
        {
          "indexed": true,
          "internalType": "uint256",
          "name": "clubId",
          "type": "uint256"
        },
        {
          "indexed": false,
          "internalType": "bool",
          "name": "active",
          "type": "bool"
        }
      ],
      "name": "ClubStatusChanged",
      "type": "event"
    },
    {
      "anonymous": false,
      "inputs": [
        {
          "indexed": true,
          "internalType": "uint256",
          "name": "clubId",
          "type": "uint256"
        },
        {
          "indexed": false,
          "internalType": "string",
          "name": "newName",
          "type": "string"
        },
        {
          "indexed": false,
          "internalType": "bool",
          "name": "active",
          "type": "bool"
        }
      ],
      "name": "ClubUpdated",
      "type": "event"
    },
    {
      "anonymous": false,
      "inputs": [
        {
          "indexed": true,
          "internalType": "string",
          "name": "locationCode",
          "type": "string"
        },
        {
          "indexed": false,
          "internalType": "uint256",
          "name": "totalTrees",
          "type": "uint256"
        },
        {
          "indexed": false,
          "internalType": "uint256",
          "name": "totalActivities",
          "type": "uint256"
        }
      ],
      "name": "LocationUpdated",
      "type": "event"
    },
    {
      "anonymous": false,
      "inputs": [
        {
          "indexed": true,
          "internalType": "uint256",
          "name": "clubId",
          "type": "uint256"
        },
        {
          "indexed": false,
          "internalType": "uint256",
          "name": "points",
          "type": "uint256"
        },
        {
          "indexed": false,
          "internalType": "string",
          "name": "reason",
          "type": "string"
        }
      ],
      "name": "PointsAwarded",
      "type": "event"
    },
    {
      "inputs": [
        {
          "internalType": "uint256",
          "name": "",
          "type": "uint256"
        }
      ],
      "name": "activities",
      "outputs": [
        {
          "internalType": "uint256",
          "name": "id",
          "type": "uint256"
        },
        {
          "internalType": "uint256",
          "name": "clubId",
          "type": "uint256"
        },
        {
          "internalType": "enum Structs.ActivityType",
          "name": "activityType",
          "type": "uint8"
        },
        {
          "internalType": "string",
          "name": "species",
          "type": "string"
        },
        {
          "internalType": "uint32",
          "name": "count",
          "type": "uint32"
        },
        {
          "internalType": "string",
          "name": "locationCode",
          "type": "string"
        },
        {
          "internalType": "uint64",
          "name": "timestamp",
          "type": "uint64"
        },
        {
          "internalType": "string",
          "name": "metadataURI",
          "type": "string"
        },
        {
          "internalType": "uint256",
          "name": "pointsAwarded",
          "type": "uint256"
        },
        {
          "internalType": "bool",
          "name": "verified",
          "type": "bool"
        }
      ],
      "stateMutability": "view",
      "type": "function"
    },
    {
      "inputs": [
        {
          "internalType": "address",
          "name": "_verifier",
          "type": "address"
        }
      ],
      "name": "addVerifier",
      "outputs": [],
      "stateMutability": "nonpayable",
      "type": "function"
    },
    {
      "inputs": [
        {
          "internalType": "uint256",
          "name": "_clubId",
          "type": "uint256"
        },
        {
          "internalType": "uint256",
          "name": "_points",
          "type": "uint256"
        },
        {
          "internalType": "string",
          "name": "_reason",
          "type": "string"
        }
      ],
      "name": "awardBonusPoints",
      "outputs": [],
      "stateMutability": "nonpayable",
      "type": "function"
    },
    {
      "inputs": [
        {
          "internalType": "uint256",
          "name": "",
          "type": "uint256"
        },
        {
          "internalType": "uint256",
          "name": "",
          "type": "uint256"
        }
      ],
      "name": "clubActivities",
      "outputs": [
        {
          "internalType": "uint256",
          "name": "",
          "type": "uint256"
        }
      ],
      "stateMutability": "view",
      "type": "function"
    },
    {
      "inputs": [
        {
          "internalType": "address",
          "name": "",
          "type": "address"
        }
      ],
      "name": "clubIdByWallet",
      "outputs": [
        {
          "internalType": "uint256",
          "name": "",
          "type": "uint256"
        }
      ],
      "stateMutability": "view",
      "type": "function"
    },
    {
      "inputs": [
        {
          "internalType": "uint256",
          "name": "",
          "type": "uint256"
        },
        {
          "internalType": "string",
          "name": "",
          "type": "string"
        }
      ],
      "name": "clubSpeciesCount",
      "outputs": [
        {
          "internalType": "uint256",
          "name": "",
          "type": "uint256"
        }
      ],
      "stateMutability": "view",
      "type": "function"
    },
    {
      "inputs": [
        {
          "internalType": "uint256",
          "name": "",
          "type": "uint256"
        }
      ],
      "name": "clubs",
      "outputs": [
        {
          "internalType": "uint256",
          "name": "id",
          "type": "uint256"
        },
        {
          "internalType": "address",
          "name": "wallet",
          "type": "address"
        },
        {
          "internalType": "string",
          "name": "name",
          "type": "string"
        },
        {
          "internalType": "string",
          "name": "schoolName",
          "type": "string"
        },
        {
          "internalType": "string",
          "name": "county",
          "type": "string"
        },
        {
          "internalType": "string",
          "name": "region",
          "type": "string"
        },
        {
          "internalType": "uint256",
          "name": "totalPoints",
          "type": "uint256"
        },
        {
          "internalType": "uint256",
          "name": "totalTrees",
          "type": "uint256"
        },
        {
          "internalType": "bool",
          "name": "active",
          "type": "bool"
        },
        {
          "internalType": "uint64",
          "name": "registrationDate",
          "type": "uint64"
        }
      ],
      "stateMutability": "view",
      "type": "function"
    },
    {
      "inputs": [
        {
          "internalType": "string",
          "name": "",
          "type": "string"
        }
      ],
      "name": "countyClubCount",
      "outputs": [
        {
          "internalType": "uint256",
          "name": "",
          "type": "uint256"
        }
      ],
      "stateMutability": "view",
      "type": "function"
    },
    {
      "inputs": [
        {
          "internalType": "uint256",
          "name": "_clubId",
          "type": "uint256"
        }
      ],
      "name": "getClubActivities",
      "outputs": [
        {
          "components": [
            {
              "internalType": "uint256",
              "name": "id",
              "type": "uint256"
            },
            {
              "internalType": "uint256",
              "name": "clubId",
              "type": "uint256"
            },
            {
              "internalType": "enum Structs.ActivityType",
              "name": "activityType",
              "type": "uint8"
            },
            {
              "internalType": "string",
              "name": "species",
              "type": "string"
            },
            {
              "internalType": "uint32",
              "name": "count",
              "type": "uint32"
            },
            {
              "internalType": "string",
              "name": "locationCode",
              "type": "string"
            },
            {
              "internalType": "uint64",
              "name": "timestamp",
              "type": "uint64"
            },
            {
              "internalType": "string",
              "name": "metadataURI",
              "type": "string"
            },
            {
              "internalType": "uint256",
              "name": "pointsAwarded",
              "type": "uint256"
            },
            {
              "internalType": "bool",
              "name": "verified",
              "type": "bool"
            }
          ],
          "internalType": "struct Structs.Activity[]",
          "name": "",
          "type": "tuple[]"
        }
      ],
      "stateMutability": "view",
      "type": "function"
    },
    {
      "inputs": [
        {
          "internalType": "uint256",
          "name": "_clubId",
          "type": "uint256"
        }
      ],
      "name": "getClubSpeciesDistribution",
      "outputs": [
        {
          "internalType": "string[]",
          "name": "",
          "type": "string[]"
        },
        {
          "internalType": "uint256[]",
          "name": "",
          "type": "uint256[]"
        }
      ],
      "stateMutability": "view",
      "type": "function"
    },
    {
      "inputs": [
        {
          "internalType": "uint256",
          "name": "_start",
          "type": "uint256"
        },
        {
          "internalType": "uint256",
          "name": "_limit",
          "type": "uint256"
        }
      ],
      "name": "getClubs",
      "outputs": [
        {
          "components": [
            {
              "internalType": "uint256",
              "name": "id",
              "type": "uint256"
            },
            {
              "internalType": "address",
              "name": "wallet",
              "type": "address"
            },
            {
              "internalType": "string",
              "name": "name",
              "type": "string"
            },
            {
              "internalType": "string",
              "name": "schoolName",
              "type": "string"
            },
            {
              "internalType": "string",
              "name": "county",
              "type": "string"
            },
            {
              "internalType": "string",
              "name": "region",
              "type": "string"
            },
            {
              "internalType": "uint256",
              "name": "totalPoints",
              "type": "uint256"
            },
            {
              "internalType": "uint256",
              "name": "totalTrees",
              "type": "uint256"
            },
            {
              "internalType": "bool",
              "name": "active",
              "type": "bool"
            },
            {
              "internalType": "uint64",
              "name": "registrationDate",
              "type": "uint64"
            }
          ],
          "internalType": "struct Structs.Club[]",
          "name": "",
          "type": "tuple[]"
        }
      ],
      "stateMutability": "view",
      "type": "function"
    },
    {
      "inputs": [
        {
          "internalType": "string",
          "name": "_county",
          "type": "string"
        }
      ],
      "name": "getCountyStats",
      "outputs": [
        {
          "internalType": "uint256",
          "name": "",
          "type": "uint256"
        }
      ],
      "stateMutability": "view",
      "type": "function"
    },
    {
      "inputs": [
        {
          "internalType": "string",
          "name": "_locationCode",
          "type": "string"
        }
      ],
      "name": "getLocationStats",
      "outputs": [
        {
          "components": [
            {
              "internalType": "uint256",
              "name": "totalTrees",
              "type": "uint256"
            },
            {
              "internalType": "uint256",
              "name": "totalActivities",
              "type": "uint256"
            },
            {
              "internalType": "uint256",
              "name": "lastActivity",
              "type": "uint256"
            }
          ],
          "internalType": "struct Structs.LocationStats",
          "name": "",
          "type": "tuple"
        }
      ],
      "stateMutability": "view",
      "type": "function"
    },
    {
      "inputs": [
        {
          "internalType": "string",
          "name": "",
          "type": "string"
        }
      ],
      "name": "locationStats",
      "outputs": [
        {
          "internalType": "uint256",
          "name": "totalTrees",
          "type": "uint256"
        },
        {
          "internalType": "uint256",
          "name": "totalActivities",
          "type": "uint256"
        },
        {
          "internalType": "uint256",
          "name": "lastActivity",
          "type": "uint256"
        }
      ],
      "stateMutability": "view",
      "type": "function"
    },
    {
      "inputs": [],
      "name": "nextActivityId",
      "outputs": [
        {
          "internalType": "uint256",
          "name": "",
          "type": "uint256"
        }
      ],
      "stateMutability": "view",
      "type": "function"
    },
    {
      "inputs": [],
      "name": "nextClubId",
      "outputs": [
        {
          "internalType": "uint256",
          "name": "",
          "type": "uint256"
        }
      ],
      "stateMutability": "view",
      "type": "function"
    },
    {
      "inputs": [],
      "name": "owner",
      "outputs": [
        {
          "internalType": "address",
          "name": "",
          "type": "address"
        }
      ],
      "stateMutability": "view",
      "type": "function"
    },
    {
      "inputs": [],
      "name": "pointsEngine",
      "outputs": [
        {
          "internalType": "contract IPointsEngine",
          "name": "",
          "type": "address"
        }
      ],
      "stateMutability": "view",
      "type": "function"
    },
    {
      "inputs": [
        {
          "internalType": "enum Structs.ActivityType",
          "name": "_activityType",
          "type": "uint8"
        },
        {
          "internalType": "string",
          "name": "_species",
          "type": "string"
        },
        {
          "internalType": "uint32",
          "name": "_count",
          "type": "uint32"
        },
        {
          "internalType": "string",
          "name": "_locationCode",
          "type": "string"
        },
        {
          "internalType": "string",
          "name": "_metadataURI",
          "type": "string"
        }
      ],
      "name": "recordActivity",
      "outputs": [
        {
          "internalType": "uint256",
          "name": "",
          "type": "uint256"
        }
      ],
      "stateMutability": "nonpayable",
      "type": "function"
    },
    {
      "inputs": [
        {
          "internalType": "address",
          "name": "_wallet",
          "type": "address"
        },
        {
          "internalType": "string",
          "name": "_name",
          "type": "string"
        },
        {
          "internalType": "string",
          "name": "_schoolName",
          "type": "string"
        },
        {
          "internalType": "string",
          "name": "_county",
          "type": "string"
        },
        {
          "internalType": "string",
          "name": "_region",
          "type": "string"
        }
      ],
      "name": "registerClub",
      "outputs": [
        {
          "internalType": "uint256",
          "name": "",
          "type": "uint256"
        }
      ],
      "stateMutability": "nonpayable",
      "type": "function"
    },
    {
      "inputs": [
        {
          "internalType": "string",
          "name": "",
          "type": "string"
        }
      ],
      "name": "registeredSchools",
      "outputs": [
        {
          "internalType": "bool",
          "name": "",
          "type": "bool"
        }
      ],
      "stateMutability": "view",
      "type": "function"
    },
    {
      "inputs": [
        {
          "internalType": "address",
          "name": "_verifier",
          "type": "address"
        }
      ],
      "name": "removeVerifier",
      "outputs": [],
      "stateMutability": "nonpayable",
      "type": "function"
    },
    {
      "inputs": [
        {
          "internalType": "address",
          "name": "_newOwner",
          "type": "address"
        }
      ],
      "name": "transferOwnership",
      "outputs": [],
      "stateMutability": "nonpayable",
      "type": "function"
    },
    {
      "inputs": [
        {
          "internalType": "uint256",
          "name": "_clubId",
          "type": "uint256"
        },
        {
          "internalType": "string",
          "name": "_newName",
          "type": "string"
        },
        {
          "internalType": "bool",
          "name": "_active",
          "type": "bool"
        }
      ],
      "name": "updateClub",
      "outputs": [],
      "stateMutability": "nonpayable",
      "type": "function"
    },
    {
      "inputs": [
        {
          "internalType": "address",
          "name": "",
          "type": "address"
        }
      ],
      "name": "verifiers",
      "outputs": [
        {
          "internalType": "bool",
          "name": "",
          "type": "bool"
        }
      ],
      "stateMutability": "view",
      "type": "function"
    },
    {
      "inputs": [
        {
          "internalType": "uint256",
          "name": "_activityId",
          "type": "uint256"
        },
        {
          "internalType": "bool",
          "name": "_verified",
          "type": "bool"
        }
      ],
      "name": "verifyActivity",
      "outputs": [],
      "stateMutability": "nonpayable",
      "type": "function"
    }
  ],
  "bytecode": "0x60803461008357601f6127dc38819003918201601f19168301916001600160401b038311848410176100885780849260209460405283398101031261008357516001600160a01b03811690819003610083576001805560018060a01b0319338160005416176000556001600855600754161760075560405161273d908161009f8239f35b600080fd5b634e487b7160e01b600052604160045260246000fdfe60c0604052600436101561001257600080fd5b60003560e01c80630d1657e8146121e95780630f3f3910146120f257806314524b42146118e75780631c4273b61461161c578063226fd922146115d3578063254129a3146115725780632ee7367f1461144a5780633ea870b71461142c57806347ba097f146113f257806354ca56da146113a157806357d531d5146110ef5780635e4c4942146108c35780635fb1536f1461077257806369d71fea146107335780636c824487146106f45780638da5cb5b146106cb5780639000b3d61461067c57806390a87806146104b55780639cc009c1146103bd578063a1794d4c14610394578063bba0cfff14610333578063ca2dfd0a146102e7578063d7c26dd81461027d578063da5a78981461025f578063dc2afdf3146101bf5763f2fde38b1461013a57600080fd5b346101ba5760203660031901126101ba5761015361247f565b600054906001600160a01b039061016d33838516146126c2565b16908115610185576001600160a01b03191617600055005b60405162461bcd60e51b815260206004820152600d60248201526c24b73b30b634b21037bbb732b960991b6044820152606490fd5b600080fd5b346101ba5760203660031901126101ba576004356001600160401b0381116101ba5760206101f36060923690600401612495565b91906000604080516102048161232d565b828152828582015201528260405193849283378101600c81520301902060405161022d8161232d565b815491828252604060026001830154926020850193845201549201918252604051928352516020830152516040820152f35b346101ba5760003660031901126101ba576020600154604051908152f35b346101ba5760403660031901126101ba576024356001600160401b0381116101ba576102d560206102b381933690600401612508565b600435600052600b825260406000208260405194838680955193849201612437565b82019081520301902054604051908152f35b346101ba5760203660031901126101ba5761030061247f565b6000546001600160a01b03919061031a90831633146126c2565b166000908152600660205260409020805460ff19169055005b346101ba5760203660031901126101ba576004356001600160401b0381116101ba5760ff61037e602061036b81943690600401612508565b8160405193828580945193849201612437565b8101600481520301902054166040519015158152f35b346101ba5760003660031901126101ba576007546040516001600160a01b039091168152602090f35b346101ba5760203660031901126101ba576004356000526002602052602060406000208054906001600160401b0360018060a01b0360018301541661040460028401612384565b9261049061041460038301612384565b61048261042360048501612384565b61047461043260058701612384565b9361046660068801549a600860078a0154990154996040519e8f9e8f908152015260408d61014091829101528d019061245a565b908b820360608d015261245a565b9089820360808b015261245a565b9087820360a089015261245a565b9360c086015260e085015260ff8116151561010085015260081c166101208301520390f35b346101ba5760603660031901126101ba576001600160401b036004356024358281116101ba576104e9903690600401612495565b6044358015158082036101ba5761050b60018060a01b036000541633146126c2565b8460005260209160028352604060002061052781541515612685565b6002810197851161066657610546856105408a546122d7565b8a61259b565b600097601f86116001146105d9576105ae9291600891877f62551f098dc964c743ead0abcbceb212117cb9f8215eff3a2bf343aff8f4cf629a9b6000916105ce575b508860011b906000198a60031b1c19161790555b019060ff801983541691151516179055565b6105c56040519485946040865260408601916125fc565b918301520390a2005b90508901358c610588565b601f19861681600052856000209060005b81811061064f5750916105ae9493917f62551f098dc964c743ead0abcbceb212117cb9f8215eff3a2bf343aff8f4cf629a9b8960089510610635575b5050600188811b01905561059c565b8a013560001960038b901b60f8161c191690558b80610626565b898c013583559a87019a60019092019187016105ea565b634e487b7160e01b600052604160045260246000fd5b346101ba5760203660031901126101ba5761069561247f565b6000546001600160a01b0391906106af90831633146126c2565b166000908152600660205260409020805460ff19166001179055005b346101ba5760003660031901126101ba576000546040516001600160a01b039091168152602090f35b346101ba5760203660031901126101ba576001600160a01b0361071561247f565b166000526006602052602060ff604060002054166040519015158152f35b346101ba5761074136612526565b90600052600a602052604060002080548210156101ba576020916107649161253c565b90546040519160031b1c8152f35b346101ba5760403660031901126101ba5760243580151581036101ba576000546001600160a01b0391908216331480156108aa575b6107b09061261d565b600435600052602091600983526040600020916107dc81600985019060ff801983541691151516179055565b6107e257005b60075416918061081d604460ff60028601541663ffffffff600487015416966040519788948593633e9988cb60e01b8552600485019061242a565b60248301525afa92831561089e5760009361086f575b508261083b57005b816002600892600161086b9501546000525260066040600020016108608582546125ef565b9055019182546125ef565b9055005b9080935081813d8311610897575b6108878183612363565b810103126101ba57519183610833565b503d61087d565b6040513d6000823e3d90fd5b503360009081526006602052604090205460ff166107a7565b346101ba5760a03660031901126101ba576004803510156101ba576024356001600160401b0381116101ba576108fd903690600401612495565b9060443563ffffffff811681036101ba576064356001600160401b0381116101ba5761092d903690600401612495565b9390916001600160401b03608435116101ba5761094f36608435600401612495565b9190953360005260036020526040600020549485156110b25785600052600260205260ff600860406000200154161561107d5763ffffffff83161561103f57811561100657600854966109a18861256a565b6008556040516109b081612311565b8881526020810190888252604081016109cb6004358261258f565b6109d6368a866124c2565b906060830191825263ffffffff881660808401526109f53688886124c2565b60a0840152426001600160401b031660c0840152610a14368a8f6124c2565b60e0840152600061010084015260006101208401528b6000526009602052604060002093835185555160018501556002840190516004811015610ff05760ff80198354169116179055518051906001600160401b038211610666578190610a8b82610a8260038801546122d7565b6003880161259b565b602090601f8311600114610f7e57600092610f73575b50508160011b916000199060031b1c19161760038301555b6004820163ffffffff60808301511663ffffffff1982541617905560a081015180516001600160401b03811161066657806005850192610b0382610afd86546122d7565b8661259b565b602090601f8311600114610f0d57600092610f02575b50508160011b916000199060031b1c19161790555b600682016001600160401b0360c0830151166001600160401b031982541617905560e08101518051906001600160401b03821161066657610b7f82610b7660078701546122d7565b6007870161259b565b602090601f8311600114610e8857928260099361012093610bdd9796600092610e7d575b50508160011b916000199060031b1c19161760078501555b61010081015160088501550151151591019060ff801983541691151516179055565b86600052600a602052604060002080546801000000000000000081101561066657610c0d9160018201815561253c565b81549060031b908a821b91600019901b191617905560043515610e1e575b60405183838237602081858101600c8152030190207f9ec8c844510c417bbce57fc5ade4d931c8ecb550916ea2139eb52df0dab6f26260406001830192610c72845461256a565b80945560043515610e06575b4260028201555481518787823780888101600081520390209382519182526020820152a2600754604051632969667560e01b8152969060209088906001600160a01b0316610cd16004808401903561242a565b63ffffffff88166024830152606060448301528180610cf46064820187896125fc565b03915afa96871561089e57600097610dc7575b5094602099610da960c0968c96610dbc9663ffffffff610d958f9d988f9d8f9e7fb7591eea93c42b99293e9a702935217fa3c0a5bf0373e745798b9036421dde709f60005260098e528b60086040600020015560005260028d526006604060002001610d748c82546125ef565b90556040519d8e9d8e610d898160043561242a565b015260c08d01916125fc565b931660408a015288830360608a01526125fc565b92608086015284830360a08601526125fc565b0390a3604051908152f35b919650919293946020823d602011610dfe575b81610de760209383612363565b810103126101ba5790519590949392916020610d07565b3d9150610dda565b610e1763ffffffff891682546125ef565b8155610c7e565b86600052600b6020526040600020602060405180928985833789820190815203019020610e5263ffffffff861682546125ef565b90558660005260026020526007604060002001610e7663ffffffff861682546125ef565b9055610c2b565b015190503880610ba3565b906007850160005260206000209160005b601f1985168110610eea57508361012093610bdd979693600193600997601f19811610610ed1575b505050811b016007850155610bbb565b015160001960f88460031b161c19169055388080610ec1565b91926020600181928685015181550194019201610e99565b015190508e80610b19565b6000858152602081209350601f198516905b818110610f5b5750908460019594939210610f42575b505050811b019055610b2e565b015160001960f88460031b161c191690558e8080610f35565b92936020600181928786015181550195019301610f1f565b015190508d80610aa1565b9250600385016000526020600020906000935b601f1984168510610fd5576001945083601f19811610610fbc575b505050811b016003830155610ab9565b015160001960f88460031b161c191690558d8080610fac565b81810151835560209485019460019093019290910190610f91565b634e487b7160e01b600052602160045260246000fd5b60405162461bcd60e51b8152602060048201526011602482015270131bd8d85d1a5bdb881c995c5d5a5c9959607a1b6044820152606490fd5b60405162461bcd60e51b8152602060048201526016602482015275436f756e74206d75737420626520706f73697469766560501b6044820152606490fd5b60405162461bcd60e51b815260206004820152600d60248201526c436c756220696e61637469766560981b6044820152606490fd5b60405162461bcd60e51b81526020600482015260156024820152742737ba1030903932b3b4b9ba32b932b21031b63ab160591b6044820152606490fd5b346101ba5761110861110036612526565b8192916125ef565b906001918254808211611399575b5061112182826126fa565b9161112b8361265a565b926111396040519485612363565b808452611148601f199161265a565b0160005b81811061133e575050805b828110611265578385604051918291602090818401828552835180915260408501928060408360051b8801019501936000905b8382106111975787870388f35b918496819592949698508190603f198b82030185528951908151815260018060a01b0383830151168382015261121e61120b6111f86111e5604086015161014080604088015286019061245a565b606080870151908683039087015261245a565b608080860151908583039086015261245a565b60a080850151908483039085015261245a565b9160c0808201519083015260e081015160e0830152610100808201511515908301526001600160401b0361012080920151169101529801920192018796959391949261118a565b8061133991600052611333600260208181526001600160401b0360406000206112bb61129189886126fa565b946040519461129f86612311565b835486528d8401546001600160a01b0316908601528201612384565b60408401526112cc60038201612384565b60608401526112dd60048201612384565b60808401526112ee60058201612384565b60a0840152600681015460c0840152600781015460e08401526008809101549060ff821615156101008501521c1661012082015261132c8289612671565b5286612671565b5061256a565b611157565b60209060405161134d81612311565b60008152826000818301526060806040840152808084015280608084015260a0830152600060c0830152600060e08301526000610100830152600061012083015282880101520161114c565b905083611116565b346101ba5760203660031901126101ba576004356001600160401b0381116101ba5760206113d481923690600401612495565b91908260405193849283378101600581520301902054604051908152f35b346101ba5760203660031901126101ba576001600160a01b0361141361247f565b1660005260036020526020604060002054604051908152f35b346101ba5760003660031901126101ba576020600854604051908152f35b346101ba5760603660031901126101ba576004356024356044356001600160401b0381116101ba57611480903690600401612495565b909160018060a01b036000541633148015611559575b61149f9061261d565b801561151f5761151a7f7a8d82c81a46f74e22b712ab1a42b6864c3a0c4033d974d9a0680ee749774a9e938560005260026020526114e36040600020541515612685565b85600052600260205260066040600020016114ff8482546125ef565b905560405193849384526040602085015260408401916125fc565b0390a2005b60405162461bcd60e51b81526020600482015260126024820152710506f696e7473206d757374206265203e20360741b6044820152606490fd5b503360009081526006602052604090205460ff16611496565b346101ba5760203660031901126101ba576004356001600160401b0381116101ba576115a9602061036b6060933690600401612508565b8101600c815203019020805490600260018201549101549060405192835260208301526040820152f35b346101ba5760203660031901126101ba576004356001600160401b0381116101ba57611609602061036b81933690600401612508565b8101600581520301902054604051908152f35b346101ba576020806003193601126101ba57600435600052600a81526040600020604051808284829454938481520190600052846000209260005b868282106118d1578461166c81860382612363565b80516116778161265a565b906116856040519283612363565b808252611694601f199161265a565b018360005b8281106118765750505060005b825181101561178157806116bd61177c9285612671565b5160005260098086526040600020604051916116d883612311565b8154835260018201548884015260ff916116fb836002830154166040860161258f565b61170760038201612384565b606085015263ffffffff600482015416608085015261172860058201612384565b60a08501526001600160401b0360068201541660c085015261174c60078201612384565b60e0850152600881015461010085015201541615156101208201526117718285612671565b526113338184612671565b6116a6565b604080518581528351818701819052600092600582901b830181019186890191899085015b8287106117b35785850386f35b909192938280600192603f198982030185528751908151815282820151838201526117e66040830151604083019061242a565b61184e61182961180660608086015190610140809187015285019061245a565b608063ffffffff81870151169085015260a080860151908583039086015261245a565b60c06001600160401b0381860151169084015260e084015183820360e085015261245a565b91610100808201519083015261012080910151151591015296019201960195929190926117a6565b60405161188281612311565b600081526000838201526000604082015260608080830152600060808301528060a0830152600060c083015260e082015260006101008201526000610120820152828286010152018490611699565b8554845260019586019587955093019201611657565b346101ba5760a03660031901126101ba5761190061247f565b6024356001600160401b0381116101ba5761191f903690600401612495565b6044929192356001600160401b0381116101ba57611941903690600401612495565b9390916064356001600160401b0381116101ba57611963903690600401612495565b94906084356001600160401b0381116101ba57611984903690600401612495565b96909561199c60018060a01b036000541633146126c2565b6001600160a01b038416156120bc576001600160a01b0384166000908152600360205260409020546120775760ff6040518a8382376020818c810160048152030190205416612032578415611ffd578115611fc657611a006001548060a05261256a565b60015560405198611a108a612311565b60a0518a526001600160a01b03851660208b0152611a2f3687896124c2565b60408b0152611a3f3682846124c2565b60608b0152611a4f3684866124c2565b60808b0152611a5f368a8a6124c2565b60a08b0152600060c08b0152600060e08b015260016101008b01526001600160401b0342166101208b015260a051600052600260205260406000209980518b5560018b0160018060a01b036020830151166bffffffffffffffffffffffff60a01b82541617905560408101518051906001600160401b038211610666578c8291611af983611af060028501546122d7565b6002850161259b565b602091601f8411600114611f545750600092611f49575b50508160011b916000199060031b1c19161760028c01555b60608101518051906001600160401b038211610666578c8291611b5b83611b5260038501546122d7565b6003850161259b565b602091601f8411600114611ed75750600092611ecc575b50508160011b916000199060031b1c19161760038c01555b60808101518051806080526001600160401b03811161066657611bbd908d6004611bb6818301546122d7565b910161259b565b6080519060208d6001601f851114611e595750608051925060009183611e4e575b50508160011b916000199060031b1c19161760048c01555b60a08101518051906001600160401b03821161066657611c1f828e6005611bb6818301546122d7565b602090601f8311600114611da5579261012060087fdb6287da9322f01813d2d3155a4ffef04aa34919204450efc1c06efecb39c30b9d9e9f85611d8b9c9b9996611d709b9996611d6299600092611d9a575b50508160011b916000199060031b1c19161760058201555b60c0840151600682015560e084015160078201550191611cbc6101008201511515849060ff801983541691151516179055565b0151815468ffffffffffffffff00191660089190911b68ffffffffffffffff00161790556001600160a01b0387166000908152600360205260a0516040918290205551818382376020818381016004815203019020600160ff19825416179055604051848682376020818681016005815203019020611d3b815461256a565b9055611d546040519a8b9a60808c5260808c01916125fc565b9189830360208b01526125fc565b9186830360408801526125fc565b90838203606085015260018060a01b03169660a051966125fc565b0390a3602060405160a0518152f35b015190503880611c71565b9060058e0160005260206000209160005b601f1985168110611e36575060087fdb6287da9322f01813d2d3155a4ffef04aa34919204450efc1c06efecb39c30b9d9e9f600186611d709b9996611d629996611d8b9f9e9c999661012097601f19811610611e1d575b505050811b016005820155611c89565b015160001960f88460031b161c19169055388080611e0d565b91926020600181928685015181550194019201611db6565b015190508d80611bde565b600490939293016000526020600020906000935b601f1984168510611eb1576001945083601f19811610611e98575b505050811b0160048c0155611bf6565b015160001960f88460031b161c191690558d8080611e88565b81810151835560209485019460019093019290910190611e6d565b015190508d80611b72565b6003919450016000526020600020906000935b601f1984168510611f2e576001945083601f19811610611f15575b505050811b0160038c0155611b8a565b015160001960f88460031b161c191690558d8080611f05565b81810151835560209485019460019093019290910190611eea565b015190508d80611b10565b6002919450016000526020600020906000935b601f1984168510611fab576001945083601f19811610611f92575b505050811b0160028c0155611b28565b015160001960f88460031b161c191690558d8080611f82565b81810151835560209485019460019093019290910190611f67565b60405162461bcd60e51b815260206004820152600f60248201526e10dbdd5b9d1e481c995c5d5a5c9959608a1b6044820152606490fd5b60405162461bcd60e51b815260206004820152600d60248201526c13985b59481c995c5d5a5c9959609a1b6044820152606490fd5b60405162461bcd60e51b815260206004820152601960248201527f5363686f6f6c20616c72656164792072656769737465726564000000000000006044820152606490fd5b60405162461bcd60e51b815260206004820152601960248201527f57616c6c657420616c72656164792072656769737465726564000000000000006044820152606490fd5b60405162461bcd60e51b815260206004820152600e60248201526d125b9d985b1a59081dd85b1b195d60921b6044820152606490fd5b346101ba576020806003193601126101ba5760405161211081612348565b6003815260005b60608082101561212e578282018401528201612117565b82846040519061213d82612348565b600382528082019060603683376040519384936040850160408652825180915260608601908460608260051b8901019401916000905b8282106121b757505050508482038584015251808252908201929160005b8281106121a057505050500390f35b835185528695509381019392810192600101612191565b91939460019193979850866121d78192605f198d82030186528a5161245a565b98019201920188979694939192612173565b346101ba5760203660031901126101ba5760043560005260096020526020604060002080549060018101546122c460ff600284015416836122b161222f60038301612384565b63ffffffff6004840154169061229e61224a60058601612384565b9161228d6001600160401b036006880154169760ff6009600861226f60078c01612384565b9a01549d0154169a6040519e8f9e8f908152015260408d019061242a565b6101408060608d01528b019061245a565b9160808a015288820360a08a015261245a565b9160c087015285820360e087015261245a565b9161010084015215156101208301520390f35b90600182811c92168015612307575b60208310146122f157565b634e487b7160e01b600052602260045260246000fd5b91607f16916122e6565b61014081019081106001600160401b0382111761066657604052565b606081019081106001600160401b0382111761066657604052565b608081019081106001600160401b0382111761066657604052565b90601f801991011681019081106001600160401b0382111761066657604052565b9060405191826000825492612398846122d7565b90818452600194858116908160001461240757506001146123c4575b50506123c292500383612363565b565b9093915060005260209081600020936000915b8183106123ef5750506123c2935082010138806123b4565b855488840185015294850194879450918301916123d7565b9150506123c294506020925060ff191682840152151560051b82010138806123b4565b906004821015610ff05752565b60005b83811061244a5750506000910152565b818101518382015260200161243a565b9060209161247381518092818552858086019101612437565b601f01601f1916010190565b600435906001600160a01b03821682036101ba57565b9181601f840112156101ba578235916001600160401b0383116101ba57602083818601950101116101ba57565b9291926001600160401b03821161066657604051916124eb601f8201601f191660200184612363565b8294818452818301116101ba578281602093846000960137010152565b9080601f830112156101ba57816020612523933591016124c2565b90565b60409060031901126101ba576004359060243590565b80548210156125545760005260206000200190600090565b634e487b7160e01b600052603260045260246000fd5b60001981146125795760010190565b634e487b7160e01b600052601160045260246000fd5b6004821015610ff05752565b90601f81116125a957505050565b600091825260208220906020601f850160051c830194106125e5575b601f0160051c01915b8281106125da57505050565b8181556001016125ce565b90925082906125c5565b9190820180921161257957565b908060209392818452848401376000828201840152601f01601f1916010190565b1561262457565b60405162461bcd60e51b815260206004820152600e60248201526d139bdd08185d5d1a1bdc9a5e995960921b6044820152606490fd5b6001600160401b0381116106665760051b60200190565b80518210156125545760209160051b010190565b1561268c57565b60405162461bcd60e51b815260206004820152600e60248201526d10db1d58881b9bdd08199bdd5b9960921b6044820152606490fd5b156126c957565b60405162461bcd60e51b81526020600482015260096024820152682737ba1037bbb732b960b91b6044820152606490fd5b919082039182116125795756fea26469706673582212201a8ba25d8dbca7c4bb02eae2741d53a6d8e8a25821597990ba9bd7c5902155b464736f6c63430008140033",
  "linkReferences": {},
  "deployedLinkReferences": {}
}