{
  "_format": "hh-sol-artifact-1",
  "contractName": "VerifierRegistry",
  "sourceName": "src/registry/VerifierRegistry.sol",
  "abi": [
    {
      "inputs": [],
      "stateMutability": "nonpayable",
      "type": "constructor"
    },
    {
      "anonymous": false,
      "inputs": [
        {
          "indexed": true,
          "internalType": "address",
          "name": "verifier",
          "type": "address"
        },
        {
          "indexed": false,
          "internalType": "string",
          "name": "organization",
          "type": "string"
        },
        {
          "indexed": false,
          "internalType": "string",
          "name": "role",
          "type": "string"
        }
      ],
      "name": "VerifierAdded",
      "type": "event"
    },
    {
      "anonymous": false,
      "inputs": [
        {
          "indexed": true,
          "internalType": "address",
          "name": "verifier",
          "type": "address"
        }
      ],
      "name": "VerifierRemoved",
      "type": "event"
    },
    {
      "anonymous": false,
      "inputs": [
        {
          "indexed": true,
          "internalType": "address",
          "name": "verifier",
          "type": "address"
        },
        {
          "indexed": false,
          "internalType": "bool",
          "name": "active",
          "type": "bool"
        }
      ],
      "name": "VerifierUpdated",
      "type": "event"
    },
    {
      "inputs": [
        {
          "internalType": "address",
          "name": "_verifier",
          "type": "address"
        },
        {
          "internalType": "string",
          "name": "_organization",
          "type": "string"
        },
        {
          "internalType": "string",
          "name": "_role",
          "type": "string"
        }
      ],
      "name": "addVerifier",
      "outputs": [],
      "stateMutability": "nonpayable",
      "type": "function"
    },
    {
      "inputs": [],
      "name": "getActiveVerifiers",
      "outputs": [
        {
          "internalType": "address[]",
          "name": "",
          "type": "address[]"
        }
      ],
      "stateMutability": "view",
      "type": "function"
    },
    {
      "inputs": [
        {
          "internalType": "address",
          "name": "_verifier",
          "type": "address"
        }
      ],
      "name": "isActiveVerifier",
      "outputs": [
        {
          "internalType": "bool",
          "name": "",
          "type": "bool"
        }
      ],
      "stateMutability": "view",
      "type": "function"
    },
    {
      "inputs": [],
      "name": "owner",
      "outputs": [
        {
          "internalType": "address",
          "name": "",
          "type": "address"
        }
      ],
      "stateMutability": "view",
      "type": "function"
    },
    {
      "inputs": [
        {
          "internalType": "address",
          "name": "_verifier",
          "type": "address"
        }
      ],
      "name": "recordVerification",
      "outputs": [],
      "stateMutability": "nonpayable",
      "type": "function"
    },
    {
      "inputs": [
        {
          "internalType": "address",
          "name": "_verifier",
          "type": "address"
        }
      ],
      "name": "removeVerifier",
      "outputs": [],
      "stateMutability": "nonpayable",
      "type": "function"
    },
    {
      "inputs": [
        {
          "internalType": "address",
          "name": "_verifier",
          "type": "address"
        },
        {
          "internalType": "bool",
          "name": "_active",
          "type": "bool"
        }
      ],
      "name": "updateVerifierStatus",
      "outputs": [],
      "stateMutability": "nonpayable",
      "type": "function"
    },
    {
      "inputs": [
        {
          "internalType": "uint256",
          "name": "",
          "type": "uint256"
        }
      ],
      "name": "verifierList",
      "outputs": [
        {
          "internalType": "address",
          "name": "",
          "type": "address"
        }
      ],
      "stateMutability": "view",
      "type": "function"
    },
    {
      "inputs": [
        {
          "internalType": "address",
          "name": "",
          "type": "address"
        }
      ],
      "name": "verifiers",
      "outputs": [
        {
          "internalType": "address",
          "name": "wallet",
          "type": "address"
        },
        {
          "internalType": "string",
          "name": "organization",
          "type": "string"
        },
        {
          "internalType": "string",
          "name": "role",
          "type": "string"
        },
        {
          "internalType": "bool",
          "name": "active",
          "type": "bool"
        },
        {
          "internalType": "uint256",
          "name": "verificationCount",
          "type": "uint256"
        },
        {
          "internalType": "uint256",
          "name": "addedDate",
          "type": "uint256"
        }
      ],
      "stateMutability": "view",
      "type": "function"
    }
  ],
  "bytecode": "0x6080806040523461002857600080546001600160a01b03191633179055610cd8908161002e8239f35b600080fdfe6080604052600436101561001257600080fd5b60003560e01c8063043157ae1461093057806357762ddd146108ee5780636b9e21fa1461040d5780636baec215146102815780636c824487146101dd578063708d45e714610180578063770d6bc11461013e5780638da5cb5b146101155763ca2dfd0a1461007f57600080fd5b34610110576020366003190112610110576100986109c3565b6000546001600160a01b0391906100b29083163314610b80565b168060005260016020526100d060ff60036040600020015416610c20565b806000526001602052600360406000200160ff1981541690557f44a3cd4eb5cc5748f6169df057b1cb2ae4c383e87cd94663c430e095d4cba424600080a2005b600080fd5b34610110576000366003190112610110576000546040516001600160a01b039091168152602090f35b34610110576020366003190112610110576001600160a01b0361015f6109c3565b166000526001602052602060ff600360406000200154166040519015158152f35b34610110576020366003190112610110576001600160a01b036101a16109c3565b168060005260016020526101bf60ff60036040600020015416610c20565b600052600160205260046040600020016101d98154610c65565b9055005b34610110576020366003190112610110576001600160a01b03806101ff6109c3565b16600052600160205260406000209081541661021d60018301610a9a565b9161022a60028201610a9a565b60ff6003830154169161026b600560048301549201549261025d604051978897885260c0602089015260c0880190610b40565b908682036040880152610b40565b9215156060850152608084015260a08301520390f35b34610110576000366003190112610110576002546000805b8281106103b857506102c36102ad82610c8a565b916102bb6040519384610a78565b808352610c8a565b6020928383019291601f19013684376000805b82821061032a5750505090604051928392818401908285525180915260408401929160005b82811061030a57505050500390f35b83516001600160a01b0316855286955093810193928101926001016102fb565b610333826109d9565b60018060a01b03809254600392831b1c166000526001885260ff81604060002001541661036d575b50509061036790610c65565b906102d6565b610376846109d9565b9054911b1c1684518210156103a2578161039b91886103679460051b88010152610c65565b908761035b565b634e487b7160e01b600052603260045260246000fd5b60ff6103c3826109d9565b9054600391821b1c6001600160a01b031660009081526001602052604090200154166103f8575b6103f390610c65565b610299565b906104056103f391610c65565b9190506103ea565b34610110576060366003190112610110576104266109c3565b60243567ffffffffffffffff811161011057610446903690600401610a10565b9060443567ffffffffffffffff811161011057610467903690600401610a10565b92909361047f60018060a01b03600054163314610b80565b6001600160a01b038116156108b7576001600160a01b03811660009081526001602052604090206003015460ff1661087d5760405160c0810181811067ffffffffffffffff8211176106d0576040526001600160a01b03821681526104e5368486610bb8565b90602081019182526104f8368789610bb8565b604082015260016060820152600060808201524260a082015260018060a01b038316600052600160205260406000209160018060a01b038251166bffffffffffffffffffffffff60a01b8454161783555180519067ffffffffffffffff82116106d057819061056a6001860154610a3e565b601f811161082a575b50602090601f83116001146107b8576000926107ad575b50508160011b916000199060031b1c19161760018301555b604081015180519067ffffffffffffffff82116106d0576105c66002850154610a3e565b601f8111610766575b50602090601f83116001146106f15791806005949260a0946000926106e6575b50508160011b916000199060031b1c19161760028501555b61062660608201511515600386019060ff801983541691151516179055565b60808101516004850155015191015560025490680100000000000000008210156106d0577f036221ad1fea0abf926934dfcc44e9de63d3e629faeb0a4fe6930afb0c320fbd9461067f8360016106cb95016002556109d9565b81546001600160a01b0385811660039390931b92831b921b1916179055604080518181529586956106b292870191610bff565b84810360208601526001600160a01b0390921696610bff565b0390a2005b634e487b7160e01b600052604160045260246000fd5b015190508b806105ef565b906002850160005260206000209160005b601f198516811061074e5750926005949260019260a09583601f19811610610735575b505050811b016002850155610607565b015160001960f88460031b161c191690558b8080610725565b91926020600181928685015181550194019201610702565b600285016000526020600020601f840160051c8101602085106107a6575b601f830160051c8201811061079a5750506105cf565b60008155600101610784565b5080610784565b01519050898061058a565b9250600185016000526020600020906000935b601f198416851061080f576001945083601f198116106107f6575b505050811b0160018301556105a2565b015160001960f88460031b161c191690558980806107e6565b818101518355602094850194600190930192909101906107cb565b909150600185016000526020600020601f840160051c810160208510610876575b90849392915b601f830160051c82018110610867575050610573565b60008155859450600101610851565b508061084b565b60405162461bcd60e51b815260206004820152601260248201527120b63932b0b23c9030903b32b934b334b2b960711b6044820152606490fd5b60405162461bcd60e51b815260206004820152600f60248201526e496e76616c6964206164647265737360881b6044820152606490fd5b3461011057602036600319011261011057600435600254811015610110576109176020916109d9565b905460405160039290921b1c6001600160a01b03168152f35b34610110576040366003190112610110576109496109c3565b6024359081151590818303610110577fba5f7031ad83095931ee4b5138591db2dc3cfc56178367622fa4b05c2efad231916109ba60209260018060a01b039061099782600054163314610b80565b1694856000526001845260036040600020019060ff801983541691151516179055565b604051908152a2005b600435906001600160a01b038216820361011057565b6002548110156103a25760026000527f405787fa12a823e0f2b7631cc41b3ba8828b3321ca811111fa75cd3aa3bb5ace0190600090565b9181601f840112156101105782359167ffffffffffffffff8311610110576020838186019501011161011057565b90600182811c92168015610a6e575b6020831014610a5857565b634e487b7160e01b600052602260045260246000fd5b91607f1691610a4d565b90601f8019910116810190811067ffffffffffffffff8211176106d057604052565b9060405191826000825492610aae84610a3e565b908184526001948581169081600014610b1d5750600114610ada575b5050610ad892500383610a78565b565b9093915060005260209081600020936000915b818310610b05575050610ad893508201013880610aca565b85548884018501529485019487945091830191610aed565b915050610ad894506020925060ff191682840152151560051b8201013880610aca565b919082519283825260005b848110610b6c575050826000602080949584010152601f8019910116010190565b602081830181015184830182015201610b4b565b15610b8757565b60405162461bcd60e51b81526020600482015260096024820152682737ba1037bbb732b960b91b6044820152606490fd5b92919267ffffffffffffffff82116106d05760405191610be2601f8201601f191660200184610a78565b829481845281830111610110578281602093846000960137010152565b908060209392818452848401376000828201840152601f01601f1916010190565b15610c2757565b60405162461bcd60e51b81526020600482015260166024820152752737ba1030b71030b1ba34bb32903b32b934b334b2b960511b6044820152606490fd5b6000198114610c745760010190565b634e487b7160e01b600052601160045260246000fd5b67ffffffffffffffff81116106d05760051b6020019056fea264697066735822122080dd4c1e27f4ca5d52166f1b91536602e4cf0765c1350346815b0b76d3adc00664736f6c63430008140033",
  "linkReferences": {},
  "deployedLinkReferences": {}
}