{
  "_format": "hh-sol-artifact-1",
  "contractName": "PointsEngine",
  "sourceName": "src/core/PointsEngine.sol",
  "abi": [
    {
      "inputs": [],
      "stateMutability": "nonpayable",
      "type": "constructor"
    },
    {
      "anonymous": false,
      "inputs": [
        {
          "indexed": true,
          "internalType": "uint256",
          "name": "activityId",
          "type": "uint256"
        },
        {
          "indexed": false,
          "internalType": "uint256",
          "name": "basePoints",
          "type": "uint256"
        },
        {
          "indexed": false,
          "internalType": "uint256",
          "name": "speciesBonus",
          "type": "uint256"
        },
        {
          "indexed": false,
          "internalType": "uint256",
          "name": "totalPoints",
          "type": "uint256"
        }
      ],
      "name": "PointsCalculated",
      "type": "event"
    },
    {
      "anonymous": false,
      "inputs": [
        {
          "indexed": true,
          "internalType": "uint256",
          "name": "seasonId",
          "type": "uint256"
        },
        {
          "indexed": false,
          "internalType": "uint256",
          "name": "startTime",
          "type": "uint256"
        }
      ],
      "name": "SeasonStarted",
      "type": "event"
    },
    {
      "inputs": [
        {
          "internalType": "enum Structs.ActivityType",
          "name": "",
          "type": "uint8"
        }
      ],
      "name": "basePoints",
      "outputs": [
        {
          "internalType": "uint256",
          "name": "",
          "type": "uint256"
        }
      ],
      "stateMutability": "view",
      "type": "function"
    },
    {
      "inputs": [
        {
          "internalType": "enum Structs.ActivityType",
          "name": "_activityType",
          "type": "uint8"
        },
        {
          "internalType": "uint32",
          "name": "_count",
          "type": "uint32"
        },
        {
          "internalType": "string",
          "name": "_species",
          "type": "string"
        }
      ],
      "name": "calculatePoints",
      "outputs": [
        {
          "internalType": "uint256",
          "name": "",
          "type": "uint256"
        }
      ],
      "stateMutability": "view",
      "type": "function"
    },
    {
      "inputs": [
        {
          "internalType": "enum Structs.ActivityType",
          "name": "_activityType",
          "type": "uint8"
        },
        {
          "internalType": "uint32",
          "name": "_count",
          "type": "uint32"
        }
      ],
      "name": "calculateVerificationBonus",
      "outputs": [
        {
          "internalType": "uint256",
          "name": "",
          "type": "uint256"
        }
      ],
      "stateMutability": "view",
      "type": "function"
    },
    {
      "inputs": [],
      "name": "currentSeason",
      "outputs": [
        {
          "internalType": "uint256",
          "name": "",
          "type": "uint256"
        }
      ],
      "stateMutability": "view",
      "type": "function"
    },
    {
      "inputs": [
        {
          "internalType": "uint256",
          "name": "_seasonId",
          "type": "uint256"
        },
        {
          "internalType": "uint256",
          "name": "_limit",
          "type": "uint256"
        }
      ],
      "name": "getSeasonLeaderboard",
      "outputs": [
        {
          "internalType": "uint256[]",
          "name": "",
          "type": "uint256[]"
        },
        {
          "internalType": "uint256[]",
          "name": "",
          "type": "uint256[]"
        }
      ],
      "stateMutability": "view",
      "type": "function"
    },
    {
      "inputs": [],
      "name": "owner",
      "outputs": [
        {
          "internalType": "address",
          "name": "",
          "type": "address"
        }
      ],
      "stateMutability": "view",
      "type": "function"
    },
    {
      "inputs": [
        {
          "internalType": "uint256",
          "name": "_clubId",
          "type": "uint256"
        },
        {
          "internalType": "uint256",
          "name": "_points",
          "type": "uint256"
        }
      ],
      "name": "recordSeasonPoints",
      "outputs": [],
      "stateMutability": "nonpayable",
      "type": "function"
    },
    {
      "inputs": [
        {
          "internalType": "uint256",
          "name": "",
          "type": "uint256"
        },
        {
          "internalType": "uint256",
          "name": "",
          "type": "uint256"
        }
      ],
      "name": "seasonPoints",
      "outputs": [
        {
          "internalType": "uint256",
          "name": "",
          "type": "uint256"
        }
      ],
      "stateMutability": "view",
      "type": "function"
    },
    {
      "inputs": [
        {
          "internalType": "string",
          "name": "",
          "type": "string"
        }
      ],
      "name": "speciesMultiplier",
      "outputs": [
        {
          "internalType": "uint256",
          "name": "",
          "type": "uint256"
        }
      ],
      "stateMutability": "view",
      "type": "function"
    },
    {
      "inputs": [],
      "name": "startNewSeason",
      "outputs": [],
      "stateMutability": "nonpayable",
      "type": "function"
    },
    {
      "inputs": [
        {
          "internalType": "enum Structs.ActivityType",
          "name": "_activityType",
          "type": "uint8"
        },
        {
          "internalType": "uint256",
          "name": "_newPoints",
          "type": "uint256"
        }
      ],
      "name": "updateBasePoints",
      "outputs": [],
      "stateMutability": "nonpayable",
      "type": "function"
    },
    {
      "inputs": [
        {
          "internalType": "string",
          "name": "_species",
          "type": "string"
        },
        {
          "internalType": "uint256",
          "name": "_multiplier",
          "type": "uint256"
        }
      ],
      "name": "updateSpeciesMultiplier",
      "outputs": [],
      "stateMutability": "nonpayable",
      "type": "function"
    },
    {
      "inputs": [
        {
          "internalType": "enum Structs.ActivityType",
          "name": "",
          "type": "uint8"
        }
      ],
      "name": "verificationBonus",
      "outputs": [
        {
          "internalType": "uint256",
          "name": "",
          "type": "uint256"
        }
      ],
      "stateMutability": "view",
      "type": "function"
    }
  ],
  "bytecode": "0x6080604090808252346100be5781600391609660266000923360018060a01b031985541617845560016004558380526001602052600a8585205560018452600585852055600284528585852055858452600485852055654e617469766560d01b815260026006820152205560786025835164119c9d5a5d60da1b815260026005820152205560646025835164135a5e195960da1b815260026005820152205580805282602052600582822055600181522055516106c790816100c48239f35b600080fdfe6040608081526004908136101561001557600080fd5b600091823560e01c80631332a486146104985780631dd2bf091461046f57806329696675146103da5780633e9988cb14610391578063878c5714146102cf57806389ea40f4146102815780638da5cb5b146102595780638e667f491461020f5780639ab62eb2146101df578063b42074c7146101ab578063b6ceb61f14610134578063bcb39621146101175763da2872c1146100b057600080fd5b3461011357816003193601126101135780359067ffffffffffffffff821161010f576100de91369101610537565b8091926100f560018060a01b038654163314610659565b519283378101906002825260208160243593030190205580f35b8380fd5b8280fd5b503461011357826003193601126101135760209250549051908152f35b50903461011357826003193601126101135761015a60018060a01b038454163314610659565b81546000198114610198577f8d160eff266df162107c57259a1f1e71787bd4ab800800826bd189d6f2f3e83c9160016020920180945551428152a280f35b634e487b7160e01b845260118352602484fd5b5091346101dc5760203660031901126101dc578235928310156101dc57506101d46020926104d7565b549051908152f35b80fd5b50503461020b57806020926101f3366105a1565b90825260058552828220908252845220549051908152f35b5080fd5b50346101135761021e366105a1565b9290825485526005602052818520908552602052832090815492830180931161024657505580f35b634e487b7160e01b845260119052602483fd5b50503461020b578160031936011261020b57905490516001600160a01b039091168152602090f35b8284346101dc5750610292366105a1565b9190506102cb6102aa6102a48461062c565b9361062c565b6102bd83519484869586528501906105b7565b9083820360208501526105b7565b0390f35b503461011357602092836003193601126101dc5781359167ffffffffffffffff908184116101135736602385011215610113578381013591821161037e5750610320601f8201601f19168601610565565b92818452366024838301011161011357918582829593602483960183860137830101528351928183859351925b8381106103695750505081016002815203019020549051908152f35b8281018201518782015286945085910161034d565b634e487b7160e01b835260419052602482fd5b5091346101dc57816003193601126101dc578235928310156101dc57506103d360209263ffffffff6103ca6103c461051f565b92610506565b549116906105eb565b9051908152f35b5091346101dc5760603660031901126101dc578235928084101561020b5761040061051f565b916044359067ffffffffffffffff82116101dc5750936103ca602061043f60649563ffffffff61043761045f97859b369101610537565b9590966104d7565b9282875193849283378101600281520301902054908115610467576105eb565b049051908152f35b8391506105eb565b5091346101dc5760203660031901126101dc578235928310156101dc57506101d4602092610506565b5090346101135736600319011261020b5780359081101561020b576104c760018060a01b038354163314610659565b6104d3602435916104d7565b5580f35b60048110156104f0576000526001602052604060002090565b634e487b7160e01b600052602160045260246000fd5b60048110156104f0576000526003602052604060002090565b6024359063ffffffff8216820361053257565b600080fd5b9181601f840112156105325782359167ffffffffffffffff8311610532576020838186019501011161053257565b6040519190601f01601f1916820167ffffffffffffffff81118382101761058b57604052565b634e487b7160e01b600052604160045260246000fd5b6040906003190112610532576004359060243590565b90815180825260208080930193019160005b8281106105d7575050505090565b8351855293810193928101926001016105c9565b818102929181159184041417156105fe57565b634e487b7160e01b600052601160045260246000fd5b67ffffffffffffffff811161058b5760051b60200190565b9061063e61063983610614565b610565565b828152809261064f601f1991610614565b0190602036910137565b1561066057565b60405162461bcd60e51b81526020600482015260096024820152682737ba1037bbb732b960b91b6044820152606490fdfea26469706673582212205cde3ad522791d3ca025814f8f957553dc7dd231a090f714e2cbbe9d4034074964736f6c63430008140033",
  "linkReferences": {},
  "deployedLinkReferences": {}
}